{
  "_format": "hh-sol-artifact-1",
  "contractName": "Lottery",
  "sourceName": "Contracts/Lottery.sol",
  "abi": [
    {
      "inputs": [
        {
          "internalType": "uint256",
          "name": "subscriptionId",
          "type": "uint256"
        },
        {
          "internalType": "address",
          "name": "vrfCoordinator",
          "type": "address"
        },
        {
          "internalType": "bytes32",
          "name": "_keyHash",
          "type": "bytes32"
        },
        {
          "internalType": "uint256",
          "name": "_interval",
          "type": "uint256"
        },
        {
          "internalType": "uint256",
          "name": "_minPlayers",
          "type": "uint256"
        }
      ],
      "stateMutability": "nonpayable",
      "type": "constructor"
    },
    {
      "inputs": [
        {
          "internalType": "address",
          "name": "have",
          "type": "address"
        },
        {
          "internalType": "address",
          "name": "want",
          "type": "address"
        }
      ],
      "name": "OnlyCoordinatorCanFulfill",
      "type": "error"
    },
    {
      "inputs": [
        {
          "internalType": "address",
          "name": "have",
          "type": "address"
        },
        {
          "internalType": "address",
          "name": "owner",
          "type": "address"
        },
        {
          "internalType": "address",
          "name": "coordinator",
          "type": "address"
        }
      ],
      "name": "OnlyOwnerOrCoordinator",
      "type": "error"
    },
    {
      "inputs": [],
      "name": "ZeroAddress",
      "type": "error"
    },
    {
      "anonymous": false,
      "inputs": [
        {
          "indexed": false,
          "internalType": "address",
          "name": "vrfCoordinator",
          "type": "address"
        }
      ],
      "name": "CoordinatorSet",
      "type": "event"
    },
    {
      "anonymous": false,
      "inputs": [
        {
          "indexed": false,
          "internalType": "uint256",
          "name": "lotteryId",
          "type": "uint256"
        }
      ],
      "name": "LotteryRoundEnded",
      "type": "event"
    },
    {
      "anonymous": false,
      "inputs": [
        {
          "indexed": false,
          "internalType": "uint256",
          "name": "newLotteryId",
          "type": "uint256"
        },
        {
          "indexed": false,
          "internalType": "uint256",
          "name": "timestamp",
          "type": "uint256"
        }
      ],
      "name": "LotteryRoundReset",
      "type": "event"
    },
    {
      "anonymous": false,
      "inputs": [
        {
          "indexed": true,
          "internalType": "address",
          "name": "from",
          "type": "address"
        },
        {
          "indexed": true,
          "internalType": "address",
          "name": "to",
          "type": "address"
        }
      ],
      "name": "OwnershipTransferRequested",
      "type": "event"
    },
    {
      "anonymous": false,
      "inputs": [
        {
          "indexed": true,
          "internalType": "address",
          "name": "from",
          "type": "address"
        },
        {
          "indexed": true,
          "internalType": "address",
          "name": "to",
          "type": "address"
        }
      ],
      "name": "OwnershipTransferred",
      "type": "event"
    },
    {
      "anonymous": false,
      "inputs": [
        {
          "indexed": false,
          "internalType": "uint256",
          "name": "requestId",
          "type": "uint256"
        }
      ],
      "name": "RandomnessRequested",
      "type": "event"
    },
    {
      "anonymous": false,
      "inputs": [
        {
          "indexed": true,
          "internalType": "address",
          "name": "buyer",
          "type": "address"
        },
        {
          "indexed": false,
          "internalType": "uint256",
          "name": "numberOfTickets",
          "type": "uint256"
        }
      ],
      "name": "TicketPurchased",
      "type": "event"
    },
    {
      "anonymous": false,
      "inputs": [
        {
          "indexed": true,
          "internalType": "address",
          "name": "winner",
          "type": "address"
        },
        {
          "indexed": false,
          "internalType": "uint256",
          "name": "prize",
          "type": "uint256"
        },
        {
          "indexed": false,
          "internalType": "uint256",
          "name": "lotteryId",
          "type": "uint256"
        }
      ],
      "name": "WinnerPicked",
      "type": "event"
    },
    {
      "inputs": [],
      "name": "ENTRY_FEE",
      "outputs": [
        {
          "internalType": "uint256",
          "name": "",
          "type": "uint256"
        }
      ],
      "stateMutability": "view",
      "type": "function"
    },
    {
      "inputs": [],
      "name": "acceptOwnership",
      "outputs": [],
      "stateMutability": "nonpayable",
      "type": "function"
    },
    {
      "inputs": [],
      "name": "callbackGasLimit",
      "outputs": [
        {
          "internalType": "uint32",
          "name": "",
          "type": "uint32"
        }
      ],
      "stateMutability": "view",
      "type": "function"
    },
    {
      "inputs": [
        {
          "internalType": "bytes",
          "name": "",
          "type": "bytes"
        }
      ],
      "name": "checkUpkeep",
      "outputs": [
        {
          "internalType": "bool",
          "name": "upkeepNeeded",
          "type": "bool"
        },
        {
          "internalType": "bytes",
          "name": "performData",
          "type": "bytes"
        }
      ],
      "stateMutability": "view",
      "type": "function"
    },
    {
      "inputs": [
        {
          "internalType": "uint256",
          "name": "numberOfTickets",
          "type": "uint256"
        }
      ],
      "name": "enterLottery",
      "outputs": [],
      "stateMutability": "payable",
      "type": "function"
    },
    {
      "inputs": [],
      "name": "getPlayers",
      "outputs": [
        {
          "internalType": "address payable[]",
          "name": "",
          "type": "address[]"
        }
      ],
      "stateMutability": "view",
      "type": "function"
    },
    {
      "inputs": [],
      "name": "i_owner",
      "outputs": [
        {
          "internalType": "address",
          "name": "",
          "type": "address"
        }
      ],
      "stateMutability": "view",
      "type": "function"
    },
    {
      "inputs": [],
      "name": "interval",
      "outputs": [
        {
          "internalType": "uint256",
          "name": "",
          "type": "uint256"
        }
      ],
      "stateMutability": "view",
      "type": "function"
    },
    {
      "inputs": [],
      "name": "keyHash",
      "outputs": [
        {
          "internalType": "bytes32",
          "name": "",
          "type": "bytes32"
        }
      ],
      "stateMutability": "view",
      "type": "function"
    },
    {
      "inputs": [],
      "name": "lastRequestId",
      "outputs": [
        {
          "internalType": "uint256",
          "name": "",
          "type": "uint256"
        }
      ],
      "stateMutability": "view",
      "type": "function"
    },
    {
      "inputs": [],
      "name": "lastTimeStamp",
      "outputs": [
        {
          "internalType": "uint256",
          "name": "",
          "type": "uint256"
        }
      ],
      "stateMutability": "view",
      "type": "function"
    },
    {
      "inputs": [],
      "name": "lotteryId",
      "outputs": [
        {
          "internalType": "uint256",
          "name": "",
          "type": "uint256"
        }
      ],
      "stateMutability": "view",
      "type": "function"
    },
    {
      "inputs": [
        {
          "internalType": "uint256",
          "name": "",
          "type": "uint256"
        }
      ],
      "name": "lotteryWinners",
      "outputs": [
        {
          "internalType": "address payable",
          "name": "",
          "type": "address"
        }
      ],
      "stateMutability": "view",
      "type": "function"
    },
    {
      "inputs": [],
      "name": "manualPickWinner",
      "outputs": [],
      "stateMutability": "nonpayable",
      "type": "function"
    },
    {
      "inputs": [],
      "name": "minPlayers",
      "outputs": [
        {
          "internalType": "uint256",
          "name": "",
          "type": "uint256"
        }
      ],
      "stateMutability": "view",
      "type": "function"
    },
    {
      "inputs": [],
      "name": "numWords",
      "outputs": [
        {
          "internalType": "uint32",
          "name": "",
          "type": "uint32"
        }
      ],
      "stateMutability": "view",
      "type": "function"
    },
    {
      "inputs": [],
      "name": "owner",
      "outputs": [
        {
          "internalType": "address",
          "name": "",
          "type": "address"
        }
      ],
      "stateMutability": "view",
      "type": "function"
    },
    {
      "inputs": [
        {
          "internalType": "bytes",
          "name": "",
          "type": "bytes"
        }
      ],
      "name": "performUpkeep",
      "outputs": [],
      "stateMutability": "nonpayable",
      "type": "function"
    },
    {
      "inputs": [
        {
          "internalType": "uint256",
          "name": "",
          "type": "uint256"
        }
      ],
      "name": "players",
      "outputs": [
        {
          "internalType": "address payable",
          "name": "",
          "type": "address"
        }
      ],
      "stateMutability": "view",
      "type": "function"
    },
    {
      "inputs": [
        {
          "internalType": "uint256",
          "name": "requestId",
          "type": "uint256"
        },
        {
          "internalType": "uint256[]",
          "name": "randomWords",
          "type": "uint256[]"
        }
      ],
      "name": "rawFulfillRandomWords",
      "outputs": [],
      "stateMutability": "nonpayable",
      "type": "function"
    },
    {
      "inputs": [],
      "name": "requestConfirmations",
      "outputs": [
        {
          "internalType": "uint16",
          "name": "",
          "type": "uint16"
        }
      ],
      "stateMutability": "view",
      "type": "function"
    },
    {
      "inputs": [],
      "name": "s_subscriptionId",
      "outputs": [
        {
          "internalType": "uint256",
          "name": "",
          "type": "uint256"
        }
      ],
      "stateMutability": "view",
      "type": "function"
    },
    {
      "inputs": [],
      "name": "s_vrfCoordinator",
      "outputs": [
        {
          "internalType": "contract IVRFCoordinatorV2Plus",
          "name": "",
          "type": "address"
        }
      ],
      "stateMutability": "view",
      "type": "function"
    },
    {
      "inputs": [
        {
          "internalType": "address",
          "name": "_vrfCoordinator",
          "type": "address"
        }
      ],
      "name": "setCoordinator",
      "outputs": [],
      "stateMutability": "nonpayable",
      "type": "function"
    },
    {
      "inputs": [
        {
          "internalType": "address",
          "name": "to",
          "type": "address"
        }
      ],
      "name": "transferOwnership",
      "outputs": [],
      "stateMutability": "nonpayable",
      "type": "function"
    },
    {
      "inputs": [
        {
          "internalType": "uint256",
          "name": "newInterval",
          "type": "uint256"
        }
      ],
      "name": "updateInterval",
      "outputs": [],
      "stateMutability": "nonpayable",
      "type": "function"
    },
    {
      "inputs": [
        {
          "internalType": "uint256",
          "name": "newMinPlayers",
          "type": "uint256"
        }
      ],
      "name": "updateMinPlayers",
      "outputs": [],
      "stateMutability": "nonpayable",
      "type": "function"
    }
  ],
  "bytecode": "0x60806040523480156200001157600080fd5b5060405162002b3338038062002b338339818101604052810190620000379190620004c2565b83338060008073ffffffffffffffffffffffffffffffffffffffff168273ffffffffffffffffffffffffffffffffffffffff1603620000ad576040517f08c379a0000000000000000000000000000000000000000000000000000000008152600401620000a490620005ab565b60405180910390fd5b816000806101000a81548173ffffffffffffffffffffffffffffffffffffffff021916908373ffffffffffffffffffffffffffffffffffffffff160217905550600073ffffffffffffffffffffffffffffffffffffffff168173ffffffffffffffffffffffffffffffffffffffff161462000134576200013381620002b360201b60201c565b5b505050600073ffffffffffffffffffffffffffffffffffffffff168173ffffffffffffffffffffffffffffffffffffffff16036200019e576040517fd92e233d00000000000000000000000000000000000000000000000000000000815260040160405180910390fd5b80600260006101000a81548173ffffffffffffffffffffffffffffffffffffffff021916908373ffffffffffffffffffffffffffffffffffffffff1602179055505033600360006101000a81548173ffffffffffffffffffffffffffffffffffffffff021916908373ffffffffffffffffffffffffffffffffffffffff1602179055508460078190555082600881905550620186a0600960006101000a81548163ffffffff021916908363ffffffff1602179055506003600960046101000a81548161ffff021916908361ffff1602179055506001600960066101000a81548163ffffffff021916908363ffffffff16021790555081600b8190555042600c8190555080600d8190555050505050506200063f565b3373ffffffffffffffffffffffffffffffffffffffff168173ffffffffffffffffffffffffffffffffffffffff160362000324576040517f08c379a00000000000000000000000000000000000000000000000000000000081526004016200031b906200061d565b60405180910390fd5b80600160006101000a81548173ffffffffffffffffffffffffffffffffffffffff021916908373ffffffffffffffffffffffffffffffffffffffff1602179055508073ffffffffffffffffffffffffffffffffffffffff1660008054906101000a900473ffffffffffffffffffffffffffffffffffffffff1673ffffffffffffffffffffffffffffffffffffffff167fed8889f560326eb138920d842192f0eb3dd22b4f139c87a2c57538e05bae127860405160405180910390a350565b600080fd5b6000819050919050565b620003fc81620003e7565b81146200040857600080fd5b50565b6000815190506200041c81620003f1565b92915050565b600073ffffffffffffffffffffffffffffffffffffffff82169050919050565b60006200044f8262000422565b9050919050565b620004618162000442565b81146200046d57600080fd5b50565b600081519050620004818162000456565b92915050565b6000819050919050565b6200049c8162000487565b8114620004a857600080fd5b50565b600081519050620004bc8162000491565b92915050565b600080600080600060a08688031215620004e157620004e0620003e2565b5b6000620004f1888289016200040b565b9550506020620005048882890162000470565b94505060406200051788828901620004ab565b93505060606200052a888289016200040b565b92505060806200053d888289016200040b565b9150509295509295909350565b600082825260208201905092915050565b7f43616e6e6f7420736574206f776e657220746f207a65726f0000000000000000600082015250565b6000620005936018836200054a565b9150620005a0826200055b565b602082019050919050565b60006020820190508181036000830152620005c68162000584565b9050919050565b7f43616e6e6f74207472616e7366657220746f2073656c66000000000000000000600082015250565b6000620006056017836200054a565b91506200061282620005cd565b602082019050919050565b600060208201905081810360008301526200063881620005f6565b9050919050565b6124e4806200064f6000396000f3fe60806040526004361061019c5760003560e01c80638ea98117116100ec578063dba6335f1161008a578063f3d7323b11610064578063f3d7323b14610574578063f6d361cc1461058b578063f71d96cb146105b6578063fc2a88c3146105f35761019c565b8063dba6335f146104f5578063e580f47b14610520578063f2fde38b1461054b5761019c565b80639eccacf6116100c65780639eccacf614610439578063b0fb162f14610464578063d0f079261461048f578063d7a1a5b9146104b85761019c565b80638ea98117146103bc5780638f4fafc8146103e5578063947a36fb1461040e5761019c565b806361728f39116101595780637ccfd7fc116101335780637ccfd7fc146103105780638ac000211461033b5780638b5b9ccc146103665780638da5cb5b146103915761019c565b806361728f39146102905780636e04ff0d146102bb57806379ba5097146102f95761019c565b80631fe543e3146101a157806324f74697146101ca5780632770c895146101f55780633f3b3b27146102205780633fd430981461024b5780634585e33b14610267575b600080fd5b3480156101ad57600080fd5b506101c860048036038101906101c391906117ed565b61061e565b005b3480156101d657600080fd5b506101df6106e4565b6040516101ec919061186c565b60405180910390f35b34801561020157600080fd5b5061020a6106fa565b6040516102179190611896565b60405180910390f35b34801561022c57600080fd5b50610235610700565b6040516102429190611896565b60405180910390f35b610265600480360381019061026091906118b1565b610706565b005b34801561027357600080fd5b5061028e60048036038101906102899190611934565b61086f565b005b34801561029c57600080fd5b506102a56108c3565b6040516102b2919061199a565b60405180910390f35b3480156102c757600080fd5b506102e260048036038101906102dd9190611934565b6108c9565b6040516102f0929190611a60565b60405180910390f35b34801561030557600080fd5b5061030e61092a565b005b34801561031c57600080fd5b50610325610abf565b604051610332919061186c565b60405180910390f35b34801561034757600080fd5b50610350610ad5565b60405161035d9190611896565b60405180910390f35b34801561037257600080fd5b5061037b610adb565b6040516103889190611b80565b60405180910390f35b34801561039d57600080fd5b506103a6610b69565b6040516103b39190611bc3565b60405180910390f35b3480156103c857600080fd5b506103e360048036038101906103de9190611c0a565b610b92565b005b3480156103f157600080fd5b5061040c600480360381019061040791906118b1565b610d73565b005b34801561041a57600080fd5b50610423610e0d565b6040516104309190611896565b60405180910390f35b34801561044557600080fd5b5061044e610e13565b60405161045b9190611c96565b60405180910390f35b34801561047057600080fd5b50610479610e39565b6040516104869190611cce565b60405180910390f35b34801561049b57600080fd5b506104b660048036038101906104b191906118b1565b610e4d565b005b3480156104c457600080fd5b506104df60048036038101906104da91906118b1565b610ee7565b6040516104ec9190611cf8565b60405180910390f35b34801561050157600080fd5b5061050a610f1a565b6040516105179190611bc3565b60405180910390f35b34801561052c57600080fd5b50610535610f40565b6040516105429190611896565b60405180910390f35b34801561055757600080fd5b50610572600480360381019061056d9190611c0a565b610f46565b005b34801561058057600080fd5b50610589610f5a565b005b34801561059757600080fd5b506105a061103c565b6040516105ad9190611896565b60405180910390f35b3480156105c257600080fd5b506105dd60048036038101906105d891906118b1565b611046565b6040516105ea9190611cf8565b60405180910390f35b3480156105ff57600080fd5b50610608611085565b6040516106159190611896565b60405180910390f35b600260009054906101000a900473ffffffffffffffffffffffffffffffffffffffff1673ffffffffffffffffffffffffffffffffffffffff163373ffffffffffffffffffffffffffffffffffffffff16146106d45733600260009054906101000a900473ffffffffffffffffffffffffffffffffffffffff166040517f1cf993f40000000000000000000000000000000000000000000000000000000081526004016106cb929190611d13565b60405180910390fd5b6106df83838361108b565b505050565b600960009054906101000a900463ffffffff1681565b600d5481565b600c5481565b60008111610749576040517f08c379a000000000000000000000000000000000000000000000000000000000815260040161074090611d99565b60405180910390fd5b80655af3107a400061075b9190611de8565b341461079c576040517f08c379a000000000000000000000000000000000000000000000000000000000815260040161079390611e76565b60405180910390fd5b60005b8181101561081d576004339080600181540180825580915050600190039060005260206000200160009091909190916101000a81548173ffffffffffffffffffffffffffffffffffffffff021916908373ffffffffffffffffffffffffffffffffffffffff160217905550808061081590611e96565b91505061079f565b503373ffffffffffffffffffffffffffffffffffffffff167f0668f5b446eb814fe35b3206f43f14bd8567ba04ddaf7a3ee56516929ab22ccb826040516108649190611896565b60405180910390a250565b6000600b54600c54426108829190611ede565b101590506000600d5460048054905010159050818061089e5750805b80156108af57506000600480549050115b156108bd576108bc61134a565b5b50505050565b60085481565b600060606000600b54600c54426108e09190611ede565b101590506000600d546004805490501015905081806108fc5750805b801561090d57506000600480549050115b935060405180602001604052806000815250925050509250929050565b600160009054906101000a900473ffffffffffffffffffffffffffffffffffffffff1673ffffffffffffffffffffffffffffffffffffffff163373ffffffffffffffffffffffffffffffffffffffff16146109ba576040517f08c379a00000000000000000000000000000000000000000000000000000000081526004016109b190611f5e565b60405180910390fd5b60008060009054906101000a900473ffffffffffffffffffffffffffffffffffffffff169050336000806101000a81548173ffffffffffffffffffffffffffffffffffffffff021916908373ffffffffffffffffffffffffffffffffffffffff1602179055506000600160006101000a81548173ffffffffffffffffffffffffffffffffffffffff021916908373ffffffffffffffffffffffffffffffffffffffff1602179055503373ffffffffffffffffffffffffffffffffffffffff168173ffffffffffffffffffffffffffffffffffffffff167f8be0079c531659141344cd1fd0a4f28419497f9722a3daafe3b4186f6b6457e060405160405180910390a350565b600960069054906101000a900463ffffffff1681565b60075481565b60606004805480602002602001604051908101604052809291908181526020018280548015610b5f57602002820191906000526020600020905b8160009054906101000a900473ffffffffffffffffffffffffffffffffffffffff1673ffffffffffffffffffffffffffffffffffffffff1681526020019060010190808311610b15575b5050505050905090565b60008060009054906101000a900473ffffffffffffffffffffffffffffffffffffffff16905090565b610b9a610b69565b73ffffffffffffffffffffffffffffffffffffffff163373ffffffffffffffffffffffffffffffffffffffff1614158015610c235750600260009054906101000a900473ffffffffffffffffffffffffffffffffffffffff1673ffffffffffffffffffffffffffffffffffffffff163373ffffffffffffffffffffffffffffffffffffffff1614155b15610c925733610c31610b69565b600260009054906101000a900473ffffffffffffffffffffffffffffffffffffffff166040517f061db9c1000000000000000000000000000000000000000000000000000000008152600401610c8993929190611f7e565b60405180910390fd5b600073ffffffffffffffffffffffffffffffffffffffff168173ffffffffffffffffffffffffffffffffffffffff1603610cf8576040517fd92e233d00000000000000000000000000000000000000000000000000000000815260040160405180910390fd5b80600260006101000a81548173ffffffffffffffffffffffffffffffffffffffff021916908373ffffffffffffffffffffffffffffffffffffffff1602179055507fd1a6a14209a385a964d036e404cb5cfb71f4000cdb03c9366292430787261be681604051610d689190611bc3565b60405180910390a150565b600360009054906101000a900473ffffffffffffffffffffffffffffffffffffffff1673ffffffffffffffffffffffffffffffffffffffff163373ffffffffffffffffffffffffffffffffffffffff1614610e03576040517f08c379a0000000000000000000000000000000000000000000000000000000008152600401610dfa90612027565b60405180910390fd5b80600d8190555050565b600b5481565b600260009054906101000a900473ffffffffffffffffffffffffffffffffffffffff1681565b600960049054906101000a900461ffff1681565b600360009054906101000a900473ffffffffffffffffffffffffffffffffffffffff1673ffffffffffffffffffffffffffffffffffffffff163373ffffffffffffffffffffffffffffffffffffffff1614610edd576040517f08c379a0000000000000000000000000000000000000000000000000000000008152600401610ed490612027565b60405180910390fd5b80600b8190555050565b60066020528060005260406000206000915054906101000a900473ffffffffffffffffffffffffffffffffffffffff1681565b600360009054906101000a900473ffffffffffffffffffffffffffffffffffffffff1681565b60055481565b610f4e6114b6565b610f5781611546565b50565b600360009054906101000a900473ffffffffffffffffffffffffffffffffffffffff1673ffffffffffffffffffffffffffffffffffffffff163373ffffffffffffffffffffffffffffffffffffffff1614610fea576040517f08c379a0000000000000000000000000000000000000000000000000000000008152600401610fe190612027565b60405180910390fd5b600060048054905011611032576040517f08c379a000000000000000000000000000000000000000000000000000000000815260040161102990612093565b60405180910390fd5b61103a61134a565b565b655af3107a400081565b6004818154811061105657600080fd5b906000526020600020016000915054906101000a900473ffffffffffffffffffffffffffffffffffffffff1681565b600a5481565b6000600480549050116110d3576040517f08c379a00000000000000000000000000000000000000000000000000000000081526004016110ca90612093565b60405180910390fd5b6000600480549050838360008181106110ef576110ee6120b3565b5b905060200201356111009190612111565b9050600060048281548110611118576111176120b3565b5b9060005260206000200160009054906101000a900473ffffffffffffffffffffffffffffffffffffffff16905060004790508160066000600554815260200190815260200160002060006101000a81548173ffffffffffffffffffffffffffffffffffffffff021916908373ffffffffffffffffffffffffffffffffffffffff16021790555060006005549050600560008154809291906111b890611e96565b9190505550600460006111cb919061170a565b42600c8190555060008373ffffffffffffffffffffffffffffffffffffffff16836040516111f890612173565b60006040518083038185875af1925050503d8060008114611235576040519150601f19603f3d011682016040523d82523d6000602084013e61123a565b606091505b505090508061127e576040517f08c379a0000000000000000000000000000000000000000000000000000000008152600401611275906121d4565b60405180910390fd5b8373ffffffffffffffffffffffffffffffffffffffff167f7e57d825a2478cc8123a008d7d1e20c0f6e8cbca89a7bc100c9b05ecb3698deb84846040516112c69291906121f4565b60405180910390a27fe194703c928e60d23be81d1f5c372b39a5adb98a7ba333dd9334414122f59e99826040516112fd9190611896565b60405180910390a17f1bbd97005f8f033b87044f2f354d3104f1730b26d30001e655b75782ce479771600554426040516113389291906121f4565b60405180910390a15050505050505050565b600260009054906101000a900473ffffffffffffffffffffffffffffffffffffffff1673ffffffffffffffffffffffffffffffffffffffff16639b1c385e6040518060c0016040528060085481526020016007548152602001600960049054906101000a900461ffff1661ffff168152602001600960009054906101000a900463ffffffff1663ffffffff168152602001600960069054906101000a900463ffffffff1663ffffffff168152602001611413604051806020016040528060001515815250611672565b8152506040518263ffffffff1660e01b8152600401611432919061232c565b6020604051808303816000875af1158015611451573d6000803e3d6000fd5b505050506040513d601f19601f820116820180604052508101906114759190612363565b600a819055507f9ac10fb18c93d33ad7b0a941897aef048d0f8d30756684e82b4552ba12764d45600a546040516114ac9190611896565b60405180910390a1565b60008054906101000a900473ffffffffffffffffffffffffffffffffffffffff1673ffffffffffffffffffffffffffffffffffffffff163373ffffffffffffffffffffffffffffffffffffffff1614611544576040517f08c379a000000000000000000000000000000000000000000000000000000000815260040161153b906123dc565b60405180910390fd5b565b3373ffffffffffffffffffffffffffffffffffffffff168173ffffffffffffffffffffffffffffffffffffffff16036115b4576040517f08c379a00000000000000000000000000000000000000000000000000000000081526004016115ab90612448565b60405180910390fd5b80600160006101000a81548173ffffffffffffffffffffffffffffffffffffffff021916908373ffffffffffffffffffffffffffffffffffffffff1602179055508073ffffffffffffffffffffffffffffffffffffffff1660008054906101000a900473ffffffffffffffffffffffffffffffffffffffff1673ffffffffffffffffffffffffffffffffffffffff167fed8889f560326eb138920d842192f0eb3dd22b4f139c87a2c57538e05bae127860405160405180910390a350565b60607f92fd13387c7fe7befbc38d303d6468778fb9731bc4583f17d92989c6fcfdeaaa826040516024016116a69190612493565b604051602081830303815290604052907bffffffffffffffffffffffffffffffffffffffffffffffffffffffff19166020820180517bffffffffffffffffffffffffffffffffffffffffffffffffffffffff83818316178352505050509050919050565b5080546000825590600052602060002090810190611728919061172b565b50565b5b8082111561174457600081600090555060010161172c565b5090565b600080fd5b600080fd5b6000819050919050565b61176581611752565b811461177057600080fd5b50565b6000813590506117828161175c565b92915050565b600080fd5b600080fd5b600080fd5b60008083601f8401126117ad576117ac611788565b5b8235905067ffffffffffffffff8111156117ca576117c961178d565b5b6020830191508360208202830111156117e6576117e5611792565b5b9250929050565b60008060006040848603121561180657611805611748565b5b600061181486828701611773565b935050602084013567ffffffffffffffff8111156118355761183461174d565b5b61184186828701611797565b92509250509250925092565b600063ffffffff82169050919050565b6118668161184d565b82525050565b6000602082019050611881600083018461185d565b92915050565b61189081611752565b82525050565b60006020820190506118ab6000830184611887565b92915050565b6000602082840312156118c7576118c6611748565b5b60006118d584828501611773565b91505092915050565b60008083601f8401126118f4576118f3611788565b5b8235905067ffffffffffffffff8111156119115761191061178d565b5b60208301915083600182028301111561192d5761192c611792565b5b9250929050565b6000806020838503121561194b5761194a611748565b5b600083013567ffffffffffffffff8111156119695761196861174d565b5b611975858286016118de565b92509250509250929050565b6000819050919050565b61199481611981565b82525050565b60006020820190506119af600083018461198b565b92915050565b60008115159050919050565b6119ca816119b5565b82525050565b600081519050919050565b600082825260208201905092915050565b60005b83811015611a0a5780820151818401526020810190506119ef565b60008484015250505050565b6000601f19601f8301169050919050565b6000611a32826119d0565b611a3c81856119db565b9350611a4c8185602086016119ec565b611a5581611a16565b840191505092915050565b6000604082019050611a7560008301856119c1565b8181036020830152611a878184611a27565b90509392505050565b600081519050919050565b600082825260208201905092915050565b6000819050602082019050919050565b600073ffffffffffffffffffffffffffffffffffffffff82169050919050565b6000611ae782611abc565b9050919050565b611af781611adc565b82525050565b6000611b098383611aee565b60208301905092915050565b6000602082019050919050565b6000611b2d82611a90565b611b378185611a9b565b9350611b4283611aac565b8060005b83811015611b73578151611b5a8882611afd565b9750611b6583611b15565b925050600181019050611b46565b5085935050505092915050565b60006020820190508181036000830152611b9a8184611b22565b905092915050565b6000611bad82611abc565b9050919050565b611bbd81611ba2565b82525050565b6000602082019050611bd86000830184611bb4565b92915050565b611be781611ba2565b8114611bf257600080fd5b50565b600081359050611c0481611bde565b92915050565b600060208284031215611c2057611c1f611748565b5b6000611c2e84828501611bf5565b91505092915050565b6000819050919050565b6000611c5c611c57611c5284611abc565b611c37565b611abc565b9050919050565b6000611c6e82611c41565b9050919050565b6000611c8082611c63565b9050919050565b611c9081611c75565b82525050565b6000602082019050611cab6000830184611c87565b92915050565b600061ffff82169050919050565b611cc881611cb1565b82525050565b6000602082019050611ce36000830184611cbf565b92915050565b611cf281611adc565b82525050565b6000602082019050611d0d6000830184611ce9565b92915050565b6000604082019050611d286000830185611bb4565b611d356020830184611bb4565b9392505050565b600082825260208201905092915050565b7f4d75737420627579206174206c65617374206f6e65207469636b657400000000600082015250565b6000611d83601c83611d3c565b9150611d8e82611d4d565b602082019050919050565b60006020820190508181036000830152611db281611d76565b9050919050565b7f4e487b7100000000000000000000000000000000000000000000000000000000600052601160045260246000fd5b6000611df382611752565b9150611dfe83611752565b9250828202611e0c81611752565b91508282048414831517611e2357611e22611db9565b5b5092915050565b7f496e636f72726563742045544820616d6f756e7420666f72207469636b657473600082015250565b6000611e60602083611d3c565b9150611e6b82611e2a565b602082019050919050565b60006020820190508181036000830152611e8f81611e53565b9050919050565b6000611ea182611752565b91507fffffffffffffffffffffffffffffffffffffffffffffffffffffffffffffffff8203611ed357611ed2611db9565b5b600182019050919050565b6000611ee982611752565b9150611ef483611752565b9250828203905081811115611f0c57611f0b611db9565b5b92915050565b7f4d7573742062652070726f706f736564206f776e657200000000000000000000600082015250565b6000611f48601683611d3c565b9150611f5382611f12565b602082019050919050565b60006020820190508181036000830152611f7781611f3b565b9050919050565b6000606082019050611f936000830186611bb4565b611fa06020830185611bb4565b611fad6040830184611bb4565b949350505050565b7f4f6e6c79206f776e65722063616e2063616c6c20746869732066756e6374696f60008201527f6e00000000000000000000000000000000000000000000000000000000000000602082015250565b6000612011602183611d3c565b915061201c82611fb5565b604082019050919050565b6000602082019050818103600083015261204081612004565b9050919050565b7f4e6f20706c617965727320656e74657265640000000000000000000000000000600082015250565b600061207d601283611d3c565b915061208882612047565b602082019050919050565b600060208201905081810360008301526120ac81612070565b9050919050565b7f4e487b7100000000000000000000000000000000000000000000000000000000600052603260045260246000fd5b7f4e487b7100000000000000000000000000000000000000000000000000000000600052601260045260246000fd5b600061211c82611752565b915061212783611752565b925082612137576121366120e2565b5b828206905092915050565b600081905092915050565b50565b600061215d600083612142565b91506121688261214d565b600082019050919050565b600061217e82612150565b9150819050919050565b7f5472616e73666572206661696c65640000000000000000000000000000000000600082015250565b60006121be600f83611d3c565b91506121c982612188565b602082019050919050565b600060208201905081810360008301526121ed816121b1565b9050919050565b60006040820190506122096000830185611887565b6122166020830184611887565b9392505050565b61222681611981565b82525050565b61223581611752565b82525050565b61224481611cb1565b82525050565b6122538161184d565b82525050565b600082825260208201905092915050565b6000612275826119d0565b61227f8185612259565b935061228f8185602086016119ec565b61229881611a16565b840191505092915050565b600060c0830160008301516122bb600086018261221d565b5060208301516122ce602086018261222c565b5060408301516122e1604086018261223b565b5060608301516122f4606086018261224a565b506080830151612307608086018261224a565b5060a083015184820360a086015261231f828261226a565b9150508091505092915050565b6000602082019050818103600083015261234681846122a3565b905092915050565b60008151905061235d8161175c565b92915050565b60006020828403121561237957612378611748565b5b60006123878482850161234e565b91505092915050565b7f4f6e6c792063616c6c61626c65206279206f776e657200000000000000000000600082015250565b60006123c6601683611d3c565b91506123d182612390565b602082019050919050565b600060208201905081810360008301526123f5816123b9565b9050919050565b7f43616e6e6f74207472616e7366657220746f2073656c66000000000000000000600082015250565b6000612432601783611d3c565b915061243d826123fc565b602082019050919050565b6000602082019050818103600083015261246181612425565b9050919050565b612471816119b5565b82525050565b60208201600082015161248d6000850182612468565b50505050565b60006020820190506124a86000830184612477565b9291505056fea2646970667358221220135fe6d07a483e80ebf25a51e699ce574f2f89c1251ba688ae1d2c860888e74d64736f6c63430008130033",
  "linkReferences": {},
  "deployedLinkReferences": {}
}