{
	"Contracts/Lottery_flattened.sol": {
		"Lottery": {
			"abi": [
				{
					"inputs": [
						{
							"internalType": "uint256",
							"name": "subscriptionId",
							"type": "uint256"
						},
						{
							"internalType": "address",
							"name": "vrfCoordinator",
							"type": "address"
						},
						{
							"internalType": "bytes32",
							"name": "_keyHash",
							"type": "bytes32"
						},
						{
							"internalType": "uint256",
							"name": "_interval",
							"type": "uint256"
						},
						{
							"internalType": "uint256",
							"name": "_minPlayers",
							"type": "uint256"
						},
						{
							"internalType": "uint256",
							"name": "_jackpotThreshold",
							"type": "uint256"
						}
					],
					"stateMutability": "nonpayable",
					"type": "constructor"
				},
				{
					"inputs": [
						{
							"internalType": "address",
							"name": "have",
							"type": "address"
						},
						{
							"internalType": "address",
							"name": "want",
							"type": "address"
						}
					],
					"name": "OnlyCoordinatorCanFulfill",
					"type": "error"
				},
				{
					"inputs": [
						{
							"internalType": "address",
							"name": "have",
							"type": "address"
						},
						{
							"internalType": "address",
							"name": "owner",
							"type": "address"
						},
						{
							"internalType": "address",
							"name": "coordinator",
							"type": "address"
						}
					],
					"name": "OnlyOwnerOrCoordinator",
					"type": "error"
				},
				{
					"inputs": [],
					"name": "ZeroAddress",
					"type": "error"
				},
				{
					"anonymous": false,
					"inputs": [
						{
							"indexed": false,
							"internalType": "address",
							"name": "vrfCoordinator",
							"type": "address"
						}
					],
					"name": "CoordinatorSet",
					"type": "event"
				},
				{
					"anonymous": false,
					"inputs": [
						{
							"indexed": false,
							"internalType": "uint256",
							"name": "lotteryId",
							"type": "uint256"
						}
					],
					"name": "LotteryRoundEnded",
					"type": "event"
				},
				{
					"anonymous": false,
					"inputs": [
						{
							"indexed": false,
							"internalType": "uint256",
							"name": "newLotteryId",
							"type": "uint256"
						},
						{
							"indexed": false,
							"internalType": "uint256",
							"name": "timestamp",
							"type": "uint256"
						}
					],
					"name": "LotteryRoundReset",
					"type": "event"
				},
				{
					"anonymous": false,
					"inputs": [
						{
							"indexed": true,
							"internalType": "address",
							"name": "from",
							"type": "address"
						},
						{
							"indexed": true,
							"internalType": "address",
							"name": "to",
							"type": "address"
						}
					],
					"name": "OwnershipTransferRequested",
					"type": "event"
				},
				{
					"anonymous": false,
					"inputs": [
						{
							"indexed": true,
							"internalType": "address",
							"name": "from",
							"type": "address"
						},
						{
							"indexed": true,
							"internalType": "address",
							"name": "to",
							"type": "address"
						}
					],
					"name": "OwnershipTransferred",
					"type": "event"
				},
				{
					"anonymous": false,
					"inputs": [
						{
							"indexed": false,
							"internalType": "uint256",
							"name": "requestId",
							"type": "uint256"
						}
					],
					"name": "RandomnessRequested",
					"type": "event"
				},
				{
					"anonymous": false,
					"inputs": [
						{
							"indexed": true,
							"internalType": "address",
							"name": "buyer",
							"type": "address"
						},
						{
							"indexed": false,
							"internalType": "uint256",
							"name": "numberOfTickets",
							"type": "uint256"
						}
					],
					"name": "TicketPurchased",
					"type": "event"
				},
				{
					"anonymous": false,
					"inputs": [
						{
							"indexed": true,
							"internalType": "address",
							"name": "winner",
							"type": "address"
						},
						{
							"indexed": false,
							"internalType": "uint256",
							"name": "prize",
							"type": "uint256"
						},
						{
							"indexed": false,
							"internalType": "uint256",
							"name": "lotteryId",
							"type": "uint256"
						}
					],
					"name": "WinnerPicked",
					"type": "event"
				},
				{
					"inputs": [],
					"name": "ENTRY_FEE",
					"outputs": [
						{
							"internalType": "uint256",
							"name": "",
							"type": "uint256"
						}
					],
					"stateMutability": "view",
					"type": "function"
				},
				{
					"inputs": [],
					"name": "acceptOwnership",
					"outputs": [],
					"stateMutability": "nonpayable",
					"type": "function"
				},
				{
					"inputs": [],
					"name": "callbackGasLimit",
					"outputs": [
						{
							"internalType": "uint32",
							"name": "",
							"type": "uint32"
						}
					],
					"stateMutability": "view",
					"type": "function"
				},
				{
					"inputs": [
						{
							"internalType": "bytes",
							"name": "",
							"type": "bytes"
						}
					],
					"name": "checkUpkeep",
					"outputs": [
						{
							"internalType": "bool",
							"name": "upkeepNeeded",
							"type": "bool"
						},
						{
							"internalType": "bytes",
							"name": "performData",
							"type": "bytes"
						}
					],
					"stateMutability": "view",
					"type": "function"
				},
				{
					"inputs": [
						{
							"internalType": "uint256",
							"name": "numberOfTickets",
							"type": "uint256"
						}
					],
					"name": "enterLottery",
					"outputs": [],
					"stateMutability": "payable",
					"type": "function"
				},
				{
					"inputs": [],
					"name": "getPlayers",
					"outputs": [
						{
							"internalType": "address payable[]",
							"name": "",
							"type": "address[]"
						}
					],
					"stateMutability": "view",
					"type": "function"
				},
				{
					"inputs": [],
					"name": "i_owner",
					"outputs": [
						{
							"internalType": "address",
							"name": "",
							"type": "address"
						}
					],
					"stateMutability": "view",
					"type": "function"
				},
				{
					"inputs": [],
					"name": "interval",
					"outputs": [
						{
							"internalType": "uint256",
							"name": "",
							"type": "uint256"
						}
					],
					"stateMutability": "view",
					"type": "function"
				},
				{
					"inputs": [],
					"name": "jackpotThreshold",
					"outputs": [
						{
							"internalType": "uint256",
							"name": "",
							"type": "uint256"
						}
					],
					"stateMutability": "view",
					"type": "function"
				},
				{
					"inputs": [],
					"name": "keyHash",
					"outputs": [
						{
							"internalType": "bytes32",
							"name": "",
							"type": "bytes32"
						}
					],
					"stateMutability": "view",
					"type": "function"
				},
				{
					"inputs": [],
					"name": "lastRequestId",
					"outputs": [
						{
							"internalType": "uint256",
							"name": "",
							"type": "uint256"
						}
					],
					"stateMutability": "view",
					"type": "function"
				},
				{
					"inputs": [],
					"name": "lastTimeStamp",
					"outputs": [
						{
							"internalType": "uint256",
							"name": "",
							"type": "uint256"
						}
					],
					"stateMutability": "view",
					"type": "function"
				},
				{
					"inputs": [],
					"name": "lotteryId",
					"outputs": [
						{
							"internalType": "uint256",
							"name": "",
							"type": "uint256"
						}
					],
					"stateMutability": "view",
					"type": "function"
				},
				{
					"inputs": [
						{
							"internalType": "uint256",
							"name": "",
							"type": "uint256"
						}
					],
					"name": "lotteryWinners",
					"outputs": [
						{
							"internalType": "address payable",
							"name": "",
							"type": "address"
						}
					],
					"stateMutability": "view",
					"type": "function"
				},
				{
					"inputs": [],
					"name": "manualPickWinner",
					"outputs": [],
					"stateMutability": "nonpayable",
					"type": "function"
				},
				{
					"inputs": [],
					"name": "minPlayers",
					"outputs": [
						{
							"internalType": "uint256",
							"name": "",
							"type": "uint256"
						}
					],
					"stateMutability": "view",
					"type": "function"
				},
				{
					"inputs": [],
					"name": "numWords",
					"outputs": [
						{
							"internalType": "uint32",
							"name": "",
							"type": "uint32"
						}
					],
					"stateMutability": "view",
					"type": "function"
				},
				{
					"inputs": [],
					"name": "owner",
					"outputs": [
						{
							"internalType": "address",
							"name": "",
							"type": "address"
						}
					],
					"stateMutability": "view",
					"type": "function"
				},
				{
					"inputs": [
						{
							"internalType": "bytes",
							"name": "",
							"type": "bytes"
						}
					],
					"name": "performUpkeep",
					"outputs": [],
					"stateMutability": "nonpayable",
					"type": "function"
				},
				{
					"inputs": [
						{
							"internalType": "uint256",
							"name": "",
							"type": "uint256"
						}
					],
					"name": "players",
					"outputs": [
						{
							"internalType": "address payable",
							"name": "",
							"type": "address"
						}
					],
					"stateMutability": "view",
					"type": "function"
				},
				{
					"inputs": [
						{
							"internalType": "uint256",
							"name": "requestId",
							"type": "uint256"
						},
						{
							"internalType": "uint256[]",
							"name": "randomWords",
							"type": "uint256[]"
						}
					],
					"name": "rawFulfillRandomWords",
					"outputs": [],
					"stateMutability": "nonpayable",
					"type": "function"
				},
				{
					"inputs": [],
					"name": "requestConfirmations",
					"outputs": [
						{
							"internalType": "uint16",
							"name": "",
							"type": "uint16"
						}
					],
					"stateMutability": "view",
					"type": "function"
				},
				{
					"inputs": [],
					"name": "s_subscriptionId",
					"outputs": [
						{
							"internalType": "uint256",
							"name": "",
							"type": "uint256"
						}
					],
					"stateMutability": "view",
					"type": "function"
				},
				{
					"inputs": [],
					"name": "s_vrfCoordinator",
					"outputs": [
						{
							"internalType": "contract IVRFCoordinatorV2Plus",
							"name": "",
							"type": "address"
						}
					],
					"stateMutability": "view",
					"type": "function"
				},
				{
					"inputs": [
						{
							"internalType": "address",
							"name": "_vrfCoordinator",
							"type": "address"
						}
					],
					"name": "setCoordinator",
					"outputs": [],
					"stateMutability": "nonpayable",
					"type": "function"
				},
				{
					"inputs": [
						{
							"internalType": "address",
							"name": "to",
							"type": "address"
						}
					],
					"name": "transferOwnership",
					"outputs": [],
					"stateMutability": "nonpayable",
					"type": "function"
				},
				{
					"inputs": [
						{
							"internalType": "uint256",
							"name": "newInterval",
							"type": "uint256"
						}
					],
					"name": "updateInterval",
					"outputs": [],
					"stateMutability": "nonpayable",
					"type": "function"
				},
				{
					"inputs": [
						{
							"internalType": "uint256",
							"name": "newThreshold",
							"type": "uint256"
						}
					],
					"name": "updateJackpotThreshold",
					"outputs": [],
					"stateMutability": "nonpayable",
					"type": "function"
				},
				{
					"inputs": [
						{
							"internalType": "uint256",
							"name": "newMinPlayers",
							"type": "uint256"
						}
					],
					"name": "updateMinPlayers",
					"outputs": [],
					"stateMutability": "nonpayable",
					"type": "function"
				}
			],
			"devdoc": {
				"kind": "dev",
				"methods": {
					"enterLottery(uint256)": {
						"params": {
							"numberOfTickets": "The number of tickets to purchase"
						}
					}
				},
				"version": 1
			},
			"evm": {
				"assembly": "    /* \"Contracts/Lottery_flattened.sol\":20656:27788  contract Lottery is VRFConsumerBaseV2Plus, AutomationCompatibleInterface {... */\n  mstore(0x40, 0x80)\n    /* \"Contracts/Lottery_flattened.sol\":22207:22949  constructor(... */\n  callvalue\n  dup1\n  iszero\n  tag_1\n  jumpi\n  0x00\n  dup1\n  revert\ntag_1:\n  pop\n  mload(0x40)\n  sub(codesize, bytecodeSize)\n  dup1\n  bytecodeSize\n  dup4\n  codecopy\n  dup2\n  dup2\n  add\n  0x40\n  mstore\n  dup2\n  add\n  swap1\n  tag_2\n  swap2\n  swap1\n  tag_3\n  jump\t// in\ntag_2:\n    /* \"Contracts/Lottery_flattened.sol\":22428:22442  vrfCoordinator */\n  dup5\n    /* \"Contracts/Lottery_flattened.sol\":16129:16139  msg.sender */\n  caller\n    /* \"Contracts/Lottery_flattened.sol\":10043:10051  newOwner */\n  dup1\n    /* \"Contracts/Lottery_flattened.sol\":10061:10062  0 */\n  0x00\n    /* \"Contracts/Lottery_flattened.sol\":8230:8231  0 */\n  dup1\n    /* \"Contracts/Lottery_flattened.sol\":8210:8232  newOwner != address(0) */\n  0xffffffffffffffffffffffffffffffffffffffff\n  and\n    /* \"Contracts/Lottery_flattened.sol\":8210:8218  newOwner */\n  dup3\n    /* \"Contracts/Lottery_flattened.sol\":8210:8232  newOwner != address(0) */\n  0xffffffffffffffffffffffffffffffffffffffff\n  and\n  sub\n    /* \"Contracts/Lottery_flattened.sol\":8202:8261  require(newOwner != address(0), \"Cannot set owner to zero\") */\n  tag_9\n  jumpi\n  mload(0x40)\n  0x08c379a000000000000000000000000000000000000000000000000000000000\n  dup2\n  mstore\n  0x04\n  add\n  tag_10\n  swap1\n  tag_11\n  jump\t// in\ntag_10:\n  mload(0x40)\n  dup1\n  swap2\n  sub\n  swap1\n  revert\ntag_9:\n    /* \"Contracts/Lottery_flattened.sol\":8278:8286  newOwner */\n  dup2\n    /* \"Contracts/Lottery_flattened.sol\":8268:8275  s_owner */\n  0x00\n  dup1\n    /* \"Contracts/Lottery_flattened.sol\":8268:8286  s_owner = newOwner */\n  0x0100\n  exp\n  dup2\n  sload\n  dup2\n  0xffffffffffffffffffffffffffffffffffffffff\n  mul\n  not\n  and\n  swap1\n  dup4\n  0xffffffffffffffffffffffffffffffffffffffff\n  and\n  mul\n  or\n  swap1\n  sstore\n  pop\n    /* \"Contracts/Lottery_flattened.sol\":8320:8321  0 */\n  0x00\n    /* \"Contracts/Lottery_flattened.sol\":8296:8322  pendingOwner != address(0) */\n  0xffffffffffffffffffffffffffffffffffffffff\n  and\n    /* \"Contracts/Lottery_flattened.sol\":8296:8308  pendingOwner */\n  dup2\n    /* \"Contracts/Lottery_flattened.sol\":8296:8322  pendingOwner != address(0) */\n  0xffffffffffffffffffffffffffffffffffffffff\n  and\n  eq\n    /* \"Contracts/Lottery_flattened.sol\":8292:8371  if (pendingOwner != address(0)) {... */\n  tag_12\n  jumpi\n    /* \"Contracts/Lottery_flattened.sol\":8332:8364  _transferOwnership(pendingOwner) */\n  tag_13\n    /* \"Contracts/Lottery_flattened.sol\":8351:8363  pendingOwner */\n  dup2\n    /* \"Contracts/Lottery_flattened.sol\":8332:8350  _transferOwnership */\n  shl(0x20, tag_14)\n    /* \"Contracts/Lottery_flattened.sol\":8332:8364  _transferOwnership(pendingOwner) */\n  0x20\n  shr\n  jump\t// in\ntag_13:\n    /* \"Contracts/Lottery_flattened.sol\":8292:8371  if (pendingOwner != address(0)) {... */\ntag_12:\n    /* \"Contracts/Lottery_flattened.sol\":8093:8375  constructor(address newOwner, address pendingOwner) {... */\n  pop\n  pop\n    /* \"Contracts/Lottery_flattened.sol\":9986:10067  constructor(address newOwner) ConfirmedOwnerWithProposal(newOwner, address(0)) {} */\n  pop\n    /* \"Contracts/Lottery_flattened.sol\":16178:16179  0 */\n  0x00\n    /* \"Contracts/Lottery_flattened.sol\":16151:16180  _vrfCoordinator == address(0) */\n  0xffffffffffffffffffffffffffffffffffffffff\n  and\n    /* \"Contracts/Lottery_flattened.sol\":16151:16166  _vrfCoordinator */\n  dup2\n    /* \"Contracts/Lottery_flattened.sol\":16151:16180  _vrfCoordinator == address(0) */\n  0xffffffffffffffffffffffffffffffffffffffff\n  and\n  sub\n    /* \"Contracts/Lottery_flattened.sol\":16147:16217  if (_vrfCoordinator == address(0)) {... */\n  tag_17\n  jumpi\n    /* \"Contracts/Lottery_flattened.sol\":16197:16210  ZeroAddress() */\n  mload(0x40)\n  0xd92e233d00000000000000000000000000000000000000000000000000000000\n  dup2\n  mstore\n  0x04\n  add\n  mload(0x40)\n  dup1\n  swap2\n  sub\n  swap1\n  revert\n    /* \"Contracts/Lottery_flattened.sol\":16147:16217  if (_vrfCoordinator == address(0)) {... */\ntag_17:\n    /* \"Contracts/Lottery_flattened.sol\":16263:16278  _vrfCoordinator */\n  dup1\n    /* \"Contracts/Lottery_flattened.sol\":16222:16238  s_vrfCoordinator */\n  0x02\n  0x00\n    /* \"Contracts/Lottery_flattened.sol\":16222:16279  s_vrfCoordinator = IVRFCoordinatorV2Plus(_vrfCoordinator) */\n  0x0100\n  exp\n  dup2\n  sload\n  dup2\n  0xffffffffffffffffffffffffffffffffffffffff\n  mul\n  not\n  and\n  swap1\n  dup4\n  0xffffffffffffffffffffffffffffffffffffffff\n  and\n  mul\n  or\n  swap1\n  sstore\n  pop\n    /* \"Contracts/Lottery_flattened.sol\":16077:16284  constructor(address _vrfCoordinator) ConfirmedOwner(msg.sender) {... */\n  pop\n    /* \"Contracts/Lottery_flattened.sol\":22464:22474  msg.sender */\n  caller\n    /* \"Contracts/Lottery_flattened.sol\":22454:22461  i_owner */\n  0x03\n  0x00\n    /* \"Contracts/Lottery_flattened.sol\":22454:22474  i_owner = msg.sender */\n  0x0100\n  exp\n  dup2\n  sload\n  dup2\n  0xffffffffffffffffffffffffffffffffffffffff\n  mul\n  not\n  and\n  swap1\n  dup4\n  0xffffffffffffffffffffffffffffffffffffffff\n  and\n  mul\n  or\n  swap1\n  sstore\n  pop\n    /* \"Contracts/Lottery_flattened.sol\":22503:22517  subscriptionId */\n  dup6\n    /* \"Contracts/Lottery_flattened.sol\":22484:22500  s_subscriptionId */\n  0x07\n    /* \"Contracts/Lottery_flattened.sol\":22484:22517  s_subscriptionId = subscriptionId */\n  dup2\n  swap1\n  sstore\n  pop\n    /* \"Contracts/Lottery_flattened.sol\":22537:22545  _keyHash */\n  dup4\n    /* \"Contracts/Lottery_flattened.sol\":22527:22534  keyHash */\n  0x08\n    /* \"Contracts/Lottery_flattened.sol\":22527:22545  keyHash = _keyHash */\n  dup2\n  swap1\n  sstore\n  pop\n    /* \"Contracts/Lottery_flattened.sol\":22631:22637  100000 */\n  0x0186a0\n    /* \"Contracts/Lottery_flattened.sol\":22612:22628  callbackGasLimit */\n  0x09\n  0x00\n    /* \"Contracts/Lottery_flattened.sol\":22612:22637  callbackGasLimit = 100000 */\n  0x0100\n  exp\n  dup2\n  sload\n  dup2\n  0xffffffff\n  mul\n  not\n  and\n  swap1\n  dup4\n  0xffffffff\n  and\n  mul\n  or\n  swap1\n  sstore\n  pop\n    /* \"Contracts/Lottery_flattened.sol\":22670:22671  3 */\n  0x03\n    /* \"Contracts/Lottery_flattened.sol\":22647:22667  requestConfirmations */\n  0x09\n  0x04\n    /* \"Contracts/Lottery_flattened.sol\":22647:22671  requestConfirmations = 3 */\n  0x0100\n  exp\n  dup2\n  sload\n  dup2\n  0xffff\n  mul\n  not\n  and\n  swap1\n  dup4\n  0xffff\n  and\n  mul\n  or\n  swap1\n  sstore\n  pop\n    /* \"Contracts/Lottery_flattened.sol\":22692:22693  1 */\n  0x01\n    /* \"Contracts/Lottery_flattened.sol\":22681:22689  numWords */\n  0x09\n  0x06\n    /* \"Contracts/Lottery_flattened.sol\":22681:22693  numWords = 1 */\n  0x0100\n  exp\n  dup2\n  sload\n  dup2\n  0xffffffff\n  mul\n  not\n  and\n  swap1\n  dup4\n  0xffffffff\n  and\n  mul\n  or\n  swap1\n  sstore\n  pop\n    /* \"Contracts/Lottery_flattened.sol\":22812:22821  _interval */\n  dup3\n    /* \"Contracts/Lottery_flattened.sol\":22801:22809  interval */\n  0x0b\n    /* \"Contracts/Lottery_flattened.sol\":22801:22821  interval = _interval */\n  dup2\n  swap1\n  sstore\n  pop\n    /* \"Contracts/Lottery_flattened.sol\":22847:22862  block.timestamp */\n  timestamp\n    /* \"Contracts/Lottery_flattened.sol\":22831:22844  lastTimeStamp */\n  0x0c\n    /* \"Contracts/Lottery_flattened.sol\":22831:22862  lastTimeStamp = block.timestamp */\n  dup2\n  swap1\n  sstore\n  pop\n    /* \"Contracts/Lottery_flattened.sol\":22885:22896  _minPlayers */\n  dup2\n    /* \"Contracts/Lottery_flattened.sol\":22872:22882  minPlayers */\n  0x0d\n    /* \"Contracts/Lottery_flattened.sol\":22872:22896  minPlayers = _minPlayers */\n  dup2\n  swap1\n  sstore\n  pop\n    /* \"Contracts/Lottery_flattened.sol\":22925:22942  _jackpotThreshold */\n  dup1\n    /* \"Contracts/Lottery_flattened.sol\":22906:22922  jackpotThreshold */\n  0x0e\n    /* \"Contracts/Lottery_flattened.sol\":22906:22942  jackpotThreshold = _jackpotThreshold */\n  dup2\n  swap1\n  sstore\n  pop\n    /* \"Contracts/Lottery_flattened.sol\":22207:22949  constructor(... */\n  pop\n  pop\n  pop\n  pop\n  pop\n  pop\n    /* \"Contracts/Lottery_flattened.sol\":20656:27788  contract Lottery is VRFConsumerBaseV2Plus, AutomationCompatibleInterface {... */\n  jump(tag_19)\n    /* \"Contracts/Lottery_flattened.sol\":9148:9387  function _transferOwnership(address to) private {... */\ntag_14:\n    /* \"Contracts/Lottery_flattened.sol\":9267:9277  msg.sender */\n  caller\n    /* \"Contracts/Lottery_flattened.sol\":9261:9277  to != msg.sender */\n  0xffffffffffffffffffffffffffffffffffffffff\n  and\n    /* \"Contracts/Lottery_flattened.sol\":9261:9263  to */\n  dup2\n    /* \"Contracts/Lottery_flattened.sol\":9261:9277  to != msg.sender */\n  0xffffffffffffffffffffffffffffffffffffffff\n  and\n  sub\n    /* \"Contracts/Lottery_flattened.sol\":9253:9305  require(to != msg.sender, \"Cannot transfer to self\") */\n  tag_21\n  jumpi\n  mload(0x40)\n  0x08c379a000000000000000000000000000000000000000000000000000000000\n  dup2\n  mstore\n  0x04\n  add\n  tag_22\n  swap1\n  tag_23\n  jump\t// in\ntag_22:\n  mload(0x40)\n  dup1\n  swap2\n  sub\n  swap1\n  revert\ntag_21:\n    /* \"Contracts/Lottery_flattened.sol\":9329:9331  to */\n  dup1\n    /* \"Contracts/Lottery_flattened.sol\":9312:9326  s_pendingOwner */\n  0x01\n  0x00\n    /* \"Contracts/Lottery_flattened.sol\":9312:9331  s_pendingOwner = to */\n  0x0100\n  exp\n  dup2\n  sload\n  dup2\n  0xffffffffffffffffffffffffffffffffffffffff\n  mul\n  not\n  and\n  swap1\n  dup4\n  0xffffffffffffffffffffffffffffffffffffffff\n  and\n  mul\n  or\n  swap1\n  sstore\n  pop\n    /* \"Contracts/Lottery_flattened.sol\":9379:9381  to */\n  dup1\n    /* \"Contracts/Lottery_flattened.sol\":9343:9382  OwnershipTransferRequested(s_owner, to) */\n  0xffffffffffffffffffffffffffffffffffffffff\n  and\n    /* \"Contracts/Lottery_flattened.sol\":9370:9377  s_owner */\n  0x00\n  dup1\n  sload\n  swap1\n  0x0100\n  exp\n  swap1\n  div\n  0xffffffffffffffffffffffffffffffffffffffff\n  and\n    /* \"Contracts/Lottery_flattened.sol\":9343:9382  OwnershipTransferRequested(s_owner, to) */\n  0xffffffffffffffffffffffffffffffffffffffff\n  and\n  0xed8889f560326eb138920d842192f0eb3dd22b4f139c87a2c57538e05bae1278\n  mload(0x40)\n  mload(0x40)\n  dup1\n  swap2\n  sub\n  swap1\n  log3\n    /* \"Contracts/Lottery_flattened.sol\":9148:9387  function _transferOwnership(address to) private {... */\n  pop\n  jump\t// out\n    /* \"#utility.yul\":88:205   */\ntag_25:\n    /* \"#utility.yul\":197:198   */\n  0x00\n    /* \"#utility.yul\":194:195   */\n  dup1\n    /* \"#utility.yul\":187:199   */\n  revert\n    /* \"#utility.yul\":334:411   */\ntag_27:\n    /* \"#utility.yul\":371:378   */\n  0x00\n    /* \"#utility.yul\":400:405   */\n  dup2\n    /* \"#utility.yul\":389:405   */\n  swap1\n  pop\n    /* \"#utility.yul\":334:411   */\n  swap2\n  swap1\n  pop\n  jump\t// out\n    /* \"#utility.yul\":417:539   */\ntag_28:\n    /* \"#utility.yul\":490:514   */\n  tag_48\n    /* \"#utility.yul\":508:513   */\n  dup2\n    /* \"#utility.yul\":490:514   */\n  tag_27\n  jump\t// in\ntag_48:\n    /* \"#utility.yul\":483:488   */\n  dup2\n    /* \"#utility.yul\":480:515   */\n  eq\n    /* \"#utility.yul\":470:533   */\n  tag_49\n  jumpi\n    /* \"#utility.yul\":529:530   */\n  0x00\n    /* \"#utility.yul\":526:527   */\n  dup1\n    /* \"#utility.yul\":519:531   */\n  revert\n    /* \"#utility.yul\":470:533   */\ntag_49:\n    /* \"#utility.yul\":417:539   */\n  pop\n  jump\t// out\n    /* \"#utility.yul\":545:688   */\ntag_29:\n    /* \"#utility.yul\":602:607   */\n  0x00\n    /* \"#utility.yul\":633:639   */\n  dup2\n    /* \"#utility.yul\":627:640   */\n  mload\n    /* \"#utility.yul\":618:640   */\n  swap1\n  pop\n    /* \"#utility.yul\":649:682   */\n  tag_51\n    /* \"#utility.yul\":676:681   */\n  dup2\n    /* \"#utility.yul\":649:682   */\n  tag_28\n  jump\t// in\ntag_51:\n    /* \"#utility.yul\":545:688   */\n  swap3\n  swap2\n  pop\n  pop\n  jump\t// out\n    /* \"#utility.yul\":694:820   */\ntag_30:\n    /* \"#utility.yul\":731:738   */\n  0x00\n    /* \"#utility.yul\":771:813   */\n  0xffffffffffffffffffffffffffffffffffffffff\n    /* \"#utility.yul\":764:769   */\n  dup3\n    /* \"#utility.yul\":760:814   */\n  and\n    /* \"#utility.yul\":749:814   */\n  swap1\n  pop\n    /* \"#utility.yul\":694:820   */\n  swap2\n  swap1\n  pop\n  jump\t// out\n    /* \"#utility.yul\":826:922   */\ntag_31:\n    /* \"#utility.yul\":863:870   */\n  0x00\n    /* \"#utility.yul\":892:916   */\n  tag_54\n    /* \"#utility.yul\":910:915   */\n  dup3\n    /* \"#utility.yul\":892:916   */\n  tag_30\n  jump\t// in\ntag_54:\n    /* \"#utility.yul\":881:916   */\n  swap1\n  pop\n    /* \"#utility.yul\":826:922   */\n  swap2\n  swap1\n  pop\n  jump\t// out\n    /* \"#utility.yul\":928:1050   */\ntag_32:\n    /* \"#utility.yul\":1001:1025   */\n  tag_56\n    /* \"#utility.yul\":1019:1024   */\n  dup2\n    /* \"#utility.yul\":1001:1025   */\n  tag_31\n  jump\t// in\ntag_56:\n    /* \"#utility.yul\":994:999   */\n  dup2\n    /* \"#utility.yul\":991:1026   */\n  eq\n    /* \"#utility.yul\":981:1044   */\n  tag_57\n  jumpi\n    /* \"#utility.yul\":1040:1041   */\n  0x00\n    /* \"#utility.yul\":1037:1038   */\n  dup1\n    /* \"#utility.yul\":1030:1042   */\n  revert\n    /* \"#utility.yul\":981:1044   */\ntag_57:\n    /* \"#utility.yul\":928:1050   */\n  pop\n  jump\t// out\n    /* \"#utility.yul\":1056:1199   */\ntag_33:\n    /* \"#utility.yul\":1113:1118   */\n  0x00\n    /* \"#utility.yul\":1144:1150   */\n  dup2\n    /* \"#utility.yul\":1138:1151   */\n  mload\n    /* \"#utility.yul\":1129:1151   */\n  swap1\n  pop\n    /* \"#utility.yul\":1160:1193   */\n  tag_59\n    /* \"#utility.yul\":1187:1192   */\n  dup2\n    /* \"#utility.yul\":1160:1193   */\n  tag_32\n  jump\t// in\ntag_59:\n    /* \"#utility.yul\":1056:1199   */\n  swap3\n  swap2\n  pop\n  pop\n  jump\t// out\n    /* \"#utility.yul\":1205:1282   */\ntag_34:\n    /* \"#utility.yul\":1242:1249   */\n  0x00\n    /* \"#utility.yul\":1271:1276   */\n  dup2\n    /* \"#utility.yul\":1260:1276   */\n  swap1\n  pop\n    /* \"#utility.yul\":1205:1282   */\n  swap2\n  swap1\n  pop\n  jump\t// out\n    /* \"#utility.yul\":1288:1410   */\ntag_35:\n    /* \"#utility.yul\":1361:1385   */\n  tag_62\n    /* \"#utility.yul\":1379:1384   */\n  dup2\n    /* \"#utility.yul\":1361:1385   */\n  tag_34\n  jump\t// in\ntag_62:\n    /* \"#utility.yul\":1354:1359   */\n  dup2\n    /* \"#utility.yul\":1351:1386   */\n  eq\n    /* \"#utility.yul\":1341:1404   */\n  tag_63\n  jumpi\n    /* \"#utility.yul\":1400:1401   */\n  0x00\n    /* \"#utility.yul\":1397:1398   */\n  dup1\n    /* \"#utility.yul\":1390:1402   */\n  revert\n    /* \"#utility.yul\":1341:1404   */\ntag_63:\n    /* \"#utility.yul\":1288:1410   */\n  pop\n  jump\t// out\n    /* \"#utility.yul\":1416:1559   */\ntag_36:\n    /* \"#utility.yul\":1473:1478   */\n  0x00\n    /* \"#utility.yul\":1504:1510   */\n  dup2\n    /* \"#utility.yul\":1498:1511   */\n  mload\n    /* \"#utility.yul\":1489:1511   */\n  swap1\n  pop\n    /* \"#utility.yul\":1520:1553   */\n  tag_65\n    /* \"#utility.yul\":1547:1552   */\n  dup2\n    /* \"#utility.yul\":1520:1553   */\n  tag_35\n  jump\t// in\ntag_65:\n    /* \"#utility.yul\":1416:1559   */\n  swap3\n  swap2\n  pop\n  pop\n  jump\t// out\n    /* \"#utility.yul\":1565:2699   */\ntag_3:\n    /* \"#utility.yul\":1680:1686   */\n  0x00\n    /* \"#utility.yul\":1688:1694   */\n  dup1\n    /* \"#utility.yul\":1696:1702   */\n  0x00\n    /* \"#utility.yul\":1704:1710   */\n  dup1\n    /* \"#utility.yul\":1712:1718   */\n  0x00\n    /* \"#utility.yul\":1720:1726   */\n  dup1\n    /* \"#utility.yul\":1769:1772   */\n  0xc0\n    /* \"#utility.yul\":1757:1766   */\n  dup8\n    /* \"#utility.yul\":1748:1755   */\n  dup10\n    /* \"#utility.yul\":1744:1767   */\n  sub\n    /* \"#utility.yul\":1740:1773   */\n  slt\n    /* \"#utility.yul\":1737:1857   */\n  iszero\n  tag_67\n  jumpi\n    /* \"#utility.yul\":1776:1855   */\n  tag_68\n  tag_25\n  jump\t// in\ntag_68:\n    /* \"#utility.yul\":1737:1857   */\ntag_67:\n    /* \"#utility.yul\":1896:1897   */\n  0x00\n    /* \"#utility.yul\":1921:1985   */\n  tag_69\n    /* \"#utility.yul\":1977:1984   */\n  dup10\n    /* \"#utility.yul\":1968:1974   */\n  dup3\n    /* \"#utility.yul\":1957:1966   */\n  dup11\n    /* \"#utility.yul\":1953:1975   */\n  add\n    /* \"#utility.yul\":1921:1985   */\n  tag_29\n  jump\t// in\ntag_69:\n    /* \"#utility.yul\":1911:1985   */\n  swap7\n  pop\n    /* \"#utility.yul\":1867:1995   */\n  pop\n    /* \"#utility.yul\":2034:2036   */\n  0x20\n    /* \"#utility.yul\":2060:2124   */\n  tag_70\n    /* \"#utility.yul\":2116:2123   */\n  dup10\n    /* \"#utility.yul\":2107:2113   */\n  dup3\n    /* \"#utility.yul\":2096:2105   */\n  dup11\n    /* \"#utility.yul\":2092:2114   */\n  add\n    /* \"#utility.yul\":2060:2124   */\n  tag_33\n  jump\t// in\ntag_70:\n    /* \"#utility.yul\":2050:2124   */\n  swap6\n  pop\n    /* \"#utility.yul\":2005:2134   */\n  pop\n    /* \"#utility.yul\":2173:2175   */\n  0x40\n    /* \"#utility.yul\":2199:2263   */\n  tag_71\n    /* \"#utility.yul\":2255:2262   */\n  dup10\n    /* \"#utility.yul\":2246:2252   */\n  dup3\n    /* \"#utility.yul\":2235:2244   */\n  dup11\n    /* \"#utility.yul\":2231:2253   */\n  add\n    /* \"#utility.yul\":2199:2263   */\n  tag_36\n  jump\t// in\ntag_71:\n    /* \"#utility.yul\":2189:2263   */\n  swap5\n  pop\n    /* \"#utility.yul\":2144:2273   */\n  pop\n    /* \"#utility.yul\":2312:2314   */\n  0x60\n    /* \"#utility.yul\":2338:2402   */\n  tag_72\n    /* \"#utility.yul\":2394:2401   */\n  dup10\n    /* \"#utility.yul\":2385:2391   */\n  dup3\n    /* \"#utility.yul\":2374:2383   */\n  dup11\n    /* \"#utility.yul\":2370:2392   */\n  add\n    /* \"#utility.yul\":2338:2402   */\n  tag_29\n  jump\t// in\ntag_72:\n    /* \"#utility.yul\":2328:2402   */\n  swap4\n  pop\n    /* \"#utility.yul\":2283:2412   */\n  pop\n    /* \"#utility.yul\":2451:2454   */\n  0x80\n    /* \"#utility.yul\":2478:2542   */\n  tag_73\n    /* \"#utility.yul\":2534:2541   */\n  dup10\n    /* \"#utility.yul\":2525:2531   */\n  dup3\n    /* \"#utility.yul\":2514:2523   */\n  dup11\n    /* \"#utility.yul\":2510:2532   */\n  add\n    /* \"#utility.yul\":2478:2542   */\n  tag_29\n  jump\t// in\ntag_73:\n    /* \"#utility.yul\":2468:2542   */\n  swap3\n  pop\n    /* \"#utility.yul\":2422:2552   */\n  pop\n    /* \"#utility.yul\":2591:2594   */\n  0xa0\n    /* \"#utility.yul\":2618:2682   */\n  tag_74\n    /* \"#utility.yul\":2674:2681   */\n  dup10\n    /* \"#utility.yul\":2665:2671   */\n  dup3\n    /* \"#utility.yul\":2654:2663   */\n  dup11\n    /* \"#utility.yul\":2650:2672   */\n  add\n    /* \"#utility.yul\":2618:2682   */\n  tag_29\n  jump\t// in\ntag_74:\n    /* \"#utility.yul\":2608:2682   */\n  swap2\n  pop\n    /* \"#utility.yul\":2562:2692   */\n  pop\n    /* \"#utility.yul\":1565:2699   */\n  swap3\n  swap6\n  pop\n  swap3\n  swap6\n  pop\n  swap3\n  swap6\n  jump\t// out\n    /* \"#utility.yul\":2705:2874   */\ntag_37:\n    /* \"#utility.yul\":2789:2800   */\n  0x00\n    /* \"#utility.yul\":2823:2829   */\n  dup3\n    /* \"#utility.yul\":2818:2821   */\n  dup3\n    /* \"#utility.yul\":2811:2830   */\n  mstore\n    /* \"#utility.yul\":2863:2867   */\n  0x20\n    /* \"#utility.yul\":2858:2861   */\n  dup3\n    /* \"#utility.yul\":2854:2868   */\n  add\n    /* \"#utility.yul\":2839:2868   */\n  swap1\n  pop\n    /* \"#utility.yul\":2705:2874   */\n  swap3\n  swap2\n  pop\n  pop\n  jump\t// out\n    /* \"#utility.yul\":2880:3054   */\ntag_38:\n    /* \"#utility.yul\":3020:3046   */\n  0x43616e6e6f7420736574206f776e657220746f207a65726f0000000000000000\n    /* \"#utility.yul\":3016:3017   */\n  0x00\n    /* \"#utility.yul\":3008:3014   */\n  dup3\n    /* \"#utility.yul\":3004:3018   */\n  add\n    /* \"#utility.yul\":2997:3047   */\n  mstore\n    /* \"#utility.yul\":2880:3054   */\n  pop\n  jump\t// out\n    /* \"#utility.yul\":3060:3426   */\ntag_39:\n    /* \"#utility.yul\":3202:3205   */\n  0x00\n    /* \"#utility.yul\":3223:3290   */\n  tag_78\n    /* \"#utility.yul\":3287:3289   */\n  0x18\n    /* \"#utility.yul\":3282:3285   */\n  dup4\n    /* \"#utility.yul\":3223:3290   */\n  tag_37\n  jump\t// in\ntag_78:\n    /* \"#utility.yul\":3216:3290   */\n  swap2\n  pop\n    /* \"#utility.yul\":3299:3392   */\n  tag_79\n    /* \"#utility.yul\":3388:3391   */\n  dup3\n    /* \"#utility.yul\":3299:3392   */\n  tag_38\n  jump\t// in\ntag_79:\n    /* \"#utility.yul\":3417:3419   */\n  0x20\n    /* \"#utility.yul\":3412:3415   */\n  dup3\n    /* \"#utility.yul\":3408:3420   */\n  add\n    /* \"#utility.yul\":3401:3420   */\n  swap1\n  pop\n    /* \"#utility.yul\":3060:3426   */\n  swap2\n  swap1\n  pop\n  jump\t// out\n    /* \"#utility.yul\":3432:3851   */\ntag_11:\n    /* \"#utility.yul\":3598:3602   */\n  0x00\n    /* \"#utility.yul\":3636:3638   */\n  0x20\n    /* \"#utility.yul\":3625:3634   */\n  dup3\n    /* \"#utility.yul\":3621:3639   */\n  add\n    /* \"#utility.yul\":3613:3639   */\n  swap1\n  pop\n    /* \"#utility.yul\":3685:3694   */\n  dup2\n    /* \"#utility.yul\":3679:3683   */\n  dup2\n    /* \"#utility.yul\":3675:3695   */\n  sub\n    /* \"#utility.yul\":3671:3672   */\n  0x00\n    /* \"#utility.yul\":3660:3669   */\n  dup4\n    /* \"#utility.yul\":3656:3673   */\n  add\n    /* \"#utility.yul\":3649:3696   */\n  mstore\n    /* \"#utility.yul\":3713:3844   */\n  tag_81\n    /* \"#utility.yul\":3839:3843   */\n  dup2\n    /* \"#utility.yul\":3713:3844   */\n  tag_39\n  jump\t// in\ntag_81:\n    /* \"#utility.yul\":3705:3844   */\n  swap1\n  pop\n    /* \"#utility.yul\":3432:3851   */\n  swap2\n  swap1\n  pop\n  jump\t// out\n    /* \"#utility.yul\":3857:4030   */\ntag_40:\n    /* \"#utility.yul\":3997:4022   */\n  0x43616e6e6f74207472616e7366657220746f2073656c66000000000000000000\n    /* \"#utility.yul\":3993:3994   */\n  0x00\n    /* \"#utility.yul\":3985:3991   */\n  dup3\n    /* \"#utility.yul\":3981:3995   */\n  add\n    /* \"#utility.yul\":3974:4023   */\n  mstore\n    /* \"#utility.yul\":3857:4030   */\n  pop\n  jump\t// out\n    /* \"#utility.yul\":4036:4402   */\ntag_41:\n    /* \"#utility.yul\":4178:4181   */\n  0x00\n    /* \"#utility.yul\":4199:4266   */\n  tag_84\n    /* \"#utility.yul\":4263:4265   */\n  0x17\n    /* \"#utility.yul\":4258:4261   */\n  dup4\n    /* \"#utility.yul\":4199:4266   */\n  tag_37\n  jump\t// in\ntag_84:\n    /* \"#utility.yul\":4192:4266   */\n  swap2\n  pop\n    /* \"#utility.yul\":4275:4368   */\n  tag_85\n    /* \"#utility.yul\":4364:4367   */\n  dup3\n    /* \"#utility.yul\":4275:4368   */\n  tag_40\n  jump\t// in\ntag_85:\n    /* \"#utility.yul\":4393:4395   */\n  0x20\n    /* \"#utility.yul\":4388:4391   */\n  dup3\n    /* \"#utility.yul\":4384:4396   */\n  add\n    /* \"#utility.yul\":4377:4396   */\n  swap1\n  pop\n    /* \"#utility.yul\":4036:4402   */\n  swap2\n  swap1\n  pop\n  jump\t// out\n    /* \"#utility.yul\":4408:4827   */\ntag_23:\n    /* \"#utility.yul\":4574:4578   */\n  0x00\n    /* \"#utility.yul\":4612:4614   */\n  0x20\n    /* \"#utility.yul\":4601:4610   */\n  dup3\n    /* \"#utility.yul\":4597:4615   */\n  add\n    /* \"#utility.yul\":4589:4615   */\n  swap1\n  pop\n    /* \"#utility.yul\":4661:4670   */\n  dup2\n    /* \"#utility.yul\":4655:4659   */\n  dup2\n    /* \"#utility.yul\":4651:4671   */\n  sub\n    /* \"#utility.yul\":4647:4648   */\n  0x00\n    /* \"#utility.yul\":4636:4645   */\n  dup4\n    /* \"#utility.yul\":4632:4649   */\n  add\n    /* \"#utility.yul\":4625:4672   */\n  mstore\n    /* \"#utility.yul\":4689:4820   */\n  tag_87\n    /* \"#utility.yul\":4815:4819   */\n  dup2\n    /* \"#utility.yul\":4689:4820   */\n  tag_41\n  jump\t// in\ntag_87:\n    /* \"#utility.yul\":4681:4820   */\n  swap1\n  pop\n    /* \"#utility.yul\":4408:4827   */\n  swap2\n  swap1\n  pop\n  jump\t// out\n    /* \"Contracts/Lottery_flattened.sol\":20656:27788  contract Lottery is VRFConsumerBaseV2Plus, AutomationCompatibleInterface {... */\ntag_19:\n  dataSize(sub_0)\n  dup1\n  dataOffset(sub_0)\n  0x00\n  codecopy\n  0x00\n  return\nstop\n\nsub_0: assembly {\n        /* \"Contracts/Lottery_flattened.sol\":20656:27788  contract Lottery is VRFConsumerBaseV2Plus, AutomationCompatibleInterface {... */\n      mstore(0x40, 0x80)\n      jumpi(tag_1, lt(calldatasize, 0x04))\n      shr(0xe0, calldataload(0x00))\n      dup1\n      0x8ea98117\n      gt\n      tag_31\n      jumpi\n      dup1\n      0xdba6335f\n      gt\n      tag_32\n      jumpi\n      dup1\n      0xf6d361cc\n      gt\n      tag_33\n      jumpi\n      dup1\n      0xf6d361cc\n      eq\n      tag_27\n      jumpi\n      dup1\n      0xf71d96cb\n      eq\n      tag_28\n      jumpi\n      dup1\n      0xf9a6cec7\n      eq\n      tag_29\n      jumpi\n      dup1\n      0xfc2a88c3\n      eq\n      tag_30\n      jumpi\n      jump(tag_1)\n    tag_33:\n      dup1\n      0xdba6335f\n      eq\n      tag_23\n      jumpi\n      dup1\n      0xe580f47b\n      eq\n      tag_24\n      jumpi\n      dup1\n      0xf2fde38b\n      eq\n      tag_25\n      jumpi\n      dup1\n      0xf3d7323b\n      eq\n      tag_26\n      jumpi\n      jump(tag_1)\n    tag_32:\n      dup1\n      0x9eccacf6\n      gt\n      tag_34\n      jumpi\n      dup1\n      0x9eccacf6\n      eq\n      tag_19\n      jumpi\n      dup1\n      0xb0fb162f\n      eq\n      tag_20\n      jumpi\n      dup1\n      0xd0f07926\n      eq\n      tag_21\n      jumpi\n      dup1\n      0xd7a1a5b9\n      eq\n      tag_22\n      jumpi\n      jump(tag_1)\n    tag_34:\n      dup1\n      0x8ea98117\n      eq\n      tag_16\n      jumpi\n      dup1\n      0x8f4fafc8\n      eq\n      tag_17\n      jumpi\n      dup1\n      0x947a36fb\n      eq\n      tag_18\n      jumpi\n      jump(tag_1)\n    tag_31:\n      dup1\n      0x61728f39\n      gt\n      tag_35\n      jumpi\n      dup1\n      0x7ccfd7fc\n      gt\n      tag_36\n      jumpi\n      dup1\n      0x7ccfd7fc\n      eq\n      tag_12\n      jumpi\n      dup1\n      0x8ac00021\n      eq\n      tag_13\n      jumpi\n      dup1\n      0x8b5b9ccc\n      eq\n      tag_14\n      jumpi\n      dup1\n      0x8da5cb5b\n      eq\n      tag_15\n      jumpi\n      jump(tag_1)\n    tag_36:\n      dup1\n      0x61728f39\n      eq\n      tag_9\n      jumpi\n      dup1\n      0x6e04ff0d\n      eq\n      tag_10\n      jumpi\n      dup1\n      0x79ba5097\n      eq\n      tag_11\n      jumpi\n      jump(tag_1)\n    tag_35:\n      dup1\n      0x3ad202b5\n      gt\n      tag_37\n      jumpi\n      dup1\n      0x3ad202b5\n      eq\n      tag_5\n      jumpi\n      dup1\n      0x3f3b3b27\n      eq\n      tag_6\n      jumpi\n      dup1\n      0x3fd43098\n      eq\n      tag_7\n      jumpi\n      dup1\n      0x4585e33b\n      eq\n      tag_8\n      jumpi\n      jump(tag_1)\n    tag_37:\n      dup1\n      0x1fe543e3\n      eq\n      tag_2\n      jumpi\n      dup1\n      0x24f74697\n      eq\n      tag_3\n      jumpi\n      dup1\n      0x2770c895\n      eq\n      tag_4\n      jumpi\n    tag_1:\n      0x00\n      dup1\n      revert\n        /* \"Contracts/Lottery_flattened.sol\":17364:17644  function rawFulfillRandomWords(uint256 requestId, uint256[] calldata randomWords) external {... */\n    tag_2:\n      callvalue\n      dup1\n      iszero\n      tag_38\n      jumpi\n      0x00\n      dup1\n      revert\n    tag_38:\n      pop\n      tag_39\n      0x04\n      dup1\n      calldatasize\n      sub\n      dup2\n      add\n      swap1\n      tag_40\n      swap2\n      swap1\n      tag_41\n      jump\t// in\n    tag_40:\n      tag_42\n      jump\t// in\n    tag_39:\n      stop\n        /* \"Contracts/Lottery_flattened.sol\":21057:21087  uint32 public callbackGasLimit */\n    tag_3:\n      callvalue\n      dup1\n      iszero\n      tag_43\n      jumpi\n      0x00\n      dup1\n      revert\n    tag_43:\n      pop\n      tag_44\n      tag_45\n      jump\t// in\n    tag_44:\n      mload(0x40)\n      tag_46\n      swap2\n      swap1\n      tag_47\n      jump\t// in\n    tag_46:\n      mload(0x40)\n      dup1\n      swap2\n      sub\n      swap1\n      return\n        /* \"Contracts/Lottery_flattened.sol\":21380:21405  uint256 public minPlayers */\n    tag_4:\n      callvalue\n      dup1\n      iszero\n      tag_48\n      jumpi\n      0x00\n      dup1\n      revert\n    tag_48:\n      pop\n      tag_49\n      tag_50\n      jump\t// in\n    tag_49:\n      mload(0x40)\n      tag_51\n      swap2\n      swap1\n      tag_52\n      jump\t// in\n    tag_51:\n      mload(0x40)\n      dup1\n      swap2\n      sub\n      swap1\n      return\n        /* \"Contracts/Lottery_flattened.sol\":21470:21501  uint256 public jackpotThreshold */\n    tag_5:\n      callvalue\n      dup1\n      iszero\n      tag_53\n      jumpi\n      0x00\n      dup1\n      revert\n    tag_53:\n      pop\n      tag_54\n      tag_55\n      jump\t// in\n    tag_54:\n      mload(0x40)\n      tag_56\n      swap2\n      swap1\n      tag_52\n      jump\t// in\n    tag_56:\n      mload(0x40)\n      dup1\n      swap2\n      sub\n      swap1\n      return\n        /* \"Contracts/Lottery_flattened.sol\":21299:21327  uint256 public lastTimeStamp */\n    tag_6:\n      callvalue\n      dup1\n      iszero\n      tag_57\n      jumpi\n      0x00\n      dup1\n      revert\n    tag_57:\n      pop\n      tag_58\n      tag_59\n      jump\t// in\n    tag_58:\n      mload(0x40)\n      tag_60\n      swap2\n      swap1\n      tag_52\n      jump\t// in\n    tag_60:\n      mload(0x40)\n      dup1\n      swap2\n      sub\n      swap1\n      return\n        /* \"Contracts/Lottery_flattened.sol\":23131:23571  function enterLottery(uint256 numberOfTickets) public payable {... */\n    tag_7:\n      tag_61\n      0x04\n      dup1\n      calldatasize\n      sub\n      dup2\n      add\n      swap1\n      tag_62\n      swap2\n      swap1\n      tag_63\n      jump\t// in\n    tag_62:\n      tag_64\n      jump\t// in\n    tag_61:\n      stop\n        /* \"Contracts/Lottery_flattened.sol\":26551:27002  function performUpkeep(bytes calldata /* performData */) external override {... */\n    tag_8:\n      callvalue\n      dup1\n      iszero\n      tag_65\n      jumpi\n      0x00\n      dup1\n      revert\n    tag_65:\n      pop\n      tag_66\n      0x04\n      dup1\n      calldatasize\n      sub\n      dup2\n      add\n      swap1\n      tag_67\n      swap2\n      swap1\n      tag_68\n      jump\t// in\n    tag_67:\n      tag_69\n      jump\t// in\n    tag_66:\n      stop\n        /* \"Contracts/Lottery_flattened.sol\":21029:21051  bytes32 public keyHash */\n    tag_9:\n      callvalue\n      dup1\n      iszero\n      tag_70\n      jumpi\n      0x00\n      dup1\n      revert\n    tag_70:\n      pop\n      tag_71\n      tag_72\n      jump\t// in\n    tag_71:\n      mload(0x40)\n      tag_73\n      swap2\n      swap1\n      tag_74\n      jump\t// in\n    tag_73:\n      mload(0x40)\n      dup1\n      swap2\n      sub\n      swap1\n      return\n        /* \"Contracts/Lottery_flattened.sol\":25817:26435  function checkUpkeep(... */\n    tag_10:\n      callvalue\n      dup1\n      iszero\n      tag_75\n      jumpi\n      0x00\n      dup1\n      revert\n    tag_75:\n      pop\n      tag_76\n      0x04\n      dup1\n      calldatasize\n      sub\n      dup2\n      add\n      swap1\n      tag_77\n      swap2\n      swap1\n      tag_68\n      jump\t// in\n    tag_77:\n      tag_78\n      jump\t// in\n    tag_76:\n      mload(0x40)\n      tag_79\n      swap3\n      swap2\n      swap1\n      tag_80\n      jump\t// in\n    tag_79:\n      mload(0x40)\n      dup1\n      swap2\n      sub\n      swap1\n      return\n        /* \"Contracts/Lottery_flattened.sol\":8638:8954  function acceptOwnership() external override {... */\n    tag_11:\n      callvalue\n      dup1\n      iszero\n      tag_81\n      jumpi\n      0x00\n      dup1\n      revert\n    tag_81:\n      pop\n      tag_82\n      tag_83\n      jump\t// in\n    tag_82:\n      stop\n        /* \"Contracts/Lottery_flattened.sol\":21133:21155  uint32 public numWords */\n    tag_12:\n      callvalue\n      dup1\n      iszero\n      tag_84\n      jumpi\n      0x00\n      dup1\n      revert\n    tag_84:\n      pop\n      tag_85\n      tag_86\n      jump\t// in\n    tag_85:\n      mload(0x40)\n      tag_87\n      swap2\n      swap1\n      tag_47\n      jump\t// in\n    tag_87:\n      mload(0x40)\n      dup1\n      swap2\n      sub\n      swap1\n      return\n        /* \"Contracts/Lottery_flattened.sol\":20992:21023  uint256 public s_subscriptionId */\n    tag_13:\n      callvalue\n      dup1\n      iszero\n      tag_88\n      jumpi\n      0x00\n      dup1\n      revert\n    tag_88:\n      pop\n      tag_89\n      tag_90\n      jump\t// in\n    tag_89:\n      mload(0x40)\n      tag_91\n      swap2\n      swap1\n      tag_52\n      jump\t// in\n    tag_91:\n      mload(0x40)\n      dup1\n      swap2\n      sub\n      swap1\n      return\n        /* \"Contracts/Lottery_flattened.sol\":27117:27217  function getPlayers() public view returns (address payable[] memory) {... */\n    tag_14:\n      callvalue\n      dup1\n      iszero\n      tag_92\n      jumpi\n      0x00\n      dup1\n      revert\n    tag_92:\n      pop\n      tag_93\n      tag_94\n      jump\t// in\n    tag_93:\n      mload(0x40)\n      tag_95\n      swap2\n      swap1\n      tag_96\n      jump\t// in\n    tag_95:\n      mload(0x40)\n      dup1\n      swap2\n      sub\n      swap1\n      return\n        /* \"Contracts/Lottery_flattened.sol\":8994:9075  function owner() public view override returns (address) {... */\n    tag_15:\n      callvalue\n      dup1\n      iszero\n      tag_97\n      jumpi\n      0x00\n      dup1\n      revert\n    tag_97:\n      pop\n      tag_98\n      tag_99\n      jump\t// in\n    tag_98:\n      mload(0x40)\n      tag_100\n      swap2\n      swap1\n      tag_101\n      jump\t// in\n    tag_100:\n      mload(0x40)\n      dup1\n      swap2\n      sub\n      swap1\n      return\n        /* \"Contracts/Lottery_flattened.sol\":17706:17982  function setCoordinator(address _vrfCoordinator) external override onlyOwnerOrCoordinator {... */\n    tag_16:\n      callvalue\n      dup1\n      iszero\n      tag_102\n      jumpi\n      0x00\n      dup1\n      revert\n    tag_102:\n      pop\n      tag_103\n      0x04\n      dup1\n      calldatasize\n      sub\n      dup2\n      add\n      swap1\n      tag_104\n      swap2\n      swap1\n      tag_105\n      jump\t// in\n    tag_104:\n      tag_106\n      jump\t// in\n    tag_103:\n      stop\n        /* \"Contracts/Lottery_flattened.sol\":27485:27597  function updateMinPlayers(uint256 newMinPlayers) external checkOwner {... */\n    tag_17:\n      callvalue\n      dup1\n      iszero\n      tag_107\n      jumpi\n      0x00\n      dup1\n      revert\n    tag_107:\n      pop\n      tag_108\n      0x04\n      dup1\n      calldatasize\n      sub\n      dup2\n      add\n      swap1\n      tag_109\n      swap2\n      swap1\n      tag_63\n      jump\t// in\n    tag_109:\n      tag_110\n      jump\t// in\n    tag_108:\n      stop\n        /* \"Contracts/Lottery_flattened.sol\":21232:21255  uint256 public interval */\n    tag_18:\n      callvalue\n      dup1\n      iszero\n      tag_111\n      jumpi\n      0x00\n      dup1\n      revert\n    tag_111:\n      pop\n      tag_112\n      tag_113\n      jump\t// in\n    tag_112:\n      mload(0x40)\n      tag_114\n      swap2\n      swap1\n      tag_52\n      jump\t// in\n    tag_114:\n      mload(0x40)\n      dup1\n      swap2\n      sub\n      swap1\n      return\n        /* \"Contracts/Lottery_flattened.sol\":15952:15997  IVRFCoordinatorV2Plus public s_vrfCoordinator */\n    tag_19:\n      callvalue\n      dup1\n      iszero\n      tag_115\n      jumpi\n      0x00\n      dup1\n      revert\n    tag_115:\n      pop\n      tag_116\n      tag_117\n      jump\t// in\n    tag_116:\n      mload(0x40)\n      tag_118\n      swap2\n      swap1\n      tag_119\n      jump\t// in\n    tag_118:\n      mload(0x40)\n      dup1\n      swap2\n      sub\n      swap1\n      return\n        /* \"Contracts/Lottery_flattened.sol\":21093:21127  uint16 public requestConfirmations */\n    tag_20:\n      callvalue\n      dup1\n      iszero\n      tag_120\n      jumpi\n      0x00\n      dup1\n      revert\n    tag_120:\n      pop\n      tag_121\n      tag_122\n      jump\t// in\n    tag_121:\n      mload(0x40)\n      tag_123\n      swap2\n      swap1\n      tag_124\n      jump\t// in\n    tag_123:\n      mload(0x40)\n      dup1\n      swap2\n      sub\n      swap1\n      return\n        /* \"Contracts/Lottery_flattened.sol\":27297:27401  function updateInterval(uint256 newInterval) external checkOwner {... */\n    tag_21:\n      callvalue\n      dup1\n      iszero\n      tag_125\n      jumpi\n      0x00\n      dup1\n      revert\n    tag_125:\n      pop\n      tag_126\n      0x04\n      dup1\n      calldatasize\n      sub\n      dup2\n      add\n      swap1\n      tag_127\n      swap2\n      swap1\n      tag_63\n      jump\t// in\n    tag_127:\n      tag_128\n      jump\t// in\n    tag_126:\n      stop\n        /* \"Contracts/Lottery_flattened.sol\":20882:20939  mapping(uint256 => address payable) public lotteryWinners */\n    tag_22:\n      callvalue\n      dup1\n      iszero\n      tag_129\n      jumpi\n      0x00\n      dup1\n      revert\n    tag_129:\n      pop\n      tag_130\n      0x04\n      dup1\n      calldatasize\n      sub\n      dup2\n      add\n      swap1\n      tag_131\n      swap2\n      swap1\n      tag_63\n      jump\t// in\n    tag_131:\n      tag_132\n      jump\t// in\n    tag_130:\n      mload(0x40)\n      tag_133\n      swap2\n      swap1\n      tag_134\n      jump\t// in\n    tag_133:\n      mload(0x40)\n      dup1\n      swap2\n      sub\n      swap1\n      return\n        /* \"Contracts/Lottery_flattened.sol\":20762:20784  address public i_owner */\n    tag_23:\n      callvalue\n      dup1\n      iszero\n      tag_135\n      jumpi\n      0x00\n      dup1\n      revert\n    tag_135:\n      pop\n      tag_136\n      tag_137\n      jump\t// in\n    tag_136:\n      mload(0x40)\n      tag_138\n      swap2\n      swap1\n      tag_101\n      jump\t// in\n    tag_138:\n      mload(0x40)\n      dup1\n      swap2\n      sub\n      swap1\n      return\n        /* \"Contracts/Lottery_flattened.sol\":20852:20876  uint256 public lotteryId */\n    tag_24:\n      callvalue\n      dup1\n      iszero\n      tag_139\n      jumpi\n      0x00\n      dup1\n      revert\n    tag_139:\n      pop\n      tag_140\n      tag_141\n      jump\t// in\n    tag_140:\n      mload(0x40)\n      tag_142\n      swap2\n      swap1\n      tag_52\n      jump\t// in\n    tag_142:\n      mload(0x40)\n      dup1\n      swap2\n      sub\n      swap1\n      return\n        /* \"Contracts/Lottery_flattened.sol\":8459:8557  function transferOwnership(address to) public override onlyOwner {... */\n    tag_25:\n      callvalue\n      dup1\n      iszero\n      tag_143\n      jumpi\n      0x00\n      dup1\n      revert\n    tag_143:\n      pop\n      tag_144\n      0x04\n      dup1\n      calldatasize\n      sub\n      dup2\n      add\n      swap1\n      tag_145\n      swap2\n      swap1\n      tag_105\n      jump\t// in\n    tag_145:\n      tag_146\n      jump\t// in\n    tag_144:\n      stop\n        /* \"Contracts/Lottery_flattened.sol\":23666:23809  function manualPickWinner() external checkOwner {... */\n    tag_26:\n      callvalue\n      dup1\n      iszero\n      tag_147\n      jumpi\n      0x00\n      dup1\n      revert\n    tag_147:\n      pop\n      tag_148\n      tag_149\n      jump\t// in\n    tag_148:\n      stop\n        /* \"Contracts/Lottery_flattened.sol\":21585:21631  uint256 public constant ENTRY_FEE = 0.01 ether */\n    tag_27:\n      callvalue\n      dup1\n      iszero\n      tag_150\n      jumpi\n      0x00\n      dup1\n      revert\n    tag_150:\n      pop\n      tag_151\n      tag_152\n      jump\t// in\n    tag_151:\n      mload(0x40)\n      tag_153\n      swap2\n      swap1\n      tag_52\n      jump\t// in\n    tag_153:\n      mload(0x40)\n      dup1\n      swap2\n      sub\n      swap1\n      return\n        /* \"Contracts/Lottery_flattened.sol\":20814:20846  address payable[] public players */\n    tag_28:\n      callvalue\n      dup1\n      iszero\n      tag_154\n      jumpi\n      0x00\n      dup1\n      revert\n    tag_154:\n      pop\n      tag_155\n      0x04\n      dup1\n      calldatasize\n      sub\n      dup2\n      add\n      swap1\n      tag_156\n      swap2\n      swap1\n      tag_63\n      jump\t// in\n    tag_156:\n      tag_157\n      jump\t// in\n    tag_155:\n      mload(0x40)\n      tag_158\n      swap2\n      swap1\n      tag_134\n      jump\t// in\n    tag_158:\n      mload(0x40)\n      dup1\n      swap2\n      sub\n      swap1\n      return\n        /* \"Contracts/Lottery_flattened.sol\":27664:27786  function updateJackpotThreshold(uint256 newThreshold) external checkOwner {... */\n    tag_29:\n      callvalue\n      dup1\n      iszero\n      tag_159\n      jumpi\n      0x00\n      dup1\n      revert\n    tag_159:\n      pop\n      tag_160\n      0x04\n      dup1\n      calldatasize\n      sub\n      dup2\n      add\n      swap1\n      tag_161\n      swap2\n      swap1\n      tag_63\n      jump\t// in\n    tag_161:\n      tag_162\n      jump\t// in\n    tag_160:\n      stop\n        /* \"Contracts/Lottery_flattened.sol\":21161:21189  uint256 public lastRequestId */\n    tag_30:\n      callvalue\n      dup1\n      iszero\n      tag_163\n      jumpi\n      0x00\n      dup1\n      revert\n    tag_163:\n      pop\n      tag_164\n      tag_165\n      jump\t// in\n    tag_164:\n      mload(0x40)\n      tag_166\n      swap2\n      swap1\n      tag_52\n      jump\t// in\n    tag_166:\n      mload(0x40)\n      dup1\n      swap2\n      sub\n      swap1\n      return\n        /* \"Contracts/Lottery_flattened.sol\":17364:17644  function rawFulfillRandomWords(uint256 requestId, uint256[] calldata randomWords) external {... */\n    tag_42:\n        /* \"Contracts/Lottery_flattened.sol\":17487:17503  s_vrfCoordinator */\n      0x02\n      0x00\n      swap1\n      sload\n      swap1\n      0x0100\n      exp\n      swap1\n      div\n      0xffffffffffffffffffffffffffffffffffffffff\n      and\n        /* \"Contracts/Lottery_flattened.sol\":17465:17504  msg.sender != address(s_vrfCoordinator) */\n      0xffffffffffffffffffffffffffffffffffffffff\n      and\n        /* \"Contracts/Lottery_flattened.sol\":17465:17475  msg.sender */\n      caller\n        /* \"Contracts/Lottery_flattened.sol\":17465:17504  msg.sender != address(s_vrfCoordinator) */\n      0xffffffffffffffffffffffffffffffffffffffff\n      and\n      eq\n        /* \"Contracts/Lottery_flattened.sol\":17461:17592  if (msg.sender != address(s_vrfCoordinator)) {... */\n      tag_168\n      jumpi\n        /* \"Contracts/Lottery_flattened.sol\":17547:17557  msg.sender */\n      caller\n        /* \"Contracts/Lottery_flattened.sol\":17567:17583  s_vrfCoordinator */\n      0x02\n      0x00\n      swap1\n      sload\n      swap1\n      0x0100\n      exp\n      swap1\n      div\n      0xffffffffffffffffffffffffffffffffffffffff\n      and\n        /* \"Contracts/Lottery_flattened.sol\":17521:17585  OnlyCoordinatorCanFulfill(msg.sender, address(s_vrfCoordinator)) */\n      mload(0x40)\n      0x1cf993f400000000000000000000000000000000000000000000000000000000\n      dup2\n      mstore\n      0x04\n      add\n      tag_169\n      swap3\n      swap2\n      swap1\n      tag_170\n      jump\t// in\n    tag_169:\n      mload(0x40)\n      dup1\n      swap2\n      sub\n      swap1\n      revert\n        /* \"Contracts/Lottery_flattened.sol\":17461:17592  if (msg.sender != address(s_vrfCoordinator)) {... */\n    tag_168:\n        /* \"Contracts/Lottery_flattened.sol\":17597:17639  fulfillRandomWords(requestId, randomWords) */\n      tag_171\n        /* \"Contracts/Lottery_flattened.sol\":17616:17625  requestId */\n      dup4\n        /* \"Contracts/Lottery_flattened.sol\":17627:17638  randomWords */\n      dup4\n      dup4\n        /* \"Contracts/Lottery_flattened.sol\":17597:17615  fulfillRandomWords */\n      tag_172\n        /* \"Contracts/Lottery_flattened.sol\":17597:17639  fulfillRandomWords(requestId, randomWords) */\n      jump\t// in\n    tag_171:\n        /* \"Contracts/Lottery_flattened.sol\":17364:17644  function rawFulfillRandomWords(uint256 requestId, uint256[] calldata randomWords) external {... */\n      pop\n      pop\n      pop\n      jump\t// out\n        /* \"Contracts/Lottery_flattened.sol\":21057:21087  uint32 public callbackGasLimit */\n    tag_45:\n      0x09\n      0x00\n      swap1\n      sload\n      swap1\n      0x0100\n      exp\n      swap1\n      div\n      0xffffffff\n      and\n      dup2\n      jump\t// out\n        /* \"Contracts/Lottery_flattened.sol\":21380:21405  uint256 public minPlayers */\n    tag_50:\n      sload(0x0d)\n      dup2\n      jump\t// out\n        /* \"Contracts/Lottery_flattened.sol\":21470:21501  uint256 public jackpotThreshold */\n    tag_55:\n      sload(0x0e)\n      dup2\n      jump\t// out\n        /* \"Contracts/Lottery_flattened.sol\":21299:21327  uint256 public lastTimeStamp */\n    tag_59:\n      sload(0x0c)\n      dup2\n      jump\t// out\n        /* \"Contracts/Lottery_flattened.sol\":23131:23571  function enterLottery(uint256 numberOfTickets) public payable {... */\n    tag_64:\n        /* \"Contracts/Lottery_flattened.sol\":23229:23230  0 */\n      0x00\n        /* \"Contracts/Lottery_flattened.sol\":23211:23226  numberOfTickets */\n      dup2\n        /* \"Contracts/Lottery_flattened.sol\":23211:23230  numberOfTickets > 0 */\n      gt\n        /* \"Contracts/Lottery_flattened.sol\":23203:23263  require(numberOfTickets > 0, \"Must buy at least one ticket\") */\n      tag_174\n      jumpi\n      mload(0x40)\n      0x08c379a000000000000000000000000000000000000000000000000000000000\n      dup2\n      mstore\n      0x04\n      add\n      tag_175\n      swap1\n      tag_176\n      jump\t// in\n    tag_175:\n      mload(0x40)\n      dup1\n      swap2\n      sub\n      swap1\n      revert\n    tag_174:\n        /* \"Contracts/Lottery_flattened.sol\":23319:23334  numberOfTickets */\n      dup1\n        /* \"Contracts/Lottery_flattened.sol\":21621:21631  0.01 ether */\n      0x2386f26fc10000\n        /* \"Contracts/Lottery_flattened.sol\":23307:23334  ENTRY_FEE * numberOfTickets */\n      tag_177\n      swap2\n      swap1\n      tag_178\n      jump\t// in\n    tag_177:\n        /* \"Contracts/Lottery_flattened.sol\":23294:23303  msg.value */\n      callvalue\n        /* \"Contracts/Lottery_flattened.sol\":23294:23334  msg.value == ENTRY_FEE * numberOfTickets */\n      eq\n        /* \"Contracts/Lottery_flattened.sol\":23273:23392  require(... */\n      tag_179\n      jumpi\n      mload(0x40)\n      0x08c379a000000000000000000000000000000000000000000000000000000000\n      dup2\n      mstore\n      0x04\n      add\n      tag_180\n      swap1\n      tag_181\n      jump\t// in\n    tag_180:\n      mload(0x40)\n      dup1\n      swap2\n      sub\n      swap1\n      revert\n    tag_179:\n        /* \"Contracts/Lottery_flattened.sol\":23407:23416  uint256 i */\n      0x00\n        /* \"Contracts/Lottery_flattened.sol\":23402:23506  for (uint256 i = 0; i < numberOfTickets; i++) {... */\n    tag_182:\n        /* \"Contracts/Lottery_flattened.sol\":23426:23441  numberOfTickets */\n      dup2\n        /* \"Contracts/Lottery_flattened.sol\":23422:23423  i */\n      dup2\n        /* \"Contracts/Lottery_flattened.sol\":23422:23441  i < numberOfTickets */\n      lt\n        /* \"Contracts/Lottery_flattened.sol\":23402:23506  for (uint256 i = 0; i < numberOfTickets; i++) {... */\n      iszero\n      tag_183\n      jumpi\n        /* \"Contracts/Lottery_flattened.sol\":23462:23469  players */\n      0x04\n        /* \"Contracts/Lottery_flattened.sol\":23483:23493  msg.sender */\n      caller\n        /* \"Contracts/Lottery_flattened.sol\":23462:23495  players.push(payable(msg.sender)) */\n      swap1\n      dup1\n      0x01\n      dup2\n      sload\n      add\n      dup1\n      dup3\n      sstore\n      dup1\n      swap2\n      pop\n      pop\n      0x01\n      swap1\n      sub\n      swap1\n      0x00\n      mstore\n      keccak256(0x00, 0x20)\n      add\n      0x00\n      swap1\n      swap2\n      swap1\n      swap2\n      swap1\n      swap2\n      0x0100\n      exp\n      dup2\n      sload\n      dup2\n      0xffffffffffffffffffffffffffffffffffffffff\n      mul\n      not\n      and\n      swap1\n      dup4\n      0xffffffffffffffffffffffffffffffffffffffff\n      and\n      mul\n      or\n      swap1\n      sstore\n      pop\n        /* \"Contracts/Lottery_flattened.sol\":23443:23446  i++ */\n      dup1\n      dup1\n      tag_186\n      swap1\n      tag_187\n      jump\t// in\n    tag_186:\n      swap2\n      pop\n      pop\n        /* \"Contracts/Lottery_flattened.sol\":23402:23506  for (uint256 i = 0; i < numberOfTickets; i++) {... */\n      jump(tag_182)\n    tag_183:\n      pop\n        /* \"Contracts/Lottery_flattened.sol\":23536:23546  msg.sender */\n      caller\n        /* \"Contracts/Lottery_flattened.sol\":23520:23564  TicketPurchased(msg.sender, numberOfTickets) */\n      0xffffffffffffffffffffffffffffffffffffffff\n      and\n      0x0668f5b446eb814fe35b3206f43f14bd8567ba04ddaf7a3ee56516929ab22ccb\n        /* \"Contracts/Lottery_flattened.sol\":23548:23563  numberOfTickets */\n      dup3\n        /* \"Contracts/Lottery_flattened.sol\":23520:23564  TicketPurchased(msg.sender, numberOfTickets) */\n      mload(0x40)\n      tag_188\n      swap2\n      swap1\n      tag_52\n      jump\t// in\n    tag_188:\n      mload(0x40)\n      dup1\n      swap2\n      sub\n      swap1\n      log2\n        /* \"Contracts/Lottery_flattened.sol\":23131:23571  function enterLottery(uint256 numberOfTickets) public payable {... */\n      pop\n      jump\t// out\n        /* \"Contracts/Lottery_flattened.sol\":26551:27002  function performUpkeep(bytes calldata /* performData */) external override {... */\n    tag_69:\n        /* \"Contracts/Lottery_flattened.sol\":26636:26651  bool timePassed */\n      0x00\n        /* \"Contracts/Lottery_flattened.sol\":26691:26699  interval */\n      sload(0x0b)\n        /* \"Contracts/Lottery_flattened.sol\":26673:26686  lastTimeStamp */\n      sload(0x0c)\n        /* \"Contracts/Lottery_flattened.sol\":26655:26670  block.timestamp */\n      timestamp\n        /* \"Contracts/Lottery_flattened.sol\":26655:26686  block.timestamp - lastTimeStamp */\n      tag_190\n      swap2\n      swap1\n      tag_191\n      jump\t// in\n    tag_190:\n        /* \"Contracts/Lottery_flattened.sol\":26654:26699  (block.timestamp - lastTimeStamp) >= interval */\n      lt\n      iszero\n        /* \"Contracts/Lottery_flattened.sol\":26636:26699  bool timePassed = (block.timestamp - lastTimeStamp) >= interval */\n      swap1\n      pop\n        /* \"Contracts/Lottery_flattened.sol\":26709:26727  bool enoughPlayers */\n      0x00\n        /* \"Contracts/Lottery_flattened.sol\":26748:26758  minPlayers */\n      sload(0x0d)\n        /* \"Contracts/Lottery_flattened.sol\":26730:26737  players */\n      0x04\n        /* \"Contracts/Lottery_flattened.sol\":26730:26744  players.length */\n      dup1\n      sload\n      swap1\n      pop\n        /* \"Contracts/Lottery_flattened.sol\":26730:26758  players.length >= minPlayers */\n      lt\n      iszero\n        /* \"Contracts/Lottery_flattened.sol\":26709:26758  bool enoughPlayers = players.length >= minPlayers */\n      swap1\n      pop\n        /* \"Contracts/Lottery_flattened.sol\":26768:26787  bool jackpotReached */\n      0x00\n        /* \"Contracts/Lottery_flattened.sol\":26815:26831  jackpotThreshold */\n      sload(0x0e)\n        /* \"Contracts/Lottery_flattened.sol\":26790:26811  address(this).balance */\n      selfbalance\n        /* \"Contracts/Lottery_flattened.sol\":26790:26831  address(this).balance >= jackpotThreshold */\n      lt\n      iszero\n        /* \"Contracts/Lottery_flattened.sol\":26768:26831  bool jackpotReached = address(this).balance >= jackpotThreshold */\n      swap1\n      pop\n        /* \"Contracts/Lottery_flattened.sol\":26859:26869  timePassed */\n      dup3\n        /* \"Contracts/Lottery_flattened.sol\":26859:26886  timePassed || enoughPlayers */\n      dup1\n      tag_192\n      jumpi\n      pop\n        /* \"Contracts/Lottery_flattened.sol\":26873:26886  enoughPlayers */\n      dup2\n        /* \"Contracts/Lottery_flattened.sol\":26859:26886  timePassed || enoughPlayers */\n    tag_192:\n        /* \"Contracts/Lottery_flattened.sol\":26859:26904  timePassed || enoughPlayers || jackpotReached */\n      dup1\n      tag_193\n      jumpi\n      pop\n        /* \"Contracts/Lottery_flattened.sol\":26890:26904  jackpotReached */\n      dup1\n        /* \"Contracts/Lottery_flattened.sol\":26859:26904  timePassed || enoughPlayers || jackpotReached */\n    tag_193:\n        /* \"Contracts/Lottery_flattened.sol\":26858:26941  (timePassed || enoughPlayers || jackpotReached) &&... */\n      dup1\n      iszero\n      tag_194\n      jumpi\n      pop\n        /* \"Contracts/Lottery_flattened.sol\":26939:26940  0 */\n      0x00\n        /* \"Contracts/Lottery_flattened.sol\":26922:26929  players */\n      0x04\n        /* \"Contracts/Lottery_flattened.sol\":26922:26936  players.length */\n      dup1\n      sload\n      swap1\n      pop\n        /* \"Contracts/Lottery_flattened.sol\":26922:26940  players.length > 0 */\n      gt\n        /* \"Contracts/Lottery_flattened.sol\":26858:26941  (timePassed || enoughPlayers || jackpotReached) &&... */\n    tag_194:\n        /* \"Contracts/Lottery_flattened.sol\":26841:26996  if (... */\n      iszero\n      tag_195\n      jumpi\n        /* \"Contracts/Lottery_flattened.sol\":26966:26985  _startLotteryDraw() */\n      tag_196\n        /* \"Contracts/Lottery_flattened.sol\":26966:26983  _startLotteryDraw */\n      tag_197\n        /* \"Contracts/Lottery_flattened.sol\":26966:26985  _startLotteryDraw() */\n      jump\t// in\n    tag_196:\n        /* \"Contracts/Lottery_flattened.sol\":26841:26996  if (... */\n    tag_195:\n        /* \"Contracts/Lottery_flattened.sol\":26626:27002  {... */\n      pop\n      pop\n      pop\n        /* \"Contracts/Lottery_flattened.sol\":26551:27002  function performUpkeep(bytes calldata /* performData */) external override {... */\n      pop\n      pop\n      jump\t// out\n        /* \"Contracts/Lottery_flattened.sol\":21029:21051  bytes32 public keyHash */\n    tag_72:\n      sload(0x08)\n      dup2\n      jump\t// out\n        /* \"Contracts/Lottery_flattened.sol\":25817:26435  function checkUpkeep(... */\n    tag_78:\n        /* \"Contracts/Lottery_flattened.sol\":25948:25965  bool upkeepNeeded */\n      0x00\n        /* \"Contracts/Lottery_flattened.sol\":25967:25991  bytes memory performData */\n      0x60\n        /* \"Contracts/Lottery_flattened.sol\":26007:26022  bool timePassed */\n      0x00\n        /* \"Contracts/Lottery_flattened.sol\":26062:26070  interval */\n      sload(0x0b)\n        /* \"Contracts/Lottery_flattened.sol\":26044:26057  lastTimeStamp */\n      sload(0x0c)\n        /* \"Contracts/Lottery_flattened.sol\":26026:26041  block.timestamp */\n      timestamp\n        /* \"Contracts/Lottery_flattened.sol\":26026:26057  block.timestamp - lastTimeStamp */\n      tag_199\n      swap2\n      swap1\n      tag_191\n      jump\t// in\n    tag_199:\n        /* \"Contracts/Lottery_flattened.sol\":26025:26070  (block.timestamp - lastTimeStamp) >= interval */\n      lt\n      iszero\n        /* \"Contracts/Lottery_flattened.sol\":26007:26070  bool timePassed = (block.timestamp - lastTimeStamp) >= interval */\n      swap1\n      pop\n        /* \"Contracts/Lottery_flattened.sol\":26080:26098  bool enoughPlayers */\n      0x00\n        /* \"Contracts/Lottery_flattened.sol\":26119:26129  minPlayers */\n      sload(0x0d)\n        /* \"Contracts/Lottery_flattened.sol\":26101:26108  players */\n      0x04\n        /* \"Contracts/Lottery_flattened.sol\":26101:26115  players.length */\n      dup1\n      sload\n      swap1\n      pop\n        /* \"Contracts/Lottery_flattened.sol\":26101:26129  players.length >= minPlayers */\n      lt\n      iszero\n        /* \"Contracts/Lottery_flattened.sol\":26080:26129  bool enoughPlayers = players.length >= minPlayers */\n      swap1\n      pop\n        /* \"Contracts/Lottery_flattened.sol\":26139:26158  bool jackpotReached */\n      0x00\n        /* \"Contracts/Lottery_flattened.sol\":26186:26202  jackpotThreshold */\n      sload(0x0e)\n        /* \"Contracts/Lottery_flattened.sol\":26161:26182  address(this).balance */\n      selfbalance\n        /* \"Contracts/Lottery_flattened.sol\":26161:26202  address(this).balance >= jackpotThreshold */\n      lt\n      iszero\n        /* \"Contracts/Lottery_flattened.sol\":26139:26202  bool jackpotReached = address(this).balance >= jackpotThreshold */\n      swap1\n      pop\n        /* \"Contracts/Lottery_flattened.sol\":26240:26250  timePassed */\n      dup3\n        /* \"Contracts/Lottery_flattened.sol\":26240:26267  timePassed || enoughPlayers */\n      dup1\n      tag_200\n      jumpi\n      pop\n        /* \"Contracts/Lottery_flattened.sol\":26254:26267  enoughPlayers */\n      dup2\n        /* \"Contracts/Lottery_flattened.sol\":26240:26267  timePassed || enoughPlayers */\n    tag_200:\n        /* \"Contracts/Lottery_flattened.sol\":26240:26285  timePassed || enoughPlayers || jackpotReached */\n      dup1\n      tag_201\n      jumpi\n      pop\n        /* \"Contracts/Lottery_flattened.sol\":26271:26285  jackpotReached */\n      dup1\n        /* \"Contracts/Lottery_flattened.sol\":26240:26285  timePassed || enoughPlayers || jackpotReached */\n    tag_201:\n        /* \"Contracts/Lottery_flattened.sol\":26239:26322  (timePassed || enoughPlayers || jackpotReached) &&... */\n      dup1\n      iszero\n      tag_202\n      jumpi\n      pop\n        /* \"Contracts/Lottery_flattened.sol\":26320:26321  0 */\n      0x00\n        /* \"Contracts/Lottery_flattened.sol\":26303:26310  players */\n      0x04\n        /* \"Contracts/Lottery_flattened.sol\":26303:26317  players.length */\n      dup1\n      sload\n      swap1\n      pop\n        /* \"Contracts/Lottery_flattened.sol\":26303:26321  players.length > 0 */\n      gt\n        /* \"Contracts/Lottery_flattened.sol\":26239:26322  (timePassed || enoughPlayers || jackpotReached) &&... */\n    tag_202:\n        /* \"Contracts/Lottery_flattened.sol\":26212:26322  upkeepNeeded =... */\n      swap5\n      pop\n        /* \"Contracts/Lottery_flattened.sol\":26332:26348  performData = \"\" */\n      mload(0x40)\n      dup1\n      0x20\n      add\n      0x40\n      mstore\n      dup1\n      0x00\n      dup2\n      mstore\n      pop\n      swap4\n      pop\n        /* \"Contracts/Lottery_flattened.sol\":26394:26428  return (upkeepNeeded, performData) */\n      pop\n      pop\n      pop\n        /* \"Contracts/Lottery_flattened.sol\":25817:26435  function checkUpkeep(... */\n      swap3\n      pop\n      swap3\n      swap1\n      pop\n      jump\t// out\n        /* \"Contracts/Lottery_flattened.sol\":8638:8954  function acceptOwnership() external override {... */\n    tag_83:\n        /* \"Contracts/Lottery_flattened.sol\":8762:8776  s_pendingOwner */\n      0x01\n      0x00\n      swap1\n      sload\n      swap1\n      0x0100\n      exp\n      swap1\n      div\n      0xffffffffffffffffffffffffffffffffffffffff\n      and\n        /* \"Contracts/Lottery_flattened.sol\":8748:8776  msg.sender == s_pendingOwner */\n      0xffffffffffffffffffffffffffffffffffffffff\n      and\n        /* \"Contracts/Lottery_flattened.sol\":8748:8758  msg.sender */\n      caller\n        /* \"Contracts/Lottery_flattened.sol\":8748:8776  msg.sender == s_pendingOwner */\n      0xffffffffffffffffffffffffffffffffffffffff\n      and\n      eq\n        /* \"Contracts/Lottery_flattened.sol\":8740:8803  require(msg.sender == s_pendingOwner, \"Must be proposed owner\") */\n      tag_204\n      jumpi\n      mload(0x40)\n      0x08c379a000000000000000000000000000000000000000000000000000000000\n      dup2\n      mstore\n      0x04\n      add\n      tag_205\n      swap1\n      tag_206\n      jump\t// in\n    tag_205:\n      mload(0x40)\n      dup1\n      swap2\n      sub\n      swap1\n      revert\n    tag_204:\n        /* \"Contracts/Lottery_flattened.sol\":8810:8826  address oldOwner */\n      0x00\n        /* \"Contracts/Lottery_flattened.sol\":8829:8836  s_owner */\n      dup1\n      0x00\n      swap1\n      sload\n      swap1\n      0x0100\n      exp\n      swap1\n      div\n      0xffffffffffffffffffffffffffffffffffffffff\n      and\n        /* \"Contracts/Lottery_flattened.sol\":8810:8836  address oldOwner = s_owner */\n      swap1\n      pop\n        /* \"Contracts/Lottery_flattened.sol\":8852:8862  msg.sender */\n      caller\n        /* \"Contracts/Lottery_flattened.sol\":8842:8849  s_owner */\n      0x00\n      dup1\n        /* \"Contracts/Lottery_flattened.sol\":8842:8862  s_owner = msg.sender */\n      0x0100\n      exp\n      dup2\n      sload\n      dup2\n      0xffffffffffffffffffffffffffffffffffffffff\n      mul\n      not\n      and\n      swap1\n      dup4\n      0xffffffffffffffffffffffffffffffffffffffff\n      and\n      mul\n      or\n      swap1\n      sstore\n      pop\n        /* \"Contracts/Lottery_flattened.sol\":8893:8894  0 */\n      0x00\n        /* \"Contracts/Lottery_flattened.sol\":8868:8882  s_pendingOwner */\n      0x01\n      0x00\n        /* \"Contracts/Lottery_flattened.sol\":8868:8895  s_pendingOwner = address(0) */\n      0x0100\n      exp\n      dup2\n      sload\n      dup2\n      0xffffffffffffffffffffffffffffffffffffffff\n      mul\n      not\n      and\n      swap1\n      dup4\n      0xffffffffffffffffffffffffffffffffffffffff\n      and\n      mul\n      or\n      swap1\n      sstore\n      pop\n        /* \"Contracts/Lottery_flattened.sol\":8938:8948  msg.sender */\n      caller\n        /* \"Contracts/Lottery_flattened.sol\":8907:8949  OwnershipTransferred(oldOwner, msg.sender) */\n      0xffffffffffffffffffffffffffffffffffffffff\n      and\n        /* \"Contracts/Lottery_flattened.sol\":8928:8936  oldOwner */\n      dup2\n        /* \"Contracts/Lottery_flattened.sol\":8907:8949  OwnershipTransferred(oldOwner, msg.sender) */\n      0xffffffffffffffffffffffffffffffffffffffff\n      and\n      0x8be0079c531659141344cd1fd0a4f28419497f9722a3daafe3b4186f6b6457e0\n      mload(0x40)\n      mload(0x40)\n      dup1\n      swap2\n      sub\n      swap1\n      log3\n        /* \"Contracts/Lottery_flattened.sol\":8683:8954  {... */\n      pop\n        /* \"Contracts/Lottery_flattened.sol\":8638:8954  function acceptOwnership() external override {... */\n      jump\t// out\n        /* \"Contracts/Lottery_flattened.sol\":21133:21155  uint32 public numWords */\n    tag_86:\n      0x09\n      0x06\n      swap1\n      sload\n      swap1\n      0x0100\n      exp\n      swap1\n      div\n      0xffffffff\n      and\n      dup2\n      jump\t// out\n        /* \"Contracts/Lottery_flattened.sol\":20992:21023  uint256 public s_subscriptionId */\n    tag_90:\n      sload(0x07)\n      dup2\n      jump\t// out\n        /* \"Contracts/Lottery_flattened.sol\":27117:27217  function getPlayers() public view returns (address payable[] memory) {... */\n    tag_94:\n        /* \"Contracts/Lottery_flattened.sol\":27160:27184  address payable[] memory */\n      0x60\n        /* \"Contracts/Lottery_flattened.sol\":27203:27210  players */\n      0x04\n        /* \"Contracts/Lottery_flattened.sol\":27196:27210  return players */\n      dup1\n      sload\n      dup1\n      0x20\n      mul\n      0x20\n      add\n      mload(0x40)\n      swap1\n      dup2\n      add\n      0x40\n      mstore\n      dup1\n      swap3\n      swap2\n      swap1\n      dup2\n      dup2\n      mstore\n      0x20\n      add\n      dup3\n      dup1\n      sload\n      dup1\n      iszero\n      tag_208\n      jumpi\n      0x20\n      mul\n      dup3\n      add\n      swap2\n      swap1\n      0x00\n      mstore\n      keccak256(0x00, 0x20)\n      swap1\n    tag_209:\n      dup2\n      0x00\n      swap1\n      sload\n      swap1\n      0x0100\n      exp\n      swap1\n      div\n      0xffffffffffffffffffffffffffffffffffffffff\n      and\n      0xffffffffffffffffffffffffffffffffffffffff\n      and\n      dup2\n      mstore\n      0x20\n      add\n      swap1\n      0x01\n      add\n      swap1\n      dup1\n      dup4\n      gt\n      tag_209\n      jumpi\n    tag_208:\n      pop\n      pop\n      pop\n      pop\n      pop\n      swap1\n      pop\n        /* \"Contracts/Lottery_flattened.sol\":27117:27217  function getPlayers() public view returns (address payable[] memory) {... */\n      swap1\n      jump\t// out\n        /* \"Contracts/Lottery_flattened.sol\":8994:9075  function owner() public view override returns (address) {... */\n    tag_99:\n        /* \"Contracts/Lottery_flattened.sol\":9041:9048  address */\n      0x00\n        /* \"Contracts/Lottery_flattened.sol\":9063:9070  s_owner */\n      dup1\n      0x00\n      swap1\n      sload\n      swap1\n      0x0100\n      exp\n      swap1\n      div\n      0xffffffffffffffffffffffffffffffffffffffff\n      and\n        /* \"Contracts/Lottery_flattened.sol\":9056:9070  return s_owner */\n      swap1\n      pop\n        /* \"Contracts/Lottery_flattened.sol\":8994:9075  function owner() public view override returns (address) {... */\n      swap1\n      jump\t// out\n        /* \"Contracts/Lottery_flattened.sol\":17706:17982  function setCoordinator(address _vrfCoordinator) external override onlyOwnerOrCoordinator {... */\n    tag_106:\n        /* \"Contracts/Lottery_flattened.sol\":18044:18051  owner() */\n      tag_212\n        /* \"Contracts/Lottery_flattened.sol\":18044:18049  owner */\n      tag_99\n        /* \"Contracts/Lottery_flattened.sol\":18044:18051  owner() */\n      jump\t// in\n    tag_212:\n        /* \"Contracts/Lottery_flattened.sol\":18030:18051  msg.sender != owner() */\n      0xffffffffffffffffffffffffffffffffffffffff\n      and\n        /* \"Contracts/Lottery_flattened.sol\":18030:18040  msg.sender */\n      caller\n        /* \"Contracts/Lottery_flattened.sol\":18030:18051  msg.sender != owner() */\n      0xffffffffffffffffffffffffffffffffffffffff\n      and\n      eq\n      iszero\n        /* \"Contracts/Lottery_flattened.sol\":18030:18094  msg.sender != owner() && msg.sender != address(s_vrfCoordinator) */\n      dup1\n      iszero\n      tag_213\n      jumpi\n      pop\n        /* \"Contracts/Lottery_flattened.sol\":18077:18093  s_vrfCoordinator */\n      0x02\n      0x00\n      swap1\n      sload\n      swap1\n      0x0100\n      exp\n      swap1\n      div\n      0xffffffffffffffffffffffffffffffffffffffff\n      and\n        /* \"Contracts/Lottery_flattened.sol\":18055:18094  msg.sender != address(s_vrfCoordinator) */\n      0xffffffffffffffffffffffffffffffffffffffff\n      and\n        /* \"Contracts/Lottery_flattened.sol\":18055:18065  msg.sender */\n      caller\n        /* \"Contracts/Lottery_flattened.sol\":18055:18094  msg.sender != address(s_vrfCoordinator) */\n      0xffffffffffffffffffffffffffffffffffffffff\n      and\n      eq\n      iszero\n        /* \"Contracts/Lottery_flattened.sol\":18030:18094  msg.sender != owner() && msg.sender != address(s_vrfCoordinator) */\n    tag_213:\n        /* \"Contracts/Lottery_flattened.sol\":18026:18188  if (msg.sender != owner() && msg.sender != address(s_vrfCoordinator)) {... */\n      iszero\n      tag_214\n      jumpi\n        /* \"Contracts/Lottery_flattened.sol\":18134:18144  msg.sender */\n      caller\n        /* \"Contracts/Lottery_flattened.sol\":18146:18153  owner() */\n      tag_215\n        /* \"Contracts/Lottery_flattened.sol\":18146:18151  owner */\n      tag_99\n        /* \"Contracts/Lottery_flattened.sol\":18146:18153  owner() */\n      jump\t// in\n    tag_215:\n        /* \"Contracts/Lottery_flattened.sol\":18163:18179  s_vrfCoordinator */\n      0x02\n      0x00\n      swap1\n      sload\n      swap1\n      0x0100\n      exp\n      swap1\n      div\n      0xffffffffffffffffffffffffffffffffffffffff\n      and\n        /* \"Contracts/Lottery_flattened.sol\":18111:18181  OnlyOwnerOrCoordinator(msg.sender, owner(), address(s_vrfCoordinator)) */\n      mload(0x40)\n      0x061db9c100000000000000000000000000000000000000000000000000000000\n      dup2\n      mstore\n      0x04\n      add\n      tag_216\n      swap4\n      swap3\n      swap2\n      swap1\n      tag_217\n      jump\t// in\n    tag_216:\n      mload(0x40)\n      dup1\n      swap2\n      sub\n      swap1\n      revert\n        /* \"Contracts/Lottery_flattened.sol\":18026:18188  if (msg.sender != owner() && msg.sender != address(s_vrfCoordinator)) {... */\n    tag_214:\n        /* \"Contracts/Lottery_flattened.sol\":17833:17834  0 */\n      0x00\n        /* \"Contracts/Lottery_flattened.sol\":17806:17835  _vrfCoordinator == address(0) */\n      0xffffffffffffffffffffffffffffffffffffffff\n      and\n        /* \"Contracts/Lottery_flattened.sol\":17806:17821  _vrfCoordinator */\n      dup2\n        /* \"Contracts/Lottery_flattened.sol\":17806:17835  _vrfCoordinator == address(0) */\n      0xffffffffffffffffffffffffffffffffffffffff\n      and\n      sub\n        /* \"Contracts/Lottery_flattened.sol\":17802:17872  if (_vrfCoordinator == address(0)) {... */\n      tag_219\n      jumpi\n        /* \"Contracts/Lottery_flattened.sol\":17852:17865  ZeroAddress() */\n      mload(0x40)\n      0xd92e233d00000000000000000000000000000000000000000000000000000000\n      dup2\n      mstore\n      0x04\n      add\n      mload(0x40)\n      dup1\n      swap2\n      sub\n      swap1\n      revert\n        /* \"Contracts/Lottery_flattened.sol\":17802:17872  if (_vrfCoordinator == address(0)) {... */\n    tag_219:\n        /* \"Contracts/Lottery_flattened.sol\":17918:17933  _vrfCoordinator */\n      dup1\n        /* \"Contracts/Lottery_flattened.sol\":17877:17893  s_vrfCoordinator */\n      0x02\n      0x00\n        /* \"Contracts/Lottery_flattened.sol\":17877:17934  s_vrfCoordinator = IVRFCoordinatorV2Plus(_vrfCoordinator) */\n      0x0100\n      exp\n      dup2\n      sload\n      dup2\n      0xffffffffffffffffffffffffffffffffffffffff\n      mul\n      not\n      and\n      swap1\n      dup4\n      0xffffffffffffffffffffffffffffffffffffffff\n      and\n      mul\n      or\n      swap1\n      sstore\n      pop\n        /* \"Contracts/Lottery_flattened.sol\":17946:17977  CoordinatorSet(_vrfCoordinator) */\n      0xd1a6a14209a385a964d036e404cb5cfb71f4000cdb03c9366292430787261be6\n        /* \"Contracts/Lottery_flattened.sol\":17961:17976  _vrfCoordinator */\n      dup2\n        /* \"Contracts/Lottery_flattened.sol\":17946:17977  CoordinatorSet(_vrfCoordinator) */\n      mload(0x40)\n      tag_220\n      swap2\n      swap1\n      tag_101\n      jump\t// in\n    tag_220:\n      mload(0x40)\n      dup1\n      swap2\n      sub\n      swap1\n      log1\n        /* \"Contracts/Lottery_flattened.sol\":17706:17982  function setCoordinator(address _vrfCoordinator) external override onlyOwnerOrCoordinator {... */\n      pop\n      jump\t// out\n        /* \"Contracts/Lottery_flattened.sol\":27485:27597  function updateMinPlayers(uint256 newMinPlayers) external checkOwner {... */\n    tag_110:\n        /* \"Contracts/Lottery_flattened.sol\":22138:22145  i_owner */\n      0x03\n      0x00\n      swap1\n      sload\n      swap1\n      0x0100\n      exp\n      swap1\n      div\n      0xffffffffffffffffffffffffffffffffffffffff\n      and\n        /* \"Contracts/Lottery_flattened.sol\":22124:22145  msg.sender == i_owner */\n      0xffffffffffffffffffffffffffffffffffffffff\n      and\n        /* \"Contracts/Lottery_flattened.sol\":22124:22134  msg.sender */\n      caller\n        /* \"Contracts/Lottery_flattened.sol\":22124:22145  msg.sender == i_owner */\n      0xffffffffffffffffffffffffffffffffffffffff\n      and\n      eq\n        /* \"Contracts/Lottery_flattened.sol\":22116:22183  require(msg.sender == i_owner, \"Only owner can call this function\") */\n      tag_222\n      jumpi\n      mload(0x40)\n      0x08c379a000000000000000000000000000000000000000000000000000000000\n      dup2\n      mstore\n      0x04\n      add\n      tag_223\n      swap1\n      tag_224\n      jump\t// in\n    tag_223:\n      mload(0x40)\n      dup1\n      swap2\n      sub\n      swap1\n      revert\n    tag_222:\n        /* \"Contracts/Lottery_flattened.sol\":27577:27590  newMinPlayers */\n      dup1\n        /* \"Contracts/Lottery_flattened.sol\":27564:27574  minPlayers */\n      0x0d\n        /* \"Contracts/Lottery_flattened.sol\":27564:27590  minPlayers = newMinPlayers */\n      dup2\n      swap1\n      sstore\n      pop\n        /* \"Contracts/Lottery_flattened.sol\":27485:27597  function updateMinPlayers(uint256 newMinPlayers) external checkOwner {... */\n      pop\n      jump\t// out\n        /* \"Contracts/Lottery_flattened.sol\":21232:21255  uint256 public interval */\n    tag_113:\n      sload(0x0b)\n      dup2\n      jump\t// out\n        /* \"Contracts/Lottery_flattened.sol\":15952:15997  IVRFCoordinatorV2Plus public s_vrfCoordinator */\n    tag_117:\n      0x02\n      0x00\n      swap1\n      sload\n      swap1\n      0x0100\n      exp\n      swap1\n      div\n      0xffffffffffffffffffffffffffffffffffffffff\n      and\n      dup2\n      jump\t// out\n        /* \"Contracts/Lottery_flattened.sol\":21093:21127  uint16 public requestConfirmations */\n    tag_122:\n      0x09\n      0x04\n      swap1\n      sload\n      swap1\n      0x0100\n      exp\n      swap1\n      div\n      0xffff\n      and\n      dup2\n      jump\t// out\n        /* \"Contracts/Lottery_flattened.sol\":27297:27401  function updateInterval(uint256 newInterval) external checkOwner {... */\n    tag_128:\n        /* \"Contracts/Lottery_flattened.sol\":22138:22145  i_owner */\n      0x03\n      0x00\n      swap1\n      sload\n      swap1\n      0x0100\n      exp\n      swap1\n      div\n      0xffffffffffffffffffffffffffffffffffffffff\n      and\n        /* \"Contracts/Lottery_flattened.sol\":22124:22145  msg.sender == i_owner */\n      0xffffffffffffffffffffffffffffffffffffffff\n      and\n        /* \"Contracts/Lottery_flattened.sol\":22124:22134  msg.sender */\n      caller\n        /* \"Contracts/Lottery_flattened.sol\":22124:22145  msg.sender == i_owner */\n      0xffffffffffffffffffffffffffffffffffffffff\n      and\n      eq\n        /* \"Contracts/Lottery_flattened.sol\":22116:22183  require(msg.sender == i_owner, \"Only owner can call this function\") */\n      tag_227\n      jumpi\n      mload(0x40)\n      0x08c379a000000000000000000000000000000000000000000000000000000000\n      dup2\n      mstore\n      0x04\n      add\n      tag_228\n      swap1\n      tag_224\n      jump\t// in\n    tag_228:\n      mload(0x40)\n      dup1\n      swap2\n      sub\n      swap1\n      revert\n    tag_227:\n        /* \"Contracts/Lottery_flattened.sol\":27383:27394  newInterval */\n      dup1\n        /* \"Contracts/Lottery_flattened.sol\":27372:27380  interval */\n      0x0b\n        /* \"Contracts/Lottery_flattened.sol\":27372:27394  interval = newInterval */\n      dup2\n      swap1\n      sstore\n      pop\n        /* \"Contracts/Lottery_flattened.sol\":27297:27401  function updateInterval(uint256 newInterval) external checkOwner {... */\n      pop\n      jump\t// out\n        /* \"Contracts/Lottery_flattened.sol\":20882:20939  mapping(uint256 => address payable) public lotteryWinners */\n    tag_132:\n      mstore(0x20, 0x06)\n      dup1\n      0x00\n      mstore\n      keccak256(0x00, 0x40)\n      0x00\n      swap2\n      pop\n      sload\n      swap1\n      0x0100\n      exp\n      swap1\n      div\n      0xffffffffffffffffffffffffffffffffffffffff\n      and\n      dup2\n      jump\t// out\n        /* \"Contracts/Lottery_flattened.sol\":20762:20784  address public i_owner */\n    tag_137:\n      0x03\n      0x00\n      swap1\n      sload\n      swap1\n      0x0100\n      exp\n      swap1\n      div\n      0xffffffffffffffffffffffffffffffffffffffff\n      and\n      dup2\n      jump\t// out\n        /* \"Contracts/Lottery_flattened.sol\":20852:20876  uint256 public lotteryId */\n    tag_141:\n      sload(0x05)\n      dup2\n      jump\t// out\n        /* \"Contracts/Lottery_flattened.sol\":8459:8557  function transferOwnership(address to) public override onlyOwner {... */\n    tag_146:\n        /* \"Contracts/Lottery_flattened.sol\":9687:9707  _validateOwnership() */\n      tag_231\n        /* \"Contracts/Lottery_flattened.sol\":9687:9705  _validateOwnership */\n      tag_232\n        /* \"Contracts/Lottery_flattened.sol\":9687:9707  _validateOwnership() */\n      jump\t// in\n    tag_231:\n        /* \"Contracts/Lottery_flattened.sol\":8530:8552  _transferOwnership(to) */\n      tag_234\n        /* \"Contracts/Lottery_flattened.sol\":8549:8551  to */\n      dup2\n        /* \"Contracts/Lottery_flattened.sol\":8530:8548  _transferOwnership */\n      tag_235\n        /* \"Contracts/Lottery_flattened.sol\":8530:8552  _transferOwnership(to) */\n      jump\t// in\n    tag_234:\n        /* \"Contracts/Lottery_flattened.sol\":8459:8557  function transferOwnership(address to) public override onlyOwner {... */\n      pop\n      jump\t// out\n        /* \"Contracts/Lottery_flattened.sol\":23666:23809  function manualPickWinner() external checkOwner {... */\n    tag_149:\n        /* \"Contracts/Lottery_flattened.sol\":22138:22145  i_owner */\n      0x03\n      0x00\n      swap1\n      sload\n      swap1\n      0x0100\n      exp\n      swap1\n      div\n      0xffffffffffffffffffffffffffffffffffffffff\n      and\n        /* \"Contracts/Lottery_flattened.sol\":22124:22145  msg.sender == i_owner */\n      0xffffffffffffffffffffffffffffffffffffffff\n      and\n        /* \"Contracts/Lottery_flattened.sol\":22124:22134  msg.sender */\n      caller\n        /* \"Contracts/Lottery_flattened.sol\":22124:22145  msg.sender == i_owner */\n      0xffffffffffffffffffffffffffffffffffffffff\n      and\n      eq\n        /* \"Contracts/Lottery_flattened.sol\":22116:22183  require(msg.sender == i_owner, \"Only owner can call this function\") */\n      tag_237\n      jumpi\n      mload(0x40)\n      0x08c379a000000000000000000000000000000000000000000000000000000000\n      dup2\n      mstore\n      0x04\n      add\n      tag_238\n      swap1\n      tag_224\n      jump\t// in\n    tag_238:\n      mload(0x40)\n      dup1\n      swap2\n      sub\n      swap1\n      revert\n    tag_237:\n        /* \"Contracts/Lottery_flattened.sol\":23749:23750  0 */\n      0x00\n        /* \"Contracts/Lottery_flattened.sol\":23732:23739  players */\n      0x04\n        /* \"Contracts/Lottery_flattened.sol\":23732:23746  players.length */\n      dup1\n      sload\n      swap1\n      pop\n        /* \"Contracts/Lottery_flattened.sol\":23732:23750  players.length > 0 */\n      gt\n        /* \"Contracts/Lottery_flattened.sol\":23724:23773  require(players.length > 0, \"No players entered\") */\n      tag_240\n      jumpi\n      mload(0x40)\n      0x08c379a000000000000000000000000000000000000000000000000000000000\n      dup2\n      mstore\n      0x04\n      add\n      tag_241\n      swap1\n      tag_242\n      jump\t// in\n    tag_241:\n      mload(0x40)\n      dup1\n      swap2\n      sub\n      swap1\n      revert\n    tag_240:\n        /* \"Contracts/Lottery_flattened.sol\":23783:23802  _startLotteryDraw() */\n      tag_243\n        /* \"Contracts/Lottery_flattened.sol\":23783:23800  _startLotteryDraw */\n      tag_197\n        /* \"Contracts/Lottery_flattened.sol\":23783:23802  _startLotteryDraw() */\n      jump\t// in\n    tag_243:\n        /* \"Contracts/Lottery_flattened.sol\":23666:23809  function manualPickWinner() external checkOwner {... */\n      jump\t// out\n        /* \"Contracts/Lottery_flattened.sol\":21585:21631  uint256 public constant ENTRY_FEE = 0.01 ether */\n    tag_152:\n        /* \"Contracts/Lottery_flattened.sol\":21621:21631  0.01 ether */\n      0x2386f26fc10000\n        /* \"Contracts/Lottery_flattened.sol\":21585:21631  uint256 public constant ENTRY_FEE = 0.01 ether */\n      dup2\n      jump\t// out\n        /* \"Contracts/Lottery_flattened.sol\":20814:20846  address payable[] public players */\n    tag_157:\n      0x04\n      dup2\n      dup2\n      sload\n      dup2\n      lt\n      tag_244\n      jumpi\n      0x00\n      dup1\n      revert\n    tag_244:\n      swap1\n      0x00\n      mstore\n      keccak256(0x00, 0x20)\n      add\n      0x00\n      swap2\n      pop\n      sload\n      swap1\n      0x0100\n      exp\n      swap1\n      div\n      0xffffffffffffffffffffffffffffffffffffffff\n      and\n      dup2\n      jump\t// out\n        /* \"Contracts/Lottery_flattened.sol\":27664:27786  function updateJackpotThreshold(uint256 newThreshold) external checkOwner {... */\n    tag_162:\n        /* \"Contracts/Lottery_flattened.sol\":22138:22145  i_owner */\n      0x03\n      0x00\n      swap1\n      sload\n      swap1\n      0x0100\n      exp\n      swap1\n      div\n      0xffffffffffffffffffffffffffffffffffffffff\n      and\n        /* \"Contracts/Lottery_flattened.sol\":22124:22145  msg.sender == i_owner */\n      0xffffffffffffffffffffffffffffffffffffffff\n      and\n        /* \"Contracts/Lottery_flattened.sol\":22124:22134  msg.sender */\n      caller\n        /* \"Contracts/Lottery_flattened.sol\":22124:22145  msg.sender == i_owner */\n      0xffffffffffffffffffffffffffffffffffffffff\n      and\n      eq\n        /* \"Contracts/Lottery_flattened.sol\":22116:22183  require(msg.sender == i_owner, \"Only owner can call this function\") */\n      tag_247\n      jumpi\n      mload(0x40)\n      0x08c379a000000000000000000000000000000000000000000000000000000000\n      dup2\n      mstore\n      0x04\n      add\n      tag_248\n      swap1\n      tag_224\n      jump\t// in\n    tag_248:\n      mload(0x40)\n      dup1\n      swap2\n      sub\n      swap1\n      revert\n    tag_247:\n        /* \"Contracts/Lottery_flattened.sol\":27767:27779  newThreshold */\n      dup1\n        /* \"Contracts/Lottery_flattened.sol\":27748:27764  jackpotThreshold */\n      0x0e\n        /* \"Contracts/Lottery_flattened.sol\":27748:27779  jackpotThreshold = newThreshold */\n      dup2\n      swap1\n      sstore\n      pop\n        /* \"Contracts/Lottery_flattened.sol\":27664:27786  function updateJackpotThreshold(uint256 newThreshold) external checkOwner {... */\n      pop\n      jump\t// out\n        /* \"Contracts/Lottery_flattened.sol\":21161:21189  uint256 public lastRequestId */\n    tag_165:\n      sload(0x0a)\n      dup2\n      jump\t// out\n        /* \"Contracts/Lottery_flattened.sol\":24690:25638  function fulfillRandomWords(... */\n    tag_172:\n        /* \"Contracts/Lottery_flattened.sol\":24849:24850  0 */\n      0x00\n        /* \"Contracts/Lottery_flattened.sol\":24832:24839  players */\n      0x04\n        /* \"Contracts/Lottery_flattened.sol\":24832:24846  players.length */\n      dup1\n      sload\n      swap1\n      pop\n        /* \"Contracts/Lottery_flattened.sol\":24832:24850  players.length > 0 */\n      gt\n        /* \"Contracts/Lottery_flattened.sol\":24824:24873  require(players.length > 0, \"No players entered\") */\n      tag_251\n      jumpi\n      mload(0x40)\n      0x08c379a000000000000000000000000000000000000000000000000000000000\n      dup2\n      mstore\n      0x04\n      add\n      tag_252\n      swap1\n      tag_242\n      jump\t// in\n    tag_252:\n      mload(0x40)\n      dup1\n      swap2\n      sub\n      swap1\n      revert\n    tag_251:\n        /* \"Contracts/Lottery_flattened.sol\":24883:24902  uint256 winnerIndex */\n      0x00\n        /* \"Contracts/Lottery_flattened.sol\":24922:24929  players */\n      0x04\n        /* \"Contracts/Lottery_flattened.sol\":24922:24936  players.length */\n      dup1\n      sload\n      swap1\n      pop\n        /* \"Contracts/Lottery_flattened.sol\":24905:24916  randomWords */\n      dup4\n      dup4\n        /* \"Contracts/Lottery_flattened.sol\":24917:24918  0 */\n      0x00\n        /* \"Contracts/Lottery_flattened.sol\":24905:24919  randomWords[0] */\n      dup2\n      dup2\n      lt\n      tag_253\n      jumpi\n      tag_254\n      tag_255\n      jump\t// in\n    tag_254:\n    tag_253:\n      swap1\n      pop\n      0x20\n      mul\n      add\n      calldataload\n        /* \"Contracts/Lottery_flattened.sol\":24905:24936  randomWords[0] % players.length */\n      tag_256\n      swap2\n      swap1\n      tag_257\n      jump\t// in\n    tag_256:\n        /* \"Contracts/Lottery_flattened.sol\":24883:24936  uint256 winnerIndex = randomWords[0] % players.length */\n      swap1\n      pop\n        /* \"Contracts/Lottery_flattened.sol\":24946:24968  address payable winner */\n      0x00\n        /* \"Contracts/Lottery_flattened.sol\":24971:24978  players */\n      0x04\n        /* \"Contracts/Lottery_flattened.sol\":24979:24990  winnerIndex */\n      dup3\n        /* \"Contracts/Lottery_flattened.sol\":24971:24991  players[winnerIndex] */\n      dup2\n      sload\n      dup2\n      lt\n      tag_258\n      jumpi\n      tag_259\n      tag_255\n      jump\t// in\n    tag_259:\n    tag_258:\n      swap1\n      0x00\n      mstore\n      keccak256(0x00, 0x20)\n      add\n      0x00\n      swap1\n      sload\n      swap1\n      0x0100\n      exp\n      swap1\n      div\n      0xffffffffffffffffffffffffffffffffffffffff\n      and\n        /* \"Contracts/Lottery_flattened.sol\":24946:24991  address payable winner = players[winnerIndex] */\n      swap1\n      pop\n        /* \"Contracts/Lottery_flattened.sol\":25001:25014  uint256 prize */\n      0x00\n        /* \"Contracts/Lottery_flattened.sol\":25017:25038  address(this).balance */\n      selfbalance\n        /* \"Contracts/Lottery_flattened.sol\":25001:25038  uint256 prize = address(this).balance */\n      swap1\n      pop\n        /* \"Contracts/Lottery_flattened.sol\":25135:25141  winner */\n      dup2\n        /* \"Contracts/Lottery_flattened.sol\":25107:25121  lotteryWinners */\n      0x06\n        /* \"Contracts/Lottery_flattened.sol\":25107:25132  lotteryWinners[lotteryId] */\n      0x00\n        /* \"Contracts/Lottery_flattened.sol\":25122:25131  lotteryId */\n      sload(0x05)\n        /* \"Contracts/Lottery_flattened.sol\":25107:25132  lotteryWinners[lotteryId] */\n      dup2\n      mstore\n      0x20\n      add\n      swap1\n      dup2\n      mstore\n      0x20\n      add\n      0x00\n      keccak256\n      0x00\n        /* \"Contracts/Lottery_flattened.sol\":25107:25141  lotteryWinners[lotteryId] = winner */\n      0x0100\n      exp\n      dup2\n      sload\n      dup2\n      0xffffffffffffffffffffffffffffffffffffffff\n      mul\n      not\n      and\n      swap1\n      dup4\n      0xffffffffffffffffffffffffffffffffffffffff\n      and\n      mul\n      or\n      swap1\n      sstore\n      pop\n        /* \"Contracts/Lottery_flattened.sol\":25151:25175  uint256 currentLotteryId */\n      0x00\n        /* \"Contracts/Lottery_flattened.sol\":25178:25187  lotteryId */\n      sload(0x05)\n        /* \"Contracts/Lottery_flattened.sol\":25151:25187  uint256 currentLotteryId = lotteryId */\n      swap1\n      pop\n        /* \"Contracts/Lottery_flattened.sol\":25197:25206  lotteryId */\n      0x05\n      0x00\n        /* \"Contracts/Lottery_flattened.sol\":25197:25208  lotteryId++ */\n      dup2\n      sload\n      dup1\n      swap3\n      swap2\n      swap1\n      tag_261\n      swap1\n      tag_187\n      jump\t// in\n    tag_261:\n      swap2\n      swap1\n      pop\n      sstore\n      pop\n        /* \"Contracts/Lottery_flattened.sol\":25225:25232  players */\n      0x04\n      0x00\n        /* \"Contracts/Lottery_flattened.sol\":25218:25232  delete players */\n      tag_262\n      swap2\n      swap1\n      tag_263\n      jump\t// in\n    tag_262:\n        /* \"Contracts/Lottery_flattened.sol\":25258:25273  block.timestamp */\n      timestamp\n        /* \"Contracts/Lottery_flattened.sol\":25242:25255  lastTimeStamp */\n      0x0c\n        /* \"Contracts/Lottery_flattened.sol\":25242:25273  lastTimeStamp = block.timestamp */\n      dup2\n      swap1\n      sstore\n      pop\n        /* \"Contracts/Lottery_flattened.sol\":25368:25380  bool success */\n      0x00\n        /* \"Contracts/Lottery_flattened.sol\":25386:25392  winner */\n      dup4\n        /* \"Contracts/Lottery_flattened.sol\":25386:25397  winner.call */\n      0xffffffffffffffffffffffffffffffffffffffff\n      and\n        /* \"Contracts/Lottery_flattened.sol\":25405:25410  prize */\n      dup4\n        /* \"Contracts/Lottery_flattened.sol\":25386:25415  winner.call{value: prize}(\"\") */\n      mload(0x40)\n      tag_264\n      swap1\n      tag_265\n      jump\t// in\n    tag_264:\n      0x00\n      mload(0x40)\n      dup1\n      dup4\n      sub\n      dup2\n      dup6\n      dup8\n      gas\n      call\n      swap3\n      pop\n      pop\n      pop\n      returndatasize\n      dup1\n      0x00\n      dup2\n      eq\n      tag_268\n      jumpi\n      mload(0x40)\n      swap2\n      pop\n      and(add(returndatasize, 0x3f), not(0x1f))\n      dup3\n      add\n      0x40\n      mstore\n      returndatasize\n      dup3\n      mstore\n      returndatasize\n      0x00\n      0x20\n      dup5\n      add\n      returndatacopy\n      jump(tag_267)\n    tag_268:\n      0x60\n      swap2\n      pop\n    tag_267:\n      pop\n        /* \"Contracts/Lottery_flattened.sol\":25367:25415  (bool success, ) = winner.call{value: prize}(\"\") */\n      pop\n      swap1\n      pop\n        /* \"Contracts/Lottery_flattened.sol\":25433:25440  success */\n      dup1\n        /* \"Contracts/Lottery_flattened.sol\":25425:25460  require(success, \"Transfer failed\") */\n      tag_269\n      jumpi\n      mload(0x40)\n      0x08c379a000000000000000000000000000000000000000000000000000000000\n      dup2\n      mstore\n      0x04\n      add\n      tag_270\n      swap1\n      tag_271\n      jump\t// in\n    tag_270:\n      mload(0x40)\n      dup1\n      swap2\n      sub\n      swap1\n      revert\n    tag_269:\n        /* \"Contracts/Lottery_flattened.sol\":25489:25495  winner */\n      dup4\n        /* \"Contracts/Lottery_flattened.sol\":25476:25521  WinnerPicked(winner, prize, currentLotteryId) */\n      0xffffffffffffffffffffffffffffffffffffffff\n      and\n      0x7e57d825a2478cc8123a008d7d1e20c0f6e8cbca89a7bc100c9b05ecb3698deb\n        /* \"Contracts/Lottery_flattened.sol\":25497:25502  prize */\n      dup5\n        /* \"Contracts/Lottery_flattened.sol\":25504:25520  currentLotteryId */\n      dup5\n        /* \"Contracts/Lottery_flattened.sol\":25476:25521  WinnerPicked(winner, prize, currentLotteryId) */\n      mload(0x40)\n      tag_272\n      swap3\n      swap2\n      swap1\n      tag_273\n      jump\t// in\n    tag_272:\n      mload(0x40)\n      dup1\n      swap2\n      sub\n      swap1\n      log2\n        /* \"Contracts/Lottery_flattened.sol\":25536:25571  LotteryRoundEnded(currentLotteryId) */\n      0xe194703c928e60d23be81d1f5c372b39a5adb98a7ba333dd9334414122f59e99\n        /* \"Contracts/Lottery_flattened.sol\":25554:25570  currentLotteryId */\n      dup3\n        /* \"Contracts/Lottery_flattened.sol\":25536:25571  LotteryRoundEnded(currentLotteryId) */\n      mload(0x40)\n      tag_274\n      swap2\n      swap1\n      tag_52\n      jump\t// in\n    tag_274:\n      mload(0x40)\n      dup1\n      swap2\n      sub\n      swap1\n      log1\n        /* \"Contracts/Lottery_flattened.sol\":25586:25631  LotteryRoundReset(lotteryId, block.timestamp) */\n      0x1bbd97005f8f033b87044f2f354d3104f1730b26d30001e655b75782ce479771\n        /* \"Contracts/Lottery_flattened.sol\":25604:25613  lotteryId */\n      sload(0x05)\n        /* \"Contracts/Lottery_flattened.sol\":25615:25630  block.timestamp */\n      timestamp\n        /* \"Contracts/Lottery_flattened.sol\":25586:25631  LotteryRoundReset(lotteryId, block.timestamp) */\n      mload(0x40)\n      tag_275\n      swap3\n      swap2\n      swap1\n      tag_273\n      jump\t// in\n    tag_275:\n      mload(0x40)\n      dup1\n      swap2\n      sub\n      swap1\n      log1\n        /* \"Contracts/Lottery_flattened.sol\":24814:25638  {... */\n      pop\n      pop\n      pop\n      pop\n      pop\n        /* \"Contracts/Lottery_flattened.sol\":24690:25638  function fulfillRandomWords(... */\n      pop\n      pop\n      pop\n      jump\t// out\n        /* \"Contracts/Lottery_flattened.sol\":23905:24505  function _startLotteryDraw() internal {... */\n    tag_197:\n        /* \"Contracts/Lottery_flattened.sol\":23969:23985  s_vrfCoordinator */\n      0x02\n      0x00\n      swap1\n      sload\n      swap1\n      0x0100\n      exp\n      swap1\n      div\n      0xffffffffffffffffffffffffffffffffffffffff\n      and\n        /* \"Contracts/Lottery_flattened.sol\":23969:24004  s_vrfCoordinator.requestRandomWords */\n      0xffffffffffffffffffffffffffffffffffffffff\n      and\n      0x9b1c385e\n        /* \"Contracts/Lottery_flattened.sol\":24018:24439  VRFV2PlusClient.RandomWordsRequest({... */\n      mload(0x40)\n      dup1\n      0xc0\n      add\n      0x40\n      mstore\n      dup1\n        /* \"Contracts/Lottery_flattened.sol\":24080:24087  keyHash */\n      sload(0x08)\n        /* \"Contracts/Lottery_flattened.sol\":24018:24439  VRFV2PlusClient.RandomWordsRequest({... */\n      dup2\n      mstore\n      0x20\n      add\n        /* \"Contracts/Lottery_flattened.sol\":24112:24128  s_subscriptionId */\n      sload(0x07)\n        /* \"Contracts/Lottery_flattened.sol\":24018:24439  VRFV2PlusClient.RandomWordsRequest({... */\n      dup2\n      mstore\n      0x20\n      add\n        /* \"Contracts/Lottery_flattened.sol\":24168:24188  requestConfirmations */\n      0x09\n      0x04\n      swap1\n      sload\n      swap1\n      0x0100\n      exp\n      swap1\n      div\n      0xffff\n      and\n        /* \"Contracts/Lottery_flattened.sol\":24018:24439  VRFV2PlusClient.RandomWordsRequest({... */\n      0xffff\n      and\n      dup2\n      mstore\n      0x20\n      add\n        /* \"Contracts/Lottery_flattened.sol\":24224:24240  callbackGasLimit */\n      0x09\n      0x00\n      swap1\n      sload\n      swap1\n      0x0100\n      exp\n      swap1\n      div\n      0xffffffff\n      and\n        /* \"Contracts/Lottery_flattened.sol\":24018:24439  VRFV2PlusClient.RandomWordsRequest({... */\n      0xffffffff\n      and\n      dup2\n      mstore\n      0x20\n      add\n        /* \"Contracts/Lottery_flattened.sol\":24268:24276  numWords */\n      0x09\n      0x06\n      swap1\n      sload\n      swap1\n      0x0100\n      exp\n      swap1\n      div\n      0xffffffff\n      and\n        /* \"Contracts/Lottery_flattened.sol\":24018:24439  VRFV2PlusClient.RandomWordsRequest({... */\n      0xffffffff\n      and\n      dup2\n      mstore\n      0x20\n      add\n        /* \"Contracts/Lottery_flattened.sol\":24305:24424  VRFV2PlusClient._argsToBytes(... */\n      tag_277\n        /* \"Contracts/Lottery_flattened.sol\":24355:24406  VRFV2PlusClient.ExtraArgsV1({nativePayment: false}) */\n      mload(0x40)\n      dup1\n      0x20\n      add\n      0x40\n      mstore\n      dup1\n        /* \"Contracts/Lottery_flattened.sol\":24399:24404  false */\n      0x00\n        /* \"Contracts/Lottery_flattened.sol\":24355:24406  VRFV2PlusClient.ExtraArgsV1({nativePayment: false}) */\n      iszero\n      iszero\n      dup2\n      mstore\n      pop\n        /* \"Contracts/Lottery_flattened.sol\":24305:24333  VRFV2PlusClient._argsToBytes */\n      tag_278\n        /* \"Contracts/Lottery_flattened.sol\":24305:24424  VRFV2PlusClient._argsToBytes(... */\n      jump\t// in\n    tag_277:\n        /* \"Contracts/Lottery_flattened.sol\":24018:24439  VRFV2PlusClient.RandomWordsRequest({... */\n      dup2\n      mstore\n      pop\n        /* \"Contracts/Lottery_flattened.sol\":23969:24449  s_vrfCoordinator.requestRandomWords(... */\n      mload(0x40)\n      dup3\n      0xffffffff\n      and\n      0xe0\n      shl\n      dup2\n      mstore\n      0x04\n      add\n      tag_279\n      swap2\n      swap1\n      tag_280\n      jump\t// in\n    tag_279:\n      0x20\n      mload(0x40)\n      dup1\n      dup4\n      sub\n      dup2\n      0x00\n      dup8\n      gas\n      call\n      iszero\n      dup1\n      iszero\n      tag_282\n      jumpi\n      returndatasize\n      0x00\n      dup1\n      returndatacopy\n      revert(0x00, returndatasize)\n    tag_282:\n      pop\n      pop\n      pop\n      pop\n      mload(0x40)\n      returndatasize\n      not(0x1f)\n      0x1f\n      dup3\n      add\n      and\n      dup3\n      add\n      dup1\n      0x40\n      mstore\n      pop\n      dup2\n      add\n      swap1\n      tag_283\n      swap2\n      swap1\n      tag_284\n      jump\t// in\n    tag_283:\n        /* \"Contracts/Lottery_flattened.sol\":23953:23966  lastRequestId */\n      0x0a\n        /* \"Contracts/Lottery_flattened.sol\":23953:24449  lastRequestId = s_vrfCoordinator.requestRandomWords(... */\n      dup2\n      swap1\n      sstore\n      pop\n        /* \"Contracts/Lottery_flattened.sol\":24464:24498  RandomnessRequested(lastRequestId) */\n      0x9ac10fb18c93d33ad7b0a941897aef048d0f8d30756684e82b4552ba12764d45\n        /* \"Contracts/Lottery_flattened.sol\":24484:24497  lastRequestId */\n      sload(0x0a)\n        /* \"Contracts/Lottery_flattened.sol\":24464:24498  RandomnessRequested(lastRequestId) */\n      mload(0x40)\n      tag_285\n      swap2\n      swap1\n      tag_52\n      jump\t// in\n    tag_285:\n      mload(0x40)\n      dup1\n      swap2\n      sub\n      swap1\n      log1\n        /* \"Contracts/Lottery_flattened.sol\":23905:24505  function _startLotteryDraw() internal {... */\n      jump\t// out\n        /* \"Contracts/Lottery_flattened.sol\":9421:9583  function _validateOwnership() internal view {... */\n    tag_232:\n        /* \"Contracts/Lottery_flattened.sol\":9544:9551  s_owner */\n      0x00\n      dup1\n      sload\n      swap1\n      0x0100\n      exp\n      swap1\n      div\n      0xffffffffffffffffffffffffffffffffffffffff\n      and\n        /* \"Contracts/Lottery_flattened.sol\":9530:9551  msg.sender == s_owner */\n      0xffffffffffffffffffffffffffffffffffffffff\n      and\n        /* \"Contracts/Lottery_flattened.sol\":9530:9540  msg.sender */\n      caller\n        /* \"Contracts/Lottery_flattened.sol\":9530:9551  msg.sender == s_owner */\n      0xffffffffffffffffffffffffffffffffffffffff\n      and\n      eq\n        /* \"Contracts/Lottery_flattened.sol\":9522:9578  require(msg.sender == s_owner, \"Only callable by owner\") */\n      tag_287\n      jumpi\n      mload(0x40)\n      0x08c379a000000000000000000000000000000000000000000000000000000000\n      dup2\n      mstore\n      0x04\n      add\n      tag_288\n      swap1\n      tag_289\n      jump\t// in\n    tag_288:\n      mload(0x40)\n      dup1\n      swap2\n      sub\n      swap1\n      revert\n    tag_287:\n        /* \"Contracts/Lottery_flattened.sol\":9421:9583  function _validateOwnership() internal view {... */\n      jump\t// out\n        /* \"Contracts/Lottery_flattened.sol\":9148:9387  function _transferOwnership(address to) private {... */\n    tag_235:\n        /* \"Contracts/Lottery_flattened.sol\":9267:9277  msg.sender */\n      caller\n        /* \"Contracts/Lottery_flattened.sol\":9261:9277  to != msg.sender */\n      0xffffffffffffffffffffffffffffffffffffffff\n      and\n        /* \"Contracts/Lottery_flattened.sol\":9261:9263  to */\n      dup2\n        /* \"Contracts/Lottery_flattened.sol\":9261:9277  to != msg.sender */\n      0xffffffffffffffffffffffffffffffffffffffff\n      and\n      sub\n        /* \"Contracts/Lottery_flattened.sol\":9253:9305  require(to != msg.sender, \"Cannot transfer to self\") */\n      tag_291\n      jumpi\n      mload(0x40)\n      0x08c379a000000000000000000000000000000000000000000000000000000000\n      dup2\n      mstore\n      0x04\n      add\n      tag_292\n      swap1\n      tag_293\n      jump\t// in\n    tag_292:\n      mload(0x40)\n      dup1\n      swap2\n      sub\n      swap1\n      revert\n    tag_291:\n        /* \"Contracts/Lottery_flattened.sol\":9329:9331  to */\n      dup1\n        /* \"Contracts/Lottery_flattened.sol\":9312:9326  s_pendingOwner */\n      0x01\n      0x00\n        /* \"Contracts/Lottery_flattened.sol\":9312:9331  s_pendingOwner = to */\n      0x0100\n      exp\n      dup2\n      sload\n      dup2\n      0xffffffffffffffffffffffffffffffffffffffff\n      mul\n      not\n      and\n      swap1\n      dup4\n      0xffffffffffffffffffffffffffffffffffffffff\n      and\n      mul\n      or\n      swap1\n      sstore\n      pop\n        /* \"Contracts/Lottery_flattened.sol\":9379:9381  to */\n      dup1\n        /* \"Contracts/Lottery_flattened.sol\":9343:9382  OwnershipTransferRequested(s_owner, to) */\n      0xffffffffffffffffffffffffffffffffffffffff\n      and\n        /* \"Contracts/Lottery_flattened.sol\":9370:9377  s_owner */\n      0x00\n      dup1\n      sload\n      swap1\n      0x0100\n      exp\n      swap1\n      div\n      0xffffffffffffffffffffffffffffffffffffffff\n      and\n        /* \"Contracts/Lottery_flattened.sol\":9343:9382  OwnershipTransferRequested(s_owner, to) */\n      0xffffffffffffffffffffffffffffffffffffffff\n      and\n      0xed8889f560326eb138920d842192f0eb3dd22b4f139c87a2c57538e05bae1278\n      mload(0x40)\n      mload(0x40)\n      dup1\n      swap2\n      sub\n      swap1\n      log3\n        /* \"Contracts/Lottery_flattened.sol\":9148:9387  function _transferOwnership(address to) private {... */\n      pop\n      jump\t// out\n        /* \"Contracts/Lottery_flattened.sol\":523:686  function _argsToBytes(ExtraArgsV1 memory extraArgs) internal pure returns (bytes memory bts) {... */\n    tag_278:\n        /* \"Contracts/Lottery_flattened.sol\":598:614  bytes memory bts */\n      0x60\n        /* \"Contracts/Lottery_flattened.sol\":259:287  keccak256(\"VRF ExtraArgsV1\") */\n      0x92fd13387c7fe7befbc38d303d6468778fb9731bc4583f17d92989c6fcfdeaaa\n        /* \"Contracts/Lottery_flattened.sol\":671:680  extraArgs */\n      dup3\n        /* \"Contracts/Lottery_flattened.sol\":629:681  abi.encodeWithSelector(EXTRA_ARGS_V1_TAG, extraArgs) */\n      add(0x24, mload(0x40))\n      tag_295\n      swap2\n      swap1\n      tag_296\n      jump\t// in\n    tag_295:\n      mload(0x40)\n      0x20\n      dup2\n      dup4\n      sub\n      sub\n      dup2\n      mstore\n      swap1\n      0x40\n      mstore\n      swap1\n      not(0xffffffffffffffffffffffffffffffffffffffffffffffffffffffff)\n      and\n      0x20\n      dup3\n      add\n      dup1\n      mload\n      0xffffffffffffffffffffffffffffffffffffffffffffffffffffffff\n      dup4\n      dup2\n      dup4\n      and\n      or\n      dup4\n      mstore\n      pop\n      pop\n      pop\n      pop\n        /* \"Contracts/Lottery_flattened.sol\":622:681  return abi.encodeWithSelector(EXTRA_ARGS_V1_TAG, extraArgs) */\n      swap1\n      pop\n        /* \"Contracts/Lottery_flattened.sol\":523:686  function _argsToBytes(ExtraArgsV1 memory extraArgs) internal pure returns (bytes memory bts) {... */\n      swap2\n      swap1\n      pop\n      jump\t// out\n    tag_263:\n      pop\n      dup1\n      sload\n      0x00\n      dup3\n      sstore\n      swap1\n      0x00\n      mstore\n      keccak256(0x00, 0x20)\n      swap1\n      dup2\n      add\n      swap1\n      tag_298\n      swap2\n      swap1\n      tag_299\n      jump\t// in\n    tag_298:\n      pop\n      jump\t// out\n    tag_299:\n    tag_300:\n      dup1\n      dup3\n      gt\n      iszero\n      tag_301\n      jumpi\n      0x00\n      dup2\n      0x00\n      swap1\n      sstore\n      pop\n      0x01\n      add\n      jump(tag_300)\n    tag_301:\n      pop\n      swap1\n      jump\t// out\n        /* \"#utility.yul\":88:205   */\n    tag_303:\n        /* \"#utility.yul\":197:198   */\n      0x00\n        /* \"#utility.yul\":194:195   */\n      dup1\n        /* \"#utility.yul\":187:199   */\n      revert\n        /* \"#utility.yul\":211:328   */\n    tag_304:\n        /* \"#utility.yul\":320:321   */\n      0x00\n        /* \"#utility.yul\":317:318   */\n      dup1\n        /* \"#utility.yul\":310:322   */\n      revert\n        /* \"#utility.yul\":334:411   */\n    tag_305:\n        /* \"#utility.yul\":371:378   */\n      0x00\n        /* \"#utility.yul\":400:405   */\n      dup2\n        /* \"#utility.yul\":389:405   */\n      swap1\n      pop\n        /* \"#utility.yul\":334:411   */\n      swap2\n      swap1\n      pop\n      jump\t// out\n        /* \"#utility.yul\":417:539   */\n    tag_306:\n        /* \"#utility.yul\":490:514   */\n      tag_384\n        /* \"#utility.yul\":508:513   */\n      dup2\n        /* \"#utility.yul\":490:514   */\n      tag_305\n      jump\t// in\n    tag_384:\n        /* \"#utility.yul\":483:488   */\n      dup2\n        /* \"#utility.yul\":480:515   */\n      eq\n        /* \"#utility.yul\":470:533   */\n      tag_385\n      jumpi\n        /* \"#utility.yul\":529:530   */\n      0x00\n        /* \"#utility.yul\":526:527   */\n      dup1\n        /* \"#utility.yul\":519:531   */\n      revert\n        /* \"#utility.yul\":470:533   */\n    tag_385:\n        /* \"#utility.yul\":417:539   */\n      pop\n      jump\t// out\n        /* \"#utility.yul\":545:684   */\n    tag_307:\n        /* \"#utility.yul\":591:596   */\n      0x00\n        /* \"#utility.yul\":629:635   */\n      dup2\n        /* \"#utility.yul\":616:636   */\n      calldataload\n        /* \"#utility.yul\":607:636   */\n      swap1\n      pop\n        /* \"#utility.yul\":645:678   */\n      tag_387\n        /* \"#utility.yul\":672:677   */\n      dup2\n        /* \"#utility.yul\":645:678   */\n      tag_306\n      jump\t// in\n    tag_387:\n        /* \"#utility.yul\":545:684   */\n      swap3\n      swap2\n      pop\n      pop\n      jump\t// out\n        /* \"#utility.yul\":690:807   */\n    tag_308:\n        /* \"#utility.yul\":799:800   */\n      0x00\n        /* \"#utility.yul\":796:797   */\n      dup1\n        /* \"#utility.yul\":789:801   */\n      revert\n        /* \"#utility.yul\":813:930   */\n    tag_309:\n        /* \"#utility.yul\":922:923   */\n      0x00\n        /* \"#utility.yul\":919:920   */\n      dup1\n        /* \"#utility.yul\":912:924   */\n      revert\n        /* \"#utility.yul\":936:1053   */\n    tag_310:\n        /* \"#utility.yul\":1045:1046   */\n      0x00\n        /* \"#utility.yul\":1042:1043   */\n      dup1\n        /* \"#utility.yul\":1035:1047   */\n      revert\n        /* \"#utility.yul\":1076:1644   */\n    tag_311:\n        /* \"#utility.yul\":1149:1157   */\n      0x00\n        /* \"#utility.yul\":1159:1165   */\n      dup1\n        /* \"#utility.yul\":1209:1212   */\n      dup4\n        /* \"#utility.yul\":1202:1206   */\n      0x1f\n        /* \"#utility.yul\":1194:1200   */\n      dup5\n        /* \"#utility.yul\":1190:1207   */\n      add\n        /* \"#utility.yul\":1186:1213   */\n      slt\n        /* \"#utility.yul\":1176:1298   */\n      tag_392\n      jumpi\n        /* \"#utility.yul\":1217:1296   */\n      tag_393\n      tag_308\n      jump\t// in\n    tag_393:\n        /* \"#utility.yul\":1176:1298   */\n    tag_392:\n        /* \"#utility.yul\":1330:1336   */\n      dup3\n        /* \"#utility.yul\":1317:1337   */\n      calldataload\n        /* \"#utility.yul\":1307:1337   */\n      swap1\n      pop\n        /* \"#utility.yul\":1360:1378   */\n      0xffffffffffffffff\n        /* \"#utility.yul\":1352:1358   */\n      dup2\n        /* \"#utility.yul\":1349:1379   */\n      gt\n        /* \"#utility.yul\":1346:1463   */\n      iszero\n      tag_394\n      jumpi\n        /* \"#utility.yul\":1382:1461   */\n      tag_395\n      tag_309\n      jump\t// in\n    tag_395:\n        /* \"#utility.yul\":1346:1463   */\n    tag_394:\n        /* \"#utility.yul\":1496:1500   */\n      0x20\n        /* \"#utility.yul\":1488:1494   */\n      dup4\n        /* \"#utility.yul\":1484:1501   */\n      add\n        /* \"#utility.yul\":1472:1501   */\n      swap2\n      pop\n        /* \"#utility.yul\":1550:1553   */\n      dup4\n        /* \"#utility.yul\":1542:1546   */\n      0x20\n        /* \"#utility.yul\":1534:1540   */\n      dup3\n        /* \"#utility.yul\":1530:1547   */\n      mul\n        /* \"#utility.yul\":1520:1528   */\n      dup4\n        /* \"#utility.yul\":1516:1548   */\n      add\n        /* \"#utility.yul\":1513:1554   */\n      gt\n        /* \"#utility.yul\":1510:1638   */\n      iszero\n      tag_396\n      jumpi\n        /* \"#utility.yul\":1557:1636   */\n      tag_397\n      tag_310\n      jump\t// in\n    tag_397:\n        /* \"#utility.yul\":1510:1638   */\n    tag_396:\n        /* \"#utility.yul\":1076:1644   */\n      swap3\n      pop\n      swap3\n      swap1\n      pop\n      jump\t// out\n        /* \"#utility.yul\":1650:2354   */\n    tag_41:\n        /* \"#utility.yul\":1745:1751   */\n      0x00\n        /* \"#utility.yul\":1753:1759   */\n      dup1\n        /* \"#utility.yul\":1761:1767   */\n      0x00\n        /* \"#utility.yul\":1810:1812   */\n      0x40\n        /* \"#utility.yul\":1798:1807   */\n      dup5\n        /* \"#utility.yul\":1789:1796   */\n      dup7\n        /* \"#utility.yul\":1785:1808   */\n      sub\n        /* \"#utility.yul\":1781:1813   */\n      slt\n        /* \"#utility.yul\":1778:1897   */\n      iszero\n      tag_399\n      jumpi\n        /* \"#utility.yul\":1816:1895   */\n      tag_400\n      tag_303\n      jump\t// in\n    tag_400:\n        /* \"#utility.yul\":1778:1897   */\n    tag_399:\n        /* \"#utility.yul\":1936:1937   */\n      0x00\n        /* \"#utility.yul\":1961:2014   */\n      tag_401\n        /* \"#utility.yul\":2006:2013   */\n      dup7\n        /* \"#utility.yul\":1997:2003   */\n      dup3\n        /* \"#utility.yul\":1986:1995   */\n      dup8\n        /* \"#utility.yul\":1982:2004   */\n      add\n        /* \"#utility.yul\":1961:2014   */\n      tag_307\n      jump\t// in\n    tag_401:\n        /* \"#utility.yul\":1951:2014   */\n      swap4\n      pop\n        /* \"#utility.yul\":1907:2024   */\n      pop\n        /* \"#utility.yul\":2091:2093   */\n      0x20\n        /* \"#utility.yul\":2080:2089   */\n      dup5\n        /* \"#utility.yul\":2076:2094   */\n      add\n        /* \"#utility.yul\":2063:2095   */\n      calldataload\n        /* \"#utility.yul\":2122:2140   */\n      0xffffffffffffffff\n        /* \"#utility.yul\":2114:2120   */\n      dup2\n        /* \"#utility.yul\":2111:2141   */\n      gt\n        /* \"#utility.yul\":2108:2225   */\n      iszero\n      tag_402\n      jumpi\n        /* \"#utility.yul\":2144:2223   */\n      tag_403\n      tag_304\n      jump\t// in\n    tag_403:\n        /* \"#utility.yul\":2108:2225   */\n    tag_402:\n        /* \"#utility.yul\":2257:2337   */\n      tag_404\n        /* \"#utility.yul\":2329:2336   */\n      dup7\n        /* \"#utility.yul\":2320:2326   */\n      dup3\n        /* \"#utility.yul\":2309:2318   */\n      dup8\n        /* \"#utility.yul\":2305:2327   */\n      add\n        /* \"#utility.yul\":2257:2337   */\n      tag_311\n      jump\t// in\n    tag_404:\n        /* \"#utility.yul\":2239:2337   */\n      swap3\n      pop\n      swap3\n      pop\n        /* \"#utility.yul\":2034:2347   */\n      pop\n        /* \"#utility.yul\":1650:2354   */\n      swap3\n      pop\n      swap3\n      pop\n      swap3\n      jump\t// out\n        /* \"#utility.yul\":2360:2453   */\n    tag_312:\n        /* \"#utility.yul\":2396:2403   */\n      0x00\n        /* \"#utility.yul\":2436:2446   */\n      0xffffffff\n        /* \"#utility.yul\":2429:2434   */\n      dup3\n        /* \"#utility.yul\":2425:2447   */\n      and\n        /* \"#utility.yul\":2414:2447   */\n      swap1\n      pop\n        /* \"#utility.yul\":2360:2453   */\n      swap2\n      swap1\n      pop\n      jump\t// out\n        /* \"#utility.yul\":2459:2574   */\n    tag_313:\n        /* \"#utility.yul\":2544:2567   */\n      tag_407\n        /* \"#utility.yul\":2561:2566   */\n      dup2\n        /* \"#utility.yul\":2544:2567   */\n      tag_312\n      jump\t// in\n    tag_407:\n        /* \"#utility.yul\":2539:2542   */\n      dup3\n        /* \"#utility.yul\":2532:2568   */\n      mstore\n        /* \"#utility.yul\":2459:2574   */\n      pop\n      pop\n      jump\t// out\n        /* \"#utility.yul\":2580:2798   */\n    tag_47:\n        /* \"#utility.yul\":2671:2675   */\n      0x00\n        /* \"#utility.yul\":2709:2711   */\n      0x20\n        /* \"#utility.yul\":2698:2707   */\n      dup3\n        /* \"#utility.yul\":2694:2712   */\n      add\n        /* \"#utility.yul\":2686:2712   */\n      swap1\n      pop\n        /* \"#utility.yul\":2722:2791   */\n      tag_409\n        /* \"#utility.yul\":2788:2789   */\n      0x00\n        /* \"#utility.yul\":2777:2786   */\n      dup4\n        /* \"#utility.yul\":2773:2790   */\n      add\n        /* \"#utility.yul\":2764:2770   */\n      dup5\n        /* \"#utility.yul\":2722:2791   */\n      tag_313\n      jump\t// in\n    tag_409:\n        /* \"#utility.yul\":2580:2798   */\n      swap3\n      swap2\n      pop\n      pop\n      jump\t// out\n        /* \"#utility.yul\":2804:2922   */\n    tag_314:\n        /* \"#utility.yul\":2891:2915   */\n      tag_411\n        /* \"#utility.yul\":2909:2914   */\n      dup2\n        /* \"#utility.yul\":2891:2915   */\n      tag_305\n      jump\t// in\n    tag_411:\n        /* \"#utility.yul\":2886:2889   */\n      dup3\n        /* \"#utility.yul\":2879:2916   */\n      mstore\n        /* \"#utility.yul\":2804:2922   */\n      pop\n      pop\n      jump\t// out\n        /* \"#utility.yul\":2928:3150   */\n    tag_52:\n        /* \"#utility.yul\":3021:3025   */\n      0x00\n        /* \"#utility.yul\":3059:3061   */\n      0x20\n        /* \"#utility.yul\":3048:3057   */\n      dup3\n        /* \"#utility.yul\":3044:3062   */\n      add\n        /* \"#utility.yul\":3036:3062   */\n      swap1\n      pop\n        /* \"#utility.yul\":3072:3143   */\n      tag_413\n        /* \"#utility.yul\":3140:3141   */\n      0x00\n        /* \"#utility.yul\":3129:3138   */\n      dup4\n        /* \"#utility.yul\":3125:3142   */\n      add\n        /* \"#utility.yul\":3116:3122   */\n      dup5\n        /* \"#utility.yul\":3072:3143   */\n      tag_314\n      jump\t// in\n    tag_413:\n        /* \"#utility.yul\":2928:3150   */\n      swap3\n      swap2\n      pop\n      pop\n      jump\t// out\n        /* \"#utility.yul\":3156:3485   */\n    tag_63:\n        /* \"#utility.yul\":3215:3221   */\n      0x00\n        /* \"#utility.yul\":3264:3266   */\n      0x20\n        /* \"#utility.yul\":3252:3261   */\n      dup3\n        /* \"#utility.yul\":3243:3250   */\n      dup5\n        /* \"#utility.yul\":3239:3262   */\n      sub\n        /* \"#utility.yul\":3235:3267   */\n      slt\n        /* \"#utility.yul\":3232:3351   */\n      iszero\n      tag_415\n      jumpi\n        /* \"#utility.yul\":3270:3349   */\n      tag_416\n      tag_303\n      jump\t// in\n    tag_416:\n        /* \"#utility.yul\":3232:3351   */\n    tag_415:\n        /* \"#utility.yul\":3390:3391   */\n      0x00\n        /* \"#utility.yul\":3415:3468   */\n      tag_417\n        /* \"#utility.yul\":3460:3467   */\n      dup5\n        /* \"#utility.yul\":3451:3457   */\n      dup3\n        /* \"#utility.yul\":3440:3449   */\n      dup6\n        /* \"#utility.yul\":3436:3458   */\n      add\n        /* \"#utility.yul\":3415:3468   */\n      tag_307\n      jump\t// in\n    tag_417:\n        /* \"#utility.yul\":3405:3468   */\n      swap2\n      pop\n        /* \"#utility.yul\":3361:3478   */\n      pop\n        /* \"#utility.yul\":3156:3485   */\n      swap3\n      swap2\n      pop\n      pop\n      jump\t// out\n        /* \"#utility.yul\":3504:4056   */\n    tag_315:\n        /* \"#utility.yul\":3561:3569   */\n      0x00\n        /* \"#utility.yul\":3571:3577   */\n      dup1\n        /* \"#utility.yul\":3621:3624   */\n      dup4\n        /* \"#utility.yul\":3614:3618   */\n      0x1f\n        /* \"#utility.yul\":3606:3612   */\n      dup5\n        /* \"#utility.yul\":3602:3619   */\n      add\n        /* \"#utility.yul\":3598:3625   */\n      slt\n        /* \"#utility.yul\":3588:3710   */\n      tag_419\n      jumpi\n        /* \"#utility.yul\":3629:3708   */\n      tag_420\n      tag_308\n      jump\t// in\n    tag_420:\n        /* \"#utility.yul\":3588:3710   */\n    tag_419:\n        /* \"#utility.yul\":3742:3748   */\n      dup3\n        /* \"#utility.yul\":3729:3749   */\n      calldataload\n        /* \"#utility.yul\":3719:3749   */\n      swap1\n      pop\n        /* \"#utility.yul\":3772:3790   */\n      0xffffffffffffffff\n        /* \"#utility.yul\":3764:3770   */\n      dup2\n        /* \"#utility.yul\":3761:3791   */\n      gt\n        /* \"#utility.yul\":3758:3875   */\n      iszero\n      tag_421\n      jumpi\n        /* \"#utility.yul\":3794:3873   */\n      tag_422\n      tag_309\n      jump\t// in\n    tag_422:\n        /* \"#utility.yul\":3758:3875   */\n    tag_421:\n        /* \"#utility.yul\":3908:3912   */\n      0x20\n        /* \"#utility.yul\":3900:3906   */\n      dup4\n        /* \"#utility.yul\":3896:3913   */\n      add\n        /* \"#utility.yul\":3884:3913   */\n      swap2\n      pop\n        /* \"#utility.yul\":3962:3965   */\n      dup4\n        /* \"#utility.yul\":3954:3958   */\n      0x01\n        /* \"#utility.yul\":3946:3952   */\n      dup3\n        /* \"#utility.yul\":3942:3959   */\n      mul\n        /* \"#utility.yul\":3932:3940   */\n      dup4\n        /* \"#utility.yul\":3928:3960   */\n      add\n        /* \"#utility.yul\":3925:3966   */\n      gt\n        /* \"#utility.yul\":3922:4050   */\n      iszero\n      tag_423\n      jumpi\n        /* \"#utility.yul\":3969:4048   */\n      tag_424\n      tag_310\n      jump\t// in\n    tag_424:\n        /* \"#utility.yul\":3922:4050   */\n    tag_423:\n        /* \"#utility.yul\":3504:4056   */\n      swap3\n      pop\n      swap3\n      swap1\n      pop\n      jump\t// out\n        /* \"#utility.yul\":4062:4589   */\n    tag_68:\n        /* \"#utility.yul\":4132:4138   */\n      0x00\n        /* \"#utility.yul\":4140:4146   */\n      dup1\n        /* \"#utility.yul\":4189:4191   */\n      0x20\n        /* \"#utility.yul\":4177:4186   */\n      dup4\n        /* \"#utility.yul\":4168:4175   */\n      dup6\n        /* \"#utility.yul\":4164:4187   */\n      sub\n        /* \"#utility.yul\":4160:4192   */\n      slt\n        /* \"#utility.yul\":4157:4276   */\n      iszero\n      tag_426\n      jumpi\n        /* \"#utility.yul\":4195:4274   */\n      tag_427\n      tag_303\n      jump\t// in\n    tag_427:\n        /* \"#utility.yul\":4157:4276   */\n    tag_426:\n        /* \"#utility.yul\":4343:4344   */\n      0x00\n        /* \"#utility.yul\":4332:4341   */\n      dup4\n        /* \"#utility.yul\":4328:4345   */\n      add\n        /* \"#utility.yul\":4315:4346   */\n      calldataload\n        /* \"#utility.yul\":4373:4391   */\n      0xffffffffffffffff\n        /* \"#utility.yul\":4365:4371   */\n      dup2\n        /* \"#utility.yul\":4362:4392   */\n      gt\n        /* \"#utility.yul\":4359:4476   */\n      iszero\n      tag_428\n      jumpi\n        /* \"#utility.yul\":4395:4474   */\n      tag_429\n      tag_304\n      jump\t// in\n    tag_429:\n        /* \"#utility.yul\":4359:4476   */\n    tag_428:\n        /* \"#utility.yul\":4508:4572   */\n      tag_430\n        /* \"#utility.yul\":4564:4571   */\n      dup6\n        /* \"#utility.yul\":4555:4561   */\n      dup3\n        /* \"#utility.yul\":4544:4553   */\n      dup7\n        /* \"#utility.yul\":4540:4562   */\n      add\n        /* \"#utility.yul\":4508:4572   */\n      tag_315\n      jump\t// in\n    tag_430:\n        /* \"#utility.yul\":4490:4572   */\n      swap3\n      pop\n      swap3\n      pop\n        /* \"#utility.yul\":4286:4582   */\n      pop\n        /* \"#utility.yul\":4062:4589   */\n      swap3\n      pop\n      swap3\n      swap1\n      pop\n      jump\t// out\n        /* \"#utility.yul\":4595:4672   */\n    tag_316:\n        /* \"#utility.yul\":4632:4639   */\n      0x00\n        /* \"#utility.yul\":4661:4666   */\n      dup2\n        /* \"#utility.yul\":4650:4666   */\n      swap1\n      pop\n        /* \"#utility.yul\":4595:4672   */\n      swap2\n      swap1\n      pop\n      jump\t// out\n        /* \"#utility.yul\":4678:4796   */\n    tag_317:\n        /* \"#utility.yul\":4765:4789   */\n      tag_433\n        /* \"#utility.yul\":4783:4788   */\n      dup2\n        /* \"#utility.yul\":4765:4789   */\n      tag_316\n      jump\t// in\n    tag_433:\n        /* \"#utility.yul\":4760:4763   */\n      dup3\n        /* \"#utility.yul\":4753:4790   */\n      mstore\n        /* \"#utility.yul\":4678:4796   */\n      pop\n      pop\n      jump\t// out\n        /* \"#utility.yul\":4802:5024   */\n    tag_74:\n        /* \"#utility.yul\":4895:4899   */\n      0x00\n        /* \"#utility.yul\":4933:4935   */\n      0x20\n        /* \"#utility.yul\":4922:4931   */\n      dup3\n        /* \"#utility.yul\":4918:4936   */\n      add\n        /* \"#utility.yul\":4910:4936   */\n      swap1\n      pop\n        /* \"#utility.yul\":4946:5017   */\n      tag_435\n        /* \"#utility.yul\":5014:5015   */\n      0x00\n        /* \"#utility.yul\":5003:5012   */\n      dup4\n        /* \"#utility.yul\":4999:5016   */\n      add\n        /* \"#utility.yul\":4990:4996   */\n      dup5\n        /* \"#utility.yul\":4946:5017   */\n      tag_317\n      jump\t// in\n    tag_435:\n        /* \"#utility.yul\":4802:5024   */\n      swap3\n      swap2\n      pop\n      pop\n      jump\t// out\n        /* \"#utility.yul\":5030:5120   */\n    tag_318:\n        /* \"#utility.yul\":5064:5071   */\n      0x00\n        /* \"#utility.yul\":5107:5112   */\n      dup2\n        /* \"#utility.yul\":5100:5113   */\n      iszero\n        /* \"#utility.yul\":5093:5114   */\n      iszero\n        /* \"#utility.yul\":5082:5114   */\n      swap1\n      pop\n        /* \"#utility.yul\":5030:5120   */\n      swap2\n      swap1\n      pop\n      jump\t// out\n        /* \"#utility.yul\":5126:5235   */\n    tag_319:\n        /* \"#utility.yul\":5207:5228   */\n      tag_438\n        /* \"#utility.yul\":5222:5227   */\n      dup2\n        /* \"#utility.yul\":5207:5228   */\n      tag_318\n      jump\t// in\n    tag_438:\n        /* \"#utility.yul\":5202:5205   */\n      dup3\n        /* \"#utility.yul\":5195:5229   */\n      mstore\n        /* \"#utility.yul\":5126:5235   */\n      pop\n      pop\n      jump\t// out\n        /* \"#utility.yul\":5241:5339   */\n    tag_320:\n        /* \"#utility.yul\":5292:5298   */\n      0x00\n        /* \"#utility.yul\":5326:5331   */\n      dup2\n        /* \"#utility.yul\":5320:5332   */\n      mload\n        /* \"#utility.yul\":5310:5332   */\n      swap1\n      pop\n        /* \"#utility.yul\":5241:5339   */\n      swap2\n      swap1\n      pop\n      jump\t// out\n        /* \"#utility.yul\":5345:5513   */\n    tag_321:\n        /* \"#utility.yul\":5428:5439   */\n      0x00\n        /* \"#utility.yul\":5462:5468   */\n      dup3\n        /* \"#utility.yul\":5457:5460   */\n      dup3\n        /* \"#utility.yul\":5450:5469   */\n      mstore\n        /* \"#utility.yul\":5502:5506   */\n      0x20\n        /* \"#utility.yul\":5497:5500   */\n      dup3\n        /* \"#utility.yul\":5493:5507   */\n      add\n        /* \"#utility.yul\":5478:5507   */\n      swap1\n      pop\n        /* \"#utility.yul\":5345:5513   */\n      swap3\n      swap2\n      pop\n      pop\n      jump\t// out\n        /* \"#utility.yul\":5519:5765   */\n    tag_322:\n        /* \"#utility.yul\":5600:5601   */\n      0x00\n        /* \"#utility.yul\":5610:5723   */\n    tag_442:\n        /* \"#utility.yul\":5624:5630   */\n      dup4\n        /* \"#utility.yul\":5621:5622   */\n      dup2\n        /* \"#utility.yul\":5618:5631   */\n      lt\n        /* \"#utility.yul\":5610:5723   */\n      iszero\n      tag_444\n      jumpi\n        /* \"#utility.yul\":5709:5710   */\n      dup1\n        /* \"#utility.yul\":5704:5707   */\n      dup3\n        /* \"#utility.yul\":5700:5711   */\n      add\n        /* \"#utility.yul\":5694:5712   */\n      mload\n        /* \"#utility.yul\":5690:5691   */\n      dup2\n        /* \"#utility.yul\":5685:5688   */\n      dup5\n        /* \"#utility.yul\":5681:5692   */\n      add\n        /* \"#utility.yul\":5674:5713   */\n      mstore\n        /* \"#utility.yul\":5646:5648   */\n      0x20\n        /* \"#utility.yul\":5643:5644   */\n      dup2\n        /* \"#utility.yul\":5639:5649   */\n      add\n        /* \"#utility.yul\":5634:5649   */\n      swap1\n      pop\n        /* \"#utility.yul\":5610:5723   */\n      jump(tag_442)\n    tag_444:\n        /* \"#utility.yul\":5757:5758   */\n      0x00\n        /* \"#utility.yul\":5748:5754   */\n      dup5\n        /* \"#utility.yul\":5743:5746   */\n      dup5\n        /* \"#utility.yul\":5739:5755   */\n      add\n        /* \"#utility.yul\":5732:5759   */\n      mstore\n        /* \"#utility.yul\":5581:5765   */\n      pop\n        /* \"#utility.yul\":5519:5765   */\n      pop\n      pop\n      pop\n      jump\t// out\n        /* \"#utility.yul\":5771:5873   */\n    tag_323:\n        /* \"#utility.yul\":5812:5818   */\n      0x00\n        /* \"#utility.yul\":5863:5865   */\n      0x1f\n        /* \"#utility.yul\":5859:5866   */\n      not\n        /* \"#utility.yul\":5854:5856   */\n      0x1f\n        /* \"#utility.yul\":5847:5852   */\n      dup4\n        /* \"#utility.yul\":5843:5857   */\n      add\n        /* \"#utility.yul\":5839:5867   */\n      and\n        /* \"#utility.yul\":5829:5867   */\n      swap1\n      pop\n        /* \"#utility.yul\":5771:5873   */\n      swap2\n      swap1\n      pop\n      jump\t// out\n        /* \"#utility.yul\":5879:6252   */\n    tag_324:\n        /* \"#utility.yul\":5965:5968   */\n      0x00\n        /* \"#utility.yul\":5993:6031   */\n      tag_447\n        /* \"#utility.yul\":6025:6030   */\n      dup3\n        /* \"#utility.yul\":5993:6031   */\n      tag_320\n      jump\t// in\n    tag_447:\n        /* \"#utility.yul\":6047:6117   */\n      tag_448\n        /* \"#utility.yul\":6110:6116   */\n      dup2\n        /* \"#utility.yul\":6105:6108   */\n      dup6\n        /* \"#utility.yul\":6047:6117   */\n      tag_321\n      jump\t// in\n    tag_448:\n        /* \"#utility.yul\":6040:6117   */\n      swap4\n      pop\n        /* \"#utility.yul\":6126:6191   */\n      tag_449\n        /* \"#utility.yul\":6184:6190   */\n      dup2\n        /* \"#utility.yul\":6179:6182   */\n      dup6\n        /* \"#utility.yul\":6172:6176   */\n      0x20\n        /* \"#utility.yul\":6165:6170   */\n      dup7\n        /* \"#utility.yul\":6161:6177   */\n      add\n        /* \"#utility.yul\":6126:6191   */\n      tag_322\n      jump\t// in\n    tag_449:\n        /* \"#utility.yul\":6216:6245   */\n      tag_450\n        /* \"#utility.yul\":6238:6244   */\n      dup2\n        /* \"#utility.yul\":6216:6245   */\n      tag_323\n      jump\t// in\n    tag_450:\n        /* \"#utility.yul\":6211:6214   */\n      dup5\n        /* \"#utility.yul\":6207:6246   */\n      add\n        /* \"#utility.yul\":6200:6246   */\n      swap2\n      pop\n        /* \"#utility.yul\":5969:6252   */\n      pop\n        /* \"#utility.yul\":5879:6252   */\n      swap3\n      swap2\n      pop\n      pop\n      jump\t// out\n        /* \"#utility.yul\":6258:6665   */\n    tag_80:\n        /* \"#utility.yul\":6391:6395   */\n      0x00\n        /* \"#utility.yul\":6429:6431   */\n      0x40\n        /* \"#utility.yul\":6418:6427   */\n      dup3\n        /* \"#utility.yul\":6414:6432   */\n      add\n        /* \"#utility.yul\":6406:6432   */\n      swap1\n      pop\n        /* \"#utility.yul\":6442:6507   */\n      tag_452\n        /* \"#utility.yul\":6504:6505   */\n      0x00\n        /* \"#utility.yul\":6493:6502   */\n      dup4\n        /* \"#utility.yul\":6489:6506   */\n      add\n        /* \"#utility.yul\":6480:6486   */\n      dup6\n        /* \"#utility.yul\":6442:6507   */\n      tag_319\n      jump\t// in\n    tag_452:\n        /* \"#utility.yul\":6554:6563   */\n      dup2\n        /* \"#utility.yul\":6548:6552   */\n      dup2\n        /* \"#utility.yul\":6544:6564   */\n      sub\n        /* \"#utility.yul\":6539:6541   */\n      0x20\n        /* \"#utility.yul\":6528:6537   */\n      dup4\n        /* \"#utility.yul\":6524:6542   */\n      add\n        /* \"#utility.yul\":6517:6565   */\n      mstore\n        /* \"#utility.yul\":6582:6658   */\n      tag_453\n        /* \"#utility.yul\":6653:6657   */\n      dup2\n        /* \"#utility.yul\":6644:6650   */\n      dup5\n        /* \"#utility.yul\":6582:6658   */\n      tag_324\n      jump\t// in\n    tag_453:\n        /* \"#utility.yul\":6574:6658   */\n      swap1\n      pop\n        /* \"#utility.yul\":6258:6665   */\n      swap4\n      swap3\n      pop\n      pop\n      pop\n      jump\t// out\n        /* \"#utility.yul\":6671:6793   */\n    tag_325:\n        /* \"#utility.yul\":6746:6752   */\n      0x00\n        /* \"#utility.yul\":6780:6785   */\n      dup2\n        /* \"#utility.yul\":6774:6786   */\n      mload\n        /* \"#utility.yul\":6764:6786   */\n      swap1\n      pop\n        /* \"#utility.yul\":6671:6793   */\n      swap2\n      swap1\n      pop\n      jump\t// out\n        /* \"#utility.yul\":6799:6991   */\n    tag_326:\n        /* \"#utility.yul\":6906:6917   */\n      0x00\n        /* \"#utility.yul\":6940:6946   */\n      dup3\n        /* \"#utility.yul\":6935:6938   */\n      dup3\n        /* \"#utility.yul\":6928:6947   */\n      mstore\n        /* \"#utility.yul\":6980:6984   */\n      0x20\n        /* \"#utility.yul\":6975:6978   */\n      dup3\n        /* \"#utility.yul\":6971:6985   */\n      add\n        /* \"#utility.yul\":6956:6985   */\n      swap1\n      pop\n        /* \"#utility.yul\":6799:6991   */\n      swap3\n      swap2\n      pop\n      pop\n      jump\t// out\n        /* \"#utility.yul\":6997:7137   */\n    tag_327:\n        /* \"#utility.yul\":7072:7076   */\n      0x00\n        /* \"#utility.yul\":7095:7098   */\n      dup2\n        /* \"#utility.yul\":7087:7098   */\n      swap1\n      pop\n        /* \"#utility.yul\":7125:7129   */\n      0x20\n        /* \"#utility.yul\":7120:7123   */\n      dup3\n        /* \"#utility.yul\":7116:7130   */\n      add\n        /* \"#utility.yul\":7108:7130   */\n      swap1\n      pop\n        /* \"#utility.yul\":6997:7137   */\n      swap2\n      swap1\n      pop\n      jump\t// out\n        /* \"#utility.yul\":7143:7269   */\n    tag_328:\n        /* \"#utility.yul\":7180:7187   */\n      0x00\n        /* \"#utility.yul\":7220:7262   */\n      0xffffffffffffffffffffffffffffffffffffffff\n        /* \"#utility.yul\":7213:7218   */\n      dup3\n        /* \"#utility.yul\":7209:7263   */\n      and\n        /* \"#utility.yul\":7198:7263   */\n      swap1\n      pop\n        /* \"#utility.yul\":7143:7269   */\n      swap2\n      swap1\n      pop\n      jump\t// out\n        /* \"#utility.yul\":7275:7379   */\n    tag_329:\n        /* \"#utility.yul\":7320:7327   */\n      0x00\n        /* \"#utility.yul\":7349:7373   */\n      tag_459\n        /* \"#utility.yul\":7367:7372   */\n      dup3\n        /* \"#utility.yul\":7349:7373   */\n      tag_328\n      jump\t// in\n    tag_459:\n        /* \"#utility.yul\":7338:7373   */\n      swap1\n      pop\n        /* \"#utility.yul\":7275:7379   */\n      swap2\n      swap1\n      pop\n      jump\t// out\n        /* \"#utility.yul\":7385:7517   */\n    tag_330:\n        /* \"#utility.yul\":7478:7510   */\n      tag_461\n        /* \"#utility.yul\":7504:7509   */\n      dup2\n        /* \"#utility.yul\":7478:7510   */\n      tag_329\n      jump\t// in\n    tag_461:\n        /* \"#utility.yul\":7473:7476   */\n      dup3\n        /* \"#utility.yul\":7466:7511   */\n      mstore\n        /* \"#utility.yul\":7385:7517   */\n      pop\n      pop\n      jump\t// out\n        /* \"#utility.yul\":7523:7734   */\n    tag_331:\n        /* \"#utility.yul\":7608:7618   */\n      0x00\n        /* \"#utility.yul\":7629:7691   */\n      tag_463\n        /* \"#utility.yul\":7687:7690   */\n      dup4\n        /* \"#utility.yul\":7679:7685   */\n      dup4\n        /* \"#utility.yul\":7629:7691   */\n      tag_330\n      jump\t// in\n    tag_463:\n        /* \"#utility.yul\":7723:7727   */\n      0x20\n        /* \"#utility.yul\":7718:7721   */\n      dup4\n        /* \"#utility.yul\":7714:7728   */\n      add\n        /* \"#utility.yul\":7700:7728   */\n      swap1\n      pop\n        /* \"#utility.yul\":7523:7734   */\n      swap3\n      swap2\n      pop\n      pop\n      jump\t// out\n        /* \"#utility.yul\":7740:7861   */\n    tag_332:\n        /* \"#utility.yul\":7818:7822   */\n      0x00\n        /* \"#utility.yul\":7850:7854   */\n      0x20\n        /* \"#utility.yul\":7845:7848   */\n      dup3\n        /* \"#utility.yul\":7841:7855   */\n      add\n        /* \"#utility.yul\":7833:7855   */\n      swap1\n      pop\n        /* \"#utility.yul\":7740:7861   */\n      swap2\n      swap1\n      pop\n      jump\t// out\n        /* \"#utility.yul\":7913:8709   */\n    tag_333:\n        /* \"#utility.yul\":8048:8051   */\n      0x00\n        /* \"#utility.yul\":8077:8139   */\n      tag_466\n        /* \"#utility.yul\":8133:8138   */\n      dup3\n        /* \"#utility.yul\":8077:8139   */\n      tag_325\n      jump\t// in\n    tag_466:\n        /* \"#utility.yul\":8155:8249   */\n      tag_467\n        /* \"#utility.yul\":8242:8248   */\n      dup2\n        /* \"#utility.yul\":8237:8240   */\n      dup6\n        /* \"#utility.yul\":8155:8249   */\n      tag_326\n      jump\t// in\n    tag_467:\n        /* \"#utility.yul\":8148:8249   */\n      swap4\n      pop\n        /* \"#utility.yul\":8273:8337   */\n      tag_468\n        /* \"#utility.yul\":8331:8336   */\n      dup4\n        /* \"#utility.yul\":8273:8337   */\n      tag_327\n      jump\t// in\n    tag_468:\n        /* \"#utility.yul\":8360:8367   */\n      dup1\n        /* \"#utility.yul\":8391:8392   */\n      0x00\n        /* \"#utility.yul\":8376:8684   */\n    tag_469:\n        /* \"#utility.yul\":8401:8407   */\n      dup4\n        /* \"#utility.yul\":8398:8399   */\n      dup2\n        /* \"#utility.yul\":8395:8408   */\n      lt\n        /* \"#utility.yul\":8376:8684   */\n      iszero\n      tag_471\n      jumpi\n        /* \"#utility.yul\":8477:8483   */\n      dup2\n        /* \"#utility.yul\":8471:8484   */\n      mload\n        /* \"#utility.yul\":8504:8583   */\n      tag_472\n        /* \"#utility.yul\":8579:8582   */\n      dup9\n        /* \"#utility.yul\":8564:8577   */\n      dup3\n        /* \"#utility.yul\":8504:8583   */\n      tag_331\n      jump\t// in\n    tag_472:\n        /* \"#utility.yul\":8497:8583   */\n      swap8\n      pop\n        /* \"#utility.yul\":8606:8674   */\n      tag_473\n        /* \"#utility.yul\":8667:8673   */\n      dup4\n        /* \"#utility.yul\":8606:8674   */\n      tag_332\n      jump\t// in\n    tag_473:\n        /* \"#utility.yul\":8596:8674   */\n      swap3\n      pop\n        /* \"#utility.yul\":8436:8684   */\n      pop\n        /* \"#utility.yul\":8423:8424   */\n      0x01\n        /* \"#utility.yul\":8420:8421   */\n      dup2\n        /* \"#utility.yul\":8416:8425   */\n      add\n        /* \"#utility.yul\":8411:8425   */\n      swap1\n      pop\n        /* \"#utility.yul\":8376:8684   */\n      jump(tag_469)\n    tag_471:\n        /* \"#utility.yul\":8380:8394   */\n      pop\n        /* \"#utility.yul\":8700:8703   */\n      dup6\n        /* \"#utility.yul\":8693:8703   */\n      swap4\n      pop\n        /* \"#utility.yul\":8053:8709   */\n      pop\n      pop\n      pop\n        /* \"#utility.yul\":7913:8709   */\n      swap3\n      swap2\n      pop\n      pop\n      jump\t// out\n        /* \"#utility.yul\":8715:9120   */\n    tag_96:\n        /* \"#utility.yul\":8874:8878   */\n      0x00\n        /* \"#utility.yul\":8912:8914   */\n      0x20\n        /* \"#utility.yul\":8901:8910   */\n      dup3\n        /* \"#utility.yul\":8897:8915   */\n      add\n        /* \"#utility.yul\":8889:8915   */\n      swap1\n      pop\n        /* \"#utility.yul\":8961:8970   */\n      dup2\n        /* \"#utility.yul\":8955:8959   */\n      dup2\n        /* \"#utility.yul\":8951:8971   */\n      sub\n        /* \"#utility.yul\":8947:8948   */\n      0x00\n        /* \"#utility.yul\":8936:8945   */\n      dup4\n        /* \"#utility.yul\":8932:8949   */\n      add\n        /* \"#utility.yul\":8925:8972   */\n      mstore\n        /* \"#utility.yul\":8989:9113   */\n      tag_475\n        /* \"#utility.yul\":9108:9112   */\n      dup2\n        /* \"#utility.yul\":9099:9105   */\n      dup5\n        /* \"#utility.yul\":8989:9113   */\n      tag_333\n      jump\t// in\n    tag_475:\n        /* \"#utility.yul\":8981:9113   */\n      swap1\n      pop\n        /* \"#utility.yul\":8715:9120   */\n      swap3\n      swap2\n      pop\n      pop\n      jump\t// out\n        /* \"#utility.yul\":9126:9222   */\n    tag_334:\n        /* \"#utility.yul\":9163:9170   */\n      0x00\n        /* \"#utility.yul\":9192:9216   */\n      tag_477\n        /* \"#utility.yul\":9210:9215   */\n      dup3\n        /* \"#utility.yul\":9192:9216   */\n      tag_328\n      jump\t// in\n    tag_477:\n        /* \"#utility.yul\":9181:9216   */\n      swap1\n      pop\n        /* \"#utility.yul\":9126:9222   */\n      swap2\n      swap1\n      pop\n      jump\t// out\n        /* \"#utility.yul\":9228:9346   */\n    tag_335:\n        /* \"#utility.yul\":9315:9339   */\n      tag_479\n        /* \"#utility.yul\":9333:9338   */\n      dup2\n        /* \"#utility.yul\":9315:9339   */\n      tag_334\n      jump\t// in\n    tag_479:\n        /* \"#utility.yul\":9310:9313   */\n      dup3\n        /* \"#utility.yul\":9303:9340   */\n      mstore\n        /* \"#utility.yul\":9228:9346   */\n      pop\n      pop\n      jump\t// out\n        /* \"#utility.yul\":9352:9574   */\n    tag_101:\n        /* \"#utility.yul\":9445:9449   */\n      0x00\n        /* \"#utility.yul\":9483:9485   */\n      0x20\n        /* \"#utility.yul\":9472:9481   */\n      dup3\n        /* \"#utility.yul\":9468:9486   */\n      add\n        /* \"#utility.yul\":9460:9486   */\n      swap1\n      pop\n        /* \"#utility.yul\":9496:9567   */\n      tag_481\n        /* \"#utility.yul\":9564:9565   */\n      0x00\n        /* \"#utility.yul\":9553:9562   */\n      dup4\n        /* \"#utility.yul\":9549:9566   */\n      add\n        /* \"#utility.yul\":9540:9546   */\n      dup5\n        /* \"#utility.yul\":9496:9567   */\n      tag_335\n      jump\t// in\n    tag_481:\n        /* \"#utility.yul\":9352:9574   */\n      swap3\n      swap2\n      pop\n      pop\n      jump\t// out\n        /* \"#utility.yul\":9580:9702   */\n    tag_336:\n        /* \"#utility.yul\":9653:9677   */\n      tag_483\n        /* \"#utility.yul\":9671:9676   */\n      dup2\n        /* \"#utility.yul\":9653:9677   */\n      tag_334\n      jump\t// in\n    tag_483:\n        /* \"#utility.yul\":9646:9651   */\n      dup2\n        /* \"#utility.yul\":9643:9678   */\n      eq\n        /* \"#utility.yul\":9633:9696   */\n      tag_484\n      jumpi\n        /* \"#utility.yul\":9692:9693   */\n      0x00\n        /* \"#utility.yul\":9689:9690   */\n      dup1\n        /* \"#utility.yul\":9682:9694   */\n      revert\n        /* \"#utility.yul\":9633:9696   */\n    tag_484:\n        /* \"#utility.yul\":9580:9702   */\n      pop\n      jump\t// out\n        /* \"#utility.yul\":9708:9847   */\n    tag_337:\n        /* \"#utility.yul\":9754:9759   */\n      0x00\n        /* \"#utility.yul\":9792:9798   */\n      dup2\n        /* \"#utility.yul\":9779:9799   */\n      calldataload\n        /* \"#utility.yul\":9770:9799   */\n      swap1\n      pop\n        /* \"#utility.yul\":9808:9841   */\n      tag_486\n        /* \"#utility.yul\":9835:9840   */\n      dup2\n        /* \"#utility.yul\":9808:9841   */\n      tag_336\n      jump\t// in\n    tag_486:\n        /* \"#utility.yul\":9708:9847   */\n      swap3\n      swap2\n      pop\n      pop\n      jump\t// out\n        /* \"#utility.yul\":9853:10182   */\n    tag_105:\n        /* \"#utility.yul\":9912:9918   */\n      0x00\n        /* \"#utility.yul\":9961:9963   */\n      0x20\n        /* \"#utility.yul\":9949:9958   */\n      dup3\n        /* \"#utility.yul\":9940:9947   */\n      dup5\n        /* \"#utility.yul\":9936:9959   */\n      sub\n        /* \"#utility.yul\":9932:9964   */\n      slt\n        /* \"#utility.yul\":9929:10048   */\n      iszero\n      tag_488\n      jumpi\n        /* \"#utility.yul\":9967:10046   */\n      tag_489\n      tag_303\n      jump\t// in\n    tag_489:\n        /* \"#utility.yul\":9929:10048   */\n    tag_488:\n        /* \"#utility.yul\":10087:10088   */\n      0x00\n        /* \"#utility.yul\":10112:10165   */\n      tag_490\n        /* \"#utility.yul\":10157:10164   */\n      dup5\n        /* \"#utility.yul\":10148:10154   */\n      dup3\n        /* \"#utility.yul\":10137:10146   */\n      dup6\n        /* \"#utility.yul\":10133:10155   */\n      add\n        /* \"#utility.yul\":10112:10165   */\n      tag_337\n      jump\t// in\n    tag_490:\n        /* \"#utility.yul\":10102:10165   */\n      swap2\n      pop\n        /* \"#utility.yul\":10058:10175   */\n      pop\n        /* \"#utility.yul\":9853:10182   */\n      swap3\n      swap2\n      pop\n      pop\n      jump\t// out\n        /* \"#utility.yul\":10188:10248   */\n    tag_338:\n        /* \"#utility.yul\":10216:10219   */\n      0x00\n        /* \"#utility.yul\":10237:10242   */\n      dup2\n        /* \"#utility.yul\":10230:10242   */\n      swap1\n      pop\n        /* \"#utility.yul\":10188:10248   */\n      swap2\n      swap1\n      pop\n      jump\t// out\n        /* \"#utility.yul\":10254:10396   */\n    tag_339:\n        /* \"#utility.yul\":10304:10313   */\n      0x00\n        /* \"#utility.yul\":10337:10390   */\n      tag_493\n        /* \"#utility.yul\":10355:10389   */\n      tag_494\n        /* \"#utility.yul\":10364:10388   */\n      tag_495\n        /* \"#utility.yul\":10382:10387   */\n      dup5\n        /* \"#utility.yul\":10364:10388   */\n      tag_328\n      jump\t// in\n    tag_495:\n        /* \"#utility.yul\":10355:10389   */\n      tag_338\n      jump\t// in\n    tag_494:\n        /* \"#utility.yul\":10337:10390   */\n      tag_328\n      jump\t// in\n    tag_493:\n        /* \"#utility.yul\":10324:10390   */\n      swap1\n      pop\n        /* \"#utility.yul\":10254:10396   */\n      swap2\n      swap1\n      pop\n      jump\t// out\n        /* \"#utility.yul\":10402:10528   */\n    tag_340:\n        /* \"#utility.yul\":10452:10461   */\n      0x00\n        /* \"#utility.yul\":10485:10522   */\n      tag_497\n        /* \"#utility.yul\":10516:10521   */\n      dup3\n        /* \"#utility.yul\":10485:10522   */\n      tag_339\n      jump\t// in\n    tag_497:\n        /* \"#utility.yul\":10472:10522   */\n      swap1\n      pop\n        /* \"#utility.yul\":10402:10528   */\n      swap2\n      swap1\n      pop\n      jump\t// out\n        /* \"#utility.yul\":10534:10689   */\n    tag_341:\n        /* \"#utility.yul\":10613:10622   */\n      0x00\n        /* \"#utility.yul\":10646:10683   */\n      tag_499\n        /* \"#utility.yul\":10677:10682   */\n      dup3\n        /* \"#utility.yul\":10646:10683   */\n      tag_340\n      jump\t// in\n    tag_499:\n        /* \"#utility.yul\":10633:10683   */\n      swap1\n      pop\n        /* \"#utility.yul\":10534:10689   */\n      swap2\n      swap1\n      pop\n      jump\t// out\n        /* \"#utility.yul\":10695:10884   */\n    tag_342:\n        /* \"#utility.yul\":10811:10877   */\n      tag_501\n        /* \"#utility.yul\":10871:10876   */\n      dup2\n        /* \"#utility.yul\":10811:10877   */\n      tag_341\n      jump\t// in\n    tag_501:\n        /* \"#utility.yul\":10806:10809   */\n      dup3\n        /* \"#utility.yul\":10799:10878   */\n      mstore\n        /* \"#utility.yul\":10695:10884   */\n      pop\n      pop\n      jump\t// out\n        /* \"#utility.yul\":10890:11170   */\n    tag_119:\n        /* \"#utility.yul\":11012:11016   */\n      0x00\n        /* \"#utility.yul\":11050:11052   */\n      0x20\n        /* \"#utility.yul\":11039:11048   */\n      dup3\n        /* \"#utility.yul\":11035:11053   */\n      add\n        /* \"#utility.yul\":11027:11053   */\n      swap1\n      pop\n        /* \"#utility.yul\":11063:11163   */\n      tag_503\n        /* \"#utility.yul\":11160:11161   */\n      0x00\n        /* \"#utility.yul\":11149:11158   */\n      dup4\n        /* \"#utility.yul\":11145:11162   */\n      add\n        /* \"#utility.yul\":11136:11142   */\n      dup5\n        /* \"#utility.yul\":11063:11163   */\n      tag_342\n      jump\t// in\n    tag_503:\n        /* \"#utility.yul\":10890:11170   */\n      swap3\n      swap2\n      pop\n      pop\n      jump\t// out\n        /* \"#utility.yul\":11176:11265   */\n    tag_343:\n        /* \"#utility.yul\":11212:11219   */\n      0x00\n        /* \"#utility.yul\":11252:11258   */\n      0xffff\n        /* \"#utility.yul\":11245:11250   */\n      dup3\n        /* \"#utility.yul\":11241:11259   */\n      and\n        /* \"#utility.yul\":11230:11259   */\n      swap1\n      pop\n        /* \"#utility.yul\":11176:11265   */\n      swap2\n      swap1\n      pop\n      jump\t// out\n        /* \"#utility.yul\":11271:11386   */\n    tag_344:\n        /* \"#utility.yul\":11356:11379   */\n      tag_506\n        /* \"#utility.yul\":11373:11378   */\n      dup2\n        /* \"#utility.yul\":11356:11379   */\n      tag_343\n      jump\t// in\n    tag_506:\n        /* \"#utility.yul\":11351:11354   */\n      dup3\n        /* \"#utility.yul\":11344:11380   */\n      mstore\n        /* \"#utility.yul\":11271:11386   */\n      pop\n      pop\n      jump\t// out\n        /* \"#utility.yul\":11392:11610   */\n    tag_124:\n        /* \"#utility.yul\":11483:11487   */\n      0x00\n        /* \"#utility.yul\":11521:11523   */\n      0x20\n        /* \"#utility.yul\":11510:11519   */\n      dup3\n        /* \"#utility.yul\":11506:11524   */\n      add\n        /* \"#utility.yul\":11498:11524   */\n      swap1\n      pop\n        /* \"#utility.yul\":11534:11603   */\n      tag_508\n        /* \"#utility.yul\":11600:11601   */\n      0x00\n        /* \"#utility.yul\":11589:11598   */\n      dup4\n        /* \"#utility.yul\":11585:11602   */\n      add\n        /* \"#utility.yul\":11576:11582   */\n      dup5\n        /* \"#utility.yul\":11534:11603   */\n      tag_344\n      jump\t// in\n    tag_508:\n        /* \"#utility.yul\":11392:11610   */\n      swap3\n      swap2\n      pop\n      pop\n      jump\t// out\n        /* \"#utility.yul\":11616:11758   */\n    tag_345:\n        /* \"#utility.yul\":11719:11751   */\n      tag_510\n        /* \"#utility.yul\":11745:11750   */\n      dup2\n        /* \"#utility.yul\":11719:11751   */\n      tag_329\n      jump\t// in\n    tag_510:\n        /* \"#utility.yul\":11714:11717   */\n      dup3\n        /* \"#utility.yul\":11707:11752   */\n      mstore\n        /* \"#utility.yul\":11616:11758   */\n      pop\n      pop\n      jump\t// out\n        /* \"#utility.yul\":11764:12018   */\n    tag_134:\n        /* \"#utility.yul\":11873:11877   */\n      0x00\n        /* \"#utility.yul\":11911:11913   */\n      0x20\n        /* \"#utility.yul\":11900:11909   */\n      dup3\n        /* \"#utility.yul\":11896:11914   */\n      add\n        /* \"#utility.yul\":11888:11914   */\n      swap1\n      pop\n        /* \"#utility.yul\":11924:12011   */\n      tag_512\n        /* \"#utility.yul\":12008:12009   */\n      0x00\n        /* \"#utility.yul\":11997:12006   */\n      dup4\n        /* \"#utility.yul\":11993:12010   */\n      add\n        /* \"#utility.yul\":11984:11990   */\n      dup5\n        /* \"#utility.yul\":11924:12011   */\n      tag_345\n      jump\t// in\n    tag_512:\n        /* \"#utility.yul\":11764:12018   */\n      swap3\n      swap2\n      pop\n      pop\n      jump\t// out\n        /* \"#utility.yul\":12024:12356   */\n    tag_170:\n        /* \"#utility.yul\":12145:12149   */\n      0x00\n        /* \"#utility.yul\":12183:12185   */\n      0x40\n        /* \"#utility.yul\":12172:12181   */\n      dup3\n        /* \"#utility.yul\":12168:12186   */\n      add\n        /* \"#utility.yul\":12160:12186   */\n      swap1\n      pop\n        /* \"#utility.yul\":12196:12267   */\n      tag_514\n        /* \"#utility.yul\":12264:12265   */\n      0x00\n        /* \"#utility.yul\":12253:12262   */\n      dup4\n        /* \"#utility.yul\":12249:12266   */\n      add\n        /* \"#utility.yul\":12240:12246   */\n      dup6\n        /* \"#utility.yul\":12196:12267   */\n      tag_335\n      jump\t// in\n    tag_514:\n        /* \"#utility.yul\":12277:12349   */\n      tag_515\n        /* \"#utility.yul\":12345:12347   */\n      0x20\n        /* \"#utility.yul\":12334:12343   */\n      dup4\n        /* \"#utility.yul\":12330:12348   */\n      add\n        /* \"#utility.yul\":12321:12327   */\n      dup5\n        /* \"#utility.yul\":12277:12349   */\n      tag_335\n      jump\t// in\n    tag_515:\n        /* \"#utility.yul\":12024:12356   */\n      swap4\n      swap3\n      pop\n      pop\n      pop\n      jump\t// out\n        /* \"#utility.yul\":12362:12531   */\n    tag_346:\n        /* \"#utility.yul\":12446:12457   */\n      0x00\n        /* \"#utility.yul\":12480:12486   */\n      dup3\n        /* \"#utility.yul\":12475:12478   */\n      dup3\n        /* \"#utility.yul\":12468:12487   */\n      mstore\n        /* \"#utility.yul\":12520:12524   */\n      0x20\n        /* \"#utility.yul\":12515:12518   */\n      dup3\n        /* \"#utility.yul\":12511:12525   */\n      add\n        /* \"#utility.yul\":12496:12525   */\n      swap1\n      pop\n        /* \"#utility.yul\":12362:12531   */\n      swap3\n      swap2\n      pop\n      pop\n      jump\t// out\n        /* \"#utility.yul\":12537:12715   */\n    tag_347:\n        /* \"#utility.yul\":12677:12707   */\n      0x4d75737420627579206174206c65617374206f6e65207469636b657400000000\n        /* \"#utility.yul\":12673:12674   */\n      0x00\n        /* \"#utility.yul\":12665:12671   */\n      dup3\n        /* \"#utility.yul\":12661:12675   */\n      add\n        /* \"#utility.yul\":12654:12708   */\n      mstore\n        /* \"#utility.yul\":12537:12715   */\n      pop\n      jump\t// out\n        /* \"#utility.yul\":12721:13087   */\n    tag_348:\n        /* \"#utility.yul\":12863:12866   */\n      0x00\n        /* \"#utility.yul\":12884:12951   */\n      tag_519\n        /* \"#utility.yul\":12948:12950   */\n      0x1c\n        /* \"#utility.yul\":12943:12946   */\n      dup4\n        /* \"#utility.yul\":12884:12951   */\n      tag_346\n      jump\t// in\n    tag_519:\n        /* \"#utility.yul\":12877:12951   */\n      swap2\n      pop\n        /* \"#utility.yul\":12960:13053   */\n      tag_520\n        /* \"#utility.yul\":13049:13052   */\n      dup3\n        /* \"#utility.yul\":12960:13053   */\n      tag_347\n      jump\t// in\n    tag_520:\n        /* \"#utility.yul\":13078:13080   */\n      0x20\n        /* \"#utility.yul\":13073:13076   */\n      dup3\n        /* \"#utility.yul\":13069:13081   */\n      add\n        /* \"#utility.yul\":13062:13081   */\n      swap1\n      pop\n        /* \"#utility.yul\":12721:13087   */\n      swap2\n      swap1\n      pop\n      jump\t// out\n        /* \"#utility.yul\":13093:13512   */\n    tag_176:\n        /* \"#utility.yul\":13259:13263   */\n      0x00\n        /* \"#utility.yul\":13297:13299   */\n      0x20\n        /* \"#utility.yul\":13286:13295   */\n      dup3\n        /* \"#utility.yul\":13282:13300   */\n      add\n        /* \"#utility.yul\":13274:13300   */\n      swap1\n      pop\n        /* \"#utility.yul\":13346:13355   */\n      dup2\n        /* \"#utility.yul\":13340:13344   */\n      dup2\n        /* \"#utility.yul\":13336:13356   */\n      sub\n        /* \"#utility.yul\":13332:13333   */\n      0x00\n        /* \"#utility.yul\":13321:13330   */\n      dup4\n        /* \"#utility.yul\":13317:13334   */\n      add\n        /* \"#utility.yul\":13310:13357   */\n      mstore\n        /* \"#utility.yul\":13374:13505   */\n      tag_522\n        /* \"#utility.yul\":13500:13504   */\n      dup2\n        /* \"#utility.yul\":13374:13505   */\n      tag_348\n      jump\t// in\n    tag_522:\n        /* \"#utility.yul\":13366:13505   */\n      swap1\n      pop\n        /* \"#utility.yul\":13093:13512   */\n      swap2\n      swap1\n      pop\n      jump\t// out\n        /* \"#utility.yul\":13518:13698   */\n    tag_349:\n        /* \"#utility.yul\":13566:13643   */\n      0x4e487b7100000000000000000000000000000000000000000000000000000000\n        /* \"#utility.yul\":13563:13564   */\n      0x00\n        /* \"#utility.yul\":13556:13644   */\n      mstore\n        /* \"#utility.yul\":13663:13667   */\n      0x11\n        /* \"#utility.yul\":13660:13661   */\n      0x04\n        /* \"#utility.yul\":13653:13668   */\n      mstore\n        /* \"#utility.yul\":13687:13691   */\n      0x24\n        /* \"#utility.yul\":13684:13685   */\n      0x00\n        /* \"#utility.yul\":13677:13692   */\n      revert\n        /* \"#utility.yul\":13704:14114   */\n    tag_178:\n        /* \"#utility.yul\":13744:13751   */\n      0x00\n        /* \"#utility.yul\":13767:13787   */\n      tag_525\n        /* \"#utility.yul\":13785:13786   */\n      dup3\n        /* \"#utility.yul\":13767:13787   */\n      tag_305\n      jump\t// in\n    tag_525:\n        /* \"#utility.yul\":13762:13787   */\n      swap2\n      pop\n        /* \"#utility.yul\":13801:13821   */\n      tag_526\n        /* \"#utility.yul\":13819:13820   */\n      dup4\n        /* \"#utility.yul\":13801:13821   */\n      tag_305\n      jump\t// in\n    tag_526:\n        /* \"#utility.yul\":13796:13821   */\n      swap3\n      pop\n        /* \"#utility.yul\":13856:13857   */\n      dup3\n        /* \"#utility.yul\":13853:13854   */\n      dup3\n        /* \"#utility.yul\":13849:13858   */\n      mul\n        /* \"#utility.yul\":13878:13908   */\n      tag_527\n        /* \"#utility.yul\":13896:13907   */\n      dup2\n        /* \"#utility.yul\":13878:13908   */\n      tag_305\n      jump\t// in\n    tag_527:\n        /* \"#utility.yul\":13867:13908   */\n      swap2\n      pop\n        /* \"#utility.yul\":14057:14058   */\n      dup3\n        /* \"#utility.yul\":14048:14055   */\n      dup3\n        /* \"#utility.yul\":14044:14059   */\n      div\n        /* \"#utility.yul\":14041:14042   */\n      dup5\n        /* \"#utility.yul\":14038:14060   */\n      eq\n        /* \"#utility.yul\":14018:14019   */\n      dup4\n        /* \"#utility.yul\":14011:14020   */\n      iszero\n        /* \"#utility.yul\":13991:14074   */\n      or\n        /* \"#utility.yul\":13968:14107   */\n      tag_528\n      jumpi\n        /* \"#utility.yul\":14087:14105   */\n      tag_529\n      tag_349\n      jump\t// in\n    tag_529:\n        /* \"#utility.yul\":13968:14107   */\n    tag_528:\n        /* \"#utility.yul\":13752:14114   */\n      pop\n        /* \"#utility.yul\":13704:14114   */\n      swap3\n      swap2\n      pop\n      pop\n      jump\t// out\n        /* \"#utility.yul\":14120:14302   */\n    tag_350:\n        /* \"#utility.yul\":14260:14294   */\n      0x496e636f72726563742045544820616d6f756e7420666f72207469636b657473\n        /* \"#utility.yul\":14256:14257   */\n      0x00\n        /* \"#utility.yul\":14248:14254   */\n      dup3\n        /* \"#utility.yul\":14244:14258   */\n      add\n        /* \"#utility.yul\":14237:14295   */\n      mstore\n        /* \"#utility.yul\":14120:14302   */\n      pop\n      jump\t// out\n        /* \"#utility.yul\":14308:14674   */\n    tag_351:\n        /* \"#utility.yul\":14450:14453   */\n      0x00\n        /* \"#utility.yul\":14471:14538   */\n      tag_532\n        /* \"#utility.yul\":14535:14537   */\n      0x20\n        /* \"#utility.yul\":14530:14533   */\n      dup4\n        /* \"#utility.yul\":14471:14538   */\n      tag_346\n      jump\t// in\n    tag_532:\n        /* \"#utility.yul\":14464:14538   */\n      swap2\n      pop\n        /* \"#utility.yul\":14547:14640   */\n      tag_533\n        /* \"#utility.yul\":14636:14639   */\n      dup3\n        /* \"#utility.yul\":14547:14640   */\n      tag_350\n      jump\t// in\n    tag_533:\n        /* \"#utility.yul\":14665:14667   */\n      0x20\n        /* \"#utility.yul\":14660:14663   */\n      dup3\n        /* \"#utility.yul\":14656:14668   */\n      add\n        /* \"#utility.yul\":14649:14668   */\n      swap1\n      pop\n        /* \"#utility.yul\":14308:14674   */\n      swap2\n      swap1\n      pop\n      jump\t// out\n        /* \"#utility.yul\":14680:15099   */\n    tag_181:\n        /* \"#utility.yul\":14846:14850   */\n      0x00\n        /* \"#utility.yul\":14884:14886   */\n      0x20\n        /* \"#utility.yul\":14873:14882   */\n      dup3\n        /* \"#utility.yul\":14869:14887   */\n      add\n        /* \"#utility.yul\":14861:14887   */\n      swap1\n      pop\n        /* \"#utility.yul\":14933:14942   */\n      dup2\n        /* \"#utility.yul\":14927:14931   */\n      dup2\n        /* \"#utility.yul\":14923:14943   */\n      sub\n        /* \"#utility.yul\":14919:14920   */\n      0x00\n        /* \"#utility.yul\":14908:14917   */\n      dup4\n        /* \"#utility.yul\":14904:14921   */\n      add\n        /* \"#utility.yul\":14897:14944   */\n      mstore\n        /* \"#utility.yul\":14961:15092   */\n      tag_535\n        /* \"#utility.yul\":15087:15091   */\n      dup2\n        /* \"#utility.yul\":14961:15092   */\n      tag_351\n      jump\t// in\n    tag_535:\n        /* \"#utility.yul\":14953:15092   */\n      swap1\n      pop\n        /* \"#utility.yul\":14680:15099   */\n      swap2\n      swap1\n      pop\n      jump\t// out\n        /* \"#utility.yul\":15105:15338   */\n    tag_187:\n        /* \"#utility.yul\":15144:15147   */\n      0x00\n        /* \"#utility.yul\":15167:15191   */\n      tag_537\n        /* \"#utility.yul\":15185:15190   */\n      dup3\n        /* \"#utility.yul\":15167:15191   */\n      tag_305\n      jump\t// in\n    tag_537:\n        /* \"#utility.yul\":15158:15191   */\n      swap2\n      pop\n        /* \"#utility.yul\":15213:15279   */\n      0xffffffffffffffffffffffffffffffffffffffffffffffffffffffffffffffff\n        /* \"#utility.yul\":15206:15211   */\n      dup3\n        /* \"#utility.yul\":15203:15280   */\n      sub\n        /* \"#utility.yul\":15200:15303   */\n      tag_538\n      jumpi\n        /* \"#utility.yul\":15283:15301   */\n      tag_539\n      tag_349\n      jump\t// in\n    tag_539:\n        /* \"#utility.yul\":15200:15303   */\n    tag_538:\n        /* \"#utility.yul\":15330:15331   */\n      0x01\n        /* \"#utility.yul\":15323:15328   */\n      dup3\n        /* \"#utility.yul\":15319:15332   */\n      add\n        /* \"#utility.yul\":15312:15332   */\n      swap1\n      pop\n        /* \"#utility.yul\":15105:15338   */\n      swap2\n      swap1\n      pop\n      jump\t// out\n        /* \"#utility.yul\":15344:15538   */\n    tag_191:\n        /* \"#utility.yul\":15384:15388   */\n      0x00\n        /* \"#utility.yul\":15404:15424   */\n      tag_541\n        /* \"#utility.yul\":15422:15423   */\n      dup3\n        /* \"#utility.yul\":15404:15424   */\n      tag_305\n      jump\t// in\n    tag_541:\n        /* \"#utility.yul\":15399:15424   */\n      swap2\n      pop\n        /* \"#utility.yul\":15438:15458   */\n      tag_542\n        /* \"#utility.yul\":15456:15457   */\n      dup4\n        /* \"#utility.yul\":15438:15458   */\n      tag_305\n      jump\t// in\n    tag_542:\n        /* \"#utility.yul\":15433:15458   */\n      swap3\n      pop\n        /* \"#utility.yul\":15482:15483   */\n      dup3\n        /* \"#utility.yul\":15479:15480   */\n      dup3\n        /* \"#utility.yul\":15475:15484   */\n      sub\n        /* \"#utility.yul\":15467:15484   */\n      swap1\n      pop\n        /* \"#utility.yul\":15506:15507   */\n      dup2\n        /* \"#utility.yul\":15500:15504   */\n      dup2\n        /* \"#utility.yul\":15497:15508   */\n      gt\n        /* \"#utility.yul\":15494:15531   */\n      iszero\n      tag_543\n      jumpi\n        /* \"#utility.yul\":15511:15529   */\n      tag_544\n      tag_349\n      jump\t// in\n    tag_544:\n        /* \"#utility.yul\":15494:15531   */\n    tag_543:\n        /* \"#utility.yul\":15344:15538   */\n      swap3\n      swap2\n      pop\n      pop\n      jump\t// out\n        /* \"#utility.yul\":15544:15716   */\n    tag_352:\n        /* \"#utility.yul\":15684:15708   */\n      0x4d7573742062652070726f706f736564206f776e657200000000000000000000\n        /* \"#utility.yul\":15680:15681   */\n      0x00\n        /* \"#utility.yul\":15672:15678   */\n      dup3\n        /* \"#utility.yul\":15668:15682   */\n      add\n        /* \"#utility.yul\":15661:15709   */\n      mstore\n        /* \"#utility.yul\":15544:15716   */\n      pop\n      jump\t// out\n        /* \"#utility.yul\":15722:16088   */\n    tag_353:\n        /* \"#utility.yul\":15864:15867   */\n      0x00\n        /* \"#utility.yul\":15885:15952   */\n      tag_547\n        /* \"#utility.yul\":15949:15951   */\n      0x16\n        /* \"#utility.yul\":15944:15947   */\n      dup4\n        /* \"#utility.yul\":15885:15952   */\n      tag_346\n      jump\t// in\n    tag_547:\n        /* \"#utility.yul\":15878:15952   */\n      swap2\n      pop\n        /* \"#utility.yul\":15961:16054   */\n      tag_548\n        /* \"#utility.yul\":16050:16053   */\n      dup3\n        /* \"#utility.yul\":15961:16054   */\n      tag_352\n      jump\t// in\n    tag_548:\n        /* \"#utility.yul\":16079:16081   */\n      0x20\n        /* \"#utility.yul\":16074:16077   */\n      dup3\n        /* \"#utility.yul\":16070:16082   */\n      add\n        /* \"#utility.yul\":16063:16082   */\n      swap1\n      pop\n        /* \"#utility.yul\":15722:16088   */\n      swap2\n      swap1\n      pop\n      jump\t// out\n        /* \"#utility.yul\":16094:16513   */\n    tag_206:\n        /* \"#utility.yul\":16260:16264   */\n      0x00\n        /* \"#utility.yul\":16298:16300   */\n      0x20\n        /* \"#utility.yul\":16287:16296   */\n      dup3\n        /* \"#utility.yul\":16283:16301   */\n      add\n        /* \"#utility.yul\":16275:16301   */\n      swap1\n      pop\n        /* \"#utility.yul\":16347:16356   */\n      dup2\n        /* \"#utility.yul\":16341:16345   */\n      dup2\n        /* \"#utility.yul\":16337:16357   */\n      sub\n        /* \"#utility.yul\":16333:16334   */\n      0x00\n        /* \"#utility.yul\":16322:16331   */\n      dup4\n        /* \"#utility.yul\":16318:16335   */\n      add\n        /* \"#utility.yul\":16311:16358   */\n      mstore\n        /* \"#utility.yul\":16375:16506   */\n      tag_550\n        /* \"#utility.yul\":16501:16505   */\n      dup2\n        /* \"#utility.yul\":16375:16506   */\n      tag_353\n      jump\t// in\n    tag_550:\n        /* \"#utility.yul\":16367:16506   */\n      swap1\n      pop\n        /* \"#utility.yul\":16094:16513   */\n      swap2\n      swap1\n      pop\n      jump\t// out\n        /* \"#utility.yul\":16519:16961   */\n    tag_217:\n        /* \"#utility.yul\":16668:16672   */\n      0x00\n        /* \"#utility.yul\":16706:16708   */\n      0x60\n        /* \"#utility.yul\":16695:16704   */\n      dup3\n        /* \"#utility.yul\":16691:16709   */\n      add\n        /* \"#utility.yul\":16683:16709   */\n      swap1\n      pop\n        /* \"#utility.yul\":16719:16790   */\n      tag_552\n        /* \"#utility.yul\":16787:16788   */\n      0x00\n        /* \"#utility.yul\":16776:16785   */\n      dup4\n        /* \"#utility.yul\":16772:16789   */\n      add\n        /* \"#utility.yul\":16763:16769   */\n      dup7\n        /* \"#utility.yul\":16719:16790   */\n      tag_335\n      jump\t// in\n    tag_552:\n        /* \"#utility.yul\":16800:16872   */\n      tag_553\n        /* \"#utility.yul\":16868:16870   */\n      0x20\n        /* \"#utility.yul\":16857:16866   */\n      dup4\n        /* \"#utility.yul\":16853:16871   */\n      add\n        /* \"#utility.yul\":16844:16850   */\n      dup6\n        /* \"#utility.yul\":16800:16872   */\n      tag_335\n      jump\t// in\n    tag_553:\n        /* \"#utility.yul\":16882:16954   */\n      tag_554\n        /* \"#utility.yul\":16950:16952   */\n      0x40\n        /* \"#utility.yul\":16939:16948   */\n      dup4\n        /* \"#utility.yul\":16935:16953   */\n      add\n        /* \"#utility.yul\":16926:16932   */\n      dup5\n        /* \"#utility.yul\":16882:16954   */\n      tag_335\n      jump\t// in\n    tag_554:\n        /* \"#utility.yul\":16519:16961   */\n      swap5\n      swap4\n      pop\n      pop\n      pop\n      pop\n      jump\t// out\n        /* \"#utility.yul\":16967:17187   */\n    tag_354:\n        /* \"#utility.yul\":17107:17141   */\n      0x4f6e6c79206f776e65722063616e2063616c6c20746869732066756e6374696f\n        /* \"#utility.yul\":17103:17104   */\n      0x00\n        /* \"#utility.yul\":17095:17101   */\n      dup3\n        /* \"#utility.yul\":17091:17105   */\n      add\n        /* \"#utility.yul\":17084:17142   */\n      mstore\n        /* \"#utility.yul\":17176:17179   */\n      0x6e00000000000000000000000000000000000000000000000000000000000000\n        /* \"#utility.yul\":17171:17173   */\n      0x20\n        /* \"#utility.yul\":17163:17169   */\n      dup3\n        /* \"#utility.yul\":17159:17174   */\n      add\n        /* \"#utility.yul\":17152:17180   */\n      mstore\n        /* \"#utility.yul\":16967:17187   */\n      pop\n      jump\t// out\n        /* \"#utility.yul\":17193:17559   */\n    tag_355:\n        /* \"#utility.yul\":17335:17338   */\n      0x00\n        /* \"#utility.yul\":17356:17423   */\n      tag_557\n        /* \"#utility.yul\":17420:17422   */\n      0x21\n        /* \"#utility.yul\":17415:17418   */\n      dup4\n        /* \"#utility.yul\":17356:17423   */\n      tag_346\n      jump\t// in\n    tag_557:\n        /* \"#utility.yul\":17349:17423   */\n      swap2\n      pop\n        /* \"#utility.yul\":17432:17525   */\n      tag_558\n        /* \"#utility.yul\":17521:17524   */\n      dup3\n        /* \"#utility.yul\":17432:17525   */\n      tag_354\n      jump\t// in\n    tag_558:\n        /* \"#utility.yul\":17550:17552   */\n      0x40\n        /* \"#utility.yul\":17545:17548   */\n      dup3\n        /* \"#utility.yul\":17541:17553   */\n      add\n        /* \"#utility.yul\":17534:17553   */\n      swap1\n      pop\n        /* \"#utility.yul\":17193:17559   */\n      swap2\n      swap1\n      pop\n      jump\t// out\n        /* \"#utility.yul\":17565:17984   */\n    tag_224:\n        /* \"#utility.yul\":17731:17735   */\n      0x00\n        /* \"#utility.yul\":17769:17771   */\n      0x20\n        /* \"#utility.yul\":17758:17767   */\n      dup3\n        /* \"#utility.yul\":17754:17772   */\n      add\n        /* \"#utility.yul\":17746:17772   */\n      swap1\n      pop\n        /* \"#utility.yul\":17818:17827   */\n      dup2\n        /* \"#utility.yul\":17812:17816   */\n      dup2\n        /* \"#utility.yul\":17808:17828   */\n      sub\n        /* \"#utility.yul\":17804:17805   */\n      0x00\n        /* \"#utility.yul\":17793:17802   */\n      dup4\n        /* \"#utility.yul\":17789:17806   */\n      add\n        /* \"#utility.yul\":17782:17829   */\n      mstore\n        /* \"#utility.yul\":17846:17977   */\n      tag_560\n        /* \"#utility.yul\":17972:17976   */\n      dup2\n        /* \"#utility.yul\":17846:17977   */\n      tag_355\n      jump\t// in\n    tag_560:\n        /* \"#utility.yul\":17838:17977   */\n      swap1\n      pop\n        /* \"#utility.yul\":17565:17984   */\n      swap2\n      swap1\n      pop\n      jump\t// out\n        /* \"#utility.yul\":17990:18158   */\n    tag_356:\n        /* \"#utility.yul\":18130:18150   */\n      0x4e6f20706c617965727320656e74657265640000000000000000000000000000\n        /* \"#utility.yul\":18126:18127   */\n      0x00\n        /* \"#utility.yul\":18118:18124   */\n      dup3\n        /* \"#utility.yul\":18114:18128   */\n      add\n        /* \"#utility.yul\":18107:18151   */\n      mstore\n        /* \"#utility.yul\":17990:18158   */\n      pop\n      jump\t// out\n        /* \"#utility.yul\":18164:18530   */\n    tag_357:\n        /* \"#utility.yul\":18306:18309   */\n      0x00\n        /* \"#utility.yul\":18327:18394   */\n      tag_563\n        /* \"#utility.yul\":18391:18393   */\n      0x12\n        /* \"#utility.yul\":18386:18389   */\n      dup4\n        /* \"#utility.yul\":18327:18394   */\n      tag_346\n      jump\t// in\n    tag_563:\n        /* \"#utility.yul\":18320:18394   */\n      swap2\n      pop\n        /* \"#utility.yul\":18403:18496   */\n      tag_564\n        /* \"#utility.yul\":18492:18495   */\n      dup3\n        /* \"#utility.yul\":18403:18496   */\n      tag_356\n      jump\t// in\n    tag_564:\n        /* \"#utility.yul\":18521:18523   */\n      0x20\n        /* \"#utility.yul\":18516:18519   */\n      dup3\n        /* \"#utility.yul\":18512:18524   */\n      add\n        /* \"#utility.yul\":18505:18524   */\n      swap1\n      pop\n        /* \"#utility.yul\":18164:18530   */\n      swap2\n      swap1\n      pop\n      jump\t// out\n        /* \"#utility.yul\":18536:18955   */\n    tag_242:\n        /* \"#utility.yul\":18702:18706   */\n      0x00\n        /* \"#utility.yul\":18740:18742   */\n      0x20\n        /* \"#utility.yul\":18729:18738   */\n      dup3\n        /* \"#utility.yul\":18725:18743   */\n      add\n        /* \"#utility.yul\":18717:18743   */\n      swap1\n      pop\n        /* \"#utility.yul\":18789:18798   */\n      dup2\n        /* \"#utility.yul\":18783:18787   */\n      dup2\n        /* \"#utility.yul\":18779:18799   */\n      sub\n        /* \"#utility.yul\":18775:18776   */\n      0x00\n        /* \"#utility.yul\":18764:18773   */\n      dup4\n        /* \"#utility.yul\":18760:18777   */\n      add\n        /* \"#utility.yul\":18753:18800   */\n      mstore\n        /* \"#utility.yul\":18817:18948   */\n      tag_566\n        /* \"#utility.yul\":18943:18947   */\n      dup2\n        /* \"#utility.yul\":18817:18948   */\n      tag_357\n      jump\t// in\n    tag_566:\n        /* \"#utility.yul\":18809:18948   */\n      swap1\n      pop\n        /* \"#utility.yul\":18536:18955   */\n      swap2\n      swap1\n      pop\n      jump\t// out\n        /* \"#utility.yul\":18961:19141   */\n    tag_255:\n        /* \"#utility.yul\":19009:19086   */\n      0x4e487b7100000000000000000000000000000000000000000000000000000000\n        /* \"#utility.yul\":19006:19007   */\n      0x00\n        /* \"#utility.yul\":18999:19087   */\n      mstore\n        /* \"#utility.yul\":19106:19110   */\n      0x32\n        /* \"#utility.yul\":19103:19104   */\n      0x04\n        /* \"#utility.yul\":19096:19111   */\n      mstore\n        /* \"#utility.yul\":19130:19134   */\n      0x24\n        /* \"#utility.yul\":19127:19128   */\n      0x00\n        /* \"#utility.yul\":19120:19135   */\n      revert\n        /* \"#utility.yul\":19147:19327   */\n    tag_358:\n        /* \"#utility.yul\":19195:19272   */\n      0x4e487b7100000000000000000000000000000000000000000000000000000000\n        /* \"#utility.yul\":19192:19193   */\n      0x00\n        /* \"#utility.yul\":19185:19273   */\n      mstore\n        /* \"#utility.yul\":19292:19296   */\n      0x12\n        /* \"#utility.yul\":19289:19290   */\n      0x04\n        /* \"#utility.yul\":19282:19297   */\n      mstore\n        /* \"#utility.yul\":19316:19320   */\n      0x24\n        /* \"#utility.yul\":19313:19314   */\n      0x00\n        /* \"#utility.yul\":19306:19321   */\n      revert\n        /* \"#utility.yul\":19333:19509   */\n    tag_257:\n        /* \"#utility.yul\":19365:19366   */\n      0x00\n        /* \"#utility.yul\":19382:19402   */\n      tag_570\n        /* \"#utility.yul\":19400:19401   */\n      dup3\n        /* \"#utility.yul\":19382:19402   */\n      tag_305\n      jump\t// in\n    tag_570:\n        /* \"#utility.yul\":19377:19402   */\n      swap2\n      pop\n        /* \"#utility.yul\":19416:19436   */\n      tag_571\n        /* \"#utility.yul\":19434:19435   */\n      dup4\n        /* \"#utility.yul\":19416:19436   */\n      tag_305\n      jump\t// in\n    tag_571:\n        /* \"#utility.yul\":19411:19436   */\n      swap3\n      pop\n        /* \"#utility.yul\":19455:19456   */\n      dup3\n        /* \"#utility.yul\":19445:19480   */\n      tag_572\n      jumpi\n        /* \"#utility.yul\":19460:19478   */\n      tag_573\n      tag_358\n      jump\t// in\n    tag_573:\n        /* \"#utility.yul\":19445:19480   */\n    tag_572:\n        /* \"#utility.yul\":19501:19502   */\n      dup3\n        /* \"#utility.yul\":19498:19499   */\n      dup3\n        /* \"#utility.yul\":19494:19503   */\n      mod\n        /* \"#utility.yul\":19489:19503   */\n      swap1\n      pop\n        /* \"#utility.yul\":19333:19509   */\n      swap3\n      swap2\n      pop\n      pop\n      jump\t// out\n        /* \"#utility.yul\":19515:19662   */\n    tag_359:\n        /* \"#utility.yul\":19616:19627   */\n      0x00\n        /* \"#utility.yul\":19653:19656   */\n      dup2\n        /* \"#utility.yul\":19638:19656   */\n      swap1\n      pop\n        /* \"#utility.yul\":19515:19662   */\n      swap3\n      swap2\n      pop\n      pop\n      jump\t// out\n        /* \"#utility.yul\":19668:19782   */\n    tag_360:\n      pop\n      jump\t// out\n        /* \"#utility.yul\":19788:20186   */\n    tag_361:\n        /* \"#utility.yul\":19947:19950   */\n      0x00\n        /* \"#utility.yul\":19968:20051   */\n      tag_577\n        /* \"#utility.yul\":20049:20050   */\n      0x00\n        /* \"#utility.yul\":20044:20047   */\n      dup4\n        /* \"#utility.yul\":19968:20051   */\n      tag_359\n      jump\t// in\n    tag_577:\n        /* \"#utility.yul\":19961:20051   */\n      swap2\n      pop\n        /* \"#utility.yul\":20060:20153   */\n      tag_578\n        /* \"#utility.yul\":20149:20152   */\n      dup3\n        /* \"#utility.yul\":20060:20153   */\n      tag_360\n      jump\t// in\n    tag_578:\n        /* \"#utility.yul\":20178:20179   */\n      0x00\n        /* \"#utility.yul\":20173:20176   */\n      dup3\n        /* \"#utility.yul\":20169:20180   */\n      add\n        /* \"#utility.yul\":20162:20180   */\n      swap1\n      pop\n        /* \"#utility.yul\":19788:20186   */\n      swap2\n      swap1\n      pop\n      jump\t// out\n        /* \"#utility.yul\":20192:20571   */\n    tag_265:\n        /* \"#utility.yul\":20376:20379   */\n      0x00\n        /* \"#utility.yul\":20398:20545   */\n      tag_580\n        /* \"#utility.yul\":20541:20544   */\n      dup3\n        /* \"#utility.yul\":20398:20545   */\n      tag_361\n      jump\t// in\n    tag_580:\n        /* \"#utility.yul\":20391:20545   */\n      swap2\n      pop\n        /* \"#utility.yul\":20562:20565   */\n      dup2\n        /* \"#utility.yul\":20555:20565   */\n      swap1\n      pop\n        /* \"#utility.yul\":20192:20571   */\n      swap2\n      swap1\n      pop\n      jump\t// out\n        /* \"#utility.yul\":20577:20742   */\n    tag_362:\n        /* \"#utility.yul\":20717:20734   */\n      0x5472616e73666572206661696c65640000000000000000000000000000000000\n        /* \"#utility.yul\":20713:20714   */\n      0x00\n        /* \"#utility.yul\":20705:20711   */\n      dup3\n        /* \"#utility.yul\":20701:20715   */\n      add\n        /* \"#utility.yul\":20694:20735   */\n      mstore\n        /* \"#utility.yul\":20577:20742   */\n      pop\n      jump\t// out\n        /* \"#utility.yul\":20748:21114   */\n    tag_363:\n        /* \"#utility.yul\":20890:20893   */\n      0x00\n        /* \"#utility.yul\":20911:20978   */\n      tag_583\n        /* \"#utility.yul\":20975:20977   */\n      0x0f\n        /* \"#utility.yul\":20970:20973   */\n      dup4\n        /* \"#utility.yul\":20911:20978   */\n      tag_346\n      jump\t// in\n    tag_583:\n        /* \"#utility.yul\":20904:20978   */\n      swap2\n      pop\n        /* \"#utility.yul\":20987:21080   */\n      tag_584\n        /* \"#utility.yul\":21076:21079   */\n      dup3\n        /* \"#utility.yul\":20987:21080   */\n      tag_362\n      jump\t// in\n    tag_584:\n        /* \"#utility.yul\":21105:21107   */\n      0x20\n        /* \"#utility.yul\":21100:21103   */\n      dup3\n        /* \"#utility.yul\":21096:21108   */\n      add\n        /* \"#utility.yul\":21089:21108   */\n      swap1\n      pop\n        /* \"#utility.yul\":20748:21114   */\n      swap2\n      swap1\n      pop\n      jump\t// out\n        /* \"#utility.yul\":21120:21539   */\n    tag_271:\n        /* \"#utility.yul\":21286:21290   */\n      0x00\n        /* \"#utility.yul\":21324:21326   */\n      0x20\n        /* \"#utility.yul\":21313:21322   */\n      dup3\n        /* \"#utility.yul\":21309:21327   */\n      add\n        /* \"#utility.yul\":21301:21327   */\n      swap1\n      pop\n        /* \"#utility.yul\":21373:21382   */\n      dup2\n        /* \"#utility.yul\":21367:21371   */\n      dup2\n        /* \"#utility.yul\":21363:21383   */\n      sub\n        /* \"#utility.yul\":21359:21360   */\n      0x00\n        /* \"#utility.yul\":21348:21357   */\n      dup4\n        /* \"#utility.yul\":21344:21361   */\n      add\n        /* \"#utility.yul\":21337:21384   */\n      mstore\n        /* \"#utility.yul\":21401:21532   */\n      tag_586\n        /* \"#utility.yul\":21527:21531   */\n      dup2\n        /* \"#utility.yul\":21401:21532   */\n      tag_363\n      jump\t// in\n    tag_586:\n        /* \"#utility.yul\":21393:21532   */\n      swap1\n      pop\n        /* \"#utility.yul\":21120:21539   */\n      swap2\n      swap1\n      pop\n      jump\t// out\n        /* \"#utility.yul\":21545:21877   */\n    tag_273:\n        /* \"#utility.yul\":21666:21670   */\n      0x00\n        /* \"#utility.yul\":21704:21706   */\n      0x40\n        /* \"#utility.yul\":21693:21702   */\n      dup3\n        /* \"#utility.yul\":21689:21707   */\n      add\n        /* \"#utility.yul\":21681:21707   */\n      swap1\n      pop\n        /* \"#utility.yul\":21717:21788   */\n      tag_588\n        /* \"#utility.yul\":21785:21786   */\n      0x00\n        /* \"#utility.yul\":21774:21783   */\n      dup4\n        /* \"#utility.yul\":21770:21787   */\n      add\n        /* \"#utility.yul\":21761:21767   */\n      dup6\n        /* \"#utility.yul\":21717:21788   */\n      tag_314\n      jump\t// in\n    tag_588:\n        /* \"#utility.yul\":21798:21870   */\n      tag_589\n        /* \"#utility.yul\":21866:21868   */\n      0x20\n        /* \"#utility.yul\":21855:21864   */\n      dup4\n        /* \"#utility.yul\":21851:21869   */\n      add\n        /* \"#utility.yul\":21842:21848   */\n      dup5\n        /* \"#utility.yul\":21798:21870   */\n      tag_314\n      jump\t// in\n    tag_589:\n        /* \"#utility.yul\":21545:21877   */\n      swap4\n      swap3\n      pop\n      pop\n      pop\n      jump\t// out\n        /* \"#utility.yul\":21883:21991   */\n    tag_364:\n        /* \"#utility.yul\":21960:21984   */\n      tag_591\n        /* \"#utility.yul\":21978:21983   */\n      dup2\n        /* \"#utility.yul\":21960:21984   */\n      tag_316\n      jump\t// in\n    tag_591:\n        /* \"#utility.yul\":21955:21958   */\n      dup3\n        /* \"#utility.yul\":21948:21985   */\n      mstore\n        /* \"#utility.yul\":21883:21991   */\n      pop\n      pop\n      jump\t// out\n        /* \"#utility.yul\":21997:22105   */\n    tag_365:\n        /* \"#utility.yul\":22074:22098   */\n      tag_593\n        /* \"#utility.yul\":22092:22097   */\n      dup2\n        /* \"#utility.yul\":22074:22098   */\n      tag_305\n      jump\t// in\n    tag_593:\n        /* \"#utility.yul\":22069:22072   */\n      dup3\n        /* \"#utility.yul\":22062:22099   */\n      mstore\n        /* \"#utility.yul\":21997:22105   */\n      pop\n      pop\n      jump\t// out\n        /* \"#utility.yul\":22111:22216   */\n    tag_366:\n        /* \"#utility.yul\":22186:22209   */\n      tag_595\n        /* \"#utility.yul\":22203:22208   */\n      dup2\n        /* \"#utility.yul\":22186:22209   */\n      tag_343\n      jump\t// in\n    tag_595:\n        /* \"#utility.yul\":22181:22184   */\n      dup3\n        /* \"#utility.yul\":22174:22210   */\n      mstore\n        /* \"#utility.yul\":22111:22216   */\n      pop\n      pop\n      jump\t// out\n        /* \"#utility.yul\":22222:22327   */\n    tag_367:\n        /* \"#utility.yul\":22297:22320   */\n      tag_597\n        /* \"#utility.yul\":22314:22319   */\n      dup2\n        /* \"#utility.yul\":22297:22320   */\n      tag_312\n      jump\t// in\n    tag_597:\n        /* \"#utility.yul\":22292:22295   */\n      dup3\n        /* \"#utility.yul\":22285:22321   */\n      mstore\n        /* \"#utility.yul\":22222:22327   */\n      pop\n      pop\n      jump\t// out\n        /* \"#utility.yul\":22333:22491   */\n    tag_368:\n        /* \"#utility.yul\":22406:22417   */\n      0x00\n        /* \"#utility.yul\":22440:22446   */\n      dup3\n        /* \"#utility.yul\":22435:22438   */\n      dup3\n        /* \"#utility.yul\":22428:22447   */\n      mstore\n        /* \"#utility.yul\":22480:22484   */\n      0x20\n        /* \"#utility.yul\":22475:22478   */\n      dup3\n        /* \"#utility.yul\":22471:22485   */\n      add\n        /* \"#utility.yul\":22456:22485   */\n      swap1\n      pop\n        /* \"#utility.yul\":22333:22491   */\n      swap3\n      swap2\n      pop\n      pop\n      jump\t// out\n        /* \"#utility.yul\":22497:22850   */\n    tag_369:\n        /* \"#utility.yul\":22573:22576   */\n      0x00\n        /* \"#utility.yul\":22601:22639   */\n      tag_600\n        /* \"#utility.yul\":22633:22638   */\n      dup3\n        /* \"#utility.yul\":22601:22639   */\n      tag_320\n      jump\t// in\n    tag_600:\n        /* \"#utility.yul\":22655:22715   */\n      tag_601\n        /* \"#utility.yul\":22708:22714   */\n      dup2\n        /* \"#utility.yul\":22703:22706   */\n      dup6\n        /* \"#utility.yul\":22655:22715   */\n      tag_368\n      jump\t// in\n    tag_601:\n        /* \"#utility.yul\":22648:22715   */\n      swap4\n      pop\n        /* \"#utility.yul\":22724:22789   */\n      tag_602\n        /* \"#utility.yul\":22782:22788   */\n      dup2\n        /* \"#utility.yul\":22777:22780   */\n      dup6\n        /* \"#utility.yul\":22770:22774   */\n      0x20\n        /* \"#utility.yul\":22763:22768   */\n      dup7\n        /* \"#utility.yul\":22759:22775   */\n      add\n        /* \"#utility.yul\":22724:22789   */\n      tag_322\n      jump\t// in\n    tag_602:\n        /* \"#utility.yul\":22814:22843   */\n      tag_603\n        /* \"#utility.yul\":22836:22842   */\n      dup2\n        /* \"#utility.yul\":22814:22843   */\n      tag_323\n      jump\t// in\n    tag_603:\n        /* \"#utility.yul\":22809:22812   */\n      dup5\n        /* \"#utility.yul\":22805:22844   */\n      add\n        /* \"#utility.yul\":22798:22844   */\n      swap2\n      pop\n        /* \"#utility.yul\":22577:22850   */\n      pop\n        /* \"#utility.yul\":22497:22850   */\n      swap3\n      swap2\n      pop\n      pop\n      jump\t// out\n        /* \"#utility.yul\":22950:24303   */\n    tag_370:\n        /* \"#utility.yul\":23087:23090   */\n      0x00\n        /* \"#utility.yul\":23123:23127   */\n      0xc0\n        /* \"#utility.yul\":23118:23121   */\n      dup4\n        /* \"#utility.yul\":23114:23128   */\n      add\n        /* \"#utility.yul\":23213:23217   */\n      0x00\n        /* \"#utility.yul\":23206:23211   */\n      dup4\n        /* \"#utility.yul\":23202:23218   */\n      add\n        /* \"#utility.yul\":23196:23219   */\n      mload\n        /* \"#utility.yul\":23232:23295   */\n      tag_605\n        /* \"#utility.yul\":23289:23293   */\n      0x00\n        /* \"#utility.yul\":23284:23287   */\n      dup7\n        /* \"#utility.yul\":23280:23294   */\n      add\n        /* \"#utility.yul\":23266:23278   */\n      dup3\n        /* \"#utility.yul\":23232:23295   */\n      tag_364\n      jump\t// in\n    tag_605:\n        /* \"#utility.yul\":23138:23305   */\n      pop\n        /* \"#utility.yul\":23388:23392   */\n      0x20\n        /* \"#utility.yul\":23381:23386   */\n      dup4\n        /* \"#utility.yul\":23377:23393   */\n      add\n        /* \"#utility.yul\":23371:23394   */\n      mload\n        /* \"#utility.yul\":23407:23470   */\n      tag_606\n        /* \"#utility.yul\":23464:23468   */\n      0x20\n        /* \"#utility.yul\":23459:23462   */\n      dup7\n        /* \"#utility.yul\":23455:23469   */\n      add\n        /* \"#utility.yul\":23441:23453   */\n      dup3\n        /* \"#utility.yul\":23407:23470   */\n      tag_365\n      jump\t// in\n    tag_606:\n        /* \"#utility.yul\":23315:23480   */\n      pop\n        /* \"#utility.yul\":23578:23582   */\n      0x40\n        /* \"#utility.yul\":23571:23576   */\n      dup4\n        /* \"#utility.yul\":23567:23583   */\n      add\n        /* \"#utility.yul\":23561:23584   */\n      mload\n        /* \"#utility.yul\":23597:23658   */\n      tag_607\n        /* \"#utility.yul\":23652:23656   */\n      0x40\n        /* \"#utility.yul\":23647:23650   */\n      dup7\n        /* \"#utility.yul\":23643:23657   */\n      add\n        /* \"#utility.yul\":23629:23641   */\n      dup3\n        /* \"#utility.yul\":23597:23658   */\n      tag_366\n      jump\t// in\n    tag_607:\n        /* \"#utility.yul\":23490:23668   */\n      pop\n        /* \"#utility.yul\":23762:23766   */\n      0x60\n        /* \"#utility.yul\":23755:23760   */\n      dup4\n        /* \"#utility.yul\":23751:23767   */\n      add\n        /* \"#utility.yul\":23745:23768   */\n      mload\n        /* \"#utility.yul\":23781:23842   */\n      tag_608\n        /* \"#utility.yul\":23836:23840   */\n      0x60\n        /* \"#utility.yul\":23831:23834   */\n      dup7\n        /* \"#utility.yul\":23827:23841   */\n      add\n        /* \"#utility.yul\":23813:23825   */\n      dup3\n        /* \"#utility.yul\":23781:23842   */\n      tag_367\n      jump\t// in\n    tag_608:\n        /* \"#utility.yul\":23678:23852   */\n      pop\n        /* \"#utility.yul\":23938:23942   */\n      0x80\n        /* \"#utility.yul\":23931:23936   */\n      dup4\n        /* \"#utility.yul\":23927:23943   */\n      add\n        /* \"#utility.yul\":23921:23944   */\n      mload\n        /* \"#utility.yul\":23957:24018   */\n      tag_609\n        /* \"#utility.yul\":24012:24016   */\n      0x80\n        /* \"#utility.yul\":24007:24010   */\n      dup7\n        /* \"#utility.yul\":24003:24017   */\n      add\n        /* \"#utility.yul\":23989:24001   */\n      dup3\n        /* \"#utility.yul\":23957:24018   */\n      tag_367\n      jump\t// in\n    tag_609:\n        /* \"#utility.yul\":23862:24028   */\n      pop\n        /* \"#utility.yul\":24115:24119   */\n      0xa0\n        /* \"#utility.yul\":24108:24113   */\n      dup4\n        /* \"#utility.yul\":24104:24120   */\n      add\n        /* \"#utility.yul\":24098:24121   */\n      mload\n        /* \"#utility.yul\":24168:24171   */\n      dup5\n        /* \"#utility.yul\":24162:24166   */\n      dup3\n        /* \"#utility.yul\":24158:24172   */\n      sub\n        /* \"#utility.yul\":24151:24155   */\n      0xa0\n        /* \"#utility.yul\":24146:24149   */\n      dup7\n        /* \"#utility.yul\":24142:24156   */\n      add\n        /* \"#utility.yul\":24135:24173   */\n      mstore\n        /* \"#utility.yul\":24194:24265   */\n      tag_610\n        /* \"#utility.yul\":24260:24264   */\n      dup3\n        /* \"#utility.yul\":24246:24258   */\n      dup3\n        /* \"#utility.yul\":24194:24265   */\n      tag_369\n      jump\t// in\n    tag_610:\n        /* \"#utility.yul\":24186:24265   */\n      swap2\n      pop\n        /* \"#utility.yul\":24038:24276   */\n      pop\n        /* \"#utility.yul\":24293:24297   */\n      dup1\n        /* \"#utility.yul\":24286:24297   */\n      swap2\n      pop\n        /* \"#utility.yul\":23092:24303   */\n      pop\n        /* \"#utility.yul\":22950:24303   */\n      swap3\n      swap2\n      pop\n      pop\n      jump\t// out\n        /* \"#utility.yul\":24309:24718   */\n    tag_280:\n        /* \"#utility.yul\":24470:24474   */\n      0x00\n        /* \"#utility.yul\":24508:24510   */\n      0x20\n        /* \"#utility.yul\":24497:24506   */\n      dup3\n        /* \"#utility.yul\":24493:24511   */\n      add\n        /* \"#utility.yul\":24485:24511   */\n      swap1\n      pop\n        /* \"#utility.yul\":24557:24566   */\n      dup2\n        /* \"#utility.yul\":24551:24555   */\n      dup2\n        /* \"#utility.yul\":24547:24567   */\n      sub\n        /* \"#utility.yul\":24543:24544   */\n      0x00\n        /* \"#utility.yul\":24532:24541   */\n      dup4\n        /* \"#utility.yul\":24528:24545   */\n      add\n        /* \"#utility.yul\":24521:24568   */\n      mstore\n        /* \"#utility.yul\":24585:24711   */\n      tag_612\n        /* \"#utility.yul\":24706:24710   */\n      dup2\n        /* \"#utility.yul\":24697:24703   */\n      dup5\n        /* \"#utility.yul\":24585:24711   */\n      tag_370\n      jump\t// in\n    tag_612:\n        /* \"#utility.yul\":24577:24711   */\n      swap1\n      pop\n        /* \"#utility.yul\":24309:24718   */\n      swap3\n      swap2\n      pop\n      pop\n      jump\t// out\n        /* \"#utility.yul\":24724:24867   */\n    tag_371:\n        /* \"#utility.yul\":24781:24786   */\n      0x00\n        /* \"#utility.yul\":24812:24818   */\n      dup2\n        /* \"#utility.yul\":24806:24819   */\n      mload\n        /* \"#utility.yul\":24797:24819   */\n      swap1\n      pop\n        /* \"#utility.yul\":24828:24861   */\n      tag_614\n        /* \"#utility.yul\":24855:24860   */\n      dup2\n        /* \"#utility.yul\":24828:24861   */\n      tag_306\n      jump\t// in\n    tag_614:\n        /* \"#utility.yul\":24724:24867   */\n      swap3\n      swap2\n      pop\n      pop\n      jump\t// out\n        /* \"#utility.yul\":24873:25224   */\n    tag_284:\n        /* \"#utility.yul\":24943:24949   */\n      0x00\n        /* \"#utility.yul\":24992:24994   */\n      0x20\n        /* \"#utility.yul\":24980:24989   */\n      dup3\n        /* \"#utility.yul\":24971:24978   */\n      dup5\n        /* \"#utility.yul\":24967:24990   */\n      sub\n        /* \"#utility.yul\":24963:24995   */\n      slt\n        /* \"#utility.yul\":24960:25079   */\n      iszero\n      tag_616\n      jumpi\n        /* \"#utility.yul\":24998:25077   */\n      tag_617\n      tag_303\n      jump\t// in\n    tag_617:\n        /* \"#utility.yul\":24960:25079   */\n    tag_616:\n        /* \"#utility.yul\":25118:25119   */\n      0x00\n        /* \"#utility.yul\":25143:25207   */\n      tag_618\n        /* \"#utility.yul\":25199:25206   */\n      dup5\n        /* \"#utility.yul\":25190:25196   */\n      dup3\n        /* \"#utility.yul\":25179:25188   */\n      dup6\n        /* \"#utility.yul\":25175:25197   */\n      add\n        /* \"#utility.yul\":25143:25207   */\n      tag_371\n      jump\t// in\n    tag_618:\n        /* \"#utility.yul\":25133:25207   */\n      swap2\n      pop\n        /* \"#utility.yul\":25089:25217   */\n      pop\n        /* \"#utility.yul\":24873:25224   */\n      swap3\n      swap2\n      pop\n      pop\n      jump\t// out\n        /* \"#utility.yul\":25230:25402   */\n    tag_372:\n        /* \"#utility.yul\":25370:25394   */\n      0x4f6e6c792063616c6c61626c65206279206f776e657200000000000000000000\n        /* \"#utility.yul\":25366:25367   */\n      0x00\n        /* \"#utility.yul\":25358:25364   */\n      dup3\n        /* \"#utility.yul\":25354:25368   */\n      add\n        /* \"#utility.yul\":25347:25395   */\n      mstore\n        /* \"#utility.yul\":25230:25402   */\n      pop\n      jump\t// out\n        /* \"#utility.yul\":25408:25774   */\n    tag_373:\n        /* \"#utility.yul\":25550:25553   */\n      0x00\n        /* \"#utility.yul\":25571:25638   */\n      tag_621\n        /* \"#utility.yul\":25635:25637   */\n      0x16\n        /* \"#utility.yul\":25630:25633   */\n      dup4\n        /* \"#utility.yul\":25571:25638   */\n      tag_346\n      jump\t// in\n    tag_621:\n        /* \"#utility.yul\":25564:25638   */\n      swap2\n      pop\n        /* \"#utility.yul\":25647:25740   */\n      tag_622\n        /* \"#utility.yul\":25736:25739   */\n      dup3\n        /* \"#utility.yul\":25647:25740   */\n      tag_372\n      jump\t// in\n    tag_622:\n        /* \"#utility.yul\":25765:25767   */\n      0x20\n        /* \"#utility.yul\":25760:25763   */\n      dup3\n        /* \"#utility.yul\":25756:25768   */\n      add\n        /* \"#utility.yul\":25749:25768   */\n      swap1\n      pop\n        /* \"#utility.yul\":25408:25774   */\n      swap2\n      swap1\n      pop\n      jump\t// out\n        /* \"#utility.yul\":25780:26199   */\n    tag_289:\n        /* \"#utility.yul\":25946:25950   */\n      0x00\n        /* \"#utility.yul\":25984:25986   */\n      0x20\n        /* \"#utility.yul\":25973:25982   */\n      dup3\n        /* \"#utility.yul\":25969:25987   */\n      add\n        /* \"#utility.yul\":25961:25987   */\n      swap1\n      pop\n        /* \"#utility.yul\":26033:26042   */\n      dup2\n        /* \"#utility.yul\":26027:26031   */\n      dup2\n        /* \"#utility.yul\":26023:26043   */\n      sub\n        /* \"#utility.yul\":26019:26020   */\n      0x00\n        /* \"#utility.yul\":26008:26017   */\n      dup4\n        /* \"#utility.yul\":26004:26021   */\n      add\n        /* \"#utility.yul\":25997:26044   */\n      mstore\n        /* \"#utility.yul\":26061:26192   */\n      tag_624\n        /* \"#utility.yul\":26187:26191   */\n      dup2\n        /* \"#utility.yul\":26061:26192   */\n      tag_373\n      jump\t// in\n    tag_624:\n        /* \"#utility.yul\":26053:26192   */\n      swap1\n      pop\n        /* \"#utility.yul\":25780:26199   */\n      swap2\n      swap1\n      pop\n      jump\t// out\n        /* \"#utility.yul\":26205:26378   */\n    tag_374:\n        /* \"#utility.yul\":26345:26370   */\n      0x43616e6e6f74207472616e7366657220746f2073656c66000000000000000000\n        /* \"#utility.yul\":26341:26342   */\n      0x00\n        /* \"#utility.yul\":26333:26339   */\n      dup3\n        /* \"#utility.yul\":26329:26343   */\n      add\n        /* \"#utility.yul\":26322:26371   */\n      mstore\n        /* \"#utility.yul\":26205:26378   */\n      pop\n      jump\t// out\n        /* \"#utility.yul\":26384:26750   */\n    tag_375:\n        /* \"#utility.yul\":26526:26529   */\n      0x00\n        /* \"#utility.yul\":26547:26614   */\n      tag_627\n        /* \"#utility.yul\":26611:26613   */\n      0x17\n        /* \"#utility.yul\":26606:26609   */\n      dup4\n        /* \"#utility.yul\":26547:26614   */\n      tag_346\n      jump\t// in\n    tag_627:\n        /* \"#utility.yul\":26540:26614   */\n      swap2\n      pop\n        /* \"#utility.yul\":26623:26716   */\n      tag_628\n        /* \"#utility.yul\":26712:26715   */\n      dup3\n        /* \"#utility.yul\":26623:26716   */\n      tag_374\n      jump\t// in\n    tag_628:\n        /* \"#utility.yul\":26741:26743   */\n      0x20\n        /* \"#utility.yul\":26736:26739   */\n      dup3\n        /* \"#utility.yul\":26732:26744   */\n      add\n        /* \"#utility.yul\":26725:26744   */\n      swap1\n      pop\n        /* \"#utility.yul\":26384:26750   */\n      swap2\n      swap1\n      pop\n      jump\t// out\n        /* \"#utility.yul\":26756:27175   */\n    tag_293:\n        /* \"#utility.yul\":26922:26926   */\n      0x00\n        /* \"#utility.yul\":26960:26962   */\n      0x20\n        /* \"#utility.yul\":26949:26958   */\n      dup3\n        /* \"#utility.yul\":26945:26963   */\n      add\n        /* \"#utility.yul\":26937:26963   */\n      swap1\n      pop\n        /* \"#utility.yul\":27009:27018   */\n      dup2\n        /* \"#utility.yul\":27003:27007   */\n      dup2\n        /* \"#utility.yul\":26999:27019   */\n      sub\n        /* \"#utility.yul\":26995:26996   */\n      0x00\n        /* \"#utility.yul\":26984:26993   */\n      dup4\n        /* \"#utility.yul\":26980:26997   */\n      add\n        /* \"#utility.yul\":26973:27020   */\n      mstore\n        /* \"#utility.yul\":27037:27168   */\n      tag_630\n        /* \"#utility.yul\":27163:27167   */\n      dup2\n        /* \"#utility.yul\":27037:27168   */\n      tag_375\n      jump\t// in\n    tag_630:\n        /* \"#utility.yul\":27029:27168   */\n      swap1\n      pop\n        /* \"#utility.yul\":26756:27175   */\n      swap2\n      swap1\n      pop\n      jump\t// out\n        /* \"#utility.yul\":27181:27280   */\n    tag_376:\n        /* \"#utility.yul\":27252:27273   */\n      tag_632\n        /* \"#utility.yul\":27267:27272   */\n      dup2\n        /* \"#utility.yul\":27252:27273   */\n      tag_318\n      jump\t// in\n    tag_632:\n        /* \"#utility.yul\":27247:27250   */\n      dup3\n        /* \"#utility.yul\":27240:27274   */\n      mstore\n        /* \"#utility.yul\":27181:27280   */\n      pop\n      pop\n      jump\t// out\n        /* \"#utility.yul\":27366:27706   */\n    tag_377:\n        /* \"#utility.yul\":27517:27521   */\n      0x20\n        /* \"#utility.yul\":27512:27515   */\n      dup3\n        /* \"#utility.yul\":27508:27522   */\n      add\n        /* \"#utility.yul\":27613:27617   */\n      0x00\n        /* \"#utility.yul\":27606:27611   */\n      dup3\n        /* \"#utility.yul\":27602:27618   */\n      add\n        /* \"#utility.yul\":27596:27619   */\n      mload\n        /* \"#utility.yul\":27632:27689   */\n      tag_634\n        /* \"#utility.yul\":27683:27687   */\n      0x00\n        /* \"#utility.yul\":27678:27681   */\n      dup6\n        /* \"#utility.yul\":27674:27688   */\n      add\n        /* \"#utility.yul\":27660:27672   */\n      dup3\n        /* \"#utility.yul\":27632:27689   */\n      tag_376\n      jump\t// in\n    tag_634:\n        /* \"#utility.yul\":27532:27699   */\n      pop\n        /* \"#utility.yul\":27486:27706   */\n      pop\n        /* \"#utility.yul\":27366:27706   */\n      pop\n      pop\n      jump\t// out\n        /* \"#utility.yul\":27712:28042   */\n    tag_296:\n        /* \"#utility.yul\":27859:27863   */\n      0x00\n        /* \"#utility.yul\":27897:27899   */\n      0x20\n        /* \"#utility.yul\":27886:27895   */\n      dup3\n        /* \"#utility.yul\":27882:27900   */\n      add\n        /* \"#utility.yul\":27874:27900   */\n      swap1\n      pop\n        /* \"#utility.yul\":27910:28035   */\n      tag_636\n        /* \"#utility.yul\":28032:28033   */\n      0x00\n        /* \"#utility.yul\":28021:28030   */\n      dup4\n        /* \"#utility.yul\":28017:28034   */\n      add\n        /* \"#utility.yul\":28008:28014   */\n      dup5\n        /* \"#utility.yul\":27910:28035   */\n      tag_377\n      jump\t// in\n    tag_636:\n        /* \"#utility.yul\":27712:28042   */\n      swap3\n      swap2\n      pop\n      pop\n      jump\t// out\n\n    auxdata: 0xa2646970667358221220ca0de8e506b846fc62e19a47c6c5a2e01586b8330a9e8679974c53f2e975f8a164736f6c63430008130033\n}\n",
				"bytecode": {
					"linkReferences": {},
					"object": "60806040523480156200001157600080fd5b5060405162002c9138038062002c918339818101604052810190620000379190620004ca565b84338060008073ffffffffffffffffffffffffffffffffffffffff168273ffffffffffffffffffffffffffffffffffffffff1603620000ad576040517f08c379a0000000000000000000000000000000000000000000000000000000008152600401620000a490620005c7565b60405180910390fd5b816000806101000a81548173ffffffffffffffffffffffffffffffffffffffff021916908373ffffffffffffffffffffffffffffffffffffffff160217905550600073ffffffffffffffffffffffffffffffffffffffff168173ffffffffffffffffffffffffffffffffffffffff161462000134576200013381620002bb60201b60201c565b5b505050600073ffffffffffffffffffffffffffffffffffffffff168173ffffffffffffffffffffffffffffffffffffffff16036200019e576040517fd92e233d00000000000000000000000000000000000000000000000000000000815260040160405180910390fd5b80600260006101000a81548173ffffffffffffffffffffffffffffffffffffffff021916908373ffffffffffffffffffffffffffffffffffffffff1602179055505033600360006101000a81548173ffffffffffffffffffffffffffffffffffffffff021916908373ffffffffffffffffffffffffffffffffffffffff1602179055508560078190555083600881905550620186a0600960006101000a81548163ffffffff021916908363ffffffff1602179055506003600960046101000a81548161ffff021916908361ffff1602179055506001600960066101000a81548163ffffffff021916908363ffffffff16021790555082600b8190555042600c8190555081600d8190555080600e819055505050505050506200065b565b3373ffffffffffffffffffffffffffffffffffffffff168173ffffffffffffffffffffffffffffffffffffffff16036200032c576040517f08c379a0000000000000000000000000000000000000000000000000000000008152600401620003239062000639565b60405180910390fd5b80600160006101000a81548173ffffffffffffffffffffffffffffffffffffffff021916908373ffffffffffffffffffffffffffffffffffffffff1602179055508073ffffffffffffffffffffffffffffffffffffffff1660008054906101000a900473ffffffffffffffffffffffffffffffffffffffff1673ffffffffffffffffffffffffffffffffffffffff167fed8889f560326eb138920d842192f0eb3dd22b4f139c87a2c57538e05bae127860405160405180910390a350565b600080fd5b6000819050919050565b6200040481620003ef565b81146200041057600080fd5b50565b6000815190506200042481620003f9565b92915050565b600073ffffffffffffffffffffffffffffffffffffffff82169050919050565b600062000457826200042a565b9050919050565b62000469816200044a565b81146200047557600080fd5b50565b60008151905062000489816200045e565b92915050565b6000819050919050565b620004a4816200048f565b8114620004b057600080fd5b50565b600081519050620004c48162000499565b92915050565b60008060008060008060c08789031215620004ea57620004e9620003ea565b5b6000620004fa89828a0162000413565b96505060206200050d89828a0162000478565b95505060406200052089828a01620004b3565b94505060606200053389828a0162000413565b93505060806200054689828a0162000413565b92505060a06200055989828a0162000413565b9150509295509295509295565b600082825260208201905092915050565b7f43616e6e6f7420736574206f776e657220746f207a65726f0000000000000000600082015250565b6000620005af60188362000566565b9150620005bc8262000577565b602082019050919050565b60006020820190508181036000830152620005e281620005a0565b9050919050565b7f43616e6e6f74207472616e7366657220746f2073656c66000000000000000000600082015250565b60006200062160178362000566565b91506200062e82620005e9565b602082019050919050565b60006020820190508181036000830152620006548162000612565b9050919050565b612626806200066b6000396000f3fe6080604052600436106101c25760003560e01c80638ea98117116100f7578063dba6335f11610095578063f6d361cc11610064578063f6d361cc146105dc578063f71d96cb14610607578063f9a6cec714610644578063fc2a88c31461066d576101c2565b8063dba6335f14610546578063e580f47b14610571578063f2fde38b1461059c578063f3d7323b146105c5576101c2565b80639eccacf6116100d15780639eccacf61461048a578063b0fb162f146104b5578063d0f07926146104e0578063d7a1a5b914610509576101c2565b80638ea981171461040d5780638f4fafc814610436578063947a36fb1461045f576101c2565b806361728f39116101645780637ccfd7fc1161013e5780637ccfd7fc146103615780638ac000211461038c5780638b5b9ccc146103b75780638da5cb5b146103e2576101c2565b806361728f39146102e15780636e04ff0d1461030c57806379ba50971461034a576101c2565b80633ad202b5116101a05780633ad202b5146102465780633f3b3b27146102715780633fd430981461029c5780634585e33b146102b8576101c2565b80631fe543e3146101c757806324f74697146101f05780632770c8951461021b575b600080fd5b3480156101d357600080fd5b506101ee60048036038101906101e9919061192f565b610698565b005b3480156101fc57600080fd5b5061020561075e565b60405161021291906119ae565b60405180910390f35b34801561022757600080fd5b50610230610774565b60405161023d91906119d8565b60405180910390f35b34801561025257600080fd5b5061025b61077a565b60405161026891906119d8565b60405180910390f35b34801561027d57600080fd5b50610286610780565b60405161029391906119d8565b60405180910390f35b6102b660048036038101906102b191906119f3565b610786565b005b3480156102c457600080fd5b506102df60048036038101906102da9190611a76565b6108f0565b005b3480156102ed57600080fd5b506102f6610957565b6040516103039190611adc565b60405180910390f35b34801561031857600080fd5b50610333600480360381019061032e9190611a76565b61095d565b604051610341929190611ba2565b60405180910390f35b34801561035657600080fd5b5061035f6109d1565b005b34801561036d57600080fd5b50610376610b66565b60405161038391906119ae565b60405180910390f35b34801561039857600080fd5b506103a1610b7c565b6040516103ae91906119d8565b60405180910390f35b3480156103c357600080fd5b506103cc610b82565b6040516103d99190611cc2565b60405180910390f35b3480156103ee57600080fd5b506103f7610c10565b6040516104049190611d05565b60405180910390f35b34801561041957600080fd5b50610434600480360381019061042f9190611d4c565b610c39565b005b34801561044257600080fd5b5061045d600480360381019061045891906119f3565b610e1a565b005b34801561046b57600080fd5b50610474610eb4565b60405161048191906119d8565b60405180910390f35b34801561049657600080fd5b5061049f610eba565b6040516104ac9190611dd8565b60405180910390f35b3480156104c157600080fd5b506104ca610ee0565b6040516104d79190611e10565b60405180910390f35b3480156104ec57600080fd5b50610507600480360381019061050291906119f3565b610ef4565b005b34801561051557600080fd5b50610530600480360381019061052b91906119f3565b610f8e565b60405161053d9190611e3a565b60405180910390f35b34801561055257600080fd5b5061055b610fc1565b6040516105689190611d05565b60405180910390f35b34801561057d57600080fd5b50610586610fe7565b60405161059391906119d8565b60405180910390f35b3480156105a857600080fd5b506105c360048036038101906105be9190611d4c565b610fed565b005b3480156105d157600080fd5b506105da611001565b005b3480156105e857600080fd5b506105f16110e3565b6040516105fe91906119d8565b60405180910390f35b34801561061357600080fd5b5061062e600480360381019061062991906119f3565b6110ee565b60405161063b9190611e3a565b60405180910390f35b34801561065057600080fd5b5061066b600480360381019061066691906119f3565b61112d565b005b34801561067957600080fd5b506106826111c7565b60405161068f91906119d8565b60405180910390f35b600260009054906101000a900473ffffffffffffffffffffffffffffffffffffffff1673ffffffffffffffffffffffffffffffffffffffff163373ffffffffffffffffffffffffffffffffffffffff161461074e5733600260009054906101000a900473ffffffffffffffffffffffffffffffffffffffff166040517f1cf993f4000000000000000000000000000000000000000000000000000000008152600401610745929190611e55565b60405180910390fd5b6107598383836111cd565b505050565b600960009054906101000a900463ffffffff1681565b600d5481565b600e5481565b600c5481565b600081116107c9576040517f08c379a00000000000000000000000000000000000000000000000000000000081526004016107c090611edb565b60405180910390fd5b80662386f26fc100006107dc9190611f2a565b341461081d576040517f08c379a000000000000000000000000000000000000000000000000000000000815260040161081490611fb8565b60405180910390fd5b60005b8181101561089e576004339080600181540180825580915050600190039060005260206000200160009091909190916101000a81548173ffffffffffffffffffffffffffffffffffffffff021916908373ffffffffffffffffffffffffffffffffffffffff160217905550808061089690611fd8565b915050610820565b503373ffffffffffffffffffffffffffffffffffffffff167f0668f5b446eb814fe35b3206f43f14bd8567ba04ddaf7a3ee56516929ab22ccb826040516108e591906119d8565b60405180910390a250565b6000600b54600c54426109039190612020565b101590506000600d54600480549050101590506000600e54471015905082806109295750815b806109315750805b801561094257506000600480549050115b156109505761094f61148c565b5b5050505050565b60085481565b600060606000600b54600c54426109749190612020565b101590506000600d54600480549050101590506000600e544710159050828061099a5750815b806109a25750805b80156109b357506000600480549050115b94506040518060200160405280600081525093505050509250929050565b600160009054906101000a900473ffffffffffffffffffffffffffffffffffffffff1673ffffffffffffffffffffffffffffffffffffffff163373ffffffffffffffffffffffffffffffffffffffff1614610a61576040517f08c379a0000000000000000000000000000000000000000000000000000000008152600401610a58906120a0565b60405180910390fd5b60008060009054906101000a900473ffffffffffffffffffffffffffffffffffffffff169050336000806101000a81548173ffffffffffffffffffffffffffffffffffffffff021916908373ffffffffffffffffffffffffffffffffffffffff1602179055506000600160006101000a81548173ffffffffffffffffffffffffffffffffffffffff021916908373ffffffffffffffffffffffffffffffffffffffff1602179055503373ffffffffffffffffffffffffffffffffffffffff168173ffffffffffffffffffffffffffffffffffffffff167f8be0079c531659141344cd1fd0a4f28419497f9722a3daafe3b4186f6b6457e060405160405180910390a350565b600960069054906101000a900463ffffffff1681565b60075481565b60606004805480602002602001604051908101604052809291908181526020018280548015610c0657602002820191906000526020600020905b8160009054906101000a900473ffffffffffffffffffffffffffffffffffffffff1673ffffffffffffffffffffffffffffffffffffffff1681526020019060010190808311610bbc575b5050505050905090565b60008060009054906101000a900473ffffffffffffffffffffffffffffffffffffffff16905090565b610c41610c10565b73ffffffffffffffffffffffffffffffffffffffff163373ffffffffffffffffffffffffffffffffffffffff1614158015610cca5750600260009054906101000a900473ffffffffffffffffffffffffffffffffffffffff1673ffffffffffffffffffffffffffffffffffffffff163373ffffffffffffffffffffffffffffffffffffffff1614155b15610d395733610cd8610c10565b600260009054906101000a900473ffffffffffffffffffffffffffffffffffffffff166040517f061db9c1000000000000000000000000000000000000000000000000000000008152600401610d30939291906120c0565b60405180910390fd5b600073ffffffffffffffffffffffffffffffffffffffff168173ffffffffffffffffffffffffffffffffffffffff1603610d9f576040517fd92e233d00000000000000000000000000000000000000000000000000000000815260040160405180910390fd5b80600260006101000a81548173ffffffffffffffffffffffffffffffffffffffff021916908373ffffffffffffffffffffffffffffffffffffffff1602179055507fd1a6a14209a385a964d036e404cb5cfb71f4000cdb03c9366292430787261be681604051610e0f9190611d05565b60405180910390a150565b600360009054906101000a900473ffffffffffffffffffffffffffffffffffffffff1673ffffffffffffffffffffffffffffffffffffffff163373ffffffffffffffffffffffffffffffffffffffff1614610eaa576040517f08c379a0000000000000000000000000000000000000000000000000000000008152600401610ea190612169565b60405180910390fd5b80600d8190555050565b600b5481565b600260009054906101000a900473ffffffffffffffffffffffffffffffffffffffff1681565b600960049054906101000a900461ffff1681565b600360009054906101000a900473ffffffffffffffffffffffffffffffffffffffff1673ffffffffffffffffffffffffffffffffffffffff163373ffffffffffffffffffffffffffffffffffffffff1614610f84576040517f08c379a0000000000000000000000000000000000000000000000000000000008152600401610f7b90612169565b60405180910390fd5b80600b8190555050565b60066020528060005260406000206000915054906101000a900473ffffffffffffffffffffffffffffffffffffffff1681565b600360009054906101000a900473ffffffffffffffffffffffffffffffffffffffff1681565b60055481565b610ff56115f8565b610ffe81611688565b50565b600360009054906101000a900473ffffffffffffffffffffffffffffffffffffffff1673ffffffffffffffffffffffffffffffffffffffff163373ffffffffffffffffffffffffffffffffffffffff1614611091576040517f08c379a000000000000000000000000000000000000000000000000000000000815260040161108890612169565b60405180910390fd5b6000600480549050116110d9576040517f08c379a00000000000000000000000000000000000000000000000000000000081526004016110d0906121d5565b60405180910390fd5b6110e161148c565b565b662386f26fc1000081565b600481815481106110fe57600080fd5b906000526020600020016000915054906101000a900473ffffffffffffffffffffffffffffffffffffffff1681565b600360009054906101000a900473ffffffffffffffffffffffffffffffffffffffff1673ffffffffffffffffffffffffffffffffffffffff163373ffffffffffffffffffffffffffffffffffffffff16146111bd576040517f08c379a00000000000000000000000000000000000000000000000000000000081526004016111b490612169565b60405180910390fd5b80600e8190555050565b600a5481565b600060048054905011611215576040517f08c379a000000000000000000000000000000000000000000000000000000000815260040161120c906121d5565b60405180910390fd5b600060048054905083836000818110611231576112306121f5565b5b905060200201356112429190612253565b905060006004828154811061125a576112596121f5565b5b9060005260206000200160009054906101000a900473ffffffffffffffffffffffffffffffffffffffff16905060004790508160066000600554815260200190815260200160002060006101000a81548173ffffffffffffffffffffffffffffffffffffffff021916908373ffffffffffffffffffffffffffffffffffffffff16021790555060006005549050600560008154809291906112fa90611fd8565b91905055506004600061130d919061184c565b42600c8190555060008373ffffffffffffffffffffffffffffffffffffffff168360405161133a906122b5565b60006040518083038185875af1925050503d8060008114611377576040519150601f19603f3d011682016040523d82523d6000602084013e61137c565b606091505b50509050806113c0576040517f08c379a00000000000000000000000000000000000000000000000000000000081526004016113b790612316565b60405180910390fd5b8373ffffffffffffffffffffffffffffffffffffffff167f7e57d825a2478cc8123a008d7d1e20c0f6e8cbca89a7bc100c9b05ecb3698deb8484604051611408929190612336565b60405180910390a27fe194703c928e60d23be81d1f5c372b39a5adb98a7ba333dd9334414122f59e998260405161143f91906119d8565b60405180910390a17f1bbd97005f8f033b87044f2f354d3104f1730b26d30001e655b75782ce4797716005544260405161147a929190612336565b60405180910390a15050505050505050565b600260009054906101000a900473ffffffffffffffffffffffffffffffffffffffff1673ffffffffffffffffffffffffffffffffffffffff16639b1c385e6040518060c0016040528060085481526020016007548152602001600960049054906101000a900461ffff1661ffff168152602001600960009054906101000a900463ffffffff1663ffffffff168152602001600960069054906101000a900463ffffffff1663ffffffff1681526020016115556040518060200160405280600015158152506117b4565b8152506040518263ffffffff1660e01b8152600401611574919061246e565b6020604051808303816000875af1158015611593573d6000803e3d6000fd5b505050506040513d601f19601f820116820180604052508101906115b791906124a5565b600a819055507f9ac10fb18c93d33ad7b0a941897aef048d0f8d30756684e82b4552ba12764d45600a546040516115ee91906119d8565b60405180910390a1565b60008054906101000a900473ffffffffffffffffffffffffffffffffffffffff1673ffffffffffffffffffffffffffffffffffffffff163373ffffffffffffffffffffffffffffffffffffffff1614611686576040517f08c379a000000000000000000000000000000000000000000000000000000000815260040161167d9061251e565b60405180910390fd5b565b3373ffffffffffffffffffffffffffffffffffffffff168173ffffffffffffffffffffffffffffffffffffffff16036116f6576040517f08c379a00000000000000000000000000000000000000000000000000000000081526004016116ed9061258a565b60405180910390fd5b80600160006101000a81548173ffffffffffffffffffffffffffffffffffffffff021916908373ffffffffffffffffffffffffffffffffffffffff1602179055508073ffffffffffffffffffffffffffffffffffffffff1660008054906101000a900473ffffffffffffffffffffffffffffffffffffffff1673ffffffffffffffffffffffffffffffffffffffff167fed8889f560326eb138920d842192f0eb3dd22b4f139c87a2c57538e05bae127860405160405180910390a350565b60607f92fd13387c7fe7befbc38d303d6468778fb9731bc4583f17d92989c6fcfdeaaa826040516024016117e891906125d5565b604051602081830303815290604052907bffffffffffffffffffffffffffffffffffffffffffffffffffffffff19166020820180517bffffffffffffffffffffffffffffffffffffffffffffffffffffffff83818316178352505050509050919050565b508054600082559060005260206000209081019061186a919061186d565b50565b5b8082111561188657600081600090555060010161186e565b5090565b600080fd5b600080fd5b6000819050919050565b6118a781611894565b81146118b257600080fd5b50565b6000813590506118c48161189e565b92915050565b600080fd5b600080fd5b600080fd5b60008083601f8401126118ef576118ee6118ca565b5b8235905067ffffffffffffffff81111561190c5761190b6118cf565b5b602083019150836020820283011115611928576119276118d4565b5b9250929050565b6000806000604084860312156119485761194761188a565b5b6000611956868287016118b5565b935050602084013567ffffffffffffffff8111156119775761197661188f565b5b611983868287016118d9565b92509250509250925092565b600063ffffffff82169050919050565b6119a88161198f565b82525050565b60006020820190506119c3600083018461199f565b92915050565b6119d281611894565b82525050565b60006020820190506119ed60008301846119c9565b92915050565b600060208284031215611a0957611a0861188a565b5b6000611a17848285016118b5565b91505092915050565b60008083601f840112611a3657611a356118ca565b5b8235905067ffffffffffffffff811115611a5357611a526118cf565b5b602083019150836001820283011115611a6f57611a6e6118d4565b5b9250929050565b60008060208385031215611a8d57611a8c61188a565b5b600083013567ffffffffffffffff811115611aab57611aaa61188f565b5b611ab785828601611a20565b92509250509250929050565b6000819050919050565b611ad681611ac3565b82525050565b6000602082019050611af16000830184611acd565b92915050565b60008115159050919050565b611b0c81611af7565b82525050565b600081519050919050565b600082825260208201905092915050565b60005b83811015611b4c578082015181840152602081019050611b31565b60008484015250505050565b6000601f19601f8301169050919050565b6000611b7482611b12565b611b7e8185611b1d565b9350611b8e818560208601611b2e565b611b9781611b58565b840191505092915050565b6000604082019050611bb76000830185611b03565b8181036020830152611bc98184611b69565b90509392505050565b600081519050919050565b600082825260208201905092915050565b6000819050602082019050919050565b600073ffffffffffffffffffffffffffffffffffffffff82169050919050565b6000611c2982611bfe565b9050919050565b611c3981611c1e565b82525050565b6000611c4b8383611c30565b60208301905092915050565b6000602082019050919050565b6000611c6f82611bd2565b611c798185611bdd565b9350611c8483611bee565b8060005b83811015611cb5578151611c9c8882611c3f565b9750611ca783611c57565b925050600181019050611c88565b5085935050505092915050565b60006020820190508181036000830152611cdc8184611c64565b905092915050565b6000611cef82611bfe565b9050919050565b611cff81611ce4565b82525050565b6000602082019050611d1a6000830184611cf6565b92915050565b611d2981611ce4565b8114611d3457600080fd5b50565b600081359050611d4681611d20565b92915050565b600060208284031215611d6257611d6161188a565b5b6000611d7084828501611d37565b91505092915050565b6000819050919050565b6000611d9e611d99611d9484611bfe565b611d79565b611bfe565b9050919050565b6000611db082611d83565b9050919050565b6000611dc282611da5565b9050919050565b611dd281611db7565b82525050565b6000602082019050611ded6000830184611dc9565b92915050565b600061ffff82169050919050565b611e0a81611df3565b82525050565b6000602082019050611e256000830184611e01565b92915050565b611e3481611c1e565b82525050565b6000602082019050611e4f6000830184611e2b565b92915050565b6000604082019050611e6a6000830185611cf6565b611e776020830184611cf6565b9392505050565b600082825260208201905092915050565b7f4d75737420627579206174206c65617374206f6e65207469636b657400000000600082015250565b6000611ec5601c83611e7e565b9150611ed082611e8f565b602082019050919050565b60006020820190508181036000830152611ef481611eb8565b9050919050565b7f4e487b7100000000000000000000000000000000000000000000000000000000600052601160045260246000fd5b6000611f3582611894565b9150611f4083611894565b9250828202611f4e81611894565b91508282048414831517611f6557611f64611efb565b5b5092915050565b7f496e636f72726563742045544820616d6f756e7420666f72207469636b657473600082015250565b6000611fa2602083611e7e565b9150611fad82611f6c565b602082019050919050565b60006020820190508181036000830152611fd181611f95565b9050919050565b6000611fe382611894565b91507fffffffffffffffffffffffffffffffffffffffffffffffffffffffffffffffff820361201557612014611efb565b5b600182019050919050565b600061202b82611894565b915061203683611894565b925082820390508181111561204e5761204d611efb565b5b92915050565b7f4d7573742062652070726f706f736564206f776e657200000000000000000000600082015250565b600061208a601683611e7e565b915061209582612054565b602082019050919050565b600060208201905081810360008301526120b98161207d565b9050919050565b60006060820190506120d56000830186611cf6565b6120e26020830185611cf6565b6120ef6040830184611cf6565b949350505050565b7f4f6e6c79206f776e65722063616e2063616c6c20746869732066756e6374696f60008201527f6e00000000000000000000000000000000000000000000000000000000000000602082015250565b6000612153602183611e7e565b915061215e826120f7565b604082019050919050565b6000602082019050818103600083015261218281612146565b9050919050565b7f4e6f20706c617965727320656e74657265640000000000000000000000000000600082015250565b60006121bf601283611e7e565b91506121ca82612189565b602082019050919050565b600060208201905081810360008301526121ee816121b2565b9050919050565b7f4e487b7100000000000000000000000000000000000000000000000000000000600052603260045260246000fd5b7f4e487b7100000000000000000000000000000000000000000000000000000000600052601260045260246000fd5b600061225e82611894565b915061226983611894565b92508261227957612278612224565b5b828206905092915050565b600081905092915050565b50565b600061229f600083612284565b91506122aa8261228f565b600082019050919050565b60006122c082612292565b9150819050919050565b7f5472616e73666572206661696c65640000000000000000000000000000000000600082015250565b6000612300600f83611e7e565b915061230b826122ca565b602082019050919050565b6000602082019050818103600083015261232f816122f3565b9050919050565b600060408201905061234b60008301856119c9565b61235860208301846119c9565b9392505050565b61236881611ac3565b82525050565b61237781611894565b82525050565b61238681611df3565b82525050565b6123958161198f565b82525050565b600082825260208201905092915050565b60006123b782611b12565b6123c1818561239b565b93506123d1818560208601611b2e565b6123da81611b58565b840191505092915050565b600060c0830160008301516123fd600086018261235f565b506020830151612410602086018261236e565b506040830151612423604086018261237d565b506060830151612436606086018261238c565b506080830151612449608086018261238c565b5060a083015184820360a086015261246182826123ac565b9150508091505092915050565b6000602082019050818103600083015261248881846123e5565b905092915050565b60008151905061249f8161189e565b92915050565b6000602082840312156124bb576124ba61188a565b5b60006124c984828501612490565b91505092915050565b7f4f6e6c792063616c6c61626c65206279206f776e657200000000000000000000600082015250565b6000612508601683611e7e565b9150612513826124d2565b602082019050919050565b60006020820190508181036000830152612537816124fb565b9050919050565b7f43616e6e6f74207472616e7366657220746f2073656c66000000000000000000600082015250565b6000612574601783611e7e565b915061257f8261253e565b602082019050919050565b600060208201905081810360008301526125a381612567565b9050919050565b6125b381611af7565b82525050565b6020820160008201516125cf60008501826125aa565b50505050565b60006020820190506125ea60008301846125b9565b9291505056fea2646970667358221220ca0de8e506b846fc62e19a47c6c5a2e01586b8330a9e8679974c53f2e975f8a164736f6c63430008130033",
					"opcodes": "PUSH1 0x80 PUSH1 0x40 MSTORE CALLVALUE DUP1 ISZERO PUSH3 0x11 JUMPI PUSH1 0x0 DUP1 REVERT JUMPDEST POP PUSH1 0x40 MLOAD PUSH3 0x2C91 CODESIZE SUB DUP1 PUSH3 0x2C91 DUP4 CODECOPY DUP2 DUP2 ADD PUSH1 0x40 MSTORE DUP2 ADD SWAP1 PUSH3 0x37 SWAP2 SWAP1 PUSH3 0x4CA JUMP JUMPDEST DUP5 CALLER DUP1 PUSH1 0x0 DUP1 PUSH20 0xFFFFFFFFFFFFFFFFFFFFFFFFFFFFFFFFFFFFFFFF AND DUP3 PUSH20 0xFFFFFFFFFFFFFFFFFFFFFFFFFFFFFFFFFFFFFFFF AND SUB PUSH3 0xAD JUMPI PUSH1 0x40 MLOAD PUSH32 0x8C379A000000000000000000000000000000000000000000000000000000000 DUP2 MSTORE PUSH1 0x4 ADD PUSH3 0xA4 SWAP1 PUSH3 0x5C7 JUMP JUMPDEST PUSH1 0x40 MLOAD DUP1 SWAP2 SUB SWAP1 REVERT JUMPDEST DUP2 PUSH1 0x0 DUP1 PUSH2 0x100 EXP DUP2 SLOAD DUP2 PUSH20 0xFFFFFFFFFFFFFFFFFFFFFFFFFFFFFFFFFFFFFFFF MUL NOT AND SWAP1 DUP4 PUSH20 0xFFFFFFFFFFFFFFFFFFFFFFFFFFFFFFFFFFFFFFFF AND MUL OR SWAP1 SSTORE POP PUSH1 0x0 PUSH20 0xFFFFFFFFFFFFFFFFFFFFFFFFFFFFFFFFFFFFFFFF AND DUP2 PUSH20 0xFFFFFFFFFFFFFFFFFFFFFFFFFFFFFFFFFFFFFFFF AND EQ PUSH3 0x134 JUMPI PUSH3 0x133 DUP2 PUSH3 0x2BB PUSH1 0x20 SHL PUSH1 0x20 SHR JUMP JUMPDEST JUMPDEST POP POP POP PUSH1 0x0 PUSH20 0xFFFFFFFFFFFFFFFFFFFFFFFFFFFFFFFFFFFFFFFF AND DUP2 PUSH20 0xFFFFFFFFFFFFFFFFFFFFFFFFFFFFFFFFFFFFFFFF AND SUB PUSH3 0x19E JUMPI PUSH1 0x40 MLOAD PUSH32 0xD92E233D00000000000000000000000000000000000000000000000000000000 DUP2 MSTORE PUSH1 0x4 ADD PUSH1 0x40 MLOAD DUP1 SWAP2 SUB SWAP1 REVERT JUMPDEST DUP1 PUSH1 0x2 PUSH1 0x0 PUSH2 0x100 EXP DUP2 SLOAD DUP2 PUSH20 0xFFFFFFFFFFFFFFFFFFFFFFFFFFFFFFFFFFFFFFFF MUL NOT AND SWAP1 DUP4 PUSH20 0xFFFFFFFFFFFFFFFFFFFFFFFFFFFFFFFFFFFFFFFF AND MUL OR SWAP1 SSTORE POP POP CALLER PUSH1 0x3 PUSH1 0x0 PUSH2 0x100 EXP DUP2 SLOAD DUP2 PUSH20 0xFFFFFFFFFFFFFFFFFFFFFFFFFFFFFFFFFFFFFFFF MUL NOT AND SWAP1 DUP4 PUSH20 0xFFFFFFFFFFFFFFFFFFFFFFFFFFFFFFFFFFFFFFFF AND MUL OR SWAP1 SSTORE POP DUP6 PUSH1 0x7 DUP2 SWAP1 SSTORE POP DUP4 PUSH1 0x8 DUP2 SWAP1 SSTORE POP PUSH3 0x186A0 PUSH1 0x9 PUSH1 0x0 PUSH2 0x100 EXP DUP2 SLOAD DUP2 PUSH4 0xFFFFFFFF MUL NOT AND SWAP1 DUP4 PUSH4 0xFFFFFFFF AND MUL OR SWAP1 SSTORE POP PUSH1 0x3 PUSH1 0x9 PUSH1 0x4 PUSH2 0x100 EXP DUP2 SLOAD DUP2 PUSH2 0xFFFF MUL NOT AND SWAP1 DUP4 PUSH2 0xFFFF AND MUL OR SWAP1 SSTORE POP PUSH1 0x1 PUSH1 0x9 PUSH1 0x6 PUSH2 0x100 EXP DUP2 SLOAD DUP2 PUSH4 0xFFFFFFFF MUL NOT AND SWAP1 DUP4 PUSH4 0xFFFFFFFF AND MUL OR SWAP1 SSTORE POP DUP3 PUSH1 0xB DUP2 SWAP1 SSTORE POP TIMESTAMP PUSH1 0xC DUP2 SWAP1 SSTORE POP DUP2 PUSH1 0xD DUP2 SWAP1 SSTORE POP DUP1 PUSH1 0xE DUP2 SWAP1 SSTORE POP POP POP POP POP POP POP PUSH3 0x65B JUMP JUMPDEST CALLER PUSH20 0xFFFFFFFFFFFFFFFFFFFFFFFFFFFFFFFFFFFFFFFF AND DUP2 PUSH20 0xFFFFFFFFFFFFFFFFFFFFFFFFFFFFFFFFFFFFFFFF AND SUB PUSH3 0x32C JUMPI PUSH1 0x40 MLOAD PUSH32 0x8C379A000000000000000000000000000000000000000000000000000000000 DUP2 MSTORE PUSH1 0x4 ADD PUSH3 0x323 SWAP1 PUSH3 0x639 JUMP JUMPDEST PUSH1 0x40 MLOAD DUP1 SWAP2 SUB SWAP1 REVERT JUMPDEST DUP1 PUSH1 0x1 PUSH1 0x0 PUSH2 0x100 EXP DUP2 SLOAD DUP2 PUSH20 0xFFFFFFFFFFFFFFFFFFFFFFFFFFFFFFFFFFFFFFFF MUL NOT AND SWAP1 DUP4 PUSH20 0xFFFFFFFFFFFFFFFFFFFFFFFFFFFFFFFFFFFFFFFF AND MUL OR SWAP1 SSTORE POP DUP1 PUSH20 0xFFFFFFFFFFFFFFFFFFFFFFFFFFFFFFFFFFFFFFFF AND PUSH1 0x0 DUP1 SLOAD SWAP1 PUSH2 0x100 EXP SWAP1 DIV PUSH20 0xFFFFFFFFFFFFFFFFFFFFFFFFFFFFFFFFFFFFFFFF AND PUSH20 0xFFFFFFFFFFFFFFFFFFFFFFFFFFFFFFFFFFFFFFFF AND PUSH32 0xED8889F560326EB138920D842192F0EB3DD22B4F139C87A2C57538E05BAE1278 PUSH1 0x40 MLOAD PUSH1 0x40 MLOAD DUP1 SWAP2 SUB SWAP1 LOG3 POP JUMP JUMPDEST PUSH1 0x0 DUP1 REVERT JUMPDEST PUSH1 0x0 DUP2 SWAP1 POP SWAP2 SWAP1 POP JUMP JUMPDEST PUSH3 0x404 DUP2 PUSH3 0x3EF JUMP JUMPDEST DUP2 EQ PUSH3 0x410 JUMPI PUSH1 0x0 DUP1 REVERT JUMPDEST POP JUMP JUMPDEST PUSH1 0x0 DUP2 MLOAD SWAP1 POP PUSH3 0x424 DUP2 PUSH3 0x3F9 JUMP JUMPDEST SWAP3 SWAP2 POP POP JUMP JUMPDEST PUSH1 0x0 PUSH20 0xFFFFFFFFFFFFFFFFFFFFFFFFFFFFFFFFFFFFFFFF DUP3 AND SWAP1 POP SWAP2 SWAP1 POP JUMP JUMPDEST PUSH1 0x0 PUSH3 0x457 DUP3 PUSH3 0x42A JUMP JUMPDEST SWAP1 POP SWAP2 SWAP1 POP JUMP JUMPDEST PUSH3 0x469 DUP2 PUSH3 0x44A JUMP JUMPDEST DUP2 EQ PUSH3 0x475 JUMPI PUSH1 0x0 DUP1 REVERT JUMPDEST POP JUMP JUMPDEST PUSH1 0x0 DUP2 MLOAD SWAP1 POP PUSH3 0x489 DUP2 PUSH3 0x45E JUMP JUMPDEST SWAP3 SWAP2 POP POP JUMP JUMPDEST PUSH1 0x0 DUP2 SWAP1 POP SWAP2 SWAP1 POP JUMP JUMPDEST PUSH3 0x4A4 DUP2 PUSH3 0x48F JUMP JUMPDEST DUP2 EQ PUSH3 0x4B0 JUMPI PUSH1 0x0 DUP1 REVERT JUMPDEST POP JUMP JUMPDEST PUSH1 0x0 DUP2 MLOAD SWAP1 POP PUSH3 0x4C4 DUP2 PUSH3 0x499 JUMP JUMPDEST SWAP3 SWAP2 POP POP JUMP JUMPDEST PUSH1 0x0 DUP1 PUSH1 0x0 DUP1 PUSH1 0x0 DUP1 PUSH1 0xC0 DUP8 DUP10 SUB SLT ISZERO PUSH3 0x4EA JUMPI PUSH3 0x4E9 PUSH3 0x3EA JUMP JUMPDEST JUMPDEST PUSH1 0x0 PUSH3 0x4FA DUP10 DUP3 DUP11 ADD PUSH3 0x413 JUMP JUMPDEST SWAP7 POP POP PUSH1 0x20 PUSH3 0x50D DUP10 DUP3 DUP11 ADD PUSH3 0x478 JUMP JUMPDEST SWAP6 POP POP PUSH1 0x40 PUSH3 0x520 DUP10 DUP3 DUP11 ADD PUSH3 0x4B3 JUMP JUMPDEST SWAP5 POP POP PUSH1 0x60 PUSH3 0x533 DUP10 DUP3 DUP11 ADD PUSH3 0x413 JUMP JUMPDEST SWAP4 POP POP PUSH1 0x80 PUSH3 0x546 DUP10 DUP3 DUP11 ADD PUSH3 0x413 JUMP JUMPDEST SWAP3 POP POP PUSH1 0xA0 PUSH3 0x559 DUP10 DUP3 DUP11 ADD PUSH3 0x413 JUMP JUMPDEST SWAP2 POP POP SWAP3 SWAP6 POP SWAP3 SWAP6 POP SWAP3 SWAP6 JUMP JUMPDEST PUSH1 0x0 DUP3 DUP3 MSTORE PUSH1 0x20 DUP3 ADD SWAP1 POP SWAP3 SWAP2 POP POP JUMP JUMPDEST PUSH32 0x43616E6E6F7420736574206F776E657220746F207A65726F0000000000000000 PUSH1 0x0 DUP3 ADD MSTORE POP JUMP JUMPDEST PUSH1 0x0 PUSH3 0x5AF PUSH1 0x18 DUP4 PUSH3 0x566 JUMP JUMPDEST SWAP2 POP PUSH3 0x5BC DUP3 PUSH3 0x577 JUMP JUMPDEST PUSH1 0x20 DUP3 ADD SWAP1 POP SWAP2 SWAP1 POP JUMP JUMPDEST PUSH1 0x0 PUSH1 0x20 DUP3 ADD SWAP1 POP DUP2 DUP2 SUB PUSH1 0x0 DUP4 ADD MSTORE PUSH3 0x5E2 DUP2 PUSH3 0x5A0 JUMP JUMPDEST SWAP1 POP SWAP2 SWAP1 POP JUMP JUMPDEST PUSH32 0x43616E6E6F74207472616E7366657220746F2073656C66000000000000000000 PUSH1 0x0 DUP3 ADD MSTORE POP JUMP JUMPDEST PUSH1 0x0 PUSH3 0x621 PUSH1 0x17 DUP4 PUSH3 0x566 JUMP JUMPDEST SWAP2 POP PUSH3 0x62E DUP3 PUSH3 0x5E9 JUMP JUMPDEST PUSH1 0x20 DUP3 ADD SWAP1 POP SWAP2 SWAP1 POP JUMP JUMPDEST PUSH1 0x0 PUSH1 0x20 DUP3 ADD SWAP1 POP DUP2 DUP2 SUB PUSH1 0x0 DUP4 ADD MSTORE PUSH3 0x654 DUP2 PUSH3 0x612 JUMP JUMPDEST SWAP1 POP SWAP2 SWAP1 POP JUMP JUMPDEST PUSH2 0x2626 DUP1 PUSH3 0x66B PUSH1 0x0 CODECOPY PUSH1 0x0 RETURN INVALID PUSH1 0x80 PUSH1 0x40 MSTORE PUSH1 0x4 CALLDATASIZE LT PUSH2 0x1C2 JUMPI PUSH1 0x0 CALLDATALOAD PUSH1 0xE0 SHR DUP1 PUSH4 0x8EA98117 GT PUSH2 0xF7 JUMPI DUP1 PUSH4 0xDBA6335F GT PUSH2 0x95 JUMPI DUP1 PUSH4 0xF6D361CC GT PUSH2 0x64 JUMPI DUP1 PUSH4 0xF6D361CC EQ PUSH2 0x5DC JUMPI DUP1 PUSH4 0xF71D96CB EQ PUSH2 0x607 JUMPI DUP1 PUSH4 0xF9A6CEC7 EQ PUSH2 0x644 JUMPI DUP1 PUSH4 0xFC2A88C3 EQ PUSH2 0x66D JUMPI PUSH2 0x1C2 JUMP JUMPDEST DUP1 PUSH4 0xDBA6335F EQ PUSH2 0x546 JUMPI DUP1 PUSH4 0xE580F47B EQ PUSH2 0x571 JUMPI DUP1 PUSH4 0xF2FDE38B EQ PUSH2 0x59C JUMPI DUP1 PUSH4 0xF3D7323B EQ PUSH2 0x5C5 JUMPI PUSH2 0x1C2 JUMP JUMPDEST DUP1 PUSH4 0x9ECCACF6 GT PUSH2 0xD1 JUMPI DUP1 PUSH4 0x9ECCACF6 EQ PUSH2 0x48A JUMPI DUP1 PUSH4 0xB0FB162F EQ PUSH2 0x4B5 JUMPI DUP1 PUSH4 0xD0F07926 EQ PUSH2 0x4E0 JUMPI DUP1 PUSH4 0xD7A1A5B9 EQ PUSH2 0x509 JUMPI PUSH2 0x1C2 JUMP JUMPDEST DUP1 PUSH4 0x8EA98117 EQ PUSH2 0x40D JUMPI DUP1 PUSH4 0x8F4FAFC8 EQ PUSH2 0x436 JUMPI DUP1 PUSH4 0x947A36FB EQ PUSH2 0x45F JUMPI PUSH2 0x1C2 JUMP JUMPDEST DUP1 PUSH4 0x61728F39 GT PUSH2 0x164 JUMPI DUP1 PUSH4 0x7CCFD7FC GT PUSH2 0x13E JUMPI DUP1 PUSH4 0x7CCFD7FC EQ PUSH2 0x361 JUMPI DUP1 PUSH4 0x8AC00021 EQ PUSH2 0x38C JUMPI DUP1 PUSH4 0x8B5B9CCC EQ PUSH2 0x3B7 JUMPI DUP1 PUSH4 0x8DA5CB5B EQ PUSH2 0x3E2 JUMPI PUSH2 0x1C2 JUMP JUMPDEST DUP1 PUSH4 0x61728F39 EQ PUSH2 0x2E1 JUMPI DUP1 PUSH4 0x6E04FF0D EQ PUSH2 0x30C JUMPI DUP1 PUSH4 0x79BA5097 EQ PUSH2 0x34A JUMPI PUSH2 0x1C2 JUMP JUMPDEST DUP1 PUSH4 0x3AD202B5 GT PUSH2 0x1A0 JUMPI DUP1 PUSH4 0x3AD202B5 EQ PUSH2 0x246 JUMPI DUP1 PUSH4 0x3F3B3B27 EQ PUSH2 0x271 JUMPI DUP1 PUSH4 0x3FD43098 EQ PUSH2 0x29C JUMPI DUP1 PUSH4 0x4585E33B EQ PUSH2 0x2B8 JUMPI PUSH2 0x1C2 JUMP JUMPDEST DUP1 PUSH4 0x1FE543E3 EQ PUSH2 0x1C7 JUMPI DUP1 PUSH4 0x24F74697 EQ PUSH2 0x1F0 JUMPI DUP1 PUSH4 0x2770C895 EQ PUSH2 0x21B JUMPI JUMPDEST PUSH1 0x0 DUP1 REVERT JUMPDEST CALLVALUE DUP1 ISZERO PUSH2 0x1D3 JUMPI PUSH1 0x0 DUP1 REVERT JUMPDEST POP PUSH2 0x1EE PUSH1 0x4 DUP1 CALLDATASIZE SUB DUP2 ADD SWAP1 PUSH2 0x1E9 SWAP2 SWAP1 PUSH2 0x192F JUMP JUMPDEST PUSH2 0x698 JUMP JUMPDEST STOP JUMPDEST CALLVALUE DUP1 ISZERO PUSH2 0x1FC JUMPI PUSH1 0x0 DUP1 REVERT JUMPDEST POP PUSH2 0x205 PUSH2 0x75E JUMP JUMPDEST PUSH1 0x40 MLOAD PUSH2 0x212 SWAP2 SWAP1 PUSH2 0x19AE JUMP JUMPDEST PUSH1 0x40 MLOAD DUP1 SWAP2 SUB SWAP1 RETURN JUMPDEST CALLVALUE DUP1 ISZERO PUSH2 0x227 JUMPI PUSH1 0x0 DUP1 REVERT JUMPDEST POP PUSH2 0x230 PUSH2 0x774 JUMP JUMPDEST PUSH1 0x40 MLOAD PUSH2 0x23D SWAP2 SWAP1 PUSH2 0x19D8 JUMP JUMPDEST PUSH1 0x40 MLOAD DUP1 SWAP2 SUB SWAP1 RETURN JUMPDEST CALLVALUE DUP1 ISZERO PUSH2 0x252 JUMPI PUSH1 0x0 DUP1 REVERT JUMPDEST POP PUSH2 0x25B PUSH2 0x77A JUMP JUMPDEST PUSH1 0x40 MLOAD PUSH2 0x268 SWAP2 SWAP1 PUSH2 0x19D8 JUMP JUMPDEST PUSH1 0x40 MLOAD DUP1 SWAP2 SUB SWAP1 RETURN JUMPDEST CALLVALUE DUP1 ISZERO PUSH2 0x27D JUMPI PUSH1 0x0 DUP1 REVERT JUMPDEST POP PUSH2 0x286 PUSH2 0x780 JUMP JUMPDEST PUSH1 0x40 MLOAD PUSH2 0x293 SWAP2 SWAP1 PUSH2 0x19D8 JUMP JUMPDEST PUSH1 0x40 MLOAD DUP1 SWAP2 SUB SWAP1 RETURN JUMPDEST PUSH2 0x2B6 PUSH1 0x4 DUP1 CALLDATASIZE SUB DUP2 ADD SWAP1 PUSH2 0x2B1 SWAP2 SWAP1 PUSH2 0x19F3 JUMP JUMPDEST PUSH2 0x786 JUMP JUMPDEST STOP JUMPDEST CALLVALUE DUP1 ISZERO PUSH2 0x2C4 JUMPI PUSH1 0x0 DUP1 REVERT JUMPDEST POP PUSH2 0x2DF PUSH1 0x4 DUP1 CALLDATASIZE SUB DUP2 ADD SWAP1 PUSH2 0x2DA SWAP2 SWAP1 PUSH2 0x1A76 JUMP JUMPDEST PUSH2 0x8F0 JUMP JUMPDEST STOP JUMPDEST CALLVALUE DUP1 ISZERO PUSH2 0x2ED JUMPI PUSH1 0x0 DUP1 REVERT JUMPDEST POP PUSH2 0x2F6 PUSH2 0x957 JUMP JUMPDEST PUSH1 0x40 MLOAD PUSH2 0x303 SWAP2 SWAP1 PUSH2 0x1ADC JUMP JUMPDEST PUSH1 0x40 MLOAD DUP1 SWAP2 SUB SWAP1 RETURN JUMPDEST CALLVALUE DUP1 ISZERO PUSH2 0x318 JUMPI PUSH1 0x0 DUP1 REVERT JUMPDEST POP PUSH2 0x333 PUSH1 0x4 DUP1 CALLDATASIZE SUB DUP2 ADD SWAP1 PUSH2 0x32E SWAP2 SWAP1 PUSH2 0x1A76 JUMP JUMPDEST PUSH2 0x95D JUMP JUMPDEST PUSH1 0x40 MLOAD PUSH2 0x341 SWAP3 SWAP2 SWAP1 PUSH2 0x1BA2 JUMP JUMPDEST PUSH1 0x40 MLOAD DUP1 SWAP2 SUB SWAP1 RETURN JUMPDEST CALLVALUE DUP1 ISZERO PUSH2 0x356 JUMPI PUSH1 0x0 DUP1 REVERT JUMPDEST POP PUSH2 0x35F PUSH2 0x9D1 JUMP JUMPDEST STOP JUMPDEST CALLVALUE DUP1 ISZERO PUSH2 0x36D JUMPI PUSH1 0x0 DUP1 REVERT JUMPDEST POP PUSH2 0x376 PUSH2 0xB66 JUMP JUMPDEST PUSH1 0x40 MLOAD PUSH2 0x383 SWAP2 SWAP1 PUSH2 0x19AE JUMP JUMPDEST PUSH1 0x40 MLOAD DUP1 SWAP2 SUB SWAP1 RETURN JUMPDEST CALLVALUE DUP1 ISZERO PUSH2 0x398 JUMPI PUSH1 0x0 DUP1 REVERT JUMPDEST POP PUSH2 0x3A1 PUSH2 0xB7C JUMP JUMPDEST PUSH1 0x40 MLOAD PUSH2 0x3AE SWAP2 SWAP1 PUSH2 0x19D8 JUMP JUMPDEST PUSH1 0x40 MLOAD DUP1 SWAP2 SUB SWAP1 RETURN JUMPDEST CALLVALUE DUP1 ISZERO PUSH2 0x3C3 JUMPI PUSH1 0x0 DUP1 REVERT JUMPDEST POP PUSH2 0x3CC PUSH2 0xB82 JUMP JUMPDEST PUSH1 0x40 MLOAD PUSH2 0x3D9 SWAP2 SWAP1 PUSH2 0x1CC2 JUMP JUMPDEST PUSH1 0x40 MLOAD DUP1 SWAP2 SUB SWAP1 RETURN JUMPDEST CALLVALUE DUP1 ISZERO PUSH2 0x3EE JUMPI PUSH1 0x0 DUP1 REVERT JUMPDEST POP PUSH2 0x3F7 PUSH2 0xC10 JUMP JUMPDEST PUSH1 0x40 MLOAD PUSH2 0x404 SWAP2 SWAP1 PUSH2 0x1D05 JUMP JUMPDEST PUSH1 0x40 MLOAD DUP1 SWAP2 SUB SWAP1 RETURN JUMPDEST CALLVALUE DUP1 ISZERO PUSH2 0x419 JUMPI PUSH1 0x0 DUP1 REVERT JUMPDEST POP PUSH2 0x434 PUSH1 0x4 DUP1 CALLDATASIZE SUB DUP2 ADD SWAP1 PUSH2 0x42F SWAP2 SWAP1 PUSH2 0x1D4C JUMP JUMPDEST PUSH2 0xC39 JUMP JUMPDEST STOP JUMPDEST CALLVALUE DUP1 ISZERO PUSH2 0x442 JUMPI PUSH1 0x0 DUP1 REVERT JUMPDEST POP PUSH2 0x45D PUSH1 0x4 DUP1 CALLDATASIZE SUB DUP2 ADD SWAP1 PUSH2 0x458 SWAP2 SWAP1 PUSH2 0x19F3 JUMP JUMPDEST PUSH2 0xE1A JUMP JUMPDEST STOP JUMPDEST CALLVALUE DUP1 ISZERO PUSH2 0x46B JUMPI PUSH1 0x0 DUP1 REVERT JUMPDEST POP PUSH2 0x474 PUSH2 0xEB4 JUMP JUMPDEST PUSH1 0x40 MLOAD PUSH2 0x481 SWAP2 SWAP1 PUSH2 0x19D8 JUMP JUMPDEST PUSH1 0x40 MLOAD DUP1 SWAP2 SUB SWAP1 RETURN JUMPDEST CALLVALUE DUP1 ISZERO PUSH2 0x496 JUMPI PUSH1 0x0 DUP1 REVERT JUMPDEST POP PUSH2 0x49F PUSH2 0xEBA JUMP JUMPDEST PUSH1 0x40 MLOAD PUSH2 0x4AC SWAP2 SWAP1 PUSH2 0x1DD8 JUMP JUMPDEST PUSH1 0x40 MLOAD DUP1 SWAP2 SUB SWAP1 RETURN JUMPDEST CALLVALUE DUP1 ISZERO PUSH2 0x4C1 JUMPI PUSH1 0x0 DUP1 REVERT JUMPDEST POP PUSH2 0x4CA PUSH2 0xEE0 JUMP JUMPDEST PUSH1 0x40 MLOAD PUSH2 0x4D7 SWAP2 SWAP1 PUSH2 0x1E10 JUMP JUMPDEST PUSH1 0x40 MLOAD DUP1 SWAP2 SUB SWAP1 RETURN JUMPDEST CALLVALUE DUP1 ISZERO PUSH2 0x4EC JUMPI PUSH1 0x0 DUP1 REVERT JUMPDEST POP PUSH2 0x507 PUSH1 0x4 DUP1 CALLDATASIZE SUB DUP2 ADD SWAP1 PUSH2 0x502 SWAP2 SWAP1 PUSH2 0x19F3 JUMP JUMPDEST PUSH2 0xEF4 JUMP JUMPDEST STOP JUMPDEST CALLVALUE DUP1 ISZERO PUSH2 0x515 JUMPI PUSH1 0x0 DUP1 REVERT JUMPDEST POP PUSH2 0x530 PUSH1 0x4 DUP1 CALLDATASIZE SUB DUP2 ADD SWAP1 PUSH2 0x52B SWAP2 SWAP1 PUSH2 0x19F3 JUMP JUMPDEST PUSH2 0xF8E JUMP JUMPDEST PUSH1 0x40 MLOAD PUSH2 0x53D SWAP2 SWAP1 PUSH2 0x1E3A JUMP JUMPDEST PUSH1 0x40 MLOAD DUP1 SWAP2 SUB SWAP1 RETURN JUMPDEST CALLVALUE DUP1 ISZERO PUSH2 0x552 JUMPI PUSH1 0x0 DUP1 REVERT JUMPDEST POP PUSH2 0x55B PUSH2 0xFC1 JUMP JUMPDEST PUSH1 0x40 MLOAD PUSH2 0x568 SWAP2 SWAP1 PUSH2 0x1D05 JUMP JUMPDEST PUSH1 0x40 MLOAD DUP1 SWAP2 SUB SWAP1 RETURN JUMPDEST CALLVALUE DUP1 ISZERO PUSH2 0x57D JUMPI PUSH1 0x0 DUP1 REVERT JUMPDEST POP PUSH2 0x586 PUSH2 0xFE7 JUMP JUMPDEST PUSH1 0x40 MLOAD PUSH2 0x593 SWAP2 SWAP1 PUSH2 0x19D8 JUMP JUMPDEST PUSH1 0x40 MLOAD DUP1 SWAP2 SUB SWAP1 RETURN JUMPDEST CALLVALUE DUP1 ISZERO PUSH2 0x5A8 JUMPI PUSH1 0x0 DUP1 REVERT JUMPDEST POP PUSH2 0x5C3 PUSH1 0x4 DUP1 CALLDATASIZE SUB DUP2 ADD SWAP1 PUSH2 0x5BE SWAP2 SWAP1 PUSH2 0x1D4C JUMP JUMPDEST PUSH2 0xFED JUMP JUMPDEST STOP JUMPDEST CALLVALUE DUP1 ISZERO PUSH2 0x5D1 JUMPI PUSH1 0x0 DUP1 REVERT JUMPDEST POP PUSH2 0x5DA PUSH2 0x1001 JUMP JUMPDEST STOP JUMPDEST CALLVALUE DUP1 ISZERO PUSH2 0x5E8 JUMPI PUSH1 0x0 DUP1 REVERT JUMPDEST POP PUSH2 0x5F1 PUSH2 0x10E3 JUMP JUMPDEST PUSH1 0x40 MLOAD PUSH2 0x5FE SWAP2 SWAP1 PUSH2 0x19D8 JUMP JUMPDEST PUSH1 0x40 MLOAD DUP1 SWAP2 SUB SWAP1 RETURN JUMPDEST CALLVALUE DUP1 ISZERO PUSH2 0x613 JUMPI PUSH1 0x0 DUP1 REVERT JUMPDEST POP PUSH2 0x62E PUSH1 0x4 DUP1 CALLDATASIZE SUB DUP2 ADD SWAP1 PUSH2 0x629 SWAP2 SWAP1 PUSH2 0x19F3 JUMP JUMPDEST PUSH2 0x10EE JUMP JUMPDEST PUSH1 0x40 MLOAD PUSH2 0x63B SWAP2 SWAP1 PUSH2 0x1E3A JUMP JUMPDEST PUSH1 0x40 MLOAD DUP1 SWAP2 SUB SWAP1 RETURN JUMPDEST CALLVALUE DUP1 ISZERO PUSH2 0x650 JUMPI PUSH1 0x0 DUP1 REVERT JUMPDEST POP PUSH2 0x66B PUSH1 0x4 DUP1 CALLDATASIZE SUB DUP2 ADD SWAP1 PUSH2 0x666 SWAP2 SWAP1 PUSH2 0x19F3 JUMP JUMPDEST PUSH2 0x112D JUMP JUMPDEST STOP JUMPDEST CALLVALUE DUP1 ISZERO PUSH2 0x679 JUMPI PUSH1 0x0 DUP1 REVERT JUMPDEST POP PUSH2 0x682 PUSH2 0x11C7 JUMP JUMPDEST PUSH1 0x40 MLOAD PUSH2 0x68F SWAP2 SWAP1 PUSH2 0x19D8 JUMP JUMPDEST PUSH1 0x40 MLOAD DUP1 SWAP2 SUB SWAP1 RETURN JUMPDEST PUSH1 0x2 PUSH1 0x0 SWAP1 SLOAD SWAP1 PUSH2 0x100 EXP SWAP1 DIV PUSH20 0xFFFFFFFFFFFFFFFFFFFFFFFFFFFFFFFFFFFFFFFF AND PUSH20 0xFFFFFFFFFFFFFFFFFFFFFFFFFFFFFFFFFFFFFFFF AND CALLER PUSH20 0xFFFFFFFFFFFFFFFFFFFFFFFFFFFFFFFFFFFFFFFF AND EQ PUSH2 0x74E JUMPI CALLER PUSH1 0x2 PUSH1 0x0 SWAP1 SLOAD SWAP1 PUSH2 0x100 EXP SWAP1 DIV PUSH20 0xFFFFFFFFFFFFFFFFFFFFFFFFFFFFFFFFFFFFFFFF AND PUSH1 0x40 MLOAD PUSH32 0x1CF993F400000000000000000000000000000000000000000000000000000000 DUP2 MSTORE PUSH1 0x4 ADD PUSH2 0x745 SWAP3 SWAP2 SWAP1 PUSH2 0x1E55 JUMP JUMPDEST PUSH1 0x40 MLOAD DUP1 SWAP2 SUB SWAP1 REVERT JUMPDEST PUSH2 0x759 DUP4 DUP4 DUP4 PUSH2 0x11CD JUMP JUMPDEST POP POP POP JUMP JUMPDEST PUSH1 0x9 PUSH1 0x0 SWAP1 SLOAD SWAP1 PUSH2 0x100 EXP SWAP1 DIV PUSH4 0xFFFFFFFF AND DUP2 JUMP JUMPDEST PUSH1 0xD SLOAD DUP2 JUMP JUMPDEST PUSH1 0xE SLOAD DUP2 JUMP JUMPDEST PUSH1 0xC SLOAD DUP2 JUMP JUMPDEST PUSH1 0x0 DUP2 GT PUSH2 0x7C9 JUMPI PUSH1 0x40 MLOAD PUSH32 0x8C379A000000000000000000000000000000000000000000000000000000000 DUP2 MSTORE PUSH1 0x4 ADD PUSH2 0x7C0 SWAP1 PUSH2 0x1EDB JUMP JUMPDEST PUSH1 0x40 MLOAD DUP1 SWAP2 SUB SWAP1 REVERT JUMPDEST DUP1 PUSH7 0x2386F26FC10000 PUSH2 0x7DC SWAP2 SWAP1 PUSH2 0x1F2A JUMP JUMPDEST CALLVALUE EQ PUSH2 0x81D JUMPI PUSH1 0x40 MLOAD PUSH32 0x8C379A000000000000000000000000000000000000000000000000000000000 DUP2 MSTORE PUSH1 0x4 ADD PUSH2 0x814 SWAP1 PUSH2 0x1FB8 JUMP JUMPDEST PUSH1 0x40 MLOAD DUP1 SWAP2 SUB SWAP1 REVERT JUMPDEST PUSH1 0x0 JUMPDEST DUP2 DUP2 LT ISZERO PUSH2 0x89E JUMPI PUSH1 0x4 CALLER SWAP1 DUP1 PUSH1 0x1 DUP2 SLOAD ADD DUP1 DUP3 SSTORE DUP1 SWAP2 POP POP PUSH1 0x1 SWAP1 SUB SWAP1 PUSH1 0x0 MSTORE PUSH1 0x20 PUSH1 0x0 KECCAK256 ADD PUSH1 0x0 SWAP1 SWAP2 SWAP1 SWAP2 SWAP1 SWAP2 PUSH2 0x100 EXP DUP2 SLOAD DUP2 PUSH20 0xFFFFFFFFFFFFFFFFFFFFFFFFFFFFFFFFFFFFFFFF MUL NOT AND SWAP1 DUP4 PUSH20 0xFFFFFFFFFFFFFFFFFFFFFFFFFFFFFFFFFFFFFFFF AND MUL OR SWAP1 SSTORE POP DUP1 DUP1 PUSH2 0x896 SWAP1 PUSH2 0x1FD8 JUMP JUMPDEST SWAP2 POP POP PUSH2 0x820 JUMP JUMPDEST POP CALLER PUSH20 0xFFFFFFFFFFFFFFFFFFFFFFFFFFFFFFFFFFFFFFFF AND PUSH32 0x668F5B446EB814FE35B3206F43F14BD8567BA04DDAF7A3EE56516929AB22CCB DUP3 PUSH1 0x40 MLOAD PUSH2 0x8E5 SWAP2 SWAP1 PUSH2 0x19D8 JUMP JUMPDEST PUSH1 0x40 MLOAD DUP1 SWAP2 SUB SWAP1 LOG2 POP JUMP JUMPDEST PUSH1 0x0 PUSH1 0xB SLOAD PUSH1 0xC SLOAD TIMESTAMP PUSH2 0x903 SWAP2 SWAP1 PUSH2 0x2020 JUMP JUMPDEST LT ISZERO SWAP1 POP PUSH1 0x0 PUSH1 0xD SLOAD PUSH1 0x4 DUP1 SLOAD SWAP1 POP LT ISZERO SWAP1 POP PUSH1 0x0 PUSH1 0xE SLOAD SELFBALANCE LT ISZERO SWAP1 POP DUP3 DUP1 PUSH2 0x929 JUMPI POP DUP2 JUMPDEST DUP1 PUSH2 0x931 JUMPI POP DUP1 JUMPDEST DUP1 ISZERO PUSH2 0x942 JUMPI POP PUSH1 0x0 PUSH1 0x4 DUP1 SLOAD SWAP1 POP GT JUMPDEST ISZERO PUSH2 0x950 JUMPI PUSH2 0x94F PUSH2 0x148C JUMP JUMPDEST JUMPDEST POP POP POP POP POP JUMP JUMPDEST PUSH1 0x8 SLOAD DUP2 JUMP JUMPDEST PUSH1 0x0 PUSH1 0x60 PUSH1 0x0 PUSH1 0xB SLOAD PUSH1 0xC SLOAD TIMESTAMP PUSH2 0x974 SWAP2 SWAP1 PUSH2 0x2020 JUMP JUMPDEST LT ISZERO SWAP1 POP PUSH1 0x0 PUSH1 0xD SLOAD PUSH1 0x4 DUP1 SLOAD SWAP1 POP LT ISZERO SWAP1 POP PUSH1 0x0 PUSH1 0xE SLOAD SELFBALANCE LT ISZERO SWAP1 POP DUP3 DUP1 PUSH2 0x99A JUMPI POP DUP2 JUMPDEST DUP1 PUSH2 0x9A2 JUMPI POP DUP1 JUMPDEST DUP1 ISZERO PUSH2 0x9B3 JUMPI POP PUSH1 0x0 PUSH1 0x4 DUP1 SLOAD SWAP1 POP GT JUMPDEST SWAP5 POP PUSH1 0x40 MLOAD DUP1 PUSH1 0x20 ADD PUSH1 0x40 MSTORE DUP1 PUSH1 0x0 DUP2 MSTORE POP SWAP4 POP POP POP POP SWAP3 POP SWAP3 SWAP1 POP JUMP JUMPDEST PUSH1 0x1 PUSH1 0x0 SWAP1 SLOAD SWAP1 PUSH2 0x100 EXP SWAP1 DIV PUSH20 0xFFFFFFFFFFFFFFFFFFFFFFFFFFFFFFFFFFFFFFFF AND PUSH20 0xFFFFFFFFFFFFFFFFFFFFFFFFFFFFFFFFFFFFFFFF AND CALLER PUSH20 0xFFFFFFFFFFFFFFFFFFFFFFFFFFFFFFFFFFFFFFFF AND EQ PUSH2 0xA61 JUMPI PUSH1 0x40 MLOAD PUSH32 0x8C379A000000000000000000000000000000000000000000000000000000000 DUP2 MSTORE PUSH1 0x4 ADD PUSH2 0xA58 SWAP1 PUSH2 0x20A0 JUMP JUMPDEST PUSH1 0x40 MLOAD DUP1 SWAP2 SUB SWAP1 REVERT JUMPDEST PUSH1 0x0 DUP1 PUSH1 0x0 SWAP1 SLOAD SWAP1 PUSH2 0x100 EXP SWAP1 DIV PUSH20 0xFFFFFFFFFFFFFFFFFFFFFFFFFFFFFFFFFFFFFFFF AND SWAP1 POP CALLER PUSH1 0x0 DUP1 PUSH2 0x100 EXP DUP2 SLOAD DUP2 PUSH20 0xFFFFFFFFFFFFFFFFFFFFFFFFFFFFFFFFFFFFFFFF MUL NOT AND SWAP1 DUP4 PUSH20 0xFFFFFFFFFFFFFFFFFFFFFFFFFFFFFFFFFFFFFFFF AND MUL OR SWAP1 SSTORE POP PUSH1 0x0 PUSH1 0x1 PUSH1 0x0 PUSH2 0x100 EXP DUP2 SLOAD DUP2 PUSH20 0xFFFFFFFFFFFFFFFFFFFFFFFFFFFFFFFFFFFFFFFF MUL NOT AND SWAP1 DUP4 PUSH20 0xFFFFFFFFFFFFFFFFFFFFFFFFFFFFFFFFFFFFFFFF AND MUL OR SWAP1 SSTORE POP CALLER PUSH20 0xFFFFFFFFFFFFFFFFFFFFFFFFFFFFFFFFFFFFFFFF AND DUP2 PUSH20 0xFFFFFFFFFFFFFFFFFFFFFFFFFFFFFFFFFFFFFFFF AND PUSH32 0x8BE0079C531659141344CD1FD0A4F28419497F9722A3DAAFE3B4186F6B6457E0 PUSH1 0x40 MLOAD PUSH1 0x40 MLOAD DUP1 SWAP2 SUB SWAP1 LOG3 POP JUMP JUMPDEST PUSH1 0x9 PUSH1 0x6 SWAP1 SLOAD SWAP1 PUSH2 0x100 EXP SWAP1 DIV PUSH4 0xFFFFFFFF AND DUP2 JUMP JUMPDEST PUSH1 0x7 SLOAD DUP2 JUMP JUMPDEST PUSH1 0x60 PUSH1 0x4 DUP1 SLOAD DUP1 PUSH1 0x20 MUL PUSH1 0x20 ADD PUSH1 0x40 MLOAD SWAP1 DUP2 ADD PUSH1 0x40 MSTORE DUP1 SWAP3 SWAP2 SWAP1 DUP2 DUP2 MSTORE PUSH1 0x20 ADD DUP3 DUP1 SLOAD DUP1 ISZERO PUSH2 0xC06 JUMPI PUSH1 0x20 MUL DUP3 ADD SWAP2 SWAP1 PUSH1 0x0 MSTORE PUSH1 0x20 PUSH1 0x0 KECCAK256 SWAP1 JUMPDEST DUP2 PUSH1 0x0 SWAP1 SLOAD SWAP1 PUSH2 0x100 EXP SWAP1 DIV PUSH20 0xFFFFFFFFFFFFFFFFFFFFFFFFFFFFFFFFFFFFFFFF AND PUSH20 0xFFFFFFFFFFFFFFFFFFFFFFFFFFFFFFFFFFFFFFFF AND DUP2 MSTORE PUSH1 0x20 ADD SWAP1 PUSH1 0x1 ADD SWAP1 DUP1 DUP4 GT PUSH2 0xBBC JUMPI JUMPDEST POP POP POP POP POP SWAP1 POP SWAP1 JUMP JUMPDEST PUSH1 0x0 DUP1 PUSH1 0x0 SWAP1 SLOAD SWAP1 PUSH2 0x100 EXP SWAP1 DIV PUSH20 0xFFFFFFFFFFFFFFFFFFFFFFFFFFFFFFFFFFFFFFFF AND SWAP1 POP SWAP1 JUMP JUMPDEST PUSH2 0xC41 PUSH2 0xC10 JUMP JUMPDEST PUSH20 0xFFFFFFFFFFFFFFFFFFFFFFFFFFFFFFFFFFFFFFFF AND CALLER PUSH20 0xFFFFFFFFFFFFFFFFFFFFFFFFFFFFFFFFFFFFFFFF AND EQ ISZERO DUP1 ISZERO PUSH2 0xCCA JUMPI POP PUSH1 0x2 PUSH1 0x0 SWAP1 SLOAD SWAP1 PUSH2 0x100 EXP SWAP1 DIV PUSH20 0xFFFFFFFFFFFFFFFFFFFFFFFFFFFFFFFFFFFFFFFF AND PUSH20 0xFFFFFFFFFFFFFFFFFFFFFFFFFFFFFFFFFFFFFFFF AND CALLER PUSH20 0xFFFFFFFFFFFFFFFFFFFFFFFFFFFFFFFFFFFFFFFF AND EQ ISZERO JUMPDEST ISZERO PUSH2 0xD39 JUMPI CALLER PUSH2 0xCD8 PUSH2 0xC10 JUMP JUMPDEST PUSH1 0x2 PUSH1 0x0 SWAP1 SLOAD SWAP1 PUSH2 0x100 EXP SWAP1 DIV PUSH20 0xFFFFFFFFFFFFFFFFFFFFFFFFFFFFFFFFFFFFFFFF AND PUSH1 0x40 MLOAD PUSH32 0x61DB9C100000000000000000000000000000000000000000000000000000000 DUP2 MSTORE PUSH1 0x4 ADD PUSH2 0xD30 SWAP4 SWAP3 SWAP2 SWAP1 PUSH2 0x20C0 JUMP JUMPDEST PUSH1 0x40 MLOAD DUP1 SWAP2 SUB SWAP1 REVERT JUMPDEST PUSH1 0x0 PUSH20 0xFFFFFFFFFFFFFFFFFFFFFFFFFFFFFFFFFFFFFFFF AND DUP2 PUSH20 0xFFFFFFFFFFFFFFFFFFFFFFFFFFFFFFFFFFFFFFFF AND SUB PUSH2 0xD9F JUMPI PUSH1 0x40 MLOAD PUSH32 0xD92E233D00000000000000000000000000000000000000000000000000000000 DUP2 MSTORE PUSH1 0x4 ADD PUSH1 0x40 MLOAD DUP1 SWAP2 SUB SWAP1 REVERT JUMPDEST DUP1 PUSH1 0x2 PUSH1 0x0 PUSH2 0x100 EXP DUP2 SLOAD DUP2 PUSH20 0xFFFFFFFFFFFFFFFFFFFFFFFFFFFFFFFFFFFFFFFF MUL NOT AND SWAP1 DUP4 PUSH20 0xFFFFFFFFFFFFFFFFFFFFFFFFFFFFFFFFFFFFFFFF AND MUL OR SWAP1 SSTORE POP PUSH32 0xD1A6A14209A385A964D036E404CB5CFB71F4000CDB03C9366292430787261BE6 DUP2 PUSH1 0x40 MLOAD PUSH2 0xE0F SWAP2 SWAP1 PUSH2 0x1D05 JUMP JUMPDEST PUSH1 0x40 MLOAD DUP1 SWAP2 SUB SWAP1 LOG1 POP JUMP JUMPDEST PUSH1 0x3 PUSH1 0x0 SWAP1 SLOAD SWAP1 PUSH2 0x100 EXP SWAP1 DIV PUSH20 0xFFFFFFFFFFFFFFFFFFFFFFFFFFFFFFFFFFFFFFFF AND PUSH20 0xFFFFFFFFFFFFFFFFFFFFFFFFFFFFFFFFFFFFFFFF AND CALLER PUSH20 0xFFFFFFFFFFFFFFFFFFFFFFFFFFFFFFFFFFFFFFFF AND EQ PUSH2 0xEAA JUMPI PUSH1 0x40 MLOAD PUSH32 0x8C379A000000000000000000000000000000000000000000000000000000000 DUP2 MSTORE PUSH1 0x4 ADD PUSH2 0xEA1 SWAP1 PUSH2 0x2169 JUMP JUMPDEST PUSH1 0x40 MLOAD DUP1 SWAP2 SUB SWAP1 REVERT JUMPDEST DUP1 PUSH1 0xD DUP2 SWAP1 SSTORE POP POP JUMP JUMPDEST PUSH1 0xB SLOAD DUP2 JUMP JUMPDEST PUSH1 0x2 PUSH1 0x0 SWAP1 SLOAD SWAP1 PUSH2 0x100 EXP SWAP1 DIV PUSH20 0xFFFFFFFFFFFFFFFFFFFFFFFFFFFFFFFFFFFFFFFF AND DUP2 JUMP JUMPDEST PUSH1 0x9 PUSH1 0x4 SWAP1 SLOAD SWAP1 PUSH2 0x100 EXP SWAP1 DIV PUSH2 0xFFFF AND DUP2 JUMP JUMPDEST PUSH1 0x3 PUSH1 0x0 SWAP1 SLOAD SWAP1 PUSH2 0x100 EXP SWAP1 DIV PUSH20 0xFFFFFFFFFFFFFFFFFFFFFFFFFFFFFFFFFFFFFFFF AND PUSH20 0xFFFFFFFFFFFFFFFFFFFFFFFFFFFFFFFFFFFFFFFF AND CALLER PUSH20 0xFFFFFFFFFFFFFFFFFFFFFFFFFFFFFFFFFFFFFFFF AND EQ PUSH2 0xF84 JUMPI PUSH1 0x40 MLOAD PUSH32 0x8C379A000000000000000000000000000000000000000000000000000000000 DUP2 MSTORE PUSH1 0x4 ADD PUSH2 0xF7B SWAP1 PUSH2 0x2169 JUMP JUMPDEST PUSH1 0x40 MLOAD DUP1 SWAP2 SUB SWAP1 REVERT JUMPDEST DUP1 PUSH1 0xB DUP2 SWAP1 SSTORE POP POP JUMP JUMPDEST PUSH1 0x6 PUSH1 0x20 MSTORE DUP1 PUSH1 0x0 MSTORE PUSH1 0x40 PUSH1 0x0 KECCAK256 PUSH1 0x0 SWAP2 POP SLOAD SWAP1 PUSH2 0x100 EXP SWAP1 DIV PUSH20 0xFFFFFFFFFFFFFFFFFFFFFFFFFFFFFFFFFFFFFFFF AND DUP2 JUMP JUMPDEST PUSH1 0x3 PUSH1 0x0 SWAP1 SLOAD SWAP1 PUSH2 0x100 EXP SWAP1 DIV PUSH20 0xFFFFFFFFFFFFFFFFFFFFFFFFFFFFFFFFFFFFFFFF AND DUP2 JUMP JUMPDEST PUSH1 0x5 SLOAD DUP2 JUMP JUMPDEST PUSH2 0xFF5 PUSH2 0x15F8 JUMP JUMPDEST PUSH2 0xFFE DUP2 PUSH2 0x1688 JUMP JUMPDEST POP JUMP JUMPDEST PUSH1 0x3 PUSH1 0x0 SWAP1 SLOAD SWAP1 PUSH2 0x100 EXP SWAP1 DIV PUSH20 0xFFFFFFFFFFFFFFFFFFFFFFFFFFFFFFFFFFFFFFFF AND PUSH20 0xFFFFFFFFFFFFFFFFFFFFFFFFFFFFFFFFFFFFFFFF AND CALLER PUSH20 0xFFFFFFFFFFFFFFFFFFFFFFFFFFFFFFFFFFFFFFFF AND EQ PUSH2 0x1091 JUMPI PUSH1 0x40 MLOAD PUSH32 0x8C379A000000000000000000000000000000000000000000000000000000000 DUP2 MSTORE PUSH1 0x4 ADD PUSH2 0x1088 SWAP1 PUSH2 0x2169 JUMP JUMPDEST PUSH1 0x40 MLOAD DUP1 SWAP2 SUB SWAP1 REVERT JUMPDEST PUSH1 0x0 PUSH1 0x4 DUP1 SLOAD SWAP1 POP GT PUSH2 0x10D9 JUMPI PUSH1 0x40 MLOAD PUSH32 0x8C379A000000000000000000000000000000000000000000000000000000000 DUP2 MSTORE PUSH1 0x4 ADD PUSH2 0x10D0 SWAP1 PUSH2 0x21D5 JUMP JUMPDEST PUSH1 0x40 MLOAD DUP1 SWAP2 SUB SWAP1 REVERT JUMPDEST PUSH2 0x10E1 PUSH2 0x148C JUMP JUMPDEST JUMP JUMPDEST PUSH7 0x2386F26FC10000 DUP2 JUMP JUMPDEST PUSH1 0x4 DUP2 DUP2 SLOAD DUP2 LT PUSH2 0x10FE JUMPI PUSH1 0x0 DUP1 REVERT JUMPDEST SWAP1 PUSH1 0x0 MSTORE PUSH1 0x20 PUSH1 0x0 KECCAK256 ADD PUSH1 0x0 SWAP2 POP SLOAD SWAP1 PUSH2 0x100 EXP SWAP1 DIV PUSH20 0xFFFFFFFFFFFFFFFFFFFFFFFFFFFFFFFFFFFFFFFF AND DUP2 JUMP JUMPDEST PUSH1 0x3 PUSH1 0x0 SWAP1 SLOAD SWAP1 PUSH2 0x100 EXP SWAP1 DIV PUSH20 0xFFFFFFFFFFFFFFFFFFFFFFFFFFFFFFFFFFFFFFFF AND PUSH20 0xFFFFFFFFFFFFFFFFFFFFFFFFFFFFFFFFFFFFFFFF AND CALLER PUSH20 0xFFFFFFFFFFFFFFFFFFFFFFFFFFFFFFFFFFFFFFFF AND EQ PUSH2 0x11BD JUMPI PUSH1 0x40 MLOAD PUSH32 0x8C379A000000000000000000000000000000000000000000000000000000000 DUP2 MSTORE PUSH1 0x4 ADD PUSH2 0x11B4 SWAP1 PUSH2 0x2169 JUMP JUMPDEST PUSH1 0x40 MLOAD DUP1 SWAP2 SUB SWAP1 REVERT JUMPDEST DUP1 PUSH1 0xE DUP2 SWAP1 SSTORE POP POP JUMP JUMPDEST PUSH1 0xA SLOAD DUP2 JUMP JUMPDEST PUSH1 0x0 PUSH1 0x4 DUP1 SLOAD SWAP1 POP GT PUSH2 0x1215 JUMPI PUSH1 0x40 MLOAD PUSH32 0x8C379A000000000000000000000000000000000000000000000000000000000 DUP2 MSTORE PUSH1 0x4 ADD PUSH2 0x120C SWAP1 PUSH2 0x21D5 JUMP JUMPDEST PUSH1 0x40 MLOAD DUP1 SWAP2 SUB SWAP1 REVERT JUMPDEST PUSH1 0x0 PUSH1 0x4 DUP1 SLOAD SWAP1 POP DUP4 DUP4 PUSH1 0x0 DUP2 DUP2 LT PUSH2 0x1231 JUMPI PUSH2 0x1230 PUSH2 0x21F5 JUMP JUMPDEST JUMPDEST SWAP1 POP PUSH1 0x20 MUL ADD CALLDATALOAD PUSH2 0x1242 SWAP2 SWAP1 PUSH2 0x2253 JUMP JUMPDEST SWAP1 POP PUSH1 0x0 PUSH1 0x4 DUP3 DUP2 SLOAD DUP2 LT PUSH2 0x125A JUMPI PUSH2 0x1259 PUSH2 0x21F5 JUMP JUMPDEST JUMPDEST SWAP1 PUSH1 0x0 MSTORE PUSH1 0x20 PUSH1 0x0 KECCAK256 ADD PUSH1 0x0 SWAP1 SLOAD SWAP1 PUSH2 0x100 EXP SWAP1 DIV PUSH20 0xFFFFFFFFFFFFFFFFFFFFFFFFFFFFFFFFFFFFFFFF AND SWAP1 POP PUSH1 0x0 SELFBALANCE SWAP1 POP DUP2 PUSH1 0x6 PUSH1 0x0 PUSH1 0x5 SLOAD DUP2 MSTORE PUSH1 0x20 ADD SWAP1 DUP2 MSTORE PUSH1 0x20 ADD PUSH1 0x0 KECCAK256 PUSH1 0x0 PUSH2 0x100 EXP DUP2 SLOAD DUP2 PUSH20 0xFFFFFFFFFFFFFFFFFFFFFFFFFFFFFFFFFFFFFFFF MUL NOT AND SWAP1 DUP4 PUSH20 0xFFFFFFFFFFFFFFFFFFFFFFFFFFFFFFFFFFFFFFFF AND MUL OR SWAP1 SSTORE POP PUSH1 0x0 PUSH1 0x5 SLOAD SWAP1 POP PUSH1 0x5 PUSH1 0x0 DUP2 SLOAD DUP1 SWAP3 SWAP2 SWAP1 PUSH2 0x12FA SWAP1 PUSH2 0x1FD8 JUMP JUMPDEST SWAP2 SWAP1 POP SSTORE POP PUSH1 0x4 PUSH1 0x0 PUSH2 0x130D SWAP2 SWAP1 PUSH2 0x184C JUMP JUMPDEST TIMESTAMP PUSH1 0xC DUP2 SWAP1 SSTORE POP PUSH1 0x0 DUP4 PUSH20 0xFFFFFFFFFFFFFFFFFFFFFFFFFFFFFFFFFFFFFFFF AND DUP4 PUSH1 0x40 MLOAD PUSH2 0x133A SWAP1 PUSH2 0x22B5 JUMP JUMPDEST PUSH1 0x0 PUSH1 0x40 MLOAD DUP1 DUP4 SUB DUP2 DUP6 DUP8 GAS CALL SWAP3 POP POP POP RETURNDATASIZE DUP1 PUSH1 0x0 DUP2 EQ PUSH2 0x1377 JUMPI PUSH1 0x40 MLOAD SWAP2 POP PUSH1 0x1F NOT PUSH1 0x3F RETURNDATASIZE ADD AND DUP3 ADD PUSH1 0x40 MSTORE RETURNDATASIZE DUP3 MSTORE RETURNDATASIZE PUSH1 0x0 PUSH1 0x20 DUP5 ADD RETURNDATACOPY PUSH2 0x137C JUMP JUMPDEST PUSH1 0x60 SWAP2 POP JUMPDEST POP POP SWAP1 POP DUP1 PUSH2 0x13C0 JUMPI PUSH1 0x40 MLOAD PUSH32 0x8C379A000000000000000000000000000000000000000000000000000000000 DUP2 MSTORE PUSH1 0x4 ADD PUSH2 0x13B7 SWAP1 PUSH2 0x2316 JUMP JUMPDEST PUSH1 0x40 MLOAD DUP1 SWAP2 SUB SWAP1 REVERT JUMPDEST DUP4 PUSH20 0xFFFFFFFFFFFFFFFFFFFFFFFFFFFFFFFFFFFFFFFF AND PUSH32 0x7E57D825A2478CC8123A008D7D1E20C0F6E8CBCA89A7BC100C9B05ECB3698DEB DUP5 DUP5 PUSH1 0x40 MLOAD PUSH2 0x1408 SWAP3 SWAP2 SWAP1 PUSH2 0x2336 JUMP JUMPDEST PUSH1 0x40 MLOAD DUP1 SWAP2 SUB SWAP1 LOG2 PUSH32 0xE194703C928E60D23BE81D1F5C372B39A5ADB98A7BA333DD9334414122F59E99 DUP3 PUSH1 0x40 MLOAD PUSH2 0x143F SWAP2 SWAP1 PUSH2 0x19D8 JUMP JUMPDEST PUSH1 0x40 MLOAD DUP1 SWAP2 SUB SWAP1 LOG1 PUSH32 0x1BBD97005F8F033B87044F2F354D3104F1730B26D30001E655B75782CE479771 PUSH1 0x5 SLOAD TIMESTAMP PUSH1 0x40 MLOAD PUSH2 0x147A SWAP3 SWAP2 SWAP1 PUSH2 0x2336 JUMP JUMPDEST PUSH1 0x40 MLOAD DUP1 SWAP2 SUB SWAP1 LOG1 POP POP POP POP POP POP POP POP JUMP JUMPDEST PUSH1 0x2 PUSH1 0x0 SWAP1 SLOAD SWAP1 PUSH2 0x100 EXP SWAP1 DIV PUSH20 0xFFFFFFFFFFFFFFFFFFFFFFFFFFFFFFFFFFFFFFFF AND PUSH20 0xFFFFFFFFFFFFFFFFFFFFFFFFFFFFFFFFFFFFFFFF AND PUSH4 0x9B1C385E PUSH1 0x40 MLOAD DUP1 PUSH1 0xC0 ADD PUSH1 0x40 MSTORE DUP1 PUSH1 0x8 SLOAD DUP2 MSTORE PUSH1 0x20 ADD PUSH1 0x7 SLOAD DUP2 MSTORE PUSH1 0x20 ADD PUSH1 0x9 PUSH1 0x4 SWAP1 SLOAD SWAP1 PUSH2 0x100 EXP SWAP1 DIV PUSH2 0xFFFF AND PUSH2 0xFFFF AND DUP2 MSTORE PUSH1 0x20 ADD PUSH1 0x9 PUSH1 0x0 SWAP1 SLOAD SWAP1 PUSH2 0x100 EXP SWAP1 DIV PUSH4 0xFFFFFFFF AND PUSH4 0xFFFFFFFF AND DUP2 MSTORE PUSH1 0x20 ADD PUSH1 0x9 PUSH1 0x6 SWAP1 SLOAD SWAP1 PUSH2 0x100 EXP SWAP1 DIV PUSH4 0xFFFFFFFF AND PUSH4 0xFFFFFFFF AND DUP2 MSTORE PUSH1 0x20 ADD PUSH2 0x1555 PUSH1 0x40 MLOAD DUP1 PUSH1 0x20 ADD PUSH1 0x40 MSTORE DUP1 PUSH1 0x0 ISZERO ISZERO DUP2 MSTORE POP PUSH2 0x17B4 JUMP JUMPDEST DUP2 MSTORE POP PUSH1 0x40 MLOAD DUP3 PUSH4 0xFFFFFFFF AND PUSH1 0xE0 SHL DUP2 MSTORE PUSH1 0x4 ADD PUSH2 0x1574 SWAP2 SWAP1 PUSH2 0x246E JUMP JUMPDEST PUSH1 0x20 PUSH1 0x40 MLOAD DUP1 DUP4 SUB DUP2 PUSH1 0x0 DUP8 GAS CALL ISZERO DUP1 ISZERO PUSH2 0x1593 JUMPI RETURNDATASIZE PUSH1 0x0 DUP1 RETURNDATACOPY RETURNDATASIZE PUSH1 0x0 REVERT JUMPDEST POP POP POP POP PUSH1 0x40 MLOAD RETURNDATASIZE PUSH1 0x1F NOT PUSH1 0x1F DUP3 ADD AND DUP3 ADD DUP1 PUSH1 0x40 MSTORE POP DUP2 ADD SWAP1 PUSH2 0x15B7 SWAP2 SWAP1 PUSH2 0x24A5 JUMP JUMPDEST PUSH1 0xA DUP2 SWAP1 SSTORE POP PUSH32 0x9AC10FB18C93D33AD7B0A941897AEF048D0F8D30756684E82B4552BA12764D45 PUSH1 0xA SLOAD PUSH1 0x40 MLOAD PUSH2 0x15EE SWAP2 SWAP1 PUSH2 0x19D8 JUMP JUMPDEST PUSH1 0x40 MLOAD DUP1 SWAP2 SUB SWAP1 LOG1 JUMP JUMPDEST PUSH1 0x0 DUP1 SLOAD SWAP1 PUSH2 0x100 EXP SWAP1 DIV PUSH20 0xFFFFFFFFFFFFFFFFFFFFFFFFFFFFFFFFFFFFFFFF AND PUSH20 0xFFFFFFFFFFFFFFFFFFFFFFFFFFFFFFFFFFFFFFFF AND CALLER PUSH20 0xFFFFFFFFFFFFFFFFFFFFFFFFFFFFFFFFFFFFFFFF AND EQ PUSH2 0x1686 JUMPI PUSH1 0x40 MLOAD PUSH32 0x8C379A000000000000000000000000000000000000000000000000000000000 DUP2 MSTORE PUSH1 0x4 ADD PUSH2 0x167D SWAP1 PUSH2 0x251E JUMP JUMPDEST PUSH1 0x40 MLOAD DUP1 SWAP2 SUB SWAP1 REVERT JUMPDEST JUMP JUMPDEST CALLER PUSH20 0xFFFFFFFFFFFFFFFFFFFFFFFFFFFFFFFFFFFFFFFF AND DUP2 PUSH20 0xFFFFFFFFFFFFFFFFFFFFFFFFFFFFFFFFFFFFFFFF AND SUB PUSH2 0x16F6 JUMPI PUSH1 0x40 MLOAD PUSH32 0x8C379A000000000000000000000000000000000000000000000000000000000 DUP2 MSTORE PUSH1 0x4 ADD PUSH2 0x16ED SWAP1 PUSH2 0x258A JUMP JUMPDEST PUSH1 0x40 MLOAD DUP1 SWAP2 SUB SWAP1 REVERT JUMPDEST DUP1 PUSH1 0x1 PUSH1 0x0 PUSH2 0x100 EXP DUP2 SLOAD DUP2 PUSH20 0xFFFFFFFFFFFFFFFFFFFFFFFFFFFFFFFFFFFFFFFF MUL NOT AND SWAP1 DUP4 PUSH20 0xFFFFFFFFFFFFFFFFFFFFFFFFFFFFFFFFFFFFFFFF AND MUL OR SWAP1 SSTORE POP DUP1 PUSH20 0xFFFFFFFFFFFFFFFFFFFFFFFFFFFFFFFFFFFFFFFF AND PUSH1 0x0 DUP1 SLOAD SWAP1 PUSH2 0x100 EXP SWAP1 DIV PUSH20 0xFFFFFFFFFFFFFFFFFFFFFFFFFFFFFFFFFFFFFFFF AND PUSH20 0xFFFFFFFFFFFFFFFFFFFFFFFFFFFFFFFFFFFFFFFF AND PUSH32 0xED8889F560326EB138920D842192F0EB3DD22B4F139C87A2C57538E05BAE1278 PUSH1 0x40 MLOAD PUSH1 0x40 MLOAD DUP1 SWAP2 SUB SWAP1 LOG3 POP JUMP JUMPDEST PUSH1 0x60 PUSH32 0x92FD13387C7FE7BEFBC38D303D6468778FB9731BC4583F17D92989C6FCFDEAAA DUP3 PUSH1 0x40 MLOAD PUSH1 0x24 ADD PUSH2 0x17E8 SWAP2 SWAP1 PUSH2 0x25D5 JUMP JUMPDEST PUSH1 0x40 MLOAD PUSH1 0x20 DUP2 DUP4 SUB SUB DUP2 MSTORE SWAP1 PUSH1 0x40 MSTORE SWAP1 PUSH28 0xFFFFFFFFFFFFFFFFFFFFFFFFFFFFFFFFFFFFFFFFFFFFFFFFFFFFFFFF NOT AND PUSH1 0x20 DUP3 ADD DUP1 MLOAD PUSH28 0xFFFFFFFFFFFFFFFFFFFFFFFFFFFFFFFFFFFFFFFFFFFFFFFFFFFFFFFF DUP4 DUP2 DUP4 AND OR DUP4 MSTORE POP POP POP POP SWAP1 POP SWAP2 SWAP1 POP JUMP JUMPDEST POP DUP1 SLOAD PUSH1 0x0 DUP3 SSTORE SWAP1 PUSH1 0x0 MSTORE PUSH1 0x20 PUSH1 0x0 KECCAK256 SWAP1 DUP2 ADD SWAP1 PUSH2 0x186A SWAP2 SWAP1 PUSH2 0x186D JUMP JUMPDEST POP JUMP JUMPDEST JUMPDEST DUP1 DUP3 GT ISZERO PUSH2 0x1886 JUMPI PUSH1 0x0 DUP2 PUSH1 0x0 SWAP1 SSTORE POP PUSH1 0x1 ADD PUSH2 0x186E JUMP JUMPDEST POP SWAP1 JUMP JUMPDEST PUSH1 0x0 DUP1 REVERT JUMPDEST PUSH1 0x0 DUP1 REVERT JUMPDEST PUSH1 0x0 DUP2 SWAP1 POP SWAP2 SWAP1 POP JUMP JUMPDEST PUSH2 0x18A7 DUP2 PUSH2 0x1894 JUMP JUMPDEST DUP2 EQ PUSH2 0x18B2 JUMPI PUSH1 0x0 DUP1 REVERT JUMPDEST POP JUMP JUMPDEST PUSH1 0x0 DUP2 CALLDATALOAD SWAP1 POP PUSH2 0x18C4 DUP2 PUSH2 0x189E JUMP JUMPDEST SWAP3 SWAP2 POP POP JUMP JUMPDEST PUSH1 0x0 DUP1 REVERT JUMPDEST PUSH1 0x0 DUP1 REVERT JUMPDEST PUSH1 0x0 DUP1 REVERT JUMPDEST PUSH1 0x0 DUP1 DUP4 PUSH1 0x1F DUP5 ADD SLT PUSH2 0x18EF JUMPI PUSH2 0x18EE PUSH2 0x18CA JUMP JUMPDEST JUMPDEST DUP3 CALLDATALOAD SWAP1 POP PUSH8 0xFFFFFFFFFFFFFFFF DUP2 GT ISZERO PUSH2 0x190C JUMPI PUSH2 0x190B PUSH2 0x18CF JUMP JUMPDEST JUMPDEST PUSH1 0x20 DUP4 ADD SWAP2 POP DUP4 PUSH1 0x20 DUP3 MUL DUP4 ADD GT ISZERO PUSH2 0x1928 JUMPI PUSH2 0x1927 PUSH2 0x18D4 JUMP JUMPDEST JUMPDEST SWAP3 POP SWAP3 SWAP1 POP JUMP JUMPDEST PUSH1 0x0 DUP1 PUSH1 0x0 PUSH1 0x40 DUP5 DUP7 SUB SLT ISZERO PUSH2 0x1948 JUMPI PUSH2 0x1947 PUSH2 0x188A JUMP JUMPDEST JUMPDEST PUSH1 0x0 PUSH2 0x1956 DUP7 DUP3 DUP8 ADD PUSH2 0x18B5 JUMP JUMPDEST SWAP4 POP POP PUSH1 0x20 DUP5 ADD CALLDATALOAD PUSH8 0xFFFFFFFFFFFFFFFF DUP2 GT ISZERO PUSH2 0x1977 JUMPI PUSH2 0x1976 PUSH2 0x188F JUMP JUMPDEST JUMPDEST PUSH2 0x1983 DUP7 DUP3 DUP8 ADD PUSH2 0x18D9 JUMP JUMPDEST SWAP3 POP SWAP3 POP POP SWAP3 POP SWAP3 POP SWAP3 JUMP JUMPDEST PUSH1 0x0 PUSH4 0xFFFFFFFF DUP3 AND SWAP1 POP SWAP2 SWAP1 POP JUMP JUMPDEST PUSH2 0x19A8 DUP2 PUSH2 0x198F JUMP JUMPDEST DUP3 MSTORE POP POP JUMP JUMPDEST PUSH1 0x0 PUSH1 0x20 DUP3 ADD SWAP1 POP PUSH2 0x19C3 PUSH1 0x0 DUP4 ADD DUP5 PUSH2 0x199F JUMP JUMPDEST SWAP3 SWAP2 POP POP JUMP JUMPDEST PUSH2 0x19D2 DUP2 PUSH2 0x1894 JUMP JUMPDEST DUP3 MSTORE POP POP JUMP JUMPDEST PUSH1 0x0 PUSH1 0x20 DUP3 ADD SWAP1 POP PUSH2 0x19ED PUSH1 0x0 DUP4 ADD DUP5 PUSH2 0x19C9 JUMP JUMPDEST SWAP3 SWAP2 POP POP JUMP JUMPDEST PUSH1 0x0 PUSH1 0x20 DUP3 DUP5 SUB SLT ISZERO PUSH2 0x1A09 JUMPI PUSH2 0x1A08 PUSH2 0x188A JUMP JUMPDEST JUMPDEST PUSH1 0x0 PUSH2 0x1A17 DUP5 DUP3 DUP6 ADD PUSH2 0x18B5 JUMP JUMPDEST SWAP2 POP POP SWAP3 SWAP2 POP POP JUMP JUMPDEST PUSH1 0x0 DUP1 DUP4 PUSH1 0x1F DUP5 ADD SLT PUSH2 0x1A36 JUMPI PUSH2 0x1A35 PUSH2 0x18CA JUMP JUMPDEST JUMPDEST DUP3 CALLDATALOAD SWAP1 POP PUSH8 0xFFFFFFFFFFFFFFFF DUP2 GT ISZERO PUSH2 0x1A53 JUMPI PUSH2 0x1A52 PUSH2 0x18CF JUMP JUMPDEST JUMPDEST PUSH1 0x20 DUP4 ADD SWAP2 POP DUP4 PUSH1 0x1 DUP3 MUL DUP4 ADD GT ISZERO PUSH2 0x1A6F JUMPI PUSH2 0x1A6E PUSH2 0x18D4 JUMP JUMPDEST JUMPDEST SWAP3 POP SWAP3 SWAP1 POP JUMP JUMPDEST PUSH1 0x0 DUP1 PUSH1 0x20 DUP4 DUP6 SUB SLT ISZERO PUSH2 0x1A8D JUMPI PUSH2 0x1A8C PUSH2 0x188A JUMP JUMPDEST JUMPDEST PUSH1 0x0 DUP4 ADD CALLDATALOAD PUSH8 0xFFFFFFFFFFFFFFFF DUP2 GT ISZERO PUSH2 0x1AAB JUMPI PUSH2 0x1AAA PUSH2 0x188F JUMP JUMPDEST JUMPDEST PUSH2 0x1AB7 DUP6 DUP3 DUP7 ADD PUSH2 0x1A20 JUMP JUMPDEST SWAP3 POP SWAP3 POP POP SWAP3 POP SWAP3 SWAP1 POP JUMP JUMPDEST PUSH1 0x0 DUP2 SWAP1 POP SWAP2 SWAP1 POP JUMP JUMPDEST PUSH2 0x1AD6 DUP2 PUSH2 0x1AC3 JUMP JUMPDEST DUP3 MSTORE POP POP JUMP JUMPDEST PUSH1 0x0 PUSH1 0x20 DUP3 ADD SWAP1 POP PUSH2 0x1AF1 PUSH1 0x0 DUP4 ADD DUP5 PUSH2 0x1ACD JUMP JUMPDEST SWAP3 SWAP2 POP POP JUMP JUMPDEST PUSH1 0x0 DUP2 ISZERO ISZERO SWAP1 POP SWAP2 SWAP1 POP JUMP JUMPDEST PUSH2 0x1B0C DUP2 PUSH2 0x1AF7 JUMP JUMPDEST DUP3 MSTORE POP POP JUMP JUMPDEST PUSH1 0x0 DUP2 MLOAD SWAP1 POP SWAP2 SWAP1 POP JUMP JUMPDEST PUSH1 0x0 DUP3 DUP3 MSTORE PUSH1 0x20 DUP3 ADD SWAP1 POP SWAP3 SWAP2 POP POP JUMP JUMPDEST PUSH1 0x0 JUMPDEST DUP4 DUP2 LT ISZERO PUSH2 0x1B4C JUMPI DUP1 DUP3 ADD MLOAD DUP2 DUP5 ADD MSTORE PUSH1 0x20 DUP2 ADD SWAP1 POP PUSH2 0x1B31 JUMP JUMPDEST PUSH1 0x0 DUP5 DUP5 ADD MSTORE POP POP POP POP JUMP JUMPDEST PUSH1 0x0 PUSH1 0x1F NOT PUSH1 0x1F DUP4 ADD AND SWAP1 POP SWAP2 SWAP1 POP JUMP JUMPDEST PUSH1 0x0 PUSH2 0x1B74 DUP3 PUSH2 0x1B12 JUMP JUMPDEST PUSH2 0x1B7E DUP2 DUP6 PUSH2 0x1B1D JUMP JUMPDEST SWAP4 POP PUSH2 0x1B8E DUP2 DUP6 PUSH1 0x20 DUP7 ADD PUSH2 0x1B2E JUMP JUMPDEST PUSH2 0x1B97 DUP2 PUSH2 0x1B58 JUMP JUMPDEST DUP5 ADD SWAP2 POP POP SWAP3 SWAP2 POP POP JUMP JUMPDEST PUSH1 0x0 PUSH1 0x40 DUP3 ADD SWAP1 POP PUSH2 0x1BB7 PUSH1 0x0 DUP4 ADD DUP6 PUSH2 0x1B03 JUMP JUMPDEST DUP2 DUP2 SUB PUSH1 0x20 DUP4 ADD MSTORE PUSH2 0x1BC9 DUP2 DUP5 PUSH2 0x1B69 JUMP JUMPDEST SWAP1 POP SWAP4 SWAP3 POP POP POP JUMP JUMPDEST PUSH1 0x0 DUP2 MLOAD SWAP1 POP SWAP2 SWAP1 POP JUMP JUMPDEST PUSH1 0x0 DUP3 DUP3 MSTORE PUSH1 0x20 DUP3 ADD SWAP1 POP SWAP3 SWAP2 POP POP JUMP JUMPDEST PUSH1 0x0 DUP2 SWAP1 POP PUSH1 0x20 DUP3 ADD SWAP1 POP SWAP2 SWAP1 POP JUMP JUMPDEST PUSH1 0x0 PUSH20 0xFFFFFFFFFFFFFFFFFFFFFFFFFFFFFFFFFFFFFFFF DUP3 AND SWAP1 POP SWAP2 SWAP1 POP JUMP JUMPDEST PUSH1 0x0 PUSH2 0x1C29 DUP3 PUSH2 0x1BFE JUMP JUMPDEST SWAP1 POP SWAP2 SWAP1 POP JUMP JUMPDEST PUSH2 0x1C39 DUP2 PUSH2 0x1C1E JUMP JUMPDEST DUP3 MSTORE POP POP JUMP JUMPDEST PUSH1 0x0 PUSH2 0x1C4B DUP4 DUP4 PUSH2 0x1C30 JUMP JUMPDEST PUSH1 0x20 DUP4 ADD SWAP1 POP SWAP3 SWAP2 POP POP JUMP JUMPDEST PUSH1 0x0 PUSH1 0x20 DUP3 ADD SWAP1 POP SWAP2 SWAP1 POP JUMP JUMPDEST PUSH1 0x0 PUSH2 0x1C6F DUP3 PUSH2 0x1BD2 JUMP JUMPDEST PUSH2 0x1C79 DUP2 DUP6 PUSH2 0x1BDD JUMP JUMPDEST SWAP4 POP PUSH2 0x1C84 DUP4 PUSH2 0x1BEE JUMP JUMPDEST DUP1 PUSH1 0x0 JUMPDEST DUP4 DUP2 LT ISZERO PUSH2 0x1CB5 JUMPI DUP2 MLOAD PUSH2 0x1C9C DUP9 DUP3 PUSH2 0x1C3F JUMP JUMPDEST SWAP8 POP PUSH2 0x1CA7 DUP4 PUSH2 0x1C57 JUMP JUMPDEST SWAP3 POP POP PUSH1 0x1 DUP2 ADD SWAP1 POP PUSH2 0x1C88 JUMP JUMPDEST POP DUP6 SWAP4 POP POP POP POP SWAP3 SWAP2 POP POP JUMP JUMPDEST PUSH1 0x0 PUSH1 0x20 DUP3 ADD SWAP1 POP DUP2 DUP2 SUB PUSH1 0x0 DUP4 ADD MSTORE PUSH2 0x1CDC DUP2 DUP5 PUSH2 0x1C64 JUMP JUMPDEST SWAP1 POP SWAP3 SWAP2 POP POP JUMP JUMPDEST PUSH1 0x0 PUSH2 0x1CEF DUP3 PUSH2 0x1BFE JUMP JUMPDEST SWAP1 POP SWAP2 SWAP1 POP JUMP JUMPDEST PUSH2 0x1CFF DUP2 PUSH2 0x1CE4 JUMP JUMPDEST DUP3 MSTORE POP POP JUMP JUMPDEST PUSH1 0x0 PUSH1 0x20 DUP3 ADD SWAP1 POP PUSH2 0x1D1A PUSH1 0x0 DUP4 ADD DUP5 PUSH2 0x1CF6 JUMP JUMPDEST SWAP3 SWAP2 POP POP JUMP JUMPDEST PUSH2 0x1D29 DUP2 PUSH2 0x1CE4 JUMP JUMPDEST DUP2 EQ PUSH2 0x1D34 JUMPI PUSH1 0x0 DUP1 REVERT JUMPDEST POP JUMP JUMPDEST PUSH1 0x0 DUP2 CALLDATALOAD SWAP1 POP PUSH2 0x1D46 DUP2 PUSH2 0x1D20 JUMP JUMPDEST SWAP3 SWAP2 POP POP JUMP JUMPDEST PUSH1 0x0 PUSH1 0x20 DUP3 DUP5 SUB SLT ISZERO PUSH2 0x1D62 JUMPI PUSH2 0x1D61 PUSH2 0x188A JUMP JUMPDEST JUMPDEST PUSH1 0x0 PUSH2 0x1D70 DUP5 DUP3 DUP6 ADD PUSH2 0x1D37 JUMP JUMPDEST SWAP2 POP POP SWAP3 SWAP2 POP POP JUMP JUMPDEST PUSH1 0x0 DUP2 SWAP1 POP SWAP2 SWAP1 POP JUMP JUMPDEST PUSH1 0x0 PUSH2 0x1D9E PUSH2 0x1D99 PUSH2 0x1D94 DUP5 PUSH2 0x1BFE JUMP JUMPDEST PUSH2 0x1D79 JUMP JUMPDEST PUSH2 0x1BFE JUMP JUMPDEST SWAP1 POP SWAP2 SWAP1 POP JUMP JUMPDEST PUSH1 0x0 PUSH2 0x1DB0 DUP3 PUSH2 0x1D83 JUMP JUMPDEST SWAP1 POP SWAP2 SWAP1 POP JUMP JUMPDEST PUSH1 0x0 PUSH2 0x1DC2 DUP3 PUSH2 0x1DA5 JUMP JUMPDEST SWAP1 POP SWAP2 SWAP1 POP JUMP JUMPDEST PUSH2 0x1DD2 DUP2 PUSH2 0x1DB7 JUMP JUMPDEST DUP3 MSTORE POP POP JUMP JUMPDEST PUSH1 0x0 PUSH1 0x20 DUP3 ADD SWAP1 POP PUSH2 0x1DED PUSH1 0x0 DUP4 ADD DUP5 PUSH2 0x1DC9 JUMP JUMPDEST SWAP3 SWAP2 POP POP JUMP JUMPDEST PUSH1 0x0 PUSH2 0xFFFF DUP3 AND SWAP1 POP SWAP2 SWAP1 POP JUMP JUMPDEST PUSH2 0x1E0A DUP2 PUSH2 0x1DF3 JUMP JUMPDEST DUP3 MSTORE POP POP JUMP JUMPDEST PUSH1 0x0 PUSH1 0x20 DUP3 ADD SWAP1 POP PUSH2 0x1E25 PUSH1 0x0 DUP4 ADD DUP5 PUSH2 0x1E01 JUMP JUMPDEST SWAP3 SWAP2 POP POP JUMP JUMPDEST PUSH2 0x1E34 DUP2 PUSH2 0x1C1E JUMP JUMPDEST DUP3 MSTORE POP POP JUMP JUMPDEST PUSH1 0x0 PUSH1 0x20 DUP3 ADD SWAP1 POP PUSH2 0x1E4F PUSH1 0x0 DUP4 ADD DUP5 PUSH2 0x1E2B JUMP JUMPDEST SWAP3 SWAP2 POP POP JUMP JUMPDEST PUSH1 0x0 PUSH1 0x40 DUP3 ADD SWAP1 POP PUSH2 0x1E6A PUSH1 0x0 DUP4 ADD DUP6 PUSH2 0x1CF6 JUMP JUMPDEST PUSH2 0x1E77 PUSH1 0x20 DUP4 ADD DUP5 PUSH2 0x1CF6 JUMP JUMPDEST SWAP4 SWAP3 POP POP POP JUMP JUMPDEST PUSH1 0x0 DUP3 DUP3 MSTORE PUSH1 0x20 DUP3 ADD SWAP1 POP SWAP3 SWAP2 POP POP JUMP JUMPDEST PUSH32 0x4D75737420627579206174206C65617374206F6E65207469636B657400000000 PUSH1 0x0 DUP3 ADD MSTORE POP JUMP JUMPDEST PUSH1 0x0 PUSH2 0x1EC5 PUSH1 0x1C DUP4 PUSH2 0x1E7E JUMP JUMPDEST SWAP2 POP PUSH2 0x1ED0 DUP3 PUSH2 0x1E8F JUMP JUMPDEST PUSH1 0x20 DUP3 ADD SWAP1 POP SWAP2 SWAP1 POP JUMP JUMPDEST PUSH1 0x0 PUSH1 0x20 DUP3 ADD SWAP1 POP DUP2 DUP2 SUB PUSH1 0x0 DUP4 ADD MSTORE PUSH2 0x1EF4 DUP2 PUSH2 0x1EB8 JUMP JUMPDEST SWAP1 POP SWAP2 SWAP1 POP JUMP JUMPDEST PUSH32 0x4E487B7100000000000000000000000000000000000000000000000000000000 PUSH1 0x0 MSTORE PUSH1 0x11 PUSH1 0x4 MSTORE PUSH1 0x24 PUSH1 0x0 REVERT JUMPDEST PUSH1 0x0 PUSH2 0x1F35 DUP3 PUSH2 0x1894 JUMP JUMPDEST SWAP2 POP PUSH2 0x1F40 DUP4 PUSH2 0x1894 JUMP JUMPDEST SWAP3 POP DUP3 DUP3 MUL PUSH2 0x1F4E DUP2 PUSH2 0x1894 JUMP JUMPDEST SWAP2 POP DUP3 DUP3 DIV DUP5 EQ DUP4 ISZERO OR PUSH2 0x1F65 JUMPI PUSH2 0x1F64 PUSH2 0x1EFB JUMP JUMPDEST JUMPDEST POP SWAP3 SWAP2 POP POP JUMP JUMPDEST PUSH32 0x496E636F72726563742045544820616D6F756E7420666F72207469636B657473 PUSH1 0x0 DUP3 ADD MSTORE POP JUMP JUMPDEST PUSH1 0x0 PUSH2 0x1FA2 PUSH1 0x20 DUP4 PUSH2 0x1E7E JUMP JUMPDEST SWAP2 POP PUSH2 0x1FAD DUP3 PUSH2 0x1F6C JUMP JUMPDEST PUSH1 0x20 DUP3 ADD SWAP1 POP SWAP2 SWAP1 POP JUMP JUMPDEST PUSH1 0x0 PUSH1 0x20 DUP3 ADD SWAP1 POP DUP2 DUP2 SUB PUSH1 0x0 DUP4 ADD MSTORE PUSH2 0x1FD1 DUP2 PUSH2 0x1F95 JUMP JUMPDEST SWAP1 POP SWAP2 SWAP1 POP JUMP JUMPDEST PUSH1 0x0 PUSH2 0x1FE3 DUP3 PUSH2 0x1894 JUMP JUMPDEST SWAP2 POP PUSH32 0xFFFFFFFFFFFFFFFFFFFFFFFFFFFFFFFFFFFFFFFFFFFFFFFFFFFFFFFFFFFFFFFF DUP3 SUB PUSH2 0x2015 JUMPI PUSH2 0x2014 PUSH2 0x1EFB JUMP JUMPDEST JUMPDEST PUSH1 0x1 DUP3 ADD SWAP1 POP SWAP2 SWAP1 POP JUMP JUMPDEST PUSH1 0x0 PUSH2 0x202B DUP3 PUSH2 0x1894 JUMP JUMPDEST SWAP2 POP PUSH2 0x2036 DUP4 PUSH2 0x1894 JUMP JUMPDEST SWAP3 POP DUP3 DUP3 SUB SWAP1 POP DUP2 DUP2 GT ISZERO PUSH2 0x204E JUMPI PUSH2 0x204D PUSH2 0x1EFB JUMP JUMPDEST JUMPDEST SWAP3 SWAP2 POP POP JUMP JUMPDEST PUSH32 0x4D7573742062652070726F706F736564206F776E657200000000000000000000 PUSH1 0x0 DUP3 ADD MSTORE POP JUMP JUMPDEST PUSH1 0x0 PUSH2 0x208A PUSH1 0x16 DUP4 PUSH2 0x1E7E JUMP JUMPDEST SWAP2 POP PUSH2 0x2095 DUP3 PUSH2 0x2054 JUMP JUMPDEST PUSH1 0x20 DUP3 ADD SWAP1 POP SWAP2 SWAP1 POP JUMP JUMPDEST PUSH1 0x0 PUSH1 0x20 DUP3 ADD SWAP1 POP DUP2 DUP2 SUB PUSH1 0x0 DUP4 ADD MSTORE PUSH2 0x20B9 DUP2 PUSH2 0x207D JUMP JUMPDEST SWAP1 POP SWAP2 SWAP1 POP JUMP JUMPDEST PUSH1 0x0 PUSH1 0x60 DUP3 ADD SWAP1 POP PUSH2 0x20D5 PUSH1 0x0 DUP4 ADD DUP7 PUSH2 0x1CF6 JUMP JUMPDEST PUSH2 0x20E2 PUSH1 0x20 DUP4 ADD DUP6 PUSH2 0x1CF6 JUMP JUMPDEST PUSH2 0x20EF PUSH1 0x40 DUP4 ADD DUP5 PUSH2 0x1CF6 JUMP JUMPDEST SWAP5 SWAP4 POP POP POP POP JUMP JUMPDEST PUSH32 0x4F6E6C79206F776E65722063616E2063616C6C20746869732066756E6374696F PUSH1 0x0 DUP3 ADD MSTORE PUSH32 0x6E00000000000000000000000000000000000000000000000000000000000000 PUSH1 0x20 DUP3 ADD MSTORE POP JUMP JUMPDEST PUSH1 0x0 PUSH2 0x2153 PUSH1 0x21 DUP4 PUSH2 0x1E7E JUMP JUMPDEST SWAP2 POP PUSH2 0x215E DUP3 PUSH2 0x20F7 JUMP JUMPDEST PUSH1 0x40 DUP3 ADD SWAP1 POP SWAP2 SWAP1 POP JUMP JUMPDEST PUSH1 0x0 PUSH1 0x20 DUP3 ADD SWAP1 POP DUP2 DUP2 SUB PUSH1 0x0 DUP4 ADD MSTORE PUSH2 0x2182 DUP2 PUSH2 0x2146 JUMP JUMPDEST SWAP1 POP SWAP2 SWAP1 POP JUMP JUMPDEST PUSH32 0x4E6F20706C617965727320656E74657265640000000000000000000000000000 PUSH1 0x0 DUP3 ADD MSTORE POP JUMP JUMPDEST PUSH1 0x0 PUSH2 0x21BF PUSH1 0x12 DUP4 PUSH2 0x1E7E JUMP JUMPDEST SWAP2 POP PUSH2 0x21CA DUP3 PUSH2 0x2189 JUMP JUMPDEST PUSH1 0x20 DUP3 ADD SWAP1 POP SWAP2 SWAP1 POP JUMP JUMPDEST PUSH1 0x0 PUSH1 0x20 DUP3 ADD SWAP1 POP DUP2 DUP2 SUB PUSH1 0x0 DUP4 ADD MSTORE PUSH2 0x21EE DUP2 PUSH2 0x21B2 JUMP JUMPDEST SWAP1 POP SWAP2 SWAP1 POP JUMP JUMPDEST PUSH32 0x4E487B7100000000000000000000000000000000000000000000000000000000 PUSH1 0x0 MSTORE PUSH1 0x32 PUSH1 0x4 MSTORE PUSH1 0x24 PUSH1 0x0 REVERT JUMPDEST PUSH32 0x4E487B7100000000000000000000000000000000000000000000000000000000 PUSH1 0x0 MSTORE PUSH1 0x12 PUSH1 0x4 MSTORE PUSH1 0x24 PUSH1 0x0 REVERT JUMPDEST PUSH1 0x0 PUSH2 0x225E DUP3 PUSH2 0x1894 JUMP JUMPDEST SWAP2 POP PUSH2 0x2269 DUP4 PUSH2 0x1894 JUMP JUMPDEST SWAP3 POP DUP3 PUSH2 0x2279 JUMPI PUSH2 0x2278 PUSH2 0x2224 JUMP JUMPDEST JUMPDEST DUP3 DUP3 MOD SWAP1 POP SWAP3 SWAP2 POP POP JUMP JUMPDEST PUSH1 0x0 DUP2 SWAP1 POP SWAP3 SWAP2 POP POP JUMP JUMPDEST POP JUMP JUMPDEST PUSH1 0x0 PUSH2 0x229F PUSH1 0x0 DUP4 PUSH2 0x2284 JUMP JUMPDEST SWAP2 POP PUSH2 0x22AA DUP3 PUSH2 0x228F JUMP JUMPDEST PUSH1 0x0 DUP3 ADD SWAP1 POP SWAP2 SWAP1 POP JUMP JUMPDEST PUSH1 0x0 PUSH2 0x22C0 DUP3 PUSH2 0x2292 JUMP JUMPDEST SWAP2 POP DUP2 SWAP1 POP SWAP2 SWAP1 POP JUMP JUMPDEST PUSH32 0x5472616E73666572206661696C65640000000000000000000000000000000000 PUSH1 0x0 DUP3 ADD MSTORE POP JUMP JUMPDEST PUSH1 0x0 PUSH2 0x2300 PUSH1 0xF DUP4 PUSH2 0x1E7E JUMP JUMPDEST SWAP2 POP PUSH2 0x230B DUP3 PUSH2 0x22CA JUMP JUMPDEST PUSH1 0x20 DUP3 ADD SWAP1 POP SWAP2 SWAP1 POP JUMP JUMPDEST PUSH1 0x0 PUSH1 0x20 DUP3 ADD SWAP1 POP DUP2 DUP2 SUB PUSH1 0x0 DUP4 ADD MSTORE PUSH2 0x232F DUP2 PUSH2 0x22F3 JUMP JUMPDEST SWAP1 POP SWAP2 SWAP1 POP JUMP JUMPDEST PUSH1 0x0 PUSH1 0x40 DUP3 ADD SWAP1 POP PUSH2 0x234B PUSH1 0x0 DUP4 ADD DUP6 PUSH2 0x19C9 JUMP JUMPDEST PUSH2 0x2358 PUSH1 0x20 DUP4 ADD DUP5 PUSH2 0x19C9 JUMP JUMPDEST SWAP4 SWAP3 POP POP POP JUMP JUMPDEST PUSH2 0x2368 DUP2 PUSH2 0x1AC3 JUMP JUMPDEST DUP3 MSTORE POP POP JUMP JUMPDEST PUSH2 0x2377 DUP2 PUSH2 0x1894 JUMP JUMPDEST DUP3 MSTORE POP POP JUMP JUMPDEST PUSH2 0x2386 DUP2 PUSH2 0x1DF3 JUMP JUMPDEST DUP3 MSTORE POP POP JUMP JUMPDEST PUSH2 0x2395 DUP2 PUSH2 0x198F JUMP JUMPDEST DUP3 MSTORE POP POP JUMP JUMPDEST PUSH1 0x0 DUP3 DUP3 MSTORE PUSH1 0x20 DUP3 ADD SWAP1 POP SWAP3 SWAP2 POP POP JUMP JUMPDEST PUSH1 0x0 PUSH2 0x23B7 DUP3 PUSH2 0x1B12 JUMP JUMPDEST PUSH2 0x23C1 DUP2 DUP6 PUSH2 0x239B JUMP JUMPDEST SWAP4 POP PUSH2 0x23D1 DUP2 DUP6 PUSH1 0x20 DUP7 ADD PUSH2 0x1B2E JUMP JUMPDEST PUSH2 0x23DA DUP2 PUSH2 0x1B58 JUMP JUMPDEST DUP5 ADD SWAP2 POP POP SWAP3 SWAP2 POP POP JUMP JUMPDEST PUSH1 0x0 PUSH1 0xC0 DUP4 ADD PUSH1 0x0 DUP4 ADD MLOAD PUSH2 0x23FD PUSH1 0x0 DUP7 ADD DUP3 PUSH2 0x235F JUMP JUMPDEST POP PUSH1 0x20 DUP4 ADD MLOAD PUSH2 0x2410 PUSH1 0x20 DUP7 ADD DUP3 PUSH2 0x236E JUMP JUMPDEST POP PUSH1 0x40 DUP4 ADD MLOAD PUSH2 0x2423 PUSH1 0x40 DUP7 ADD DUP3 PUSH2 0x237D JUMP JUMPDEST POP PUSH1 0x60 DUP4 ADD MLOAD PUSH2 0x2436 PUSH1 0x60 DUP7 ADD DUP3 PUSH2 0x238C JUMP JUMPDEST POP PUSH1 0x80 DUP4 ADD MLOAD PUSH2 0x2449 PUSH1 0x80 DUP7 ADD DUP3 PUSH2 0x238C JUMP JUMPDEST POP PUSH1 0xA0 DUP4 ADD MLOAD DUP5 DUP3 SUB PUSH1 0xA0 DUP7 ADD MSTORE PUSH2 0x2461 DUP3 DUP3 PUSH2 0x23AC JUMP JUMPDEST SWAP2 POP POP DUP1 SWAP2 POP POP SWAP3 SWAP2 POP POP JUMP JUMPDEST PUSH1 0x0 PUSH1 0x20 DUP3 ADD SWAP1 POP DUP2 DUP2 SUB PUSH1 0x0 DUP4 ADD MSTORE PUSH2 0x2488 DUP2 DUP5 PUSH2 0x23E5 JUMP JUMPDEST SWAP1 POP SWAP3 SWAP2 POP POP JUMP JUMPDEST PUSH1 0x0 DUP2 MLOAD SWAP1 POP PUSH2 0x249F DUP2 PUSH2 0x189E JUMP JUMPDEST SWAP3 SWAP2 POP POP JUMP JUMPDEST PUSH1 0x0 PUSH1 0x20 DUP3 DUP5 SUB SLT ISZERO PUSH2 0x24BB JUMPI PUSH2 0x24BA PUSH2 0x188A JUMP JUMPDEST JUMPDEST PUSH1 0x0 PUSH2 0x24C9 DUP5 DUP3 DUP6 ADD PUSH2 0x2490 JUMP JUMPDEST SWAP2 POP POP SWAP3 SWAP2 POP POP JUMP JUMPDEST PUSH32 0x4F6E6C792063616C6C61626C65206279206F776E657200000000000000000000 PUSH1 0x0 DUP3 ADD MSTORE POP JUMP JUMPDEST PUSH1 0x0 PUSH2 0x2508 PUSH1 0x16 DUP4 PUSH2 0x1E7E JUMP JUMPDEST SWAP2 POP PUSH2 0x2513 DUP3 PUSH2 0x24D2 JUMP JUMPDEST PUSH1 0x20 DUP3 ADD SWAP1 POP SWAP2 SWAP1 POP JUMP JUMPDEST PUSH1 0x0 PUSH1 0x20 DUP3 ADD SWAP1 POP DUP2 DUP2 SUB PUSH1 0x0 DUP4 ADD MSTORE PUSH2 0x2537 DUP2 PUSH2 0x24FB JUMP JUMPDEST SWAP1 POP SWAP2 SWAP1 POP JUMP JUMPDEST PUSH32 0x43616E6E6F74207472616E7366657220746F2073656C66000000000000000000 PUSH1 0x0 DUP3 ADD MSTORE POP JUMP JUMPDEST PUSH1 0x0 PUSH2 0x2574 PUSH1 0x17 DUP4 PUSH2 0x1E7E JUMP JUMPDEST SWAP2 POP PUSH2 0x257F DUP3 PUSH2 0x253E JUMP JUMPDEST PUSH1 0x20 DUP3 ADD SWAP1 POP SWAP2 SWAP1 POP JUMP JUMPDEST PUSH1 0x0 PUSH1 0x20 DUP3 ADD SWAP1 POP DUP2 DUP2 SUB PUSH1 0x0 DUP4 ADD MSTORE PUSH2 0x25A3 DUP2 PUSH2 0x2567 JUMP JUMPDEST SWAP1 POP SWAP2 SWAP1 POP JUMP JUMPDEST PUSH2 0x25B3 DUP2 PUSH2 0x1AF7 JUMP JUMPDEST DUP3 MSTORE POP POP JUMP JUMPDEST PUSH1 0x20 DUP3 ADD PUSH1 0x0 DUP3 ADD MLOAD PUSH2 0x25CF PUSH1 0x0 DUP6 ADD DUP3 PUSH2 0x25AA JUMP JUMPDEST POP POP POP POP JUMP JUMPDEST PUSH1 0x0 PUSH1 0x20 DUP3 ADD SWAP1 POP PUSH2 0x25EA PUSH1 0x0 DUP4 ADD DUP5 PUSH2 0x25B9 JUMP JUMPDEST SWAP3 SWAP2 POP POP JUMP INVALID LOG2 PUSH5 0x6970667358 0x22 SLT KECCAK256 0xCA 0xD 0xE8 0xE5 MOD 0xB8 CHAINID 0xFC PUSH3 0xE19A47 0xC6 0xC5 LOG2 0xE0 ISZERO DUP7 0xB8 CALLER EXP SWAP15 DUP7 PUSH26 0x974C53F2E975F8A164736F6C6343000813003300000000000000 "
				},
				"gasEstimates": {
					"creation": {
						"codeDepositCost": "1953200",
						"executionCost": "infinite",
						"totalCost": "infinite"
					},
					"external": {
						"ENTRY_FEE()": "373",
						"acceptOwnership()": "54630",
						"callbackGasLimit()": "2540",
						"checkUpkeep(bytes)": "infinite",
						"enterLottery(uint256)": "infinite",
						"getPlayers()": "infinite",
						"i_owner()": "2559",
						"interval()": "2519",
						"jackpotThreshold()": "2475",
						"keyHash()": "2475",
						"lastRequestId()": "2539",
						"lastTimeStamp()": "2497",
						"lotteryId()": "2496",
						"lotteryWinners(uint256)": "2950",
						"manualPickWinner()": "infinite",
						"minPlayers()": "2520",
						"numWords()": "2566",
						"owner()": "2633",
						"performUpkeep(bytes)": "infinite",
						"players(uint256)": "5022",
						"rawFulfillRandomWords(uint256,uint256[])": "infinite",
						"requestConfirmations()": "2588",
						"s_subscriptionId()": "2496",
						"s_vrfCoordinator()": "infinite",
						"setCoordinator(address)": "infinite",
						"transferOwnership(address)": "30743",
						"updateInterval(uint256)": "24779",
						"updateJackpotThreshold(uint256)": "24778",
						"updateMinPlayers(uint256)": "24758"
					},
					"internal": {
						"_startLotteryDraw()": "infinite",
						"fulfillRandomWords(uint256,uint256[] calldata)": "infinite"
					}
				},
				"methodIdentifiers": {
					"ENTRY_FEE()": "f6d361cc",
					"acceptOwnership()": "79ba5097",
					"callbackGasLimit()": "24f74697",
					"checkUpkeep(bytes)": "6e04ff0d",
					"enterLottery(uint256)": "3fd43098",
					"getPlayers()": "8b5b9ccc",
					"i_owner()": "dba6335f",
					"interval()": "947a36fb",
					"jackpotThreshold()": "3ad202b5",
					"keyHash()": "61728f39",
					"lastRequestId()": "fc2a88c3",
					"lastTimeStamp()": "3f3b3b27",
					"lotteryId()": "e580f47b",
					"lotteryWinners(uint256)": "d7a1a5b9",
					"manualPickWinner()": "f3d7323b",
					"minPlayers()": "2770c895",
					"numWords()": "7ccfd7fc",
					"owner()": "8da5cb5b",
					"performUpkeep(bytes)": "4585e33b",
					"players(uint256)": "f71d96cb",
					"rawFulfillRandomWords(uint256,uint256[])": "1fe543e3",
					"requestConfirmations()": "b0fb162f",
					"s_subscriptionId()": "8ac00021",
					"s_vrfCoordinator()": "9eccacf6",
					"setCoordinator(address)": "8ea98117",
					"transferOwnership(address)": "f2fde38b",
					"updateInterval(uint256)": "d0f07926",
					"updateJackpotThreshold(uint256)": "f9a6cec7",
					"updateMinPlayers(uint256)": "8f4fafc8"
				}
			},
			"storageLayout": {
				"storage": [
					{
						"astId": 176,
						"contract": "Contracts/Lottery_flattened.sol:Lottery",
						"label": "s_owner",
						"offset": 0,
						"slot": "0",
						"type": "t_address"
					},
					{
						"astId": 178,
						"contract": "Contracts/Lottery_flattened.sol:Lottery",
						"label": "s_pendingOwner",
						"offset": 0,
						"slot": "1",
						"type": "t_address"
					},
					{
						"astId": 373,
						"contract": "Contracts/Lottery_flattened.sol:Lottery",
						"label": "s_vrfCoordinator",
						"offset": 0,
						"slot": "2",
						"type": "t_contract(IVRFCoordinatorV2Plus)142"
					},
					{
						"astId": 529,
						"contract": "Contracts/Lottery_flattened.sol:Lottery",
						"label": "i_owner",
						"offset": 0,
						"slot": "3",
						"type": "t_address"
					},
					{
						"astId": 532,
						"contract": "Contracts/Lottery_flattened.sol:Lottery",
						"label": "players",
						"offset": 0,
						"slot": "4",
						"type": "t_array(t_address_payable)dyn_storage"
					},
					{
						"astId": 534,
						"contract": "Contracts/Lottery_flattened.sol:Lottery",
						"label": "lotteryId",
						"offset": 0,
						"slot": "5",
						"type": "t_uint256"
					},
					{
						"astId": 538,
						"contract": "Contracts/Lottery_flattened.sol:Lottery",
						"label": "lotteryWinners",
						"offset": 0,
						"slot": "6",
						"type": "t_mapping(t_uint256,t_address_payable)"
					},
					{
						"astId": 540,
						"contract": "Contracts/Lottery_flattened.sol:Lottery",
						"label": "s_subscriptionId",
						"offset": 0,
						"slot": "7",
						"type": "t_uint256"
					},
					{
						"astId": 542,
						"contract": "Contracts/Lottery_flattened.sol:Lottery",
						"label": "keyHash",
						"offset": 0,
						"slot": "8",
						"type": "t_bytes32"
					},
					{
						"astId": 544,
						"contract": "Contracts/Lottery_flattened.sol:Lottery",
						"label": "callbackGasLimit",
						"offset": 0,
						"slot": "9",
						"type": "t_uint32"
					},
					{
						"astId": 546,
						"contract": "Contracts/Lottery_flattened.sol:Lottery",
						"label": "requestConfirmations",
						"offset": 4,
						"slot": "9",
						"type": "t_uint16"
					},
					{
						"astId": 548,
						"contract": "Contracts/Lottery_flattened.sol:Lottery",
						"label": "numWords",
						"offset": 6,
						"slot": "9",
						"type": "t_uint32"
					},
					{
						"astId": 550,
						"contract": "Contracts/Lottery_flattened.sol:Lottery",
						"label": "lastRequestId",
						"offset": 0,
						"slot": "10",
						"type": "t_uint256"
					},
					{
						"astId": 552,
						"contract": "Contracts/Lottery_flattened.sol:Lottery",
						"label": "interval",
						"offset": 0,
						"slot": "11",
						"type": "t_uint256"
					},
					{
						"astId": 554,
						"contract": "Contracts/Lottery_flattened.sol:Lottery",
						"label": "lastTimeStamp",
						"offset": 0,
						"slot": "12",
						"type": "t_uint256"
					},
					{
						"astId": 556,
						"contract": "Contracts/Lottery_flattened.sol:Lottery",
						"label": "minPlayers",
						"offset": 0,
						"slot": "13",
						"type": "t_uint256"
					},
					{
						"astId": 558,
						"contract": "Contracts/Lottery_flattened.sol:Lottery",
						"label": "jackpotThreshold",
						"offset": 0,
						"slot": "14",
						"type": "t_uint256"
					}
				],
				"types": {
					"t_address": {
						"encoding": "inplace",
						"label": "address",
						"numberOfBytes": "20"
					},
					"t_address_payable": {
						"encoding": "inplace",
						"label": "address payable",
						"numberOfBytes": "20"
					},
					"t_array(t_address_payable)dyn_storage": {
						"base": "t_address_payable",
						"encoding": "dynamic_array",
						"label": "address payable[]",
						"numberOfBytes": "32"
					},
					"t_bytes32": {
						"encoding": "inplace",
						"label": "bytes32",
						"numberOfBytes": "32"
					},
					"t_contract(IVRFCoordinatorV2Plus)142": {
						"encoding": "inplace",
						"label": "contract IVRFCoordinatorV2Plus",
						"numberOfBytes": "20"
					},
					"t_mapping(t_uint256,t_address_payable)": {
						"encoding": "mapping",
						"key": "t_uint256",
						"label": "mapping(uint256 => address payable)",
						"numberOfBytes": "32",
						"value": "t_address_payable"
					},
					"t_uint16": {
						"encoding": "inplace",
						"label": "uint16",
						"numberOfBytes": "2"
					},
					"t_uint256": {
						"encoding": "inplace",
						"label": "uint256",
						"numberOfBytes": "32"
					},
					"t_uint32": {
						"encoding": "inplace",
						"label": "uint32",
						"numberOfBytes": "4"
					}
				}
			},
			"userdoc": {
				"kind": "user",
				"methods": {
					"acceptOwnership()": {
						"notice": "Allows an ownership transfer to be completed by the recipient."
					},
					"checkUpkeep(bytes)": {
						"notice": "checkUpkeep is called by Chainlink Automation to determine if the lottery draw should occur."
					},
					"enterLottery(uint256)": {
						"notice": "Allows users to enter the lottery by buying multiple tickets in one transaction."
					},
					"getPlayers()": {
						"notice": "Returns the list of current players."
					},
					"manualPickWinner()": {
						"notice": "Manual trigger in case of emergency or special conditions"
					},
					"owner()": {
						"notice": "Get the current owner"
					},
					"performUpkeep(bytes)": {
						"notice": "performUpkeep is called by Chainlink Automation when checkUpkeep returns true."
					},
					"setCoordinator(address)": {
						"notice": "Sets the VRF Coordinator addressThis method should only be callable by the coordinator or contract owner"
					},
					"transferOwnership(address)": {
						"notice": "Allows an owner to begin transferring ownership to a new address."
					},
					"updateInterval(uint256)": {
						"notice": "Update the interval between lottery draws."
					},
					"updateJackpotThreshold(uint256)": {
						"notice": "Update the jackpot threshold."
					},
					"updateMinPlayers(uint256)": {
						"notice": "Update the minimum number of players required."
					}
				},
				"version": 1
			}
		}
	}
}