{"Contracts/Lottery.sol":{"Lottery":{"abi":[{"inputs":[{"internalType":"uint256","name":"subscriptionId","type":"uint256"},{"internalType":"address","name":"vrfCoordinator","type":"address"},{"internalType":"bytes32","name":"_keyHash","type":"bytes32"},{"internalType":"uint256","name":"_interval","type":"uint256"},{"internalType":"uint256","name":"_minPlayers","type":"uint256"},{"internalType":"uint256","name":"_jackpotThreshold","type":"uint256"}],"stateMutability":"nonpayable","type":"constructor"},{"inputs":[{"internalType":"address","name":"have","type":"address"},{"internalType":"address","name":"want","type":"address"}],"name":"OnlyCoordinatorCanFulfill","type":"error"},{"inputs":[{"internalType":"address","name":"have","type":"address"},{"internalType":"address","name":"owner","type":"address"},{"internalType":"address","name":"coordinator","type":"address"}],"name":"OnlyOwnerOrCoordinator","type":"error"},{"inputs":[],"name":"ZeroAddress","type":"error"},{"anonymous":false,"inputs":[{"indexed":false,"internalType":"address","name":"vrfCoordinator","type":"address"}],"name":"CoordinatorSet","type":"event"},{"anonymous":false,"inputs":[{"indexed":false,"internalType":"uint256","name":"lotteryId","type":"uint256"}],"name":"LotteryRoundEnded","type":"event"},{"anonymous":false,"inputs":[{"indexed":false,"internalType":"uint256","name":"newLotteryId","type":"uint256"},{"indexed":false,"internalType":"uint256","name":"timestamp","type":"uint256"}],"name":"LotteryRoundReset","type":"event"},{"anonymous":false,"inputs":[{"indexed":true,"internalType":"address","name":"from","type":"address"},{"indexed":true,"internalType":"address","name":"to","type":"address"}],"name":"OwnershipTransferRequested","type":"event"},{"anonymous":false,"inputs":[{"indexed":true,"internalType":"address","name":"from","type":"address"},{"indexed":true,"internalType":"address","name":"to","type":"address"}],"name":"OwnershipTransferred","type":"event"},{"anonymous":false,"inputs":[{"indexed":false,"internalType":"uint256","name":"requestId","type":"uint256"}],"name":"RandomnessRequested","type":"event"},{"anonymous":false,"inputs":[{"indexed":true,"internalType":"address","name":"buyer","type":"address"},{"indexed":false,"internalType":"uint256","name":"numberOfTickets","type":"uint256"}],"name":"TicketPurchased","type":"event"},{"anonymous":false,"inputs":[{"indexed":true,"internalType":"address","name":"winner","type":"address"},{"indexed":false,"internalType":"uint256","name":"prize","type":"uint256"},{"indexed":false,"internalType":"uint256","name":"lotteryId","type":"uint256"}],"name":"WinnerPicked","type":"event"},{"inputs":[],"name":"ENTRY_FEE","outputs":[{"internalType":"uint256","name":"","type":"uint256"}],"stateMutability":"view","type":"function"},{"inputs":[],"name":"acceptOwnership","outputs":[],"stateMutability":"nonpayable","type":"function"},{"inputs":[],"name":"callbackGasLimit","outputs":[{"internalType":"uint32","name":"","type":"uint32"}],"stateMutability":"view","type":"function"},{"inputs":[{"internalType":"bytes","name":"","type":"bytes"}],"name":"checkUpkeep","outputs":[{"internalType":"bool","name":"upkeepNeeded","type":"bool"},{"internalType":"bytes","name":"performData","type":"bytes"}],"stateMutability":"view","type":"function"},{"inputs":[{"internalType":"uint256","name":"numberOfTickets","type":"uint256"}],"name":"enterLottery","outputs":[],"stateMutability":"payable","type":"function"},{"inputs":[],"name":"getPlayers","outputs":[{"internalType":"address payable[]","name":"","type":"address[]"}],"stateMutability":"view","type":"function"},{"inputs":[],"name":"i_owner","outputs":[{"internalType":"address","name":"","type":"address"}],"stateMutability":"view","type":"function"},{"inputs":[],"name":"interval","outputs":[{"internalType":"uint256","name":"","type":"uint256"}],"stateMutability":"view","type":"function"},{"inputs":[],"name":"jackpotThreshold","outputs":[{"internalType":"uint256","name":"","type":"uint256"}],"stateMutability":"view","type":"function"},{"inputs":[],"name":"keyHash","outputs":[{"internalType":"bytes32","name":"","type":"bytes32"}],"stateMutability":"view","type":"function"},{"inputs":[],"name":"lastRequestId","outputs":[{"internalType":"uint256","name":"","type":"uint256"}],"stateMutability":"view","type":"function"},{"inputs":[],"name":"lastTimeStamp","outputs":[{"internalType":"uint256","name":"","type":"uint256"}],"stateMutability":"view","type":"function"},{"inputs":[],"name":"lotteryId","outputs":[{"internalType":"uint256","name":"","type":"uint256"}],"stateMutability":"view","type":"function"},{"inputs":[{"internalType":"uint256","name":"","type":"uint256"}],"name":"lotteryWinners","outputs":[{"internalType":"address payable","name":"","type":"address"}],"stateMutability":"view","type":"function"},{"inputs":[],"name":"manualPickWinner","outputs":[],"stateMutability":"nonpayable","type":"function"},{"inputs":[],"name":"minPlayers","outputs":[{"internalType":"uint256","name":"","type":"uint256"}],"stateMutability":"view","type":"function"},{"inputs":[],"name":"numWords","outputs":[{"internalType":"uint32","name":"","type":"uint32"}],"stateMutability":"view","type":"function"},{"inputs":[],"name":"owner","outputs":[{"internalType":"address","name":"","type":"address"}],"stateMutability":"view","type":"function"},{"inputs":[{"internalType":"bytes","name":"","type":"bytes"}],"name":"performUpkeep","outputs":[],"stateMutability":"nonpayable","type":"function"},{"inputs":[{"internalType":"uint256","name":"","type":"uint256"}],"name":"players","outputs":[{"internalType":"address payable","name":"","type":"address"}],"stateMutability":"view","type":"function"},{"inputs":[{"internalType":"uint256","name":"requestId","type":"uint256"},{"internalType":"uint256[]","name":"randomWords","type":"uint256[]"}],"name":"rawFulfillRandomWords","outputs":[],"stateMutability":"nonpayable","type":"function"},{"inputs":[],"name":"requestConfirmations","outputs":[{"internalType":"uint16","name":"","type":"uint16"}],"stateMutability":"view","type":"function"},{"inputs":[],"name":"s_subscriptionId","outputs":[{"internalType":"uint256","name":"","type":"uint256"}],"stateMutability":"view","type":"function"},{"inputs":[],"name":"s_vrfCoordinator","outputs":[{"internalType":"contract IVRFCoordinatorV2Plus","name":"","type":"address"}],"stateMutability":"view","type":"function"},{"inputs":[{"internalType":"address","name":"_vrfCoordinator","type":"address"}],"name":"setCoordinator","outputs":[],"stateMutability":"nonpayable","type":"function"},{"inputs":[{"internalType":"address","name":"to","type":"address"}],"name":"transferOwnership","outputs":[],"stateMutability":"nonpayable","type":"function"},{"inputs":[{"internalType":"uint256","name":"newInterval","type":"uint256"}],"name":"updateInterval","outputs":[],"stateMutability":"nonpayable","type":"function"},{"inputs":[{"internalType":"uint256","name":"newThreshold","type":"uint256"}],"name":"updateJackpotThreshold","outputs":[],"stateMutability":"nonpayable","type":"function"},{"inputs":[{"internalType":"uint256","name":"newMinPlayers","type":"uint256"}],"name":"updateMinPlayers","outputs":[],"stateMutability":"nonpayable","type":"function"}],"evm":{"bytecode":{"linkReferences":{},"object":"60806040523480156200001157600080fd5b5060405162002c9338038062002c938339818101604052810190620000379190620004ca565b84338060008073ffffffffffffffffffffffffffffffffffffffff168273ffffffffffffffffffffffffffffffffffffffff1603620000ad576040517f08c379a0000000000000000000000000000000000000000000000000000000008152600401620000a490620005c7565b60405180910390fd5b816000806101000a81548173ffffffffffffffffffffffffffffffffffffffff021916908373ffffffffffffffffffffffffffffffffffffffff160217905550600073ffffffffffffffffffffffffffffffffffffffff168173ffffffffffffffffffffffffffffffffffffffff161462000134576200013381620002bb60201b60201c565b5b505050600073ffffffffffffffffffffffffffffffffffffffff168173ffffffffffffffffffffffffffffffffffffffff16036200019e576040517fd92e233d00000000000000000000000000000000000000000000000000000000815260040160405180910390fd5b80600260006101000a81548173ffffffffffffffffffffffffffffffffffffffff021916908373ffffffffffffffffffffffffffffffffffffffff1602179055505033600360006101000a81548173ffffffffffffffffffffffffffffffffffffffff021916908373ffffffffffffffffffffffffffffffffffffffff1602179055508560078190555083600881905550620186a0600960006101000a81548163ffffffff021916908363ffffffff1602179055506003600960046101000a81548161ffff021916908361ffff1602179055506001600960066101000a81548163ffffffff021916908363ffffffff16021790555082600b8190555042600c8190555081600d8190555080600e819055505050505050506200065b565b3373ffffffffffffffffffffffffffffffffffffffff168173ffffffffffffffffffffffffffffffffffffffff16036200032c576040517f08c379a0000000000000000000000000000000000000000000000000000000008152600401620003239062000639565b60405180910390fd5b80600160006101000a81548173ffffffffffffffffffffffffffffffffffffffff021916908373ffffffffffffffffffffffffffffffffffffffff1602179055508073ffffffffffffffffffffffffffffffffffffffff1660008054906101000a900473ffffffffffffffffffffffffffffffffffffffff1673ffffffffffffffffffffffffffffffffffffffff167fed8889f560326eb138920d842192f0eb3dd22b4f139c87a2c57538e05bae127860405160405180910390a350565b600080fd5b6000819050919050565b6200040481620003ef565b81146200041057600080fd5b50565b6000815190506200042481620003f9565b92915050565b600073ffffffffffffffffffffffffffffffffffffffff82169050919050565b600062000457826200042a565b9050919050565b62000469816200044a565b81146200047557600080fd5b50565b60008151905062000489816200045e565b92915050565b6000819050919050565b620004a4816200048f565b8114620004b057600080fd5b50565b600081519050620004c48162000499565b92915050565b60008060008060008060c08789031215620004ea57620004e9620003ea565b5b6000620004fa89828a0162000413565b96505060206200050d89828a0162000478565b95505060406200052089828a01620004b3565b94505060606200053389828a0162000413565b93505060806200054689828a0162000413565b92505060a06200055989828a0162000413565b9150509295509295509295565b600082825260208201905092915050565b7f43616e6e6f7420736574206f776e657220746f207a65726f0000000000000000600082015250565b6000620005af60188362000566565b9150620005bc8262000577565b602082019050919050565b60006020820190508181036000830152620005e281620005a0565b9050919050565b7f43616e6e6f74207472616e7366657220746f2073656c66000000000000000000600082015250565b60006200062160178362000566565b91506200062e82620005e9565b602082019050919050565b60006020820190508181036000830152620006548162000612565b9050919050565b612628806200066b6000396000f3fe6080604052600436106101c25760003560e01c80638ea98117116100f7578063dba6335f11610095578063f6d361cc11610064578063f6d361cc146105dc578063f71d96cb14610607578063f9a6cec714610644578063fc2a88c31461066d576101c2565b8063dba6335f14610546578063e580f47b14610571578063f2fde38b1461059c578063f3d7323b146105c5576101c2565b80639eccacf6116100d15780639eccacf61461048a578063b0fb162f146104b5578063d0f07926146104e0578063d7a1a5b914610509576101c2565b80638ea981171461040d5780638f4fafc814610436578063947a36fb1461045f576101c2565b806361728f39116101645780637ccfd7fc1161013e5780637ccfd7fc146103615780638ac000211461038c5780638b5b9ccc146103b75780638da5cb5b146103e2576101c2565b806361728f39146102e15780636e04ff0d1461030c57806379ba50971461034a576101c2565b80633ad202b5116101a05780633ad202b5146102465780633f3b3b27146102715780633fd430981461029c5780634585e33b146102b8576101c2565b80631fe543e3146101c757806324f74697146101f05780632770c8951461021b575b600080fd5b3480156101d357600080fd5b506101ee60048036038101906101e99190611931565b610698565b005b3480156101fc57600080fd5b5061020561075e565b60405161021291906119b0565b60405180910390f35b34801561022757600080fd5b50610230610774565b60405161023d91906119da565b60405180910390f35b34801561025257600080fd5b5061025b61077a565b60405161026891906119da565b60405180910390f35b34801561027d57600080fd5b50610286610780565b60405161029391906119da565b60405180910390f35b6102b660048036038101906102b191906119f5565b610786565b005b3480156102c457600080fd5b506102df60048036038101906102da9190611a78565b6108f1565b005b3480156102ed57600080fd5b506102f6610958565b6040516103039190611ade565b60405180910390f35b34801561031857600080fd5b50610333600480360381019061032e9190611a78565b61095e565b604051610341929190611ba4565b60405180910390f35b34801561035657600080fd5b5061035f6109d2565b005b34801561036d57600080fd5b50610376610b67565b60405161038391906119b0565b60405180910390f35b34801561039857600080fd5b506103a1610b7d565b6040516103ae91906119da565b60405180910390f35b3480156103c357600080fd5b506103cc610b83565b6040516103d99190611cc4565b60405180910390f35b3480156103ee57600080fd5b506103f7610c11565b6040516104049190611d07565b60405180910390f35b34801561041957600080fd5b50610434600480360381019061042f9190611d4e565b610c3a565b005b34801561044257600080fd5b5061045d600480360381019061045891906119f5565b610e1b565b005b34801561046b57600080fd5b50610474610eb5565b60405161048191906119da565b60405180910390f35b34801561049657600080fd5b5061049f610ebb565b6040516104ac9190611dda565b60405180910390f35b3480156104c157600080fd5b506104ca610ee1565b6040516104d79190611e12565b60405180910390f35b3480156104ec57600080fd5b50610507600480360381019061050291906119f5565b610ef5565b005b34801561051557600080fd5b50610530600480360381019061052b91906119f5565b610f8f565b60405161053d9190611e3c565b60405180910390f35b34801561055257600080fd5b5061055b610fc2565b6040516105689190611d07565b60405180910390f35b34801561057d57600080fd5b50610586610fe8565b60405161059391906119da565b60405180910390f35b3480156105a857600080fd5b506105c360048036038101906105be9190611d4e565b610fee565b005b3480156105d157600080fd5b506105da611002565b005b3480156105e857600080fd5b506105f16110e4565b6040516105fe91906119da565b60405180910390f35b34801561061357600080fd5b5061062e600480360381019061062991906119f5565b6110f0565b60405161063b9190611e3c565b60405180910390f35b34801561065057600080fd5b5061066b600480360381019061066691906119f5565b61112f565b005b34801561067957600080fd5b506106826111c9565b60405161068f91906119da565b60405180910390f35b600260009054906101000a900473ffffffffffffffffffffffffffffffffffffffff1673ffffffffffffffffffffffffffffffffffffffff163373ffffffffffffffffffffffffffffffffffffffff161461074e5733600260009054906101000a900473ffffffffffffffffffffffffffffffffffffffff166040517f1cf993f4000000000000000000000000000000000000000000000000000000008152600401610745929190611e57565b60405180910390fd5b6107598383836111cf565b505050565b600960009054906101000a900463ffffffff1681565b600d5481565b600e5481565b600c5481565b600081116107c9576040517f08c379a00000000000000000000000000000000000000000000000000000000081526004016107c090611edd565b60405180910390fd5b8067016345785d8a00006107dd9190611f2c565b341461081e576040517f08c379a000000000000000000000000000000000000000000000000000000000815260040161081590611fba565b60405180910390fd5b60005b8181101561089f576004339080600181540180825580915050600190039060005260206000200160009091909190916101000a81548173ffffffffffffffffffffffffffffffffffffffff021916908373ffffffffffffffffffffffffffffffffffffffff160217905550808061089790611fda565b915050610821565b503373ffffffffffffffffffffffffffffffffffffffff167f0668f5b446eb814fe35b3206f43f14bd8567ba04ddaf7a3ee56516929ab22ccb826040516108e691906119da565b60405180910390a250565b6000600b54600c54426109049190612022565b101590506000600d54600480549050101590506000600e544710159050828061092a5750815b806109325750805b801561094357506000600480549050115b156109515761095061148e565b5b5050505050565b60085481565b600060606000600b54600c54426109759190612022565b101590506000600d54600480549050101590506000600e544710159050828061099b5750815b806109a35750805b80156109b457506000600480549050115b94506040518060200160405280600081525093505050509250929050565b600160009054906101000a900473ffffffffffffffffffffffffffffffffffffffff1673ffffffffffffffffffffffffffffffffffffffff163373ffffffffffffffffffffffffffffffffffffffff1614610a62576040517f08c379a0000000000000000000000000000000000000000000000000000000008152600401610a59906120a2565b60405180910390fd5b60008060009054906101000a900473ffffffffffffffffffffffffffffffffffffffff169050336000806101000a81548173ffffffffffffffffffffffffffffffffffffffff021916908373ffffffffffffffffffffffffffffffffffffffff1602179055506000600160006101000a81548173ffffffffffffffffffffffffffffffffffffffff021916908373ffffffffffffffffffffffffffffffffffffffff1602179055503373ffffffffffffffffffffffffffffffffffffffff168173ffffffffffffffffffffffffffffffffffffffff167f8be0079c531659141344cd1fd0a4f28419497f9722a3daafe3b4186f6b6457e060405160405180910390a350565b600960069054906101000a900463ffffffff1681565b60075481565b60606004805480602002602001604051908101604052809291908181526020018280548015610c0757602002820191906000526020600020905b8160009054906101000a900473ffffffffffffffffffffffffffffffffffffffff1673ffffffffffffffffffffffffffffffffffffffff1681526020019060010190808311610bbd575b5050505050905090565b60008060009054906101000a900473ffffffffffffffffffffffffffffffffffffffff16905090565b610c42610c11565b73ffffffffffffffffffffffffffffffffffffffff163373ffffffffffffffffffffffffffffffffffffffff1614158015610ccb5750600260009054906101000a900473ffffffffffffffffffffffffffffffffffffffff1673ffffffffffffffffffffffffffffffffffffffff163373ffffffffffffffffffffffffffffffffffffffff1614155b15610d3a5733610cd9610c11565b600260009054906101000a900473ffffffffffffffffffffffffffffffffffffffff166040517f061db9c1000000000000000000000000000000000000000000000000000000008152600401610d31939291906120c2565b60405180910390fd5b600073ffffffffffffffffffffffffffffffffffffffff168173ffffffffffffffffffffffffffffffffffffffff1603610da0576040517fd92e233d00000000000000000000000000000000000000000000000000000000815260040160405180910390fd5b80600260006101000a81548173ffffffffffffffffffffffffffffffffffffffff021916908373ffffffffffffffffffffffffffffffffffffffff1602179055507fd1a6a14209a385a964d036e404cb5cfb71f4000cdb03c9366292430787261be681604051610e109190611d07565b60405180910390a150565b600360009054906101000a900473ffffffffffffffffffffffffffffffffffffffff1673ffffffffffffffffffffffffffffffffffffffff163373ffffffffffffffffffffffffffffffffffffffff1614610eab576040517f08c379a0000000000000000000000000000000000000000000000000000000008152600401610ea29061216b565b60405180910390fd5b80600d8190555050565b600b5481565b600260009054906101000a900473ffffffffffffffffffffffffffffffffffffffff1681565b600960049054906101000a900461ffff1681565b600360009054906101000a900473ffffffffffffffffffffffffffffffffffffffff1673ffffffffffffffffffffffffffffffffffffffff163373ffffffffffffffffffffffffffffffffffffffff1614610f85576040517f08c379a0000000000000000000000000000000000000000000000000000000008152600401610f7c9061216b565b60405180910390fd5b80600b8190555050565b60066020528060005260406000206000915054906101000a900473ffffffffffffffffffffffffffffffffffffffff1681565b600360009054906101000a900473ffffffffffffffffffffffffffffffffffffffff1681565b60055481565b610ff66115fa565b610fff8161168a565b50565b600360009054906101000a900473ffffffffffffffffffffffffffffffffffffffff1673ffffffffffffffffffffffffffffffffffffffff163373ffffffffffffffffffffffffffffffffffffffff1614611092576040517f08c379a00000000000000000000000000000000000000000000000000000000081526004016110899061216b565b60405180910390fd5b6000600480549050116110da576040517f08c379a00000000000000000000000000000000000000000000000000000000081526004016110d1906121d7565b60405180910390fd5b6110e261148e565b565b67016345785d8a000081565b6004818154811061110057600080fd5b906000526020600020016000915054906101000a900473ffffffffffffffffffffffffffffffffffffffff1681565b600360009054906101000a900473ffffffffffffffffffffffffffffffffffffffff1673ffffffffffffffffffffffffffffffffffffffff163373ffffffffffffffffffffffffffffffffffffffff16146111bf576040517f08c379a00000000000000000000000000000000000000000000000000000000081526004016111b69061216b565b60405180910390fd5b80600e8190555050565b600a5481565b600060048054905011611217576040517f08c379a000000000000000000000000000000000000000000000000000000000815260040161120e906121d7565b60405180910390fd5b600060048054905083836000818110611233576112326121f7565b5b905060200201356112449190612255565b905060006004828154811061125c5761125b6121f7565b5b9060005260206000200160009054906101000a900473ffffffffffffffffffffffffffffffffffffffff16905060004790508160066000600554815260200190815260200160002060006101000a81548173ffffffffffffffffffffffffffffffffffffffff021916908373ffffffffffffffffffffffffffffffffffffffff16021790555060006005549050600560008154809291906112fc90611fda565b91905055506004600061130f919061184e565b42600c8190555060008373ffffffffffffffffffffffffffffffffffffffff168360405161133c906122b7565b60006040518083038185875af1925050503d8060008114611379576040519150601f19603f3d011682016040523d82523d6000602084013e61137e565b606091505b50509050806113c2576040517f08c379a00000000000000000000000000000000000000000000000000000000081526004016113b990612318565b60405180910390fd5b8373ffffffffffffffffffffffffffffffffffffffff167f7e57d825a2478cc8123a008d7d1e20c0f6e8cbca89a7bc100c9b05ecb3698deb848460405161140a929190612338565b60405180910390a27fe194703c928e60d23be81d1f5c372b39a5adb98a7ba333dd9334414122f59e998260405161144191906119da565b60405180910390a17f1bbd97005f8f033b87044f2f354d3104f1730b26d30001e655b75782ce4797716005544260405161147c929190612338565b60405180910390a15050505050505050565b600260009054906101000a900473ffffffffffffffffffffffffffffffffffffffff1673ffffffffffffffffffffffffffffffffffffffff16639b1c385e6040518060c0016040528060085481526020016007548152602001600960049054906101000a900461ffff1661ffff168152602001600960009054906101000a900463ffffffff1663ffffffff168152602001600960069054906101000a900463ffffffff1663ffffffff1681526020016115576040518060200160405280600015158152506117b6565b8152506040518263ffffffff1660e01b81526004016115769190612470565b6020604051808303816000875af1158015611595573d6000803e3d6000fd5b505050506040513d601f19601f820116820180604052508101906115b991906124a7565b600a819055507f9ac10fb18c93d33ad7b0a941897aef048d0f8d30756684e82b4552ba12764d45600a546040516115f091906119da565b60405180910390a1565b60008054906101000a900473ffffffffffffffffffffffffffffffffffffffff1673ffffffffffffffffffffffffffffffffffffffff163373ffffffffffffffffffffffffffffffffffffffff1614611688576040517f08c379a000000000000000000000000000000000000000000000000000000000815260040161167f90612520565b60405180910390fd5b565b3373ffffffffffffffffffffffffffffffffffffffff168173ffffffffffffffffffffffffffffffffffffffff16036116f8576040517f08c379a00000000000000000000000000000000000000000000000000000000081526004016116ef9061258c565b60405180910390fd5b80600160006101000a81548173ffffffffffffffffffffffffffffffffffffffff021916908373ffffffffffffffffffffffffffffffffffffffff1602179055508073ffffffffffffffffffffffffffffffffffffffff1660008054906101000a900473ffffffffffffffffffffffffffffffffffffffff1673ffffffffffffffffffffffffffffffffffffffff167fed8889f560326eb138920d842192f0eb3dd22b4f139c87a2c57538e05bae127860405160405180910390a350565b60607f92fd13387c7fe7befbc38d303d6468778fb9731bc4583f17d92989c6fcfdeaaa826040516024016117ea91906125d7565b604051602081830303815290604052907bffffffffffffffffffffffffffffffffffffffffffffffffffffffff19166020820180517bffffffffffffffffffffffffffffffffffffffffffffffffffffffff83818316178352505050509050919050565b508054600082559060005260206000209081019061186c919061186f565b50565b5b80821115611888576000816000905550600101611870565b5090565b600080fd5b600080fd5b6000819050919050565b6118a981611896565b81146118b457600080fd5b50565b6000813590506118c6816118a0565b92915050565b600080fd5b600080fd5b600080fd5b60008083601f8401126118f1576118f06118cc565b5b8235905067ffffffffffffffff81111561190e5761190d6118d1565b5b60208301915083602082028301111561192a576119296118d6565b5b9250929050565b60008060006040848603121561194a5761194961188c565b5b6000611958868287016118b7565b935050602084013567ffffffffffffffff81111561197957611978611891565b5b611985868287016118db565b92509250509250925092565b600063ffffffff82169050919050565b6119aa81611991565b82525050565b60006020820190506119c560008301846119a1565b92915050565b6119d481611896565b82525050565b60006020820190506119ef60008301846119cb565b92915050565b600060208284031215611a0b57611a0a61188c565b5b6000611a19848285016118b7565b91505092915050565b60008083601f840112611a3857611a376118cc565b5b8235905067ffffffffffffffff811115611a5557611a546118d1565b5b602083019150836001820283011115611a7157611a706118d6565b5b9250929050565b60008060208385031215611a8f57611a8e61188c565b5b600083013567ffffffffffffffff811115611aad57611aac611891565b5b611ab985828601611a22565b92509250509250929050565b6000819050919050565b611ad881611ac5565b82525050565b6000602082019050611af36000830184611acf565b92915050565b60008115159050919050565b611b0e81611af9565b82525050565b600081519050919050565b600082825260208201905092915050565b60005b83811015611b4e578082015181840152602081019050611b33565b60008484015250505050565b6000601f19601f8301169050919050565b6000611b7682611b14565b611b808185611b1f565b9350611b90818560208601611b30565b611b9981611b5a565b840191505092915050565b6000604082019050611bb96000830185611b05565b8181036020830152611bcb8184611b6b565b90509392505050565b600081519050919050565b600082825260208201905092915050565b6000819050602082019050919050565b600073ffffffffffffffffffffffffffffffffffffffff82169050919050565b6000611c2b82611c00565b9050919050565b611c3b81611c20565b82525050565b6000611c4d8383611c32565b60208301905092915050565b6000602082019050919050565b6000611c7182611bd4565b611c7b8185611bdf565b9350611c8683611bf0565b8060005b83811015611cb7578151611c9e8882611c41565b9750611ca983611c59565b925050600181019050611c8a565b5085935050505092915050565b60006020820190508181036000830152611cde8184611c66565b905092915050565b6000611cf182611c00565b9050919050565b611d0181611ce6565b82525050565b6000602082019050611d1c6000830184611cf8565b92915050565b611d2b81611ce6565b8114611d3657600080fd5b50565b600081359050611d4881611d22565b92915050565b600060208284031215611d6457611d6361188c565b5b6000611d7284828501611d39565b91505092915050565b6000819050919050565b6000611da0611d9b611d9684611c00565b611d7b565b611c00565b9050919050565b6000611db282611d85565b9050919050565b6000611dc482611da7565b9050919050565b611dd481611db9565b82525050565b6000602082019050611def6000830184611dcb565b92915050565b600061ffff82169050919050565b611e0c81611df5565b82525050565b6000602082019050611e276000830184611e03565b92915050565b611e3681611c20565b82525050565b6000602082019050611e516000830184611e2d565b92915050565b6000604082019050611e6c6000830185611cf8565b611e796020830184611cf8565b9392505050565b600082825260208201905092915050565b7f4d75737420627579206174206c65617374206f6e65207469636b657400000000600082015250565b6000611ec7601c83611e80565b9150611ed282611e91565b602082019050919050565b60006020820190508181036000830152611ef681611eba565b9050919050565b7f4e487b7100000000000000000000000000000000000000000000000000000000600052601160045260246000fd5b6000611f3782611896565b9150611f4283611896565b9250828202611f5081611896565b91508282048414831517611f6757611f66611efd565b5b5092915050565b7f496e636f72726563742045544820616d6f756e7420666f72207469636b657473600082015250565b6000611fa4602083611e80565b9150611faf82611f6e565b602082019050919050565b60006020820190508181036000830152611fd381611f97565b9050919050565b6000611fe582611896565b91507fffffffffffffffffffffffffffffffffffffffffffffffffffffffffffffffff820361201757612016611efd565b5b600182019050919050565b600061202d82611896565b915061203883611896565b92508282039050818111156120505761204f611efd565b5b92915050565b7f4d7573742062652070726f706f736564206f776e657200000000000000000000600082015250565b600061208c601683611e80565b915061209782612056565b602082019050919050565b600060208201905081810360008301526120bb8161207f565b9050919050565b60006060820190506120d76000830186611cf8565b6120e46020830185611cf8565b6120f16040830184611cf8565b949350505050565b7f4f6e6c79206f776e65722063616e2063616c6c20746869732066756e6374696f60008201527f6e00000000000000000000000000000000000000000000000000000000000000602082015250565b6000612155602183611e80565b9150612160826120f9565b604082019050919050565b6000602082019050818103600083015261218481612148565b9050919050565b7f4e6f20706c617965727320656e74657265640000000000000000000000000000600082015250565b60006121c1601283611e80565b91506121cc8261218b565b602082019050919050565b600060208201905081810360008301526121f0816121b4565b9050919050565b7f4e487b7100000000000000000000000000000000000000000000000000000000600052603260045260246000fd5b7f4e487b7100000000000000000000000000000000000000000000000000000000600052601260045260246000fd5b600061226082611896565b915061226b83611896565b92508261227b5761227a612226565b5b828206905092915050565b600081905092915050565b50565b60006122a1600083612286565b91506122ac82612291565b600082019050919050565b60006122c282612294565b9150819050919050565b7f5472616e73666572206661696c65640000000000000000000000000000000000600082015250565b6000612302600f83611e80565b915061230d826122cc565b602082019050919050565b60006020820190508181036000830152612331816122f5565b9050919050565b600060408201905061234d60008301856119cb565b61235a60208301846119cb565b9392505050565b61236a81611ac5565b82525050565b61237981611896565b82525050565b61238881611df5565b82525050565b61239781611991565b82525050565b600082825260208201905092915050565b60006123b982611b14565b6123c3818561239d565b93506123d3818560208601611b30565b6123dc81611b5a565b840191505092915050565b600060c0830160008301516123ff6000860182612361565b5060208301516124126020860182612370565b506040830151612425604086018261237f565b506060830151612438606086018261238e565b50608083015161244b608086018261238e565b5060a083015184820360a086015261246382826123ae565b9150508091505092915050565b6000602082019050818103600083015261248a81846123e7565b905092915050565b6000815190506124a1816118a0565b92915050565b6000602082840312156124bd576124bc61188c565b5b60006124cb84828501612492565b91505092915050565b7f4f6e6c792063616c6c61626c65206279206f776e657200000000000000000000600082015250565b600061250a601683611e80565b9150612515826124d4565b602082019050919050565b60006020820190508181036000830152612539816124fd565b9050919050565b7f43616e6e6f74207472616e7366657220746f2073656c66000000000000000000600082015250565b6000612576601783611e80565b915061258182612540565b602082019050919050565b600060208201905081810360008301526125a581612569565b9050919050565b6125b581611af9565b82525050565b6020820160008201516125d160008501826125ac565b50505050565b60006020820190506125ec60008301846125bb565b9291505056fea264697066735822122078eddd5cf14a2f1b7a27f1e13786d688dd89005e9a3adfc3985d115314d4327a64736f6c63430008130033","opcodes":"PUSH1 0x80 PUSH1 0x40 MSTORE CALLVALUE DUP1 ISZERO PUSH3 0x11 JUMPI PUSH1 0x0 DUP1 REVERT JUMPDEST POP PUSH1 0x40 MLOAD PUSH3 0x2C93 CODESIZE SUB DUP1 PUSH3 0x2C93 DUP4 CODECOPY DUP2 DUP2 ADD PUSH1 0x40 MSTORE DUP2 ADD SWAP1 PUSH3 0x37 SWAP2 SWAP1 PUSH3 0x4CA JUMP JUMPDEST DUP5 CALLER DUP1 PUSH1 0x0 DUP1 PUSH20 0xFFFFFFFFFFFFFFFFFFFFFFFFFFFFFFFFFFFFFFFF AND DUP3 PUSH20 0xFFFFFFFFFFFFFFFFFFFFFFFFFFFFFFFFFFFFFFFF AND SUB PUSH3 0xAD JUMPI PUSH1 0x40 MLOAD PUSH32 0x8C379A000000000000000000000000000000000000000000000000000000000 DUP2 MSTORE PUSH1 0x4 ADD PUSH3 0xA4 SWAP1 PUSH3 0x5C7 JUMP JUMPDEST PUSH1 0x40 MLOAD DUP1 SWAP2 SUB SWAP1 REVERT JUMPDEST DUP2 PUSH1 0x0 DUP1 PUSH2 0x100 EXP DUP2 SLOAD DUP2 PUSH20 0xFFFFFFFFFFFFFFFFFFFFFFFFFFFFFFFFFFFFFFFF MUL NOT AND SWAP1 DUP4 PUSH20 0xFFFFFFFFFFFFFFFFFFFFFFFFFFFFFFFFFFFFFFFF AND MUL OR SWAP1 SSTORE POP PUSH1 0x0 PUSH20 0xFFFFFFFFFFFFFFFFFFFFFFFFFFFFFFFFFFFFFFFF AND DUP2 PUSH20 0xFFFFFFFFFFFFFFFFFFFFFFFFFFFFFFFFFFFFFFFF AND EQ PUSH3 0x134 JUMPI PUSH3 0x133 DUP2 PUSH3 0x2BB PUSH1 0x20 SHL PUSH1 0x20 SHR JUMP JUMPDEST JUMPDEST POP POP POP PUSH1 0x0 PUSH20 0xFFFFFFFFFFFFFFFFFFFFFFFFFFFFFFFFFFFFFFFF AND DUP2 PUSH20 0xFFFFFFFFFFFFFFFFFFFFFFFFFFFFFFFFFFFFFFFF AND SUB PUSH3 0x19E JUMPI PUSH1 0x40 MLOAD PUSH32 0xD92E233D00000000000000000000000000000000000000000000000000000000 DUP2 MSTORE PUSH1 0x4 ADD PUSH1 0x40 MLOAD DUP1 SWAP2 SUB SWAP1 REVERT JUMPDEST DUP1 PUSH1 0x2 PUSH1 0x0 PUSH2 0x100 EXP DUP2 SLOAD DUP2 PUSH20 0xFFFFFFFFFFFFFFFFFFFFFFFFFFFFFFFFFFFFFFFF MUL NOT AND SWAP1 DUP4 PUSH20 0xFFFFFFFFFFFFFFFFFFFFFFFFFFFFFFFFFFFFFFFF AND MUL OR SWAP1 SSTORE POP POP CALLER PUSH1 0x3 PUSH1 0x0 PUSH2 0x100 EXP DUP2 SLOAD DUP2 PUSH20 0xFFFFFFFFFFFFFFFFFFFFFFFFFFFFFFFFFFFFFFFF MUL NOT AND SWAP1 DUP4 PUSH20 0xFFFFFFFFFFFFFFFFFFFFFFFFFFFFFFFFFFFFFFFF AND MUL OR SWAP1 SSTORE POP DUP6 PUSH1 0x7 DUP2 SWAP1 SSTORE POP DUP4 PUSH1 0x8 DUP2 SWAP1 SSTORE POP PUSH3 0x186A0 PUSH1 0x9 PUSH1 0x0 PUSH2 0x100 EXP DUP2 SLOAD DUP2 PUSH4 0xFFFFFFFF MUL NOT AND SWAP1 DUP4 PUSH4 0xFFFFFFFF AND MUL OR SWAP1 SSTORE POP PUSH1 0x3 PUSH1 0x9 PUSH1 0x4 PUSH2 0x100 EXP DUP2 SLOAD DUP2 PUSH2 0xFFFF MUL NOT AND SWAP1 DUP4 PUSH2 0xFFFF AND MUL OR SWAP1 SSTORE POP PUSH1 0x1 PUSH1 0x9 PUSH1 0x6 PUSH2 0x100 EXP DUP2 SLOAD DUP2 PUSH4 0xFFFFFFFF MUL NOT AND SWAP1 DUP4 PUSH4 0xFFFFFFFF AND MUL OR SWAP1 SSTORE POP DUP3 PUSH1 0xB DUP2 SWAP1 SSTORE POP TIMESTAMP PUSH1 0xC DUP2 SWAP1 SSTORE POP DUP2 PUSH1 0xD DUP2 SWAP1 SSTORE POP DUP1 PUSH1 0xE DUP2 SWAP1 SSTORE POP POP POP POP POP POP POP PUSH3 0x65B JUMP JUMPDEST CALLER PUSH20 0xFFFFFFFFFFFFFFFFFFFFFFFFFFFFFFFFFFFFFFFF AND DUP2 PUSH20 0xFFFFFFFFFFFFFFFFFFFFFFFFFFFFFFFFFFFFFFFF AND SUB PUSH3 0x32C JUMPI PUSH1 0x40 MLOAD PUSH32 0x8C379A000000000000000000000000000000000000000000000000000000000 DUP2 MSTORE PUSH1 0x4 ADD PUSH3 0x323 SWAP1 PUSH3 0x639 JUMP JUMPDEST PUSH1 0x40 MLOAD DUP1 SWAP2 SUB SWAP1 REVERT JUMPDEST DUP1 PUSH1 0x1 PUSH1 0x0 PUSH2 0x100 EXP DUP2 SLOAD DUP2 PUSH20 0xFFFFFFFFFFFFFFFFFFFFFFFFFFFFFFFFFFFFFFFF MUL NOT AND SWAP1 DUP4 PUSH20 0xFFFFFFFFFFFFFFFFFFFFFFFFFFFFFFFFFFFFFFFF AND MUL OR SWAP1 SSTORE POP DUP1 PUSH20 0xFFFFFFFFFFFFFFFFFFFFFFFFFFFFFFFFFFFFFFFF AND PUSH1 0x0 DUP1 SLOAD SWAP1 PUSH2 0x100 EXP SWAP1 DIV PUSH20 0xFFFFFFFFFFFFFFFFFFFFFFFFFFFFFFFFFFFFFFFF AND PUSH20 0xFFFFFFFFFFFFFFFFFFFFFFFFFFFFFFFFFFFFFFFF AND PUSH32 0xED8889F560326EB138920D842192F0EB3DD22B4F139C87A2C57538E05BAE1278 PUSH1 0x40 MLOAD PUSH1 0x40 MLOAD DUP1 SWAP2 SUB SWAP1 LOG3 POP JUMP JUMPDEST PUSH1 0x0 DUP1 REVERT JUMPDEST PUSH1 0x0 DUP2 SWAP1 POP SWAP2 SWAP1 POP JUMP JUMPDEST PUSH3 0x404 DUP2 PUSH3 0x3EF JUMP JUMPDEST DUP2 EQ PUSH3 0x410 JUMPI PUSH1 0x0 DUP1 REVERT JUMPDEST POP JUMP JUMPDEST PUSH1 0x0 DUP2 MLOAD SWAP1 POP PUSH3 0x424 DUP2 PUSH3 0x3F9 JUMP JUMPDEST SWAP3 SWAP2 POP POP JUMP JUMPDEST PUSH1 0x0 PUSH20 0xFFFFFFFFFFFFFFFFFFFFFFFFFFFFFFFFFFFFFFFF DUP3 AND SWAP1 POP SWAP2 SWAP1 POP JUMP JUMPDEST PUSH1 0x0 PUSH3 0x457 DUP3 PUSH3 0x42A JUMP JUMPDEST SWAP1 POP SWAP2 SWAP1 POP JUMP JUMPDEST PUSH3 0x469 DUP2 PUSH3 0x44A JUMP JUMPDEST DUP2 EQ PUSH3 0x475 JUMPI PUSH1 0x0 DUP1 REVERT JUMPDEST POP JUMP JUMPDEST PUSH1 0x0 DUP2 MLOAD SWAP1 POP PUSH3 0x489 DUP2 PUSH3 0x45E JUMP JUMPDEST SWAP3 SWAP2 POP POP JUMP JUMPDEST PUSH1 0x0 DUP2 SWAP1 POP SWAP2 SWAP1 POP JUMP JUMPDEST PUSH3 0x4A4 DUP2 PUSH3 0x48F JUMP JUMPDEST DUP2 EQ PUSH3 0x4B0 JUMPI PUSH1 0x0 DUP1 REVERT JUMPDEST POP JUMP JUMPDEST PUSH1 0x0 DUP2 MLOAD SWAP1 POP PUSH3 0x4C4 DUP2 PUSH3 0x499 JUMP JUMPDEST SWAP3 SWAP2 POP POP JUMP JUMPDEST PUSH1 0x0 DUP1 PUSH1 0x0 DUP1 PUSH1 0x0 DUP1 PUSH1 0xC0 DUP8 DUP10 SUB SLT ISZERO PUSH3 0x4EA JUMPI PUSH3 0x4E9 PUSH3 0x3EA JUMP JUMPDEST JUMPDEST PUSH1 0x0 PUSH3 0x4FA DUP10 DUP3 DUP11 ADD PUSH3 0x413 JUMP JUMPDEST SWAP7 POP POP PUSH1 0x20 PUSH3 0x50D DUP10 DUP3 DUP11 ADD PUSH3 0x478 JUMP JUMPDEST SWAP6 POP POP PUSH1 0x40 PUSH3 0x520 DUP10 DUP3 DUP11 ADD PUSH3 0x4B3 JUMP JUMPDEST SWAP5 POP POP PUSH1 0x60 PUSH3 0x533 DUP10 DUP3 DUP11 ADD PUSH3 0x413 JUMP JUMPDEST SWAP4 POP POP PUSH1 0x80 PUSH3 0x546 DUP10 DUP3 DUP11 ADD PUSH3 0x413 JUMP JUMPDEST SWAP3 POP POP PUSH1 0xA0 PUSH3 0x559 DUP10 DUP3 DUP11 ADD PUSH3 0x413 JUMP JUMPDEST SWAP2 POP POP SWAP3 SWAP6 POP SWAP3 SWAP6 POP SWAP3 SWAP6 JUMP JUMPDEST PUSH1 0x0 DUP3 DUP3 MSTORE PUSH1 0x20 DUP3 ADD SWAP1 POP SWAP3 SWAP2 POP POP JUMP JUMPDEST PUSH32 0x43616E6E6F7420736574206F776E657220746F207A65726F0000000000000000 PUSH1 0x0 DUP3 ADD MSTORE POP JUMP JUMPDEST PUSH1 0x0 PUSH3 0x5AF PUSH1 0x18 DUP4 PUSH3 0x566 JUMP JUMPDEST SWAP2 POP PUSH3 0x5BC DUP3 PUSH3 0x577 JUMP JUMPDEST PUSH1 0x20 DUP3 ADD SWAP1 POP SWAP2 SWAP1 POP JUMP JUMPDEST PUSH1 0x0 PUSH1 0x20 DUP3 ADD SWAP1 POP DUP2 DUP2 SUB PUSH1 0x0 DUP4 ADD MSTORE PUSH3 0x5E2 DUP2 PUSH3 0x5A0 JUMP JUMPDEST SWAP1 POP SWAP2 SWAP1 POP JUMP JUMPDEST PUSH32 0x43616E6E6F74207472616E7366657220746F2073656C66000000000000000000 PUSH1 0x0 DUP3 ADD MSTORE POP JUMP JUMPDEST PUSH1 0x0 PUSH3 0x621 PUSH1 0x17 DUP4 PUSH3 0x566 JUMP JUMPDEST SWAP2 POP PUSH3 0x62E DUP3 PUSH3 0x5E9 JUMP JUMPDEST PUSH1 0x20 DUP3 ADD SWAP1 POP SWAP2 SWAP1 POP JUMP JUMPDEST PUSH1 0x0 PUSH1 0x20 DUP3 ADD SWAP1 POP DUP2 DUP2 SUB PUSH1 0x0 DUP4 ADD MSTORE PUSH3 0x654 DUP2 PUSH3 0x612 JUMP JUMPDEST SWAP1 POP SWAP2 SWAP1 POP JUMP JUMPDEST PUSH2 0x2628 DUP1 PUSH3 0x66B PUSH1 0x0 CODECOPY PUSH1 0x0 RETURN INVALID PUSH1 0x80 PUSH1 0x40 MSTORE PUSH1 0x4 CALLDATASIZE LT PUSH2 0x1C2 JUMPI PUSH1 0x0 CALLDATALOAD PUSH1 0xE0 SHR DUP1 PUSH4 0x8EA98117 GT PUSH2 0xF7 JUMPI DUP1 PUSH4 0xDBA6335F GT PUSH2 0x95 JUMPI DUP1 PUSH4 0xF6D361CC GT PUSH2 0x64 JUMPI DUP1 PUSH4 0xF6D361CC EQ PUSH2 0x5DC JUMPI DUP1 PUSH4 0xF71D96CB EQ PUSH2 0x607 JUMPI DUP1 PUSH4 0xF9A6CEC7 EQ PUSH2 0x644 JUMPI DUP1 PUSH4 0xFC2A88C3 EQ PUSH2 0x66D JUMPI PUSH2 0x1C2 JUMP JUMPDEST DUP1 PUSH4 0xDBA6335F EQ PUSH2 0x546 JUMPI DUP1 PUSH4 0xE580F47B EQ PUSH2 0x571 JUMPI DUP1 PUSH4 0xF2FDE38B EQ PUSH2 0x59C JUMPI DUP1 PUSH4 0xF3D7323B EQ PUSH2 0x5C5 JUMPI PUSH2 0x1C2 JUMP JUMPDEST DUP1 PUSH4 0x9ECCACF6 GT PUSH2 0xD1 JUMPI DUP1 PUSH4 0x9ECCACF6 EQ PUSH2 0x48A JUMPI DUP1 PUSH4 0xB0FB162F EQ PUSH2 0x4B5 JUMPI DUP1 PUSH4 0xD0F07926 EQ PUSH2 0x4E0 JUMPI DUP1 PUSH4 0xD7A1A5B9 EQ PUSH2 0x509 JUMPI PUSH2 0x1C2 JUMP JUMPDEST DUP1 PUSH4 0x8EA98117 EQ PUSH2 0x40D JUMPI DUP1 PUSH4 0x8F4FAFC8 EQ PUSH2 0x436 JUMPI DUP1 PUSH4 0x947A36FB EQ PUSH2 0x45F JUMPI PUSH2 0x1C2 JUMP JUMPDEST DUP1 PUSH4 0x61728F39 GT PUSH2 0x164 JUMPI DUP1 PUSH4 0x7CCFD7FC GT PUSH2 0x13E JUMPI DUP1 PUSH4 0x7CCFD7FC EQ PUSH2 0x361 JUMPI DUP1 PUSH4 0x8AC00021 EQ PUSH2 0x38C JUMPI DUP1 PUSH4 0x8B5B9CCC EQ PUSH2 0x3B7 JUMPI DUP1 PUSH4 0x8DA5CB5B EQ PUSH2 0x3E2 JUMPI PUSH2 0x1C2 JUMP JUMPDEST DUP1 PUSH4 0x61728F39 EQ PUSH2 0x2E1 JUMPI DUP1 PUSH4 0x6E04FF0D EQ PUSH2 0x30C JUMPI DUP1 PUSH4 0x79BA5097 EQ PUSH2 0x34A JUMPI PUSH2 0x1C2 JUMP JUMPDEST DUP1 PUSH4 0x3AD202B5 GT PUSH2 0x1A0 JUMPI DUP1 PUSH4 0x3AD202B5 EQ PUSH2 0x246 JUMPI DUP1 PUSH4 0x3F3B3B27 EQ PUSH2 0x271 JUMPI DUP1 PUSH4 0x3FD43098 EQ PUSH2 0x29C JUMPI DUP1 PUSH4 0x4585E33B EQ PUSH2 0x2B8 JUMPI PUSH2 0x1C2 JUMP JUMPDEST DUP1 PUSH4 0x1FE543E3 EQ PUSH2 0x1C7 JUMPI DUP1 PUSH4 0x24F74697 EQ PUSH2 0x1F0 JUMPI DUP1 PUSH4 0x2770C895 EQ PUSH2 0x21B JUMPI JUMPDEST PUSH1 0x0 DUP1 REVERT JUMPDEST CALLVALUE DUP1 ISZERO PUSH2 0x1D3 JUMPI PUSH1 0x0 DUP1 REVERT JUMPDEST POP PUSH2 0x1EE PUSH1 0x4 DUP1 CALLDATASIZE SUB DUP2 ADD SWAP1 PUSH2 0x1E9 SWAP2 SWAP1 PUSH2 0x1931 JUMP JUMPDEST PUSH2 0x698 JUMP JUMPDEST STOP JUMPDEST CALLVALUE DUP1 ISZERO PUSH2 0x1FC JUMPI PUSH1 0x0 DUP1 REVERT JUMPDEST POP PUSH2 0x205 PUSH2 0x75E JUMP JUMPDEST PUSH1 0x40 MLOAD PUSH2 0x212 SWAP2 SWAP1 PUSH2 0x19B0 JUMP JUMPDEST PUSH1 0x40 MLOAD DUP1 SWAP2 SUB SWAP1 RETURN JUMPDEST CALLVALUE DUP1 ISZERO PUSH2 0x227 JUMPI PUSH1 0x0 DUP1 REVERT JUMPDEST POP PUSH2 0x230 PUSH2 0x774 JUMP JUMPDEST PUSH1 0x40 MLOAD PUSH2 0x23D SWAP2 SWAP1 PUSH2 0x19DA JUMP JUMPDEST PUSH1 0x40 MLOAD DUP1 SWAP2 SUB SWAP1 RETURN JUMPDEST CALLVALUE DUP1 ISZERO PUSH2 0x252 JUMPI PUSH1 0x0 DUP1 REVERT JUMPDEST POP PUSH2 0x25B PUSH2 0x77A JUMP JUMPDEST PUSH1 0x40 MLOAD PUSH2 0x268 SWAP2 SWAP1 PUSH2 0x19DA JUMP JUMPDEST PUSH1 0x40 MLOAD DUP1 SWAP2 SUB SWAP1 RETURN JUMPDEST CALLVALUE DUP1 ISZERO PUSH2 0x27D JUMPI PUSH1 0x0 DUP1 REVERT JUMPDEST POP PUSH2 0x286 PUSH2 0x780 JUMP JUMPDEST PUSH1 0x40 MLOAD PUSH2 0x293 SWAP2 SWAP1 PUSH2 0x19DA JUMP JUMPDEST PUSH1 0x40 MLOAD DUP1 SWAP2 SUB SWAP1 RETURN JUMPDEST PUSH2 0x2B6 PUSH1 0x4 DUP1 CALLDATASIZE SUB DUP2 ADD SWAP1 PUSH2 0x2B1 SWAP2 SWAP1 PUSH2 0x19F5 JUMP JUMPDEST PUSH2 0x786 JUMP JUMPDEST STOP JUMPDEST CALLVALUE DUP1 ISZERO PUSH2 0x2C4 JUMPI PUSH1 0x0 DUP1 REVERT JUMPDEST POP PUSH2 0x2DF PUSH1 0x4 DUP1 CALLDATASIZE SUB DUP2 ADD SWAP1 PUSH2 0x2DA SWAP2 SWAP1 PUSH2 0x1A78 JUMP JUMPDEST PUSH2 0x8F1 JUMP JUMPDEST STOP JUMPDEST CALLVALUE DUP1 ISZERO PUSH2 0x2ED JUMPI PUSH1 0x0 DUP1 REVERT JUMPDEST POP PUSH2 0x2F6 PUSH2 0x958 JUMP JUMPDEST PUSH1 0x40 MLOAD PUSH2 0x303 SWAP2 SWAP1 PUSH2 0x1ADE JUMP JUMPDEST PUSH1 0x40 MLOAD DUP1 SWAP2 SUB SWAP1 RETURN JUMPDEST CALLVALUE DUP1 ISZERO PUSH2 0x318 JUMPI PUSH1 0x0 DUP1 REVERT JUMPDEST POP PUSH2 0x333 PUSH1 0x4 DUP1 CALLDATASIZE SUB DUP2 ADD SWAP1 PUSH2 0x32E SWAP2 SWAP1 PUSH2 0x1A78 JUMP JUMPDEST PUSH2 0x95E JUMP JUMPDEST PUSH1 0x40 MLOAD PUSH2 0x341 SWAP3 SWAP2 SWAP1 PUSH2 0x1BA4 JUMP JUMPDEST PUSH1 0x40 MLOAD DUP1 SWAP2 SUB SWAP1 RETURN JUMPDEST CALLVALUE DUP1 ISZERO PUSH2 0x356 JUMPI PUSH1 0x0 DUP1 REVERT JUMPDEST POP PUSH2 0x35F PUSH2 0x9D2 JUMP JUMPDEST STOP JUMPDEST CALLVALUE DUP1 ISZERO PUSH2 0x36D JUMPI PUSH1 0x0 DUP1 REVERT JUMPDEST POP PUSH2 0x376 PUSH2 0xB67 JUMP JUMPDEST PUSH1 0x40 MLOAD PUSH2 0x383 SWAP2 SWAP1 PUSH2 0x19B0 JUMP JUMPDEST PUSH1 0x40 MLOAD DUP1 SWAP2 SUB SWAP1 RETURN JUMPDEST CALLVALUE DUP1 ISZERO PUSH2 0x398 JUMPI PUSH1 0x0 DUP1 REVERT JUMPDEST POP PUSH2 0x3A1 PUSH2 0xB7D JUMP JUMPDEST PUSH1 0x40 MLOAD PUSH2 0x3AE SWAP2 SWAP1 PUSH2 0x19DA JUMP JUMPDEST PUSH1 0x40 MLOAD DUP1 SWAP2 SUB SWAP1 RETURN JUMPDEST CALLVALUE DUP1 ISZERO PUSH2 0x3C3 JUMPI PUSH1 0x0 DUP1 REVERT JUMPDEST POP PUSH2 0x3CC PUSH2 0xB83 JUMP JUMPDEST PUSH1 0x40 MLOAD PUSH2 0x3D9 SWAP2 SWAP1 PUSH2 0x1CC4 JUMP JUMPDEST PUSH1 0x40 MLOAD DUP1 SWAP2 SUB SWAP1 RETURN JUMPDEST CALLVALUE DUP1 ISZERO PUSH2 0x3EE JUMPI PUSH1 0x0 DUP1 REVERT JUMPDEST POP PUSH2 0x3F7 PUSH2 0xC11 JUMP JUMPDEST PUSH1 0x40 MLOAD PUSH2 0x404 SWAP2 SWAP1 PUSH2 0x1D07 JUMP JUMPDEST PUSH1 0x40 MLOAD DUP1 SWAP2 SUB SWAP1 RETURN JUMPDEST CALLVALUE DUP1 ISZERO PUSH2 0x419 JUMPI PUSH1 0x0 DUP1 REVERT JUMPDEST POP PUSH2 0x434 PUSH1 0x4 DUP1 CALLDATASIZE SUB DUP2 ADD SWAP1 PUSH2 0x42F SWAP2 SWAP1 PUSH2 0x1D4E JUMP JUMPDEST PUSH2 0xC3A JUMP JUMPDEST STOP JUMPDEST CALLVALUE DUP1 ISZERO PUSH2 0x442 JUMPI PUSH1 0x0 DUP1 REVERT JUMPDEST POP PUSH2 0x45D PUSH1 0x4 DUP1 CALLDATASIZE SUB DUP2 ADD SWAP1 PUSH2 0x458 SWAP2 SWAP1 PUSH2 0x19F5 JUMP JUMPDEST PUSH2 0xE1B JUMP JUMPDEST STOP JUMPDEST CALLVALUE DUP1 ISZERO PUSH2 0x46B JUMPI PUSH1 0x0 DUP1 REVERT JUMPDEST POP PUSH2 0x474 PUSH2 0xEB5 JUMP JUMPDEST PUSH1 0x40 MLOAD PUSH2 0x481 SWAP2 SWAP1 PUSH2 0x19DA JUMP JUMPDEST PUSH1 0x40 MLOAD DUP1 SWAP2 SUB SWAP1 RETURN JUMPDEST CALLVALUE DUP1 ISZERO PUSH2 0x496 JUMPI PUSH1 0x0 DUP1 REVERT JUMPDEST POP PUSH2 0x49F PUSH2 0xEBB JUMP JUMPDEST PUSH1 0x40 MLOAD PUSH2 0x4AC SWAP2 SWAP1 PUSH2 0x1DDA JUMP JUMPDEST PUSH1 0x40 MLOAD DUP1 SWAP2 SUB SWAP1 RETURN JUMPDEST CALLVALUE DUP1 ISZERO PUSH2 0x4C1 JUMPI PUSH1 0x0 DUP1 REVERT JUMPDEST POP PUSH2 0x4CA PUSH2 0xEE1 JUMP JUMPDEST PUSH1 0x40 MLOAD PUSH2 0x4D7 SWAP2 SWAP1 PUSH2 0x1E12 JUMP JUMPDEST PUSH1 0x40 MLOAD DUP1 SWAP2 SUB SWAP1 RETURN JUMPDEST CALLVALUE DUP1 ISZERO PUSH2 0x4EC JUMPI PUSH1 0x0 DUP1 REVERT JUMPDEST POP PUSH2 0x507 PUSH1 0x4 DUP1 CALLDATASIZE SUB DUP2 ADD SWAP1 PUSH2 0x502 SWAP2 SWAP1 PUSH2 0x19F5 JUMP JUMPDEST PUSH2 0xEF5 JUMP JUMPDEST STOP JUMPDEST CALLVALUE DUP1 ISZERO PUSH2 0x515 JUMPI PUSH1 0x0 DUP1 REVERT JUMPDEST POP PUSH2 0x530 PUSH1 0x4 DUP1 CALLDATASIZE SUB DUP2 ADD SWAP1 PUSH2 0x52B SWAP2 SWAP1 PUSH2 0x19F5 JUMP JUMPDEST PUSH2 0xF8F JUMP JUMPDEST PUSH1 0x40 MLOAD PUSH2 0x53D SWAP2 SWAP1 PUSH2 0x1E3C JUMP JUMPDEST PUSH1 0x40 MLOAD DUP1 SWAP2 SUB SWAP1 RETURN JUMPDEST CALLVALUE DUP1 ISZERO PUSH2 0x552 JUMPI PUSH1 0x0 DUP1 REVERT JUMPDEST POP PUSH2 0x55B PUSH2 0xFC2 JUMP JUMPDEST PUSH1 0x40 MLOAD PUSH2 0x568 SWAP2 SWAP1 PUSH2 0x1D07 JUMP JUMPDEST PUSH1 0x40 MLOAD DUP1 SWAP2 SUB SWAP1 RETURN JUMPDEST CALLVALUE DUP1 ISZERO PUSH2 0x57D JUMPI PUSH1 0x0 DUP1 REVERT JUMPDEST POP PUSH2 0x586 PUSH2 0xFE8 JUMP JUMPDEST PUSH1 0x40 MLOAD PUSH2 0x593 SWAP2 SWAP1 PUSH2 0x19DA JUMP JUMPDEST PUSH1 0x40 MLOAD DUP1 SWAP2 SUB SWAP1 RETURN JUMPDEST CALLVALUE DUP1 ISZERO PUSH2 0x5A8 JUMPI PUSH1 0x0 DUP1 REVERT JUMPDEST POP PUSH2 0x5C3 PUSH1 0x4 DUP1 CALLDATASIZE SUB DUP2 ADD SWAP1 PUSH2 0x5BE SWAP2 SWAP1 PUSH2 0x1D4E JUMP JUMPDEST PUSH2 0xFEE JUMP JUMPDEST STOP JUMPDEST CALLVALUE DUP1 ISZERO PUSH2 0x5D1 JUMPI PUSH1 0x0 DUP1 REVERT JUMPDEST POP PUSH2 0x5DA PUSH2 0x1002 JUMP JUMPDEST STOP JUMPDEST CALLVALUE DUP1 ISZERO PUSH2 0x5E8 JUMPI PUSH1 0x0 DUP1 REVERT JUMPDEST POP PUSH2 0x5F1 PUSH2 0x10E4 JUMP JUMPDEST PUSH1 0x40 MLOAD PUSH2 0x5FE SWAP2 SWAP1 PUSH2 0x19DA JUMP JUMPDEST PUSH1 0x40 MLOAD DUP1 SWAP2 SUB SWAP1 RETURN JUMPDEST CALLVALUE DUP1 ISZERO PUSH2 0x613 JUMPI PUSH1 0x0 DUP1 REVERT JUMPDEST POP PUSH2 0x62E PUSH1 0x4 DUP1 CALLDATASIZE SUB DUP2 ADD SWAP1 PUSH2 0x629 SWAP2 SWAP1 PUSH2 0x19F5 JUMP JUMPDEST PUSH2 0x10F0 JUMP JUMPDEST PUSH1 0x40 MLOAD PUSH2 0x63B SWAP2 SWAP1 PUSH2 0x1E3C JUMP JUMPDEST PUSH1 0x40 MLOAD DUP1 SWAP2 SUB SWAP1 RETURN JUMPDEST CALLVALUE DUP1 ISZERO PUSH2 0x650 JUMPI PUSH1 0x0 DUP1 REVERT JUMPDEST POP PUSH2 0x66B PUSH1 0x4 DUP1 CALLDATASIZE SUB DUP2 ADD SWAP1 PUSH2 0x666 SWAP2 SWAP1 PUSH2 0x19F5 JUMP JUMPDEST PUSH2 0x112F JUMP JUMPDEST STOP JUMPDEST CALLVALUE DUP1 ISZERO PUSH2 0x679 JUMPI PUSH1 0x0 DUP1 REVERT JUMPDEST POP PUSH2 0x682 PUSH2 0x11C9 JUMP JUMPDEST PUSH1 0x40 MLOAD PUSH2 0x68F SWAP2 SWAP1 PUSH2 0x19DA JUMP JUMPDEST PUSH1 0x40 MLOAD DUP1 SWAP2 SUB SWAP1 RETURN JUMPDEST PUSH1 0x2 PUSH1 0x0 SWAP1 SLOAD SWAP1 PUSH2 0x100 EXP SWAP1 DIV PUSH20 0xFFFFFFFFFFFFFFFFFFFFFFFFFFFFFFFFFFFFFFFF AND PUSH20 0xFFFFFFFFFFFFFFFFFFFFFFFFFFFFFFFFFFFFFFFF AND CALLER PUSH20 0xFFFFFFFFFFFFFFFFFFFFFFFFFFFFFFFFFFFFFFFF AND EQ PUSH2 0x74E JUMPI CALLER PUSH1 0x2 PUSH1 0x0 SWAP1 SLOAD SWAP1 PUSH2 0x100 EXP SWAP1 DIV PUSH20 0xFFFFFFFFFFFFFFFFFFFFFFFFFFFFFFFFFFFFFFFF AND PUSH1 0x40 MLOAD PUSH32 0x1CF993F400000000000000000000000000000000000000000000000000000000 DUP2 MSTORE PUSH1 0x4 ADD PUSH2 0x745 SWAP3 SWAP2 SWAP1 PUSH2 0x1E57 JUMP JUMPDEST PUSH1 0x40 MLOAD DUP1 SWAP2 SUB SWAP1 REVERT JUMPDEST PUSH2 0x759 DUP4 DUP4 DUP4 PUSH2 0x11CF JUMP JUMPDEST POP POP POP JUMP JUMPDEST PUSH1 0x9 PUSH1 0x0 SWAP1 SLOAD SWAP1 PUSH2 0x100 EXP SWAP1 DIV PUSH4 0xFFFFFFFF AND DUP2 JUMP JUMPDEST PUSH1 0xD SLOAD DUP2 JUMP JUMPDEST PUSH1 0xE SLOAD DUP2 JUMP JUMPDEST PUSH1 0xC SLOAD DUP2 JUMP JUMPDEST PUSH1 0x0 DUP2 GT PUSH2 0x7C9 JUMPI PUSH1 0x40 MLOAD PUSH32 0x8C379A000000000000000000000000000000000000000000000000000000000 DUP2 MSTORE PUSH1 0x4 ADD PUSH2 0x7C0 SWAP1 PUSH2 0x1EDD JUMP JUMPDEST PUSH1 0x40 MLOAD DUP1 SWAP2 SUB SWAP1 REVERT JUMPDEST DUP1 PUSH8 0x16345785D8A0000 PUSH2 0x7DD SWAP2 SWAP1 PUSH2 0x1F2C JUMP JUMPDEST CALLVALUE EQ PUSH2 0x81E JUMPI PUSH1 0x40 MLOAD PUSH32 0x8C379A000000000000000000000000000000000000000000000000000000000 DUP2 MSTORE PUSH1 0x4 ADD PUSH2 0x815 SWAP1 PUSH2 0x1FBA JUMP JUMPDEST PUSH1 0x40 MLOAD DUP1 SWAP2 SUB SWAP1 REVERT JUMPDEST PUSH1 0x0 JUMPDEST DUP2 DUP2 LT ISZERO PUSH2 0x89F JUMPI PUSH1 0x4 CALLER SWAP1 DUP1 PUSH1 0x1 DUP2 SLOAD ADD DUP1 DUP3 SSTORE DUP1 SWAP2 POP POP PUSH1 0x1 SWAP1 SUB SWAP1 PUSH1 0x0 MSTORE PUSH1 0x20 PUSH1 0x0 KECCAK256 ADD PUSH1 0x0 SWAP1 SWAP2 SWAP1 SWAP2 SWAP1 SWAP2 PUSH2 0x100 EXP DUP2 SLOAD DUP2 PUSH20 0xFFFFFFFFFFFFFFFFFFFFFFFFFFFFFFFFFFFFFFFF MUL NOT AND SWAP1 DUP4 PUSH20 0xFFFFFFFFFFFFFFFFFFFFFFFFFFFFFFFFFFFFFFFF AND MUL OR SWAP1 SSTORE POP DUP1 DUP1 PUSH2 0x897 SWAP1 PUSH2 0x1FDA JUMP JUMPDEST SWAP2 POP POP PUSH2 0x821 JUMP JUMPDEST POP CALLER PUSH20 0xFFFFFFFFFFFFFFFFFFFFFFFFFFFFFFFFFFFFFFFF AND PUSH32 0x668F5B446EB814FE35B3206F43F14BD8567BA04DDAF7A3EE56516929AB22CCB DUP3 PUSH1 0x40 MLOAD PUSH2 0x8E6 SWAP2 SWAP1 PUSH2 0x19DA JUMP JUMPDEST PUSH1 0x40 MLOAD DUP1 SWAP2 SUB SWAP1 LOG2 POP JUMP JUMPDEST PUSH1 0x0 PUSH1 0xB SLOAD PUSH1 0xC SLOAD TIMESTAMP PUSH2 0x904 SWAP2 SWAP1 PUSH2 0x2022 JUMP JUMPDEST LT ISZERO SWAP1 POP PUSH1 0x0 PUSH1 0xD SLOAD PUSH1 0x4 DUP1 SLOAD SWAP1 POP LT ISZERO SWAP1 POP PUSH1 0x0 PUSH1 0xE SLOAD SELFBALANCE LT ISZERO SWAP1 POP DUP3 DUP1 PUSH2 0x92A JUMPI POP DUP2 JUMPDEST DUP1 PUSH2 0x932 JUMPI POP DUP1 JUMPDEST DUP1 ISZERO PUSH2 0x943 JUMPI POP PUSH1 0x0 PUSH1 0x4 DUP1 SLOAD SWAP1 POP GT JUMPDEST ISZERO PUSH2 0x951 JUMPI PUSH2 0x950 PUSH2 0x148E JUMP JUMPDEST JUMPDEST POP POP POP POP POP JUMP JUMPDEST PUSH1 0x8 SLOAD DUP2 JUMP JUMPDEST PUSH1 0x0 PUSH1 0x60 PUSH1 0x0 PUSH1 0xB SLOAD PUSH1 0xC SLOAD TIMESTAMP PUSH2 0x975 SWAP2 SWAP1 PUSH2 0x2022 JUMP JUMPDEST LT ISZERO SWAP1 POP PUSH1 0x0 PUSH1 0xD SLOAD PUSH1 0x4 DUP1 SLOAD SWAP1 POP LT ISZERO SWAP1 POP PUSH1 0x0 PUSH1 0xE SLOAD SELFBALANCE LT ISZERO SWAP1 POP DUP3 DUP1 PUSH2 0x99B JUMPI POP DUP2 JUMPDEST DUP1 PUSH2 0x9A3 JUMPI POP DUP1 JUMPDEST DUP1 ISZERO PUSH2 0x9B4 JUMPI POP PUSH1 0x0 PUSH1 0x4 DUP1 SLOAD SWAP1 POP GT JUMPDEST SWAP5 POP PUSH1 0x40 MLOAD DUP1 PUSH1 0x20 ADD PUSH1 0x40 MSTORE DUP1 PUSH1 0x0 DUP2 MSTORE POP SWAP4 POP POP POP POP SWAP3 POP SWAP3 SWAP1 POP JUMP JUMPDEST PUSH1 0x1 PUSH1 0x0 SWAP1 SLOAD SWAP1 PUSH2 0x100 EXP SWAP1 DIV PUSH20 0xFFFFFFFFFFFFFFFFFFFFFFFFFFFFFFFFFFFFFFFF AND PUSH20 0xFFFFFFFFFFFFFFFFFFFFFFFFFFFFFFFFFFFFFFFF AND CALLER PUSH20 0xFFFFFFFFFFFFFFFFFFFFFFFFFFFFFFFFFFFFFFFF AND EQ PUSH2 0xA62 JUMPI PUSH1 0x40 MLOAD PUSH32 0x8C379A000000000000000000000000000000000000000000000000000000000 DUP2 MSTORE PUSH1 0x4 ADD PUSH2 0xA59 SWAP1 PUSH2 0x20A2 JUMP JUMPDEST PUSH1 0x40 MLOAD DUP1 SWAP2 SUB SWAP1 REVERT JUMPDEST PUSH1 0x0 DUP1 PUSH1 0x0 SWAP1 SLOAD SWAP1 PUSH2 0x100 EXP SWAP1 DIV PUSH20 0xFFFFFFFFFFFFFFFFFFFFFFFFFFFFFFFFFFFFFFFF AND SWAP1 POP CALLER PUSH1 0x0 DUP1 PUSH2 0x100 EXP DUP2 SLOAD DUP2 PUSH20 0xFFFFFFFFFFFFFFFFFFFFFFFFFFFFFFFFFFFFFFFF MUL NOT AND SWAP1 DUP4 PUSH20 0xFFFFFFFFFFFFFFFFFFFFFFFFFFFFFFFFFFFFFFFF AND MUL OR SWAP1 SSTORE POP PUSH1 0x0 PUSH1 0x1 PUSH1 0x0 PUSH2 0x100 EXP DUP2 SLOAD DUP2 PUSH20 0xFFFFFFFFFFFFFFFFFFFFFFFFFFFFFFFFFFFFFFFF MUL NOT AND SWAP1 DUP4 PUSH20 0xFFFFFFFFFFFFFFFFFFFFFFFFFFFFFFFFFFFFFFFF AND MUL OR SWAP1 SSTORE POP CALLER PUSH20 0xFFFFFFFFFFFFFFFFFFFFFFFFFFFFFFFFFFFFFFFF AND DUP2 PUSH20 0xFFFFFFFFFFFFFFFFFFFFFFFFFFFFFFFFFFFFFFFF AND PUSH32 0x8BE0079C531659141344CD1FD0A4F28419497F9722A3DAAFE3B4186F6B6457E0 PUSH1 0x40 MLOAD PUSH1 0x40 MLOAD DUP1 SWAP2 SUB SWAP1 LOG3 POP JUMP JUMPDEST PUSH1 0x9 PUSH1 0x6 SWAP1 SLOAD SWAP1 PUSH2 0x100 EXP SWAP1 DIV PUSH4 0xFFFFFFFF AND DUP2 JUMP JUMPDEST PUSH1 0x7 SLOAD DUP2 JUMP JUMPDEST PUSH1 0x60 PUSH1 0x4 DUP1 SLOAD DUP1 PUSH1 0x20 MUL PUSH1 0x20 ADD PUSH1 0x40 MLOAD SWAP1 DUP2 ADD PUSH1 0x40 MSTORE DUP1 SWAP3 SWAP2 SWAP1 DUP2 DUP2 MSTORE PUSH1 0x20 ADD DUP3 DUP1 SLOAD DUP1 ISZERO PUSH2 0xC07 JUMPI PUSH1 0x20 MUL DUP3 ADD SWAP2 SWAP1 PUSH1 0x0 MSTORE PUSH1 0x20 PUSH1 0x0 KECCAK256 SWAP1 JUMPDEST DUP2 PUSH1 0x0 SWAP1 SLOAD SWAP1 PUSH2 0x100 EXP SWAP1 DIV PUSH20 0xFFFFFFFFFFFFFFFFFFFFFFFFFFFFFFFFFFFFFFFF AND PUSH20 0xFFFFFFFFFFFFFFFFFFFFFFFFFFFFFFFFFFFFFFFF AND DUP2 MSTORE PUSH1 0x20 ADD SWAP1 PUSH1 0x1 ADD SWAP1 DUP1 DUP4 GT PUSH2 0xBBD JUMPI JUMPDEST POP POP POP POP POP SWAP1 POP SWAP1 JUMP JUMPDEST PUSH1 0x0 DUP1 PUSH1 0x0 SWAP1 SLOAD SWAP1 PUSH2 0x100 EXP SWAP1 DIV PUSH20 0xFFFFFFFFFFFFFFFFFFFFFFFFFFFFFFFFFFFFFFFF AND SWAP1 POP SWAP1 JUMP JUMPDEST PUSH2 0xC42 PUSH2 0xC11 JUMP JUMPDEST PUSH20 0xFFFFFFFFFFFFFFFFFFFFFFFFFFFFFFFFFFFFFFFF AND CALLER PUSH20 0xFFFFFFFFFFFFFFFFFFFFFFFFFFFFFFFFFFFFFFFF AND EQ ISZERO DUP1 ISZERO PUSH2 0xCCB JUMPI POP PUSH1 0x2 PUSH1 0x0 SWAP1 SLOAD SWAP1 PUSH2 0x100 EXP SWAP1 DIV PUSH20 0xFFFFFFFFFFFFFFFFFFFFFFFFFFFFFFFFFFFFFFFF AND PUSH20 0xFFFFFFFFFFFFFFFFFFFFFFFFFFFFFFFFFFFFFFFF AND CALLER PUSH20 0xFFFFFFFFFFFFFFFFFFFFFFFFFFFFFFFFFFFFFFFF AND EQ ISZERO JUMPDEST ISZERO PUSH2 0xD3A JUMPI CALLER PUSH2 0xCD9 PUSH2 0xC11 JUMP JUMPDEST PUSH1 0x2 PUSH1 0x0 SWAP1 SLOAD SWAP1 PUSH2 0x100 EXP SWAP1 DIV PUSH20 0xFFFFFFFFFFFFFFFFFFFFFFFFFFFFFFFFFFFFFFFF AND PUSH1 0x40 MLOAD PUSH32 0x61DB9C100000000000000000000000000000000000000000000000000000000 DUP2 MSTORE PUSH1 0x4 ADD PUSH2 0xD31 SWAP4 SWAP3 SWAP2 SWAP1 PUSH2 0x20C2 JUMP JUMPDEST PUSH1 0x40 MLOAD DUP1 SWAP2 SUB SWAP1 REVERT JUMPDEST PUSH1 0x0 PUSH20 0xFFFFFFFFFFFFFFFFFFFFFFFFFFFFFFFFFFFFFFFF AND DUP2 PUSH20 0xFFFFFFFFFFFFFFFFFFFFFFFFFFFFFFFFFFFFFFFF AND SUB PUSH2 0xDA0 JUMPI PUSH1 0x40 MLOAD PUSH32 0xD92E233D00000000000000000000000000000000000000000000000000000000 DUP2 MSTORE PUSH1 0x4 ADD PUSH1 0x40 MLOAD DUP1 SWAP2 SUB SWAP1 REVERT JUMPDEST DUP1 PUSH1 0x2 PUSH1 0x0 PUSH2 0x100 EXP DUP2 SLOAD DUP2 PUSH20 0xFFFFFFFFFFFFFFFFFFFFFFFFFFFFFFFFFFFFFFFF MUL NOT AND SWAP1 DUP4 PUSH20 0xFFFFFFFFFFFFFFFFFFFFFFFFFFFFFFFFFFFFFFFF AND MUL OR SWAP1 SSTORE POP PUSH32 0xD1A6A14209A385A964D036E404CB5CFB71F4000CDB03C9366292430787261BE6 DUP2 PUSH1 0x40 MLOAD PUSH2 0xE10 SWAP2 SWAP1 PUSH2 0x1D07 JUMP JUMPDEST PUSH1 0x40 MLOAD DUP1 SWAP2 SUB SWAP1 LOG1 POP JUMP JUMPDEST PUSH1 0x3 PUSH1 0x0 SWAP1 SLOAD SWAP1 PUSH2 0x100 EXP SWAP1 DIV PUSH20 0xFFFFFFFFFFFFFFFFFFFFFFFFFFFFFFFFFFFFFFFF AND PUSH20 0xFFFFFFFFFFFFFFFFFFFFFFFFFFFFFFFFFFFFFFFF AND CALLER PUSH20 0xFFFFFFFFFFFFFFFFFFFFFFFFFFFFFFFFFFFFFFFF AND EQ PUSH2 0xEAB JUMPI PUSH1 0x40 MLOAD PUSH32 0x8C379A000000000000000000000000000000000000000000000000000000000 DUP2 MSTORE PUSH1 0x4 ADD PUSH2 0xEA2 SWAP1 PUSH2 0x216B JUMP JUMPDEST PUSH1 0x40 MLOAD DUP1 SWAP2 SUB SWAP1 REVERT JUMPDEST DUP1 PUSH1 0xD DUP2 SWAP1 SSTORE POP POP JUMP JUMPDEST PUSH1 0xB SLOAD DUP2 JUMP JUMPDEST PUSH1 0x2 PUSH1 0x0 SWAP1 SLOAD SWAP1 PUSH2 0x100 EXP SWAP1 DIV PUSH20 0xFFFFFFFFFFFFFFFFFFFFFFFFFFFFFFFFFFFFFFFF AND DUP2 JUMP JUMPDEST PUSH1 0x9 PUSH1 0x4 SWAP1 SLOAD SWAP1 PUSH2 0x100 EXP SWAP1 DIV PUSH2 0xFFFF AND DUP2 JUMP JUMPDEST PUSH1 0x3 PUSH1 0x0 SWAP1 SLOAD SWAP1 PUSH2 0x100 EXP SWAP1 DIV PUSH20 0xFFFFFFFFFFFFFFFFFFFFFFFFFFFFFFFFFFFFFFFF AND PUSH20 0xFFFFFFFFFFFFFFFFFFFFFFFFFFFFFFFFFFFFFFFF AND CALLER PUSH20 0xFFFFFFFFFFFFFFFFFFFFFFFFFFFFFFFFFFFFFFFF AND EQ PUSH2 0xF85 JUMPI PUSH1 0x40 MLOAD PUSH32 0x8C379A000000000000000000000000000000000000000000000000000000000 DUP2 MSTORE PUSH1 0x4 ADD PUSH2 0xF7C SWAP1 PUSH2 0x216B JUMP JUMPDEST PUSH1 0x40 MLOAD DUP1 SWAP2 SUB SWAP1 REVERT JUMPDEST DUP1 PUSH1 0xB DUP2 SWAP1 SSTORE POP POP JUMP JUMPDEST PUSH1 0x6 PUSH1 0x20 MSTORE DUP1 PUSH1 0x0 MSTORE PUSH1 0x40 PUSH1 0x0 KECCAK256 PUSH1 0x0 SWAP2 POP SLOAD SWAP1 PUSH2 0x100 EXP SWAP1 DIV PUSH20 0xFFFFFFFFFFFFFFFFFFFFFFFFFFFFFFFFFFFFFFFF AND DUP2 JUMP JUMPDEST PUSH1 0x3 PUSH1 0x0 SWAP1 SLOAD SWAP1 PUSH2 0x100 EXP SWAP1 DIV PUSH20 0xFFFFFFFFFFFFFFFFFFFFFFFFFFFFFFFFFFFFFFFF AND DUP2 JUMP JUMPDEST PUSH1 0x5 SLOAD DUP2 JUMP JUMPDEST PUSH2 0xFF6 PUSH2 0x15FA JUMP JUMPDEST PUSH2 0xFFF DUP2 PUSH2 0x168A JUMP JUMPDEST POP JUMP JUMPDEST PUSH1 0x3 PUSH1 0x0 SWAP1 SLOAD SWAP1 PUSH2 0x100 EXP SWAP1 DIV PUSH20 0xFFFFFFFFFFFFFFFFFFFFFFFFFFFFFFFFFFFFFFFF AND PUSH20 0xFFFFFFFFFFFFFFFFFFFFFFFFFFFFFFFFFFFFFFFF AND CALLER PUSH20 0xFFFFFFFFFFFFFFFFFFFFFFFFFFFFFFFFFFFFFFFF AND EQ PUSH2 0x1092 JUMPI PUSH1 0x40 MLOAD PUSH32 0x8C379A000000000000000000000000000000000000000000000000000000000 DUP2 MSTORE PUSH1 0x4 ADD PUSH2 0x1089 SWAP1 PUSH2 0x216B JUMP JUMPDEST PUSH1 0x40 MLOAD DUP1 SWAP2 SUB SWAP1 REVERT JUMPDEST PUSH1 0x0 PUSH1 0x4 DUP1 SLOAD SWAP1 POP GT PUSH2 0x10DA JUMPI PUSH1 0x40 MLOAD PUSH32 0x8C379A000000000000000000000000000000000000000000000000000000000 DUP2 MSTORE PUSH1 0x4 ADD PUSH2 0x10D1 SWAP1 PUSH2 0x21D7 JUMP JUMPDEST PUSH1 0x40 MLOAD DUP1 SWAP2 SUB SWAP1 REVERT JUMPDEST PUSH2 0x10E2 PUSH2 0x148E JUMP JUMPDEST JUMP JUMPDEST PUSH8 0x16345785D8A0000 DUP2 JUMP JUMPDEST PUSH1 0x4 DUP2 DUP2 SLOAD DUP2 LT PUSH2 0x1100 JUMPI PUSH1 0x0 DUP1 REVERT JUMPDEST SWAP1 PUSH1 0x0 MSTORE PUSH1 0x20 PUSH1 0x0 KECCAK256 ADD PUSH1 0x0 SWAP2 POP SLOAD SWAP1 PUSH2 0x100 EXP SWAP1 DIV PUSH20 0xFFFFFFFFFFFFFFFFFFFFFFFFFFFFFFFFFFFFFFFF AND DUP2 JUMP JUMPDEST PUSH1 0x3 PUSH1 0x0 SWAP1 SLOAD SWAP1 PUSH2 0x100 EXP SWAP1 DIV PUSH20 0xFFFFFFFFFFFFFFFFFFFFFFFFFFFFFFFFFFFFFFFF AND PUSH20 0xFFFFFFFFFFFFFFFFFFFFFFFFFFFFFFFFFFFFFFFF AND CALLER PUSH20 0xFFFFFFFFFFFFFFFFFFFFFFFFFFFFFFFFFFFFFFFF AND EQ PUSH2 0x11BF JUMPI PUSH1 0x40 MLOAD PUSH32 0x8C379A000000000000000000000000000000000000000000000000000000000 DUP2 MSTORE PUSH1 0x4 ADD PUSH2 0x11B6 SWAP1 PUSH2 0x216B JUMP JUMPDEST PUSH1 0x40 MLOAD DUP1 SWAP2 SUB SWAP1 REVERT JUMPDEST DUP1 PUSH1 0xE DUP2 SWAP1 SSTORE POP POP JUMP JUMPDEST PUSH1 0xA SLOAD DUP2 JUMP JUMPDEST PUSH1 0x0 PUSH1 0x4 DUP1 SLOAD SWAP1 POP GT PUSH2 0x1217 JUMPI PUSH1 0x40 MLOAD PUSH32 0x8C379A000000000000000000000000000000000000000000000000000000000 DUP2 MSTORE PUSH1 0x4 ADD PUSH2 0x120E SWAP1 PUSH2 0x21D7 JUMP JUMPDEST PUSH1 0x40 MLOAD DUP1 SWAP2 SUB SWAP1 REVERT JUMPDEST PUSH1 0x0 PUSH1 0x4 DUP1 SLOAD SWAP1 POP DUP4 DUP4 PUSH1 0x0 DUP2 DUP2 LT PUSH2 0x1233 JUMPI PUSH2 0x1232 PUSH2 0x21F7 JUMP JUMPDEST JUMPDEST SWAP1 POP PUSH1 0x20 MUL ADD CALLDATALOAD PUSH2 0x1244 SWAP2 SWAP1 PUSH2 0x2255 JUMP JUMPDEST SWAP1 POP PUSH1 0x0 PUSH1 0x4 DUP3 DUP2 SLOAD DUP2 LT PUSH2 0x125C JUMPI PUSH2 0x125B PUSH2 0x21F7 JUMP JUMPDEST JUMPDEST SWAP1 PUSH1 0x0 MSTORE PUSH1 0x20 PUSH1 0x0 KECCAK256 ADD PUSH1 0x0 SWAP1 SLOAD SWAP1 PUSH2 0x100 EXP SWAP1 DIV PUSH20 0xFFFFFFFFFFFFFFFFFFFFFFFFFFFFFFFFFFFFFFFF AND SWAP1 POP PUSH1 0x0 SELFBALANCE SWAP1 POP DUP2 PUSH1 0x6 PUSH1 0x0 PUSH1 0x5 SLOAD DUP2 MSTORE PUSH1 0x20 ADD SWAP1 DUP2 MSTORE PUSH1 0x20 ADD PUSH1 0x0 KECCAK256 PUSH1 0x0 PUSH2 0x100 EXP DUP2 SLOAD DUP2 PUSH20 0xFFFFFFFFFFFFFFFFFFFFFFFFFFFFFFFFFFFFFFFF MUL NOT AND SWAP1 DUP4 PUSH20 0xFFFFFFFFFFFFFFFFFFFFFFFFFFFFFFFFFFFFFFFF AND MUL OR SWAP1 SSTORE POP PUSH1 0x0 PUSH1 0x5 SLOAD SWAP1 POP PUSH1 0x5 PUSH1 0x0 DUP2 SLOAD DUP1 SWAP3 SWAP2 SWAP1 PUSH2 0x12FC SWAP1 PUSH2 0x1FDA JUMP JUMPDEST SWAP2 SWAP1 POP SSTORE POP PUSH1 0x4 PUSH1 0x0 PUSH2 0x130F SWAP2 SWAP1 PUSH2 0x184E JUMP JUMPDEST TIMESTAMP PUSH1 0xC DUP2 SWAP1 SSTORE POP PUSH1 0x0 DUP4 PUSH20 0xFFFFFFFFFFFFFFFFFFFFFFFFFFFFFFFFFFFFFFFF AND DUP4 PUSH1 0x40 MLOAD PUSH2 0x133C SWAP1 PUSH2 0x22B7 JUMP JUMPDEST PUSH1 0x0 PUSH1 0x40 MLOAD DUP1 DUP4 SUB DUP2 DUP6 DUP8 GAS CALL SWAP3 POP POP POP RETURNDATASIZE DUP1 PUSH1 0x0 DUP2 EQ PUSH2 0x1379 JUMPI PUSH1 0x40 MLOAD SWAP2 POP PUSH1 0x1F NOT PUSH1 0x3F RETURNDATASIZE ADD AND DUP3 ADD PUSH1 0x40 MSTORE RETURNDATASIZE DUP3 MSTORE RETURNDATASIZE PUSH1 0x0 PUSH1 0x20 DUP5 ADD RETURNDATACOPY PUSH2 0x137E JUMP JUMPDEST PUSH1 0x60 SWAP2 POP JUMPDEST POP POP SWAP1 POP DUP1 PUSH2 0x13C2 JUMPI PUSH1 0x40 MLOAD PUSH32 0x8C379A000000000000000000000000000000000000000000000000000000000 DUP2 MSTORE PUSH1 0x4 ADD PUSH2 0x13B9 SWAP1 PUSH2 0x2318 JUMP JUMPDEST PUSH1 0x40 MLOAD DUP1 SWAP2 SUB SWAP1 REVERT JUMPDEST DUP4 PUSH20 0xFFFFFFFFFFFFFFFFFFFFFFFFFFFFFFFFFFFFFFFF AND PUSH32 0x7E57D825A2478CC8123A008D7D1E20C0F6E8CBCA89A7BC100C9B05ECB3698DEB DUP5 DUP5 PUSH1 0x40 MLOAD PUSH2 0x140A SWAP3 SWAP2 SWAP1 PUSH2 0x2338 JUMP JUMPDEST PUSH1 0x40 MLOAD DUP1 SWAP2 SUB SWAP1 LOG2 PUSH32 0xE194703C928E60D23BE81D1F5C372B39A5ADB98A7BA333DD9334414122F59E99 DUP3 PUSH1 0x40 MLOAD PUSH2 0x1441 SWAP2 SWAP1 PUSH2 0x19DA JUMP JUMPDEST PUSH1 0x40 MLOAD DUP1 SWAP2 SUB SWAP1 LOG1 PUSH32 0x1BBD97005F8F033B87044F2F354D3104F1730B26D30001E655B75782CE479771 PUSH1 0x5 SLOAD TIMESTAMP PUSH1 0x40 MLOAD PUSH2 0x147C SWAP3 SWAP2 SWAP1 PUSH2 0x2338 JUMP JUMPDEST PUSH1 0x40 MLOAD DUP1 SWAP2 SUB SWAP1 LOG1 POP POP POP POP POP POP POP POP JUMP JUMPDEST PUSH1 0x2 PUSH1 0x0 SWAP1 SLOAD SWAP1 PUSH2 0x100 EXP SWAP1 DIV PUSH20 0xFFFFFFFFFFFFFFFFFFFFFFFFFFFFFFFFFFFFFFFF AND PUSH20 0xFFFFFFFFFFFFFFFFFFFFFFFFFFFFFFFFFFFFFFFF AND PUSH4 0x9B1C385E PUSH1 0x40 MLOAD DUP1 PUSH1 0xC0 ADD PUSH1 0x40 MSTORE DUP1 PUSH1 0x8 SLOAD DUP2 MSTORE PUSH1 0x20 ADD PUSH1 0x7 SLOAD DUP2 MSTORE PUSH1 0x20 ADD PUSH1 0x9 PUSH1 0x4 SWAP1 SLOAD SWAP1 PUSH2 0x100 EXP SWAP1 DIV PUSH2 0xFFFF AND PUSH2 0xFFFF AND DUP2 MSTORE PUSH1 0x20 ADD PUSH1 0x9 PUSH1 0x0 SWAP1 SLOAD SWAP1 PUSH2 0x100 EXP SWAP1 DIV PUSH4 0xFFFFFFFF AND PUSH4 0xFFFFFFFF AND DUP2 MSTORE PUSH1 0x20 ADD PUSH1 0x9 PUSH1 0x6 SWAP1 SLOAD SWAP1 PUSH2 0x100 EXP SWAP1 DIV PUSH4 0xFFFFFFFF AND PUSH4 0xFFFFFFFF AND DUP2 MSTORE PUSH1 0x20 ADD PUSH2 0x1557 PUSH1 0x40 MLOAD DUP1 PUSH1 0x20 ADD PUSH1 0x40 MSTORE DUP1 PUSH1 0x0 ISZERO ISZERO DUP2 MSTORE POP PUSH2 0x17B6 JUMP JUMPDEST DUP2 MSTORE POP PUSH1 0x40 MLOAD DUP3 PUSH4 0xFFFFFFFF AND PUSH1 0xE0 SHL DUP2 MSTORE PUSH1 0x4 ADD PUSH2 0x1576 SWAP2 SWAP1 PUSH2 0x2470 JUMP JUMPDEST PUSH1 0x20 PUSH1 0x40 MLOAD DUP1 DUP4 SUB DUP2 PUSH1 0x0 DUP8 GAS CALL ISZERO DUP1 ISZERO PUSH2 0x1595 JUMPI RETURNDATASIZE PUSH1 0x0 DUP1 RETURNDATACOPY RETURNDATASIZE PUSH1 0x0 REVERT JUMPDEST POP POP POP POP PUSH1 0x40 MLOAD RETURNDATASIZE PUSH1 0x1F NOT PUSH1 0x1F DUP3 ADD AND DUP3 ADD DUP1 PUSH1 0x40 MSTORE POP DUP2 ADD SWAP1 PUSH2 0x15B9 SWAP2 SWAP1 PUSH2 0x24A7 JUMP JUMPDEST PUSH1 0xA DUP2 SWAP1 SSTORE POP PUSH32 0x9AC10FB18C93D33AD7B0A941897AEF048D0F8D30756684E82B4552BA12764D45 PUSH1 0xA SLOAD PUSH1 0x40 MLOAD PUSH2 0x15F0 SWAP2 SWAP1 PUSH2 0x19DA JUMP JUMPDEST PUSH1 0x40 MLOAD DUP1 SWAP2 SUB SWAP1 LOG1 JUMP JUMPDEST PUSH1 0x0 DUP1 SLOAD SWAP1 PUSH2 0x100 EXP SWAP1 DIV PUSH20 0xFFFFFFFFFFFFFFFFFFFFFFFFFFFFFFFFFFFFFFFF AND PUSH20 0xFFFFFFFFFFFFFFFFFFFFFFFFFFFFFFFFFFFFFFFF AND CALLER PUSH20 0xFFFFFFFFFFFFFFFFFFFFFFFFFFFFFFFFFFFFFFFF AND EQ PUSH2 0x1688 JUMPI PUSH1 0x40 MLOAD PUSH32 0x8C379A000000000000000000000000000000000000000000000000000000000 DUP2 MSTORE PUSH1 0x4 ADD PUSH2 0x167F SWAP1 PUSH2 0x2520 JUMP JUMPDEST PUSH1 0x40 MLOAD DUP1 SWAP2 SUB SWAP1 REVERT JUMPDEST JUMP JUMPDEST CALLER PUSH20 0xFFFFFFFFFFFFFFFFFFFFFFFFFFFFFFFFFFFFFFFF AND DUP2 PUSH20 0xFFFFFFFFFFFFFFFFFFFFFFFFFFFFFFFFFFFFFFFF AND SUB PUSH2 0x16F8 JUMPI PUSH1 0x40 MLOAD PUSH32 0x8C379A000000000000000000000000000000000000000000000000000000000 DUP2 MSTORE PUSH1 0x4 ADD PUSH2 0x16EF SWAP1 PUSH2 0x258C JUMP JUMPDEST PUSH1 0x40 MLOAD DUP1 SWAP2 SUB SWAP1 REVERT JUMPDEST DUP1 PUSH1 0x1 PUSH1 0x0 PUSH2 0x100 EXP DUP2 SLOAD DUP2 PUSH20 0xFFFFFFFFFFFFFFFFFFFFFFFFFFFFFFFFFFFFFFFF MUL NOT AND SWAP1 DUP4 PUSH20 0xFFFFFFFFFFFFFFFFFFFFFFFFFFFFFFFFFFFFFFFF AND MUL OR SWAP1 SSTORE POP DUP1 PUSH20 0xFFFFFFFFFFFFFFFFFFFFFFFFFFFFFFFFFFFFFFFF AND PUSH1 0x0 DUP1 SLOAD SWAP1 PUSH2 0x100 EXP SWAP1 DIV PUSH20 0xFFFFFFFFFFFFFFFFFFFFFFFFFFFFFFFFFFFFFFFF AND PUSH20 0xFFFFFFFFFFFFFFFFFFFFFFFFFFFFFFFFFFFFFFFF AND PUSH32 0xED8889F560326EB138920D842192F0EB3DD22B4F139C87A2C57538E05BAE1278 PUSH1 0x40 MLOAD PUSH1 0x40 MLOAD DUP1 SWAP2 SUB SWAP1 LOG3 POP JUMP JUMPDEST PUSH1 0x60 PUSH32 0x92FD13387C7FE7BEFBC38D303D6468778FB9731BC4583F17D92989C6FCFDEAAA DUP3 PUSH1 0x40 MLOAD PUSH1 0x24 ADD PUSH2 0x17EA SWAP2 SWAP1 PUSH2 0x25D7 JUMP JUMPDEST PUSH1 0x40 MLOAD PUSH1 0x20 DUP2 DUP4 SUB SUB DUP2 MSTORE SWAP1 PUSH1 0x40 MSTORE SWAP1 PUSH28 0xFFFFFFFFFFFFFFFFFFFFFFFFFFFFFFFFFFFFFFFFFFFFFFFFFFFFFFFF NOT AND PUSH1 0x20 DUP3 ADD DUP1 MLOAD PUSH28 0xFFFFFFFFFFFFFFFFFFFFFFFFFFFFFFFFFFFFFFFFFFFFFFFFFFFFFFFF DUP4 DUP2 DUP4 AND OR DUP4 MSTORE POP POP POP POP SWAP1 POP SWAP2 SWAP1 POP JUMP JUMPDEST POP DUP1 SLOAD PUSH1 0x0 DUP3 SSTORE SWAP1 PUSH1 0x0 MSTORE PUSH1 0x20 PUSH1 0x0 KECCAK256 SWAP1 DUP2 ADD SWAP1 PUSH2 0x186C SWAP2 SWAP1 PUSH2 0x186F JUMP JUMPDEST POP JUMP JUMPDEST JUMPDEST DUP1 DUP3 GT ISZERO PUSH2 0x1888 JUMPI PUSH1 0x0 DUP2 PUSH1 0x0 SWAP1 SSTORE POP PUSH1 0x1 ADD PUSH2 0x1870 JUMP JUMPDEST POP SWAP1 JUMP JUMPDEST PUSH1 0x0 DUP1 REVERT JUMPDEST PUSH1 0x0 DUP1 REVERT JUMPDEST PUSH1 0x0 DUP2 SWAP1 POP SWAP2 SWAP1 POP JUMP JUMPDEST PUSH2 0x18A9 DUP2 PUSH2 0x1896 JUMP JUMPDEST DUP2 EQ PUSH2 0x18B4 JUMPI PUSH1 0x0 DUP1 REVERT JUMPDEST POP JUMP JUMPDEST PUSH1 0x0 DUP2 CALLDATALOAD SWAP1 POP PUSH2 0x18C6 DUP2 PUSH2 0x18A0 JUMP JUMPDEST SWAP3 SWAP2 POP POP JUMP JUMPDEST PUSH1 0x0 DUP1 REVERT JUMPDEST PUSH1 0x0 DUP1 REVERT JUMPDEST PUSH1 0x0 DUP1 REVERT JUMPDEST PUSH1 0x0 DUP1 DUP4 PUSH1 0x1F DUP5 ADD SLT PUSH2 0x18F1 JUMPI PUSH2 0x18F0 PUSH2 0x18CC JUMP JUMPDEST JUMPDEST DUP3 CALLDATALOAD SWAP1 POP PUSH8 0xFFFFFFFFFFFFFFFF DUP2 GT ISZERO PUSH2 0x190E JUMPI PUSH2 0x190D PUSH2 0x18D1 JUMP JUMPDEST JUMPDEST PUSH1 0x20 DUP4 ADD SWAP2 POP DUP4 PUSH1 0x20 DUP3 MUL DUP4 ADD GT ISZERO PUSH2 0x192A JUMPI PUSH2 0x1929 PUSH2 0x18D6 JUMP JUMPDEST JUMPDEST SWAP3 POP SWAP3 SWAP1 POP JUMP JUMPDEST PUSH1 0x0 DUP1 PUSH1 0x0 PUSH1 0x40 DUP5 DUP7 SUB SLT ISZERO PUSH2 0x194A JUMPI PUSH2 0x1949 PUSH2 0x188C JUMP JUMPDEST JUMPDEST PUSH1 0x0 PUSH2 0x1958 DUP7 DUP3 DUP8 ADD PUSH2 0x18B7 JUMP JUMPDEST SWAP4 POP POP PUSH1 0x20 DUP5 ADD CALLDATALOAD PUSH8 0xFFFFFFFFFFFFFFFF DUP2 GT ISZERO PUSH2 0x1979 JUMPI PUSH2 0x1978 PUSH2 0x1891 JUMP JUMPDEST JUMPDEST PUSH2 0x1985 DUP7 DUP3 DUP8 ADD PUSH2 0x18DB JUMP JUMPDEST SWAP3 POP SWAP3 POP POP SWAP3 POP SWAP3 POP SWAP3 JUMP JUMPDEST PUSH1 0x0 PUSH4 0xFFFFFFFF DUP3 AND SWAP1 POP SWAP2 SWAP1 POP JUMP JUMPDEST PUSH2 0x19AA DUP2 PUSH2 0x1991 JUMP JUMPDEST DUP3 MSTORE POP POP JUMP JUMPDEST PUSH1 0x0 PUSH1 0x20 DUP3 ADD SWAP1 POP PUSH2 0x19C5 PUSH1 0x0 DUP4 ADD DUP5 PUSH2 0x19A1 JUMP JUMPDEST SWAP3 SWAP2 POP POP JUMP JUMPDEST PUSH2 0x19D4 DUP2 PUSH2 0x1896 JUMP JUMPDEST DUP3 MSTORE POP POP JUMP JUMPDEST PUSH1 0x0 PUSH1 0x20 DUP3 ADD SWAP1 POP PUSH2 0x19EF PUSH1 0x0 DUP4 ADD DUP5 PUSH2 0x19CB JUMP JUMPDEST SWAP3 SWAP2 POP POP JUMP JUMPDEST PUSH1 0x0 PUSH1 0x20 DUP3 DUP5 SUB SLT ISZERO PUSH2 0x1A0B JUMPI PUSH2 0x1A0A PUSH2 0x188C JUMP JUMPDEST JUMPDEST PUSH1 0x0 PUSH2 0x1A19 DUP5 DUP3 DUP6 ADD PUSH2 0x18B7 JUMP JUMPDEST SWAP2 POP POP SWAP3 SWAP2 POP POP JUMP JUMPDEST PUSH1 0x0 DUP1 DUP4 PUSH1 0x1F DUP5 ADD SLT PUSH2 0x1A38 JUMPI PUSH2 0x1A37 PUSH2 0x18CC JUMP JUMPDEST JUMPDEST DUP3 CALLDATALOAD SWAP1 POP PUSH8 0xFFFFFFFFFFFFFFFF DUP2 GT ISZERO PUSH2 0x1A55 JUMPI PUSH2 0x1A54 PUSH2 0x18D1 JUMP JUMPDEST JUMPDEST PUSH1 0x20 DUP4 ADD SWAP2 POP DUP4 PUSH1 0x1 DUP3 MUL DUP4 ADD GT ISZERO PUSH2 0x1A71 JUMPI PUSH2 0x1A70 PUSH2 0x18D6 JUMP JUMPDEST JUMPDEST SWAP3 POP SWAP3 SWAP1 POP JUMP JUMPDEST PUSH1 0x0 DUP1 PUSH1 0x20 DUP4 DUP6 SUB SLT ISZERO PUSH2 0x1A8F JUMPI PUSH2 0x1A8E PUSH2 0x188C JUMP JUMPDEST JUMPDEST PUSH1 0x0 DUP4 ADD CALLDATALOAD PUSH8 0xFFFFFFFFFFFFFFFF DUP2 GT ISZERO PUSH2 0x1AAD JUMPI PUSH2 0x1AAC PUSH2 0x1891 JUMP JUMPDEST JUMPDEST PUSH2 0x1AB9 DUP6 DUP3 DUP7 ADD PUSH2 0x1A22 JUMP JUMPDEST SWAP3 POP SWAP3 POP POP SWAP3 POP SWAP3 SWAP1 POP JUMP JUMPDEST PUSH1 0x0 DUP2 SWAP1 POP SWAP2 SWAP1 POP JUMP JUMPDEST PUSH2 0x1AD8 DUP2 PUSH2 0x1AC5 JUMP JUMPDEST DUP3 MSTORE POP POP JUMP JUMPDEST PUSH1 0x0 PUSH1 0x20 DUP3 ADD SWAP1 POP PUSH2 0x1AF3 PUSH1 0x0 DUP4 ADD DUP5 PUSH2 0x1ACF JUMP JUMPDEST SWAP3 SWAP2 POP POP JUMP JUMPDEST PUSH1 0x0 DUP2 ISZERO ISZERO SWAP1 POP SWAP2 SWAP1 POP JUMP JUMPDEST PUSH2 0x1B0E DUP2 PUSH2 0x1AF9 JUMP JUMPDEST DUP3 MSTORE POP POP JUMP JUMPDEST PUSH1 0x0 DUP2 MLOAD SWAP1 POP SWAP2 SWAP1 POP JUMP JUMPDEST PUSH1 0x0 DUP3 DUP3 MSTORE PUSH1 0x20 DUP3 ADD SWAP1 POP SWAP3 SWAP2 POP POP JUMP JUMPDEST PUSH1 0x0 JUMPDEST DUP4 DUP2 LT ISZERO PUSH2 0x1B4E JUMPI DUP1 DUP3 ADD MLOAD DUP2 DUP5 ADD MSTORE PUSH1 0x20 DUP2 ADD SWAP1 POP PUSH2 0x1B33 JUMP JUMPDEST PUSH1 0x0 DUP5 DUP5 ADD MSTORE POP POP POP POP JUMP JUMPDEST PUSH1 0x0 PUSH1 0x1F NOT PUSH1 0x1F DUP4 ADD AND SWAP1 POP SWAP2 SWAP1 POP JUMP JUMPDEST PUSH1 0x0 PUSH2 0x1B76 DUP3 PUSH2 0x1B14 JUMP JUMPDEST PUSH2 0x1B80 DUP2 DUP6 PUSH2 0x1B1F JUMP JUMPDEST SWAP4 POP PUSH2 0x1B90 DUP2 DUP6 PUSH1 0x20 DUP7 ADD PUSH2 0x1B30 JUMP JUMPDEST PUSH2 0x1B99 DUP2 PUSH2 0x1B5A JUMP JUMPDEST DUP5 ADD SWAP2 POP POP SWAP3 SWAP2 POP POP JUMP JUMPDEST PUSH1 0x0 PUSH1 0x40 DUP3 ADD SWAP1 POP PUSH2 0x1BB9 PUSH1 0x0 DUP4 ADD DUP6 PUSH2 0x1B05 JUMP JUMPDEST DUP2 DUP2 SUB PUSH1 0x20 DUP4 ADD MSTORE PUSH2 0x1BCB DUP2 DUP5 PUSH2 0x1B6B JUMP JUMPDEST SWAP1 POP SWAP4 SWAP3 POP POP POP JUMP JUMPDEST PUSH1 0x0 DUP2 MLOAD SWAP1 POP SWAP2 SWAP1 POP JUMP JUMPDEST PUSH1 0x0 DUP3 DUP3 MSTORE PUSH1 0x20 DUP3 ADD SWAP1 POP SWAP3 SWAP2 POP POP JUMP JUMPDEST PUSH1 0x0 DUP2 SWAP1 POP PUSH1 0x20 DUP3 ADD SWAP1 POP SWAP2 SWAP1 POP JUMP JUMPDEST PUSH1 0x0 PUSH20 0xFFFFFFFFFFFFFFFFFFFFFFFFFFFFFFFFFFFFFFFF DUP3 AND SWAP1 POP SWAP2 SWAP1 POP JUMP JUMPDEST PUSH1 0x0 PUSH2 0x1C2B DUP3 PUSH2 0x1C00 JUMP JUMPDEST SWAP1 POP SWAP2 SWAP1 POP JUMP JUMPDEST PUSH2 0x1C3B DUP2 PUSH2 0x1C20 JUMP JUMPDEST DUP3 MSTORE POP POP JUMP JUMPDEST PUSH1 0x0 PUSH2 0x1C4D DUP4 DUP4 PUSH2 0x1C32 JUMP JUMPDEST PUSH1 0x20 DUP4 ADD SWAP1 POP SWAP3 SWAP2 POP POP JUMP JUMPDEST PUSH1 0x0 PUSH1 0x20 DUP3 ADD SWAP1 POP SWAP2 SWAP1 POP JUMP JUMPDEST PUSH1 0x0 PUSH2 0x1C71 DUP3 PUSH2 0x1BD4 JUMP JUMPDEST PUSH2 0x1C7B DUP2 DUP6 PUSH2 0x1BDF JUMP JUMPDEST SWAP4 POP PUSH2 0x1C86 DUP4 PUSH2 0x1BF0 JUMP JUMPDEST DUP1 PUSH1 0x0 JUMPDEST DUP4 DUP2 LT ISZERO PUSH2 0x1CB7 JUMPI DUP2 MLOAD PUSH2 0x1C9E DUP9 DUP3 PUSH2 0x1C41 JUMP JUMPDEST SWAP8 POP PUSH2 0x1CA9 DUP4 PUSH2 0x1C59 JUMP JUMPDEST SWAP3 POP POP PUSH1 0x1 DUP2 ADD SWAP1 POP PUSH2 0x1C8A JUMP JUMPDEST POP DUP6 SWAP4 POP POP POP POP SWAP3 SWAP2 POP POP JUMP JUMPDEST PUSH1 0x0 PUSH1 0x20 DUP3 ADD SWAP1 POP DUP2 DUP2 SUB PUSH1 0x0 DUP4 ADD MSTORE PUSH2 0x1CDE DUP2 DUP5 PUSH2 0x1C66 JUMP JUMPDEST SWAP1 POP SWAP3 SWAP2 POP POP JUMP JUMPDEST PUSH1 0x0 PUSH2 0x1CF1 DUP3 PUSH2 0x1C00 JUMP JUMPDEST SWAP1 POP SWAP2 SWAP1 POP JUMP JUMPDEST PUSH2 0x1D01 DUP2 PUSH2 0x1CE6 JUMP JUMPDEST DUP3 MSTORE POP POP JUMP JUMPDEST PUSH1 0x0 PUSH1 0x20 DUP3 ADD SWAP1 POP PUSH2 0x1D1C PUSH1 0x0 DUP4 ADD DUP5 PUSH2 0x1CF8 JUMP JUMPDEST SWAP3 SWAP2 POP POP JUMP JUMPDEST PUSH2 0x1D2B DUP2 PUSH2 0x1CE6 JUMP JUMPDEST DUP2 EQ PUSH2 0x1D36 JUMPI PUSH1 0x0 DUP1 REVERT JUMPDEST POP JUMP JUMPDEST PUSH1 0x0 DUP2 CALLDATALOAD SWAP1 POP PUSH2 0x1D48 DUP2 PUSH2 0x1D22 JUMP JUMPDEST SWAP3 SWAP2 POP POP JUMP JUMPDEST PUSH1 0x0 PUSH1 0x20 DUP3 DUP5 SUB SLT ISZERO PUSH2 0x1D64 JUMPI PUSH2 0x1D63 PUSH2 0x188C JUMP JUMPDEST JUMPDEST PUSH1 0x0 PUSH2 0x1D72 DUP5 DUP3 DUP6 ADD PUSH2 0x1D39 JUMP JUMPDEST SWAP2 POP POP SWAP3 SWAP2 POP POP JUMP JUMPDEST PUSH1 0x0 DUP2 SWAP1 POP SWAP2 SWAP1 POP JUMP JUMPDEST PUSH1 0x0 PUSH2 0x1DA0 PUSH2 0x1D9B PUSH2 0x1D96 DUP5 PUSH2 0x1C00 JUMP JUMPDEST PUSH2 0x1D7B JUMP JUMPDEST PUSH2 0x1C00 JUMP JUMPDEST SWAP1 POP SWAP2 SWAP1 POP JUMP JUMPDEST PUSH1 0x0 PUSH2 0x1DB2 DUP3 PUSH2 0x1D85 JUMP JUMPDEST SWAP1 POP SWAP2 SWAP1 POP JUMP JUMPDEST PUSH1 0x0 PUSH2 0x1DC4 DUP3 PUSH2 0x1DA7 JUMP JUMPDEST SWAP1 POP SWAP2 SWAP1 POP JUMP JUMPDEST PUSH2 0x1DD4 DUP2 PUSH2 0x1DB9 JUMP JUMPDEST DUP3 MSTORE POP POP JUMP JUMPDEST PUSH1 0x0 PUSH1 0x20 DUP3 ADD SWAP1 POP PUSH2 0x1DEF PUSH1 0x0 DUP4 ADD DUP5 PUSH2 0x1DCB JUMP JUMPDEST SWAP3 SWAP2 POP POP JUMP JUMPDEST PUSH1 0x0 PUSH2 0xFFFF DUP3 AND SWAP1 POP SWAP2 SWAP1 POP JUMP JUMPDEST PUSH2 0x1E0C DUP2 PUSH2 0x1DF5 JUMP JUMPDEST DUP3 MSTORE POP POP JUMP JUMPDEST PUSH1 0x0 PUSH1 0x20 DUP3 ADD SWAP1 POP PUSH2 0x1E27 PUSH1 0x0 DUP4 ADD DUP5 PUSH2 0x1E03 JUMP JUMPDEST SWAP3 SWAP2 POP POP JUMP JUMPDEST PUSH2 0x1E36 DUP2 PUSH2 0x1C20 JUMP JUMPDEST DUP3 MSTORE POP POP JUMP JUMPDEST PUSH1 0x0 PUSH1 0x20 DUP3 ADD SWAP1 POP PUSH2 0x1E51 PUSH1 0x0 DUP4 ADD DUP5 PUSH2 0x1E2D JUMP JUMPDEST SWAP3 SWAP2 POP POP JUMP JUMPDEST PUSH1 0x0 PUSH1 0x40 DUP3 ADD SWAP1 POP PUSH2 0x1E6C PUSH1 0x0 DUP4 ADD DUP6 PUSH2 0x1CF8 JUMP JUMPDEST PUSH2 0x1E79 PUSH1 0x20 DUP4 ADD DUP5 PUSH2 0x1CF8 JUMP JUMPDEST SWAP4 SWAP3 POP POP POP JUMP JUMPDEST PUSH1 0x0 DUP3 DUP3 MSTORE PUSH1 0x20 DUP3 ADD SWAP1 POP SWAP3 SWAP2 POP POP JUMP JUMPDEST PUSH32 0x4D75737420627579206174206C65617374206F6E65207469636B657400000000 PUSH1 0x0 DUP3 ADD MSTORE POP JUMP JUMPDEST PUSH1 0x0 PUSH2 0x1EC7 PUSH1 0x1C DUP4 PUSH2 0x1E80 JUMP JUMPDEST SWAP2 POP PUSH2 0x1ED2 DUP3 PUSH2 0x1E91 JUMP JUMPDEST PUSH1 0x20 DUP3 ADD SWAP1 POP SWAP2 SWAP1 POP JUMP JUMPDEST PUSH1 0x0 PUSH1 0x20 DUP3 ADD SWAP1 POP DUP2 DUP2 SUB PUSH1 0x0 DUP4 ADD MSTORE PUSH2 0x1EF6 DUP2 PUSH2 0x1EBA JUMP JUMPDEST SWAP1 POP SWAP2 SWAP1 POP JUMP JUMPDEST PUSH32 0x4E487B7100000000000000000000000000000000000000000000000000000000 PUSH1 0x0 MSTORE PUSH1 0x11 PUSH1 0x4 MSTORE PUSH1 0x24 PUSH1 0x0 REVERT JUMPDEST PUSH1 0x0 PUSH2 0x1F37 DUP3 PUSH2 0x1896 JUMP JUMPDEST SWAP2 POP PUSH2 0x1F42 DUP4 PUSH2 0x1896 JUMP JUMPDEST SWAP3 POP DUP3 DUP3 MUL PUSH2 0x1F50 DUP2 PUSH2 0x1896 JUMP JUMPDEST SWAP2 POP DUP3 DUP3 DIV DUP5 EQ DUP4 ISZERO OR PUSH2 0x1F67 JUMPI PUSH2 0x1F66 PUSH2 0x1EFD JUMP JUMPDEST JUMPDEST POP SWAP3 SWAP2 POP POP JUMP JUMPDEST PUSH32 0x496E636F72726563742045544820616D6F756E7420666F72207469636B657473 PUSH1 0x0 DUP3 ADD MSTORE POP JUMP JUMPDEST PUSH1 0x0 PUSH2 0x1FA4 PUSH1 0x20 DUP4 PUSH2 0x1E80 JUMP JUMPDEST SWAP2 POP PUSH2 0x1FAF DUP3 PUSH2 0x1F6E JUMP JUMPDEST PUSH1 0x20 DUP3 ADD SWAP1 POP SWAP2 SWAP1 POP JUMP JUMPDEST PUSH1 0x0 PUSH1 0x20 DUP3 ADD SWAP1 POP DUP2 DUP2 SUB PUSH1 0x0 DUP4 ADD MSTORE PUSH2 0x1FD3 DUP2 PUSH2 0x1F97 JUMP JUMPDEST SWAP1 POP SWAP2 SWAP1 POP JUMP JUMPDEST PUSH1 0x0 PUSH2 0x1FE5 DUP3 PUSH2 0x1896 JUMP JUMPDEST SWAP2 POP PUSH32 0xFFFFFFFFFFFFFFFFFFFFFFFFFFFFFFFFFFFFFFFFFFFFFFFFFFFFFFFFFFFFFFFF DUP3 SUB PUSH2 0x2017 JUMPI PUSH2 0x2016 PUSH2 0x1EFD JUMP JUMPDEST JUMPDEST PUSH1 0x1 DUP3 ADD SWAP1 POP SWAP2 SWAP1 POP JUMP JUMPDEST PUSH1 0x0 PUSH2 0x202D DUP3 PUSH2 0x1896 JUMP JUMPDEST SWAP2 POP PUSH2 0x2038 DUP4 PUSH2 0x1896 JUMP JUMPDEST SWAP3 POP DUP3 DUP3 SUB SWAP1 POP DUP2 DUP2 GT ISZERO PUSH2 0x2050 JUMPI PUSH2 0x204F PUSH2 0x1EFD JUMP JUMPDEST JUMPDEST SWAP3 SWAP2 POP POP JUMP JUMPDEST PUSH32 0x4D7573742062652070726F706F736564206F776E657200000000000000000000 PUSH1 0x0 DUP3 ADD MSTORE POP JUMP JUMPDEST PUSH1 0x0 PUSH2 0x208C PUSH1 0x16 DUP4 PUSH2 0x1E80 JUMP JUMPDEST SWAP2 POP PUSH2 0x2097 DUP3 PUSH2 0x2056 JUMP JUMPDEST PUSH1 0x20 DUP3 ADD SWAP1 POP SWAP2 SWAP1 POP JUMP JUMPDEST PUSH1 0x0 PUSH1 0x20 DUP3 ADD SWAP1 POP DUP2 DUP2 SUB PUSH1 0x0 DUP4 ADD MSTORE PUSH2 0x20BB DUP2 PUSH2 0x207F JUMP JUMPDEST SWAP1 POP SWAP2 SWAP1 POP JUMP JUMPDEST PUSH1 0x0 PUSH1 0x60 DUP3 ADD SWAP1 POP PUSH2 0x20D7 PUSH1 0x0 DUP4 ADD DUP7 PUSH2 0x1CF8 JUMP JUMPDEST PUSH2 0x20E4 PUSH1 0x20 DUP4 ADD DUP6 PUSH2 0x1CF8 JUMP JUMPDEST PUSH2 0x20F1 PUSH1 0x40 DUP4 ADD DUP5 PUSH2 0x1CF8 JUMP JUMPDEST SWAP5 SWAP4 POP POP POP POP JUMP JUMPDEST PUSH32 0x4F6E6C79206F776E65722063616E2063616C6C20746869732066756E6374696F PUSH1 0x0 DUP3 ADD MSTORE PUSH32 0x6E00000000000000000000000000000000000000000000000000000000000000 PUSH1 0x20 DUP3 ADD MSTORE POP JUMP JUMPDEST PUSH1 0x0 PUSH2 0x2155 PUSH1 0x21 DUP4 PUSH2 0x1E80 JUMP JUMPDEST SWAP2 POP PUSH2 0x2160 DUP3 PUSH2 0x20F9 JUMP JUMPDEST PUSH1 0x40 DUP3 ADD SWAP1 POP SWAP2 SWAP1 POP JUMP JUMPDEST PUSH1 0x0 PUSH1 0x20 DUP3 ADD SWAP1 POP DUP2 DUP2 SUB PUSH1 0x0 DUP4 ADD MSTORE PUSH2 0x2184 DUP2 PUSH2 0x2148 JUMP JUMPDEST SWAP1 POP SWAP2 SWAP1 POP JUMP JUMPDEST PUSH32 0x4E6F20706C617965727320656E74657265640000000000000000000000000000 PUSH1 0x0 DUP3 ADD MSTORE POP JUMP JUMPDEST PUSH1 0x0 PUSH2 0x21C1 PUSH1 0x12 DUP4 PUSH2 0x1E80 JUMP JUMPDEST SWAP2 POP PUSH2 0x21CC DUP3 PUSH2 0x218B JUMP JUMPDEST PUSH1 0x20 DUP3 ADD SWAP1 POP SWAP2 SWAP1 POP JUMP JUMPDEST PUSH1 0x0 PUSH1 0x20 DUP3 ADD SWAP1 POP DUP2 DUP2 SUB PUSH1 0x0 DUP4 ADD MSTORE PUSH2 0x21F0 DUP2 PUSH2 0x21B4 JUMP JUMPDEST SWAP1 POP SWAP2 SWAP1 POP JUMP JUMPDEST PUSH32 0x4E487B7100000000000000000000000000000000000000000000000000000000 PUSH1 0x0 MSTORE PUSH1 0x32 PUSH1 0x4 MSTORE PUSH1 0x24 PUSH1 0x0 REVERT JUMPDEST PUSH32 0x4E487B7100000000000000000000000000000000000000000000000000000000 PUSH1 0x0 MSTORE PUSH1 0x12 PUSH1 0x4 MSTORE PUSH1 0x24 PUSH1 0x0 REVERT JUMPDEST PUSH1 0x0 PUSH2 0x2260 DUP3 PUSH2 0x1896 JUMP JUMPDEST SWAP2 POP PUSH2 0x226B DUP4 PUSH2 0x1896 JUMP JUMPDEST SWAP3 POP DUP3 PUSH2 0x227B JUMPI PUSH2 0x227A PUSH2 0x2226 JUMP JUMPDEST JUMPDEST DUP3 DUP3 MOD SWAP1 POP SWAP3 SWAP2 POP POP JUMP JUMPDEST PUSH1 0x0 DUP2 SWAP1 POP SWAP3 SWAP2 POP POP JUMP JUMPDEST POP JUMP JUMPDEST PUSH1 0x0 PUSH2 0x22A1 PUSH1 0x0 DUP4 PUSH2 0x2286 JUMP JUMPDEST SWAP2 POP PUSH2 0x22AC DUP3 PUSH2 0x2291 JUMP JUMPDEST PUSH1 0x0 DUP3 ADD SWAP1 POP SWAP2 SWAP1 POP JUMP JUMPDEST PUSH1 0x0 PUSH2 0x22C2 DUP3 PUSH2 0x2294 JUMP JUMPDEST SWAP2 POP DUP2 SWAP1 POP SWAP2 SWAP1 POP JUMP JUMPDEST PUSH32 0x5472616E73666572206661696C65640000000000000000000000000000000000 PUSH1 0x0 DUP3 ADD MSTORE POP JUMP JUMPDEST PUSH1 0x0 PUSH2 0x2302 PUSH1 0xF DUP4 PUSH2 0x1E80 JUMP JUMPDEST SWAP2 POP PUSH2 0x230D DUP3 PUSH2 0x22CC JUMP JUMPDEST PUSH1 0x20 DUP3 ADD SWAP1 POP SWAP2 SWAP1 POP JUMP JUMPDEST PUSH1 0x0 PUSH1 0x20 DUP3 ADD SWAP1 POP DUP2 DUP2 SUB PUSH1 0x0 DUP4 ADD MSTORE PUSH2 0x2331 DUP2 PUSH2 0x22F5 JUMP JUMPDEST SWAP1 POP SWAP2 SWAP1 POP JUMP JUMPDEST PUSH1 0x0 PUSH1 0x40 DUP3 ADD SWAP1 POP PUSH2 0x234D PUSH1 0x0 DUP4 ADD DUP6 PUSH2 0x19CB JUMP JUMPDEST PUSH2 0x235A PUSH1 0x20 DUP4 ADD DUP5 PUSH2 0x19CB JUMP JUMPDEST SWAP4 SWAP3 POP POP POP JUMP JUMPDEST PUSH2 0x236A DUP2 PUSH2 0x1AC5 JUMP JUMPDEST DUP3 MSTORE POP POP JUMP JUMPDEST PUSH2 0x2379 DUP2 PUSH2 0x1896 JUMP JUMPDEST DUP3 MSTORE POP POP JUMP JUMPDEST PUSH2 0x2388 DUP2 PUSH2 0x1DF5 JUMP JUMPDEST DUP3 MSTORE POP POP JUMP JUMPDEST PUSH2 0x2397 DUP2 PUSH2 0x1991 JUMP JUMPDEST DUP3 MSTORE POP POP JUMP JUMPDEST PUSH1 0x0 DUP3 DUP3 MSTORE PUSH1 0x20 DUP3 ADD SWAP1 POP SWAP3 SWAP2 POP POP JUMP JUMPDEST PUSH1 0x0 PUSH2 0x23B9 DUP3 PUSH2 0x1B14 JUMP JUMPDEST PUSH2 0x23C3 DUP2 DUP6 PUSH2 0x239D JUMP JUMPDEST SWAP4 POP PUSH2 0x23D3 DUP2 DUP6 PUSH1 0x20 DUP7 ADD PUSH2 0x1B30 JUMP JUMPDEST PUSH2 0x23DC DUP2 PUSH2 0x1B5A JUMP JUMPDEST DUP5 ADD SWAP2 POP POP SWAP3 SWAP2 POP POP JUMP JUMPDEST PUSH1 0x0 PUSH1 0xC0 DUP4 ADD PUSH1 0x0 DUP4 ADD MLOAD PUSH2 0x23FF PUSH1 0x0 DUP7 ADD DUP3 PUSH2 0x2361 JUMP JUMPDEST POP PUSH1 0x20 DUP4 ADD MLOAD PUSH2 0x2412 PUSH1 0x20 DUP7 ADD DUP3 PUSH2 0x2370 JUMP JUMPDEST POP PUSH1 0x40 DUP4 ADD MLOAD PUSH2 0x2425 PUSH1 0x40 DUP7 ADD DUP3 PUSH2 0x237F JUMP JUMPDEST POP PUSH1 0x60 DUP4 ADD MLOAD PUSH2 0x2438 PUSH1 0x60 DUP7 ADD DUP3 PUSH2 0x238E JUMP JUMPDEST POP PUSH1 0x80 DUP4 ADD MLOAD PUSH2 0x244B PUSH1 0x80 DUP7 ADD DUP3 PUSH2 0x238E JUMP JUMPDEST POP PUSH1 0xA0 DUP4 ADD MLOAD DUP5 DUP3 SUB PUSH1 0xA0 DUP7 ADD MSTORE PUSH2 0x2463 DUP3 DUP3 PUSH2 0x23AE JUMP JUMPDEST SWAP2 POP POP DUP1 SWAP2 POP POP SWAP3 SWAP2 POP POP JUMP JUMPDEST PUSH1 0x0 PUSH1 0x20 DUP3 ADD SWAP1 POP DUP2 DUP2 SUB PUSH1 0x0 DUP4 ADD MSTORE PUSH2 0x248A DUP2 DUP5 PUSH2 0x23E7 JUMP JUMPDEST SWAP1 POP SWAP3 SWAP2 POP POP JUMP JUMPDEST PUSH1 0x0 DUP2 MLOAD SWAP1 POP PUSH2 0x24A1 DUP2 PUSH2 0x18A0 JUMP JUMPDEST SWAP3 SWAP2 POP POP JUMP JUMPDEST PUSH1 0x0 PUSH1 0x20 DUP3 DUP5 SUB SLT ISZERO PUSH2 0x24BD JUMPI PUSH2 0x24BC PUSH2 0x188C JUMP JUMPDEST JUMPDEST PUSH1 0x0 PUSH2 0x24CB DUP5 DUP3 DUP6 ADD PUSH2 0x2492 JUMP JUMPDEST SWAP2 POP POP SWAP3 SWAP2 POP POP JUMP JUMPDEST PUSH32 0x4F6E6C792063616C6C61626C65206279206F776E657200000000000000000000 PUSH1 0x0 DUP3 ADD MSTORE POP JUMP JUMPDEST PUSH1 0x0 PUSH2 0x250A PUSH1 0x16 DUP4 PUSH2 0x1E80 JUMP JUMPDEST SWAP2 POP PUSH2 0x2515 DUP3 PUSH2 0x24D4 JUMP JUMPDEST PUSH1 0x20 DUP3 ADD SWAP1 POP SWAP2 SWAP1 POP JUMP JUMPDEST PUSH1 0x0 PUSH1 0x20 DUP3 ADD SWAP1 POP DUP2 DUP2 SUB PUSH1 0x0 DUP4 ADD MSTORE PUSH2 0x2539 DUP2 PUSH2 0x24FD JUMP JUMPDEST SWAP1 POP SWAP2 SWAP1 POP JUMP JUMPDEST PUSH32 0x43616E6E6F74207472616E7366657220746F2073656C66000000000000000000 PUSH1 0x0 DUP3 ADD MSTORE POP JUMP JUMPDEST PUSH1 0x0 PUSH2 0x2576 PUSH1 0x17 DUP4 PUSH2 0x1E80 JUMP JUMPDEST SWAP2 POP PUSH2 0x2581 DUP3 PUSH2 0x2540 JUMP JUMPDEST PUSH1 0x20 DUP3 ADD SWAP1 POP SWAP2 SWAP1 POP JUMP JUMPDEST PUSH1 0x0 PUSH1 0x20 DUP3 ADD SWAP1 POP DUP2 DUP2 SUB PUSH1 0x0 DUP4 ADD MSTORE PUSH2 0x25A5 DUP2 PUSH2 0x2569 JUMP JUMPDEST SWAP1 POP SWAP2 SWAP1 POP JUMP JUMPDEST PUSH2 0x25B5 DUP2 PUSH2 0x1AF9 JUMP JUMPDEST DUP3 MSTORE POP POP JUMP JUMPDEST PUSH1 0x20 DUP3 ADD PUSH1 0x0 DUP3 ADD MLOAD PUSH2 0x25D1 PUSH1 0x0 DUP6 ADD DUP3 PUSH2 0x25AC JUMP JUMPDEST POP POP POP POP JUMP JUMPDEST PUSH1 0x0 PUSH1 0x20 DUP3 ADD SWAP1 POP PUSH2 0x25EC PUSH1 0x0 DUP4 ADD DUP5 PUSH2 0x25BB JUMP JUMPDEST SWAP3 SWAP2 POP POP JUMP INVALID LOG2 PUSH5 0x6970667358 0x22 SLT KECCAK256 PUSH25 0xEDDD5CF14A2F1B7A27F1E13786D688DD89005E9A3ADFC3985D GT MSTORE8 EQ 0xD4 ORIGIN PUSH27 0x64736F6C6343000813003300000000000000000000000000000000 "},"methodIdentifiers":{"ENTRY_FEE()":"f6d361cc","acceptOwnership()":"79ba5097","callbackGasLimit()":"24f74697","checkUpkeep(bytes)":"6e04ff0d","enterLottery(uint256)":"3fd43098","getPlayers()":"8b5b9ccc","i_owner()":"dba6335f","interval()":"947a36fb","jackpotThreshold()":"3ad202b5","keyHash()":"61728f39","lastRequestId()":"fc2a88c3","lastTimeStamp()":"3f3b3b27","lotteryId()":"e580f47b","lotteryWinners(uint256)":"d7a1a5b9","manualPickWinner()":"f3d7323b","minPlayers()":"2770c895","numWords()":"7ccfd7fc","owner()":"8da5cb5b","performUpkeep(bytes)":"4585e33b","players(uint256)":"f71d96cb","rawFulfillRandomWords(uint256,uint256[])":"1fe543e3","requestConfirmations()":"b0fb162f","s_subscriptionId()":"8ac00021","s_vrfCoordinator()":"9eccacf6","setCoordinator(address)":"8ea98117","transferOwnership(address)":"f2fde38b","updateInterval(uint256)":"d0f07926","updateJackpotThreshold(uint256)":"f9a6cec7","updateMinPlayers(uint256)":"8f4fafc8"}}}}}